:020000040000FA
:10000000982C002095010000AF010000B101000014
:1000100000000000000000000000000000000000E0
:10002000000000000000000000000000B30100001C
:100030000000000000000000B5010000B701000052
:10004000C5240000F1250000B9010000B90100003D
:10005000B9010000000000001D0500003103000090
:10006000B9010000B9010000B9010000B9010000A8
:10007000B9010000B9010000B9010000B901000098
:10008000B90100001D270000B9010000B9010000FE
:10009000252F0000952F0000B9010000B9010000D4
:1000A000B9010000B90100000000000000000000DC
:1000B0000000000000000000000000000000000040
:1000C0000348854600F022F900480047E950000047
:1000D000982C0020401E00BF00BF00BF00BF00BF23
:1000E00000BF00BF00BF00BF00BF00BF00BFF1D115
:1000F00070470000401E00BF00BF00BF00BF00BF30
:1001000000BF00BF00BF00BF00BF00BF00BFF1D1F4
:1001100070470000401E00BF00BF00BF00BF00BF0F
:1001200000BF00BF00BF00BF00BF00BF00BFF1D1D4
:1001300070470000401E00BF00BF00BF00BF00BFEF
:1001400000BF00BF00BF00BF00BF00BF00BFF1D1B4
:1001500070470000401E00BF00BF00BF00BF00BFCF
:1001600000BF00BF00BF00BF00BF00BF00BFF1D194
:1001700070470000401E00BF00BF00BF00BF00BFAF
:1001800000BF00BF00BF00BF00BF00BF00BFF1D174
:10019000704700000321094802680A4302600848CA
:1001A00002680A4302600748804707480047FEE7A5
:1001B000FEE7FEE7FEE7FEE7FEE70000240500405D
:1001C00054050040D92F0000C100000070B5002484
:1001D0002546002801DA01244042002901DA0125E0
:1001E000494200F05BF8AC4200D04042002C00D005
:1001F000494270BDF0B51FB40646002082B00546E6
:100200004024019100901BE0019922460F463046A0
:1002100000F06AF8049A059B801A994110D31046A1
:100220001946224600F050F8361A8F4101972246AF
:1002300001200021009F00F047F838184D41009040
:100240002046641E0028DFDC019B009829463246C8
:1002500007B0F0BD03460B439B0703D009E008C974
:10026000121F08C0042AFAD203E00B780370401C66
:10027000491C521EF9D27047D2B201E00270401CF4
:10028000491EFBD270470022F6E710B513460A4616
:1002900004461946FFF7F0FF204610BD30B50B4667
:1002A000014600202022012409E00D46D5409D4250
:1002B00005D31D469540491B2546954040191546D6
:1002C000521E002DF1DC30BD10B5202A04DB0146A2
:1002D000203A9140002010BD914020239C1A0346F3
:1002E000E3401943904010BD10B5202A04DB0846B6
:1002F000203AD040002110BD0B46D340D0402024EE
:10030000A21A91400843194610BD0000064C012571
:10031000064E05E0E36807CC2B430C3C98471034AD
:10032000B442F7D3FFF7D0FEB8800000D8800000B9
:100330000EB51D48C06800281CD1FF20013005F013
:10034000CDF9012005F0D2F900BF0020174908605F
:1003500000BF01216846017000BF1448806801B2E7
:100360006846818001201049887408460168684603
:10037000884718E003F078F9002814D0012005F030
:10038000B5F90020694608700748C0680190064822
:10039000017C684601810120034988740846016890
:1003A0006846884700BF0EBD5C22002000750040F3
:1003B00038B51348006800901249684605F048FABD
:1003C000044600BF2546002D04D000BF284603F098
:1003D000DDF900BF00BF0C4805F024FA00200B49EE
:1003E00009680870012009490968487008480749E8
:1003F00009684860074805490968886038BD0000F9
:1004000080800000B13500003C0000204400002046
:10041000FD36000011370000002008490968087007
:100420000120064909684870054804490968486080
:10043000044802490968886070470000680000208D
:10044000413D0000213A000070B51748174909687E
:1004500048601748154909688860164813490968B3
:10046000C860154811490968086114480F490968AE
:10047000486105F0BDFA044600BF2546002D04D0B2
:1004800000BF284603F082F900BF00BF0749096892
:100490004868804705490968C86880470349096872
:1004A0004869804770BD00002F07000070000020E1
:1004B00039070000C7120000D1120000012D000012
:1004C00010B50D2005F0AAFF0E2005F0E7FF00BFD4
:1004D0000620FFF70FFE00BF03210E2005F02FFFBF
:1004E00000BF0620FFF706FE00BF0E2005F0AEFF9E
:1004F000C4B20D2005F0D2FF00BF0620FFF7FAFDC1
:1005000000BF0D2005F08AFF0E2005F03FFF012CF3
:1005100001D1002010BD0120FCE70000F0B58BB038
:10052000002700200A90FF200130099001250024B7
:1005300016E0099806F016F800280BD000BF7048A6
:1005400040682840002805D0099806F003F838468E
:10055000284307466D000998001D80B20990641C6D
:10056000042CE6D3FF207D3005F0FCFF00280AD0E4
:10057000FF207D3005F0EEFF0120C007074300BFDC
:10058000604800690A903807000F00282AD001252A
:10059000002425E02846384000281FD000BF5A48D4
:1005A000512109014018A10040581F2109020840AB
:1005B000000A089000BF5448512109014018A100C9
:1005C0004058032109040840000C0790204603F01E
:1005D000F9FA064607990898B04700BF6D00641CF9
:1005E000042CD7D3F80FC00700287DD00020089036
:1005F0000790401E069000BF00200890002464E091
:100600004248005D0590C0210598884306463F4852
:100610000057401C002857D00120B04006990840E0
:10062000002851D0C0210598084080110490304620
:1006300003F00CFB029003F0C5FA03900398002826
:1006400002D1049803283ED10120B0400546049809
:10065000032802D107982843079000BF0520000710
:10066000072109024018B10040580321090408403D
:10067000000C02900A982840002802D00298022814
:1006800006D00A98284000281CD10298032819D1C6
:10069000049803280FD10298022801D1032000E01A
:1006A000022001903046019905F094FE0898401C04
:1006B000C0B2089000BF0398002803D03046039AC8
:1006C0000499904700BF00BF641C072C98D308987A
:1006D00000280ED000BF0B49096908460A998842D4
:1006E00003D10021089103E008E00A9007990691E0
:1006F00000BF0898002800D07EE700BF0BB0F0BD17
:1007000000630040000500500060004054220020BB
:10071000002000BF08E002210522120707231B0268
:10072000D2188300D150401C2028F4D3704710B554
:10073000002005F035F910BD10B505F017F910BD12
:1007400010B50B2005F022FE0D2005F01FFE0E2037
:1007500005F01CFE0B2005F061FE0D2005F09EFE4D
:100760000E2005F09BFE10BD10B50E2005F096FE84
:1007700000BF0620FFF7BEFC00BF0D2005F08EFE77
:1007800000BF0620FFF7B6FC00BF0E2005F046FEB6
:1007900000BF0620FFF7AEFC00BF00BF0620FFF73A
:1007A000A9FC00BF10BD10B50E2005F037FE00BF3C
:1007B0000620FFF79FFC00BF0D2005F06FFE00BF75
:1007C0000620FFF797FC00BF0E2005F067FE00BF74
:1007D0000620FFF78FFC00BF00BF0620FFF78AFC52
:1007E00000BF10BD01460878C0221040C02801D1CA
:1007F000002070471020FCE710B50721042005F009
:1008000090FE00211E2005F0B4FD002203211046B9
:1008100005F07AFE03F0F4FD00200C490968087029
:100820000A490968487009490968887007490968D0
:10083000C8700748054909684860064803490968BF
:10084000C860054801490968886010BD2C00002077
:100850005D0800001D4D0000DD4C000070B5002457
:100860000025A04800684078012874D100209D49E7
:10087000096848709B4800688078002804D00128E7
:100880002ED0022868D168E0002005F035FE05462C
:1008900000220721042005F037FE002005F02CFE81
:1008A00004460721042005F03CFE2807000FF02134
:1008B000214008438C4908701E2005F0DBFD00280C
:1008C00005D11E2088490870002088490870012041
:1008D00084490968887086490968086D8047FEE088
:1008E000002005F009FE054600220721042005F03E
:1008F0000BFE002005F000FE04460721042005F051
:1009000010FE2807000FF0212140084379490870A4
:100910001E2005F0AFFD002807D11E207549087084
:1009200072480078401C71490870724800786E491E
:100930000978884204D102206A490968887009E070
:100940006B490968486D80470020664909688870CE
:1009500065490870C3E0C3E0B7E0002005F0CCFDB6
:10096000054600220721042005F0CEFD002005F0F9
:10097000C3FD04460721042005F0D3FD2807000F1E
:10098000F021214008435B4908701E2005F072FDEC
:1009900000280FD11E205749087054480078401C89
:1009A0005249087008460078282803D1524909683E
:1009B000886880474F4800784B49097888427DD045
:1009C00049480078472845D010DC1E2865D006DC51
:1009D00017284ED01B2833D01D2863D121E02728AB
:1009E0003DD02B2827D02D285CD115E087282CD08E
:1009F00006DC4B281AD04D2809D04E2852D147E0AA
:100A00008B283BD08D282FD08E284BD13BE0012066
:100A100034490968C87046E0022032490968C87044
:100A200041E003202F490968C8703CE004202D49AB
:100A30000968C87037E005202A490968C87032E0A3
:100A4000062028490968C8702DE007202549096853
:100A5000C87028E0082023490968C87023E00920ED
:100A600020490968C8701EE00F201E490968C87037
:100A700019E010201B490968C87014E00C201949BE
:100A80000968C8700FE00E2016490968C8700AE0AE
:100A90000D2014490968C87005E00B201149096848
:100AA000C87000BF00BF00BF01200E490968087070
:100AB0000F490968486D8047002000E004E00949BB
:100AC000096888700849087009E00020054909682C
:100AD000887004490968C8700349087000BF00BFE6
:100AE00070BD00002C0000203000002032000020EB
:100AF00060000020310000206C0000200348807B53
:100B0000FE2108400149887370470000F00300206F
:100B100010B50A220121002004F0C6FB0A2203219D
:100B2000022004F0C1FB0A220521042004F0BCFBD2
:100B30000A220721062004F0B7FB0A220921082017
:100B400004F0B2FB0A220B21104604F0ADFB0A228E
:100B50000D210C2004F0A8FB10BD00002249497CA7
:100B6000F7221140204A51741146097CF1221140AC
:100B70001D4A11741146097C022211431A4A11744C
:100B8000002806D0012805D002280AD003281CD14D
:100B90000EE027E01449097C04221143124A117423
:100BA00020E01149097C0C2211430F4A117419E00D
:100BB0000D49097C0C2211430B4A11741146497CE2
:100BC00008221143084A51740CE00749097C0C22A1
:100BD0001143054A11741146497C08221143024A07
:100BE000517400BF00BF7047F00300200348807BB2
:100BF000012108430149887370470000F003002079
:100C0000C107C90F002906D03149897B0822114349
:100C10002F4A917305E02E49897BF72211402C4A17
:100C2000917302210140022906D12949097B08223A
:100C30001143274A117305E02549097BF72211402A
:100C4000234A117304210140042906D12049897ADD
:100C5000082211431E4A917205E01D49897AF72244
:100C600011401B4A917208210140082906D11849F8
:100C7000097A08221143164A117205E01449097ACB
:100C8000F7221140124A117210210140102906D199
:100C90000F498979082211430D4A917105E00C49E9
:100CA0008979F72211400A4A9171202101402029B7
:100CB00006D10749097908221143054A117105E057
:100CC00003490979F7221140014A11717047000068
:100CD000F003002010B5022000F056FA002000F0CA
:100CE00053FA0A2005F05EFB082005F05BFB0920A3
:100CF00005F058FB0A2005F0D9FB082005F0D6FBCB
:100D0000092005F0D3FB10BD704770B504460D46B1
:100D1000230002F0F8FB082F050B11171D23292FC4
:100D20002A460121002004F0BFFA24E02A460321CC
:100D3000022004F0B9FA1EE02A460521042004F03E
:100D4000B3FA18E02A460721062004F0ADFA12E0B3
:100D50002A460921082004F0A7FA0CE02A460B21B4
:100D60000A2004F0A1FA06E02A460D210C2004F026
:100D70009BFA00E000BF00BF70BD000000B51F4936
:100D8000C97BF02211401D4AD1731146097C012212
:100D900011431A4A1174030002F0B5FB05040B124B
:100DA000192027001549097C01221143134A1174A7
:100DB00022E01249C97B08221143104AD1731BE07B
:100DC0000E49C97B0C2211430C4AD17314E00B4924
:100DD000C97B0E221143094AD1730DE00749C97B33
:100DE0000F221143054AD17306E00449097C012210
:100DF0001143024A117400BF00BF00BDF003002080
:100E000070B504460A212046FFF7E0F9CDB2294625
:100E10000120FFF77AFF70BD002804D001280FD011
:100E2000022827D119E01549897BFD221140134A78
:100E300091731146897BFB221140104A91731AE08D
:100E40000E49897BFB2211400C4A91731146897B24
:100E500002221143094A91730DE00849897BFD2262
:100E60001140064A91731146897B04221143034ABB
:100E7000917300E000BF00BF70470000F003002046
:100E800070B504460A212046FFF7A0F9C5B22946ED
:100E90000420FFF73AFF0A212046FFF797F9CDB269
:100EA00029460320FFF731FF70BD000010B5012077
:100EB00000F0BAF8084909688869804700200649A7
:100EC00009680870022000F05FF9002000F05CF96A
:100ED000002000F0A9F810BD0C00002070B50446F9
:100EE00064212046FFF772F9C5B229460720FFF7B3
:100EF0000CFF0A212046FFF769F906460A21FFF791
:100F000065F9CDB229460620FFF7FFFE0A212046EB
:100F1000FFF75CF9CDB229460520FFF7F6FE70BD5C
:100F2000002804D001280FD0022827D119E0154944
:100F30000978F7221140134A117011468978F72277
:100F40001140104A91701AE00E490978F7221140B9
:100F50000C4A11701146897808221143094A917090
:100F60000DE008498978F7221140064A9170114630
:100F7000097808221143034A117000E000BF00BF46
:100F800070470000F003002010B50D48006800789D
:100F9000002813D00B480068007800280ED00120EC
:100FA00000F042F8084A1221002000F063F9002006
:100FB00000F03AF8002003490968087010BD0000ED
:100FC000340000200C000020F003002010B50A209F
:100FD00005F0E8F9082005F0E5F9092005F0E2F947
:100FE0000A2005F063FA082005F060FA092005F0F0
:100FF0005DFA0520FFF78EF8292000F0C5F81820CB
:1010000000F0C2F8012000F0BFF8032000F0BCF8A7
:101010000120044909680870024909684869804745
:1010200010BD00000C00002010B50446002C09D0B3
:101030000A2005F0B7F9082005F0B4F9092005F0F9
:10104000B1F908E00A2005F06EF9082005F06BF907
:10105000092005F068F910BD10B50A2005F0A2F9C5
:10106000082005F09FF9092005F09CF90A2005F0F9
:101070001DFA082005F01AFA092005F017FA0A20CF
:10108000FFF748F8292000F07FF8182000F07CF8DE
:10109000012000F079F82B4A1221002000F0EAF834
:1010A000032000F071F801202749096808702748DB
:1010B0002549096808622648234909684860254887
:1010C00021490968886024481F490968C860234885
:1010D0001D490968086122480068C06A1A49096800
:1010E00048611F480068006B1749096888611C48FF
:1010F0000068406B14490968C8611A4812490968B8
:101100004862194810490968C86218480E490968B8
:10111000086317480C490968886216480A49096833
:1011200048631548084909688863144806490968EE
:10113000C8631348044909680864124802490968E9
:10114000486410BDF00300200C000020890F00004F
:10115000090D0000D50C0000AD0E0000CD0F000001
:10116000600000205D0B0000190E0000210F000040
:101170007D0D0000010C0000DD0E0000810E00005E
:10118000010E0000110B000010B504460A2005F006
:101190004DF900BF00BF00BF00BF00220321802027
:1011A00000F022F800220821204600F01DF8092056
:1011B00005F03CF900BF00BF00BF00BF082005F0EC
:1011C00035F900BF00BF00BF00BF092005F06EF970
:1011D00000BF00BF00BF00BF0A2005F067F900BFD5
:1011E00000BF00BF00BF10BDF8B505460E4617464C
:1011F000002F20D100241BE0092005F017F900BFC3
:1012000000BF00BF00BF802028400146082005F035
:1012100065F900BF00BF00BF00BF092005F046F917
:1012200000BF00BF00BF00BF6806050E601CC4B24F
:10123000B442E1DB1DE0002419E0092005F0F6F8D6
:1012400000BF00BF00BF00BFE907C90F082005F0BD
:1012500045F900BF00BF00BF00BF092005F026F917
:1012600000BF00BF00BF00BF6D10601CC4B2B4421D
:10127000E3DBF8BDF8B505460E4617460A2005F033
:10128000D5F800BF00BF00BF00BF00220321A0208F
:10129000FFF7AAFFA906080E00220621FFF7A4FF08
:1012A000002406E0385D01220421FFF79DFF601C49
:1012B000C4B2B442F6DB0A2005F0F8F800BF00BF64
:1012C00000BF00BFF8BD10B5002004F0D3FB10BD77
:1012D00010B504F0B5FB10BD0FB4FCB506464B9D30
:1012E0004A9C0020019000902080F007C00F002849
:1012F00010D045480078002801D1012000E00020EE
:101300004149087008460078022108432288511C90
:101310002180A8543C48007808210840002804D0C7
:101320002288511C00982180A854022030400028B7
:1013300005D008A801782288501C2080A9540420D8
:101340003040002805D008A841782288501C208011
:10135000A95408203040002805D008A881782288A8
:10136000501C2080A95410203040002805D008A827
:10137000C1782288501C2080A954202030400028A9
:1013800005D008A801792288501C2080A95440204B
:101390003040002813D0002001900BE009A8013054
:1013A0000199415C2288501C2080A9540198401C5E
:1013B000C0B2019008A8017901988142EEDC80203A
:1013C0003040002805D049A801782288501C208090
:1013D000A954FF2001303040002811D02178284640
:1013E00000F03CF807462288501C2080AF54384655
:1013F000FF210902084001122288501C2080A954B4
:10140000FCBC08BC04B018470000002070B50446BE
:10141000002510480068A04211D100F035F80546BB
:1014200009200003854201D0012000E000200028AF
:1014300000D00CE0084807490860012070BD05484D
:1014400000680549884201D10120F7E700BF00206C
:10145000F4E7000008000020EFBEADDE78B50446DA
:101460000D460848009000BF2678641C6946304647
:1014700000F094FD681EC0B2051EF5D168460088D4
:1014800078BD00006363000038B516A000680090C6
:101490000321684600F0D0FC44B2002C01D00120AA
:1014A00000E00020002800D01AE000F021FA44B249
:1014B000002C01D0012000E00020002800D00FE027
:1014C0000321684600F0CAFA44B2002C01D0012082
:1014D00000E00020002800D002E00920000338BD11
:1014E0001120FCE7C2E0B400FEB506460024F2225B
:1014F0002146641C684642542146641C465402211D
:10150000FFF7ACFF07462146641C68464754FF209E
:101510000002384002122146641C684642542146AB
:1015200000F08AFC0546002D01D0012000E00020DB
:10153000002800D01EE000F0DBF90546002D01D0A8
:10154000012000E00020002800D013E005216846BB
:1015500000F084FA0546002D01D0012000E00020B3
:10156000002800D006E00521684600F0B5F80546E1
:101570002846FEBD1120FCE738B526200090012149
:10158000684600F059FC0446002C02D109200003F3
:1015900038BD2046FCE710B5044600F089FA00F09B
:1015A000DFFB22460721082000F0C2F910BD10B56C
:1015B000FFF7C6F800F008F800F0B7F8032000F0D5
:1015C000C3F8FFF761FF10BD002000210A4A117027
:1015D00051709170D1701171002208490A7000BFDA
:1015E00006E007490A5C0449491D0A54411CC8B277
:1015F000FF28F6DB70470000DC000020E00100203F
:10160000E1010020F8B505460F4600247D26F600CE
:10161000FFF7CDFF00F089F8044607E0012004F051
:10162000B1F800F082F80446701E86B2092000036B
:10163000844201D0002EF1D109200003844201D060
:101640000020F8BD00F034FA04460920000384426B
:1016500001D0012000E00020002800D038E000F098
:10166000A9FA044609200003844201D0012000E0C9
:101670000020002800D02BE02A463946002000F048
:10168000BDF909210903884214D1687A0002A97AB8
:10169000084310490880FFF7F7FE044609200003BD
:1016A000844201D0012000E00020002800D00FE09B
:1016B0000120C6E7FFF7E8FE044609200003844244
:1016C00001D0012000E00020002800D000E000BF91
:1016D0000020B6E70400002070B504460D46002641
:1016E000002D04D029462046FFF7B8FE0646002EFE
:1016F00009D1281F205C0002FF2109020840E91ED1
:10170000615C084370BD002605212046FFF7A6FE58
:101710000646002E01D01220F4E760780002FF2177
:1017200009020840A1780843ECE738B55220009040
:101730000121684600F080FB0446002C02D10920FC
:10174000000338BD2046FCE730B585B004460020D4
:101750000090019002900390052C02DD142005B04A
:1017600030BD00F0A5F900F0FBFA04AA0121042025
:1017700000F0DEF86946087CF02108402043049020
:1017800000F0EEFA6A461021032000F019FC04AACA
:101790000121042000F084FB05462846DFE711B54F
:1017A00085B0002001900290039004906846007D6F
:1017B000002806D06846007D012802D0142006B01B
:1017C00010BD00F075F900F0CBFA01AA102103203A
:1017D00000F0F6FB05AA0121022000F061FB04469F
:1017E0002046ECE730B585B004460020009001901B
:1017F00002900390052C02DD142005B030BD00F0EE
:1018000057F900F0ADFA04AA0121042000F090F885
:101810006846007C0007000F21010843C1B2049113
:1018200000F09EFA6A461021032000F0C9FB04AACA
:101830000121042000F034FB05462846DDE70000C6
:10184000F8B505460E4600247D27FF0025480068B0
:10185000254988423DD12548864203D1FFF765FFDF
:10186000044611E0FFF788FE044607E0012003F07C
:1018700089FFFFF781FE0446781E87B20920000326
:10188000844201D0002FF1D109200003844201D00D
:101890000020F8BD00F00CF9044609200003844242
:1018A00001D0012000E00020002800D018E02846E8
:1018B00000F0ECF9044609200003844201D0012025
:1018C00000E00020002800D00AE006480560012062
:1018D000DFE704480068A84201D10120D9E700BF32
:1018E0000020D6E708000020EFBEADDEFFFF0000BD
:1018F00070B50E4C00250520FEF7ECFB00BFFEF78F
:1019000033FFAC2001F0AEFDFEF7DAFD0546FEF731
:101910004AFF002D03D1601E80B2041EEFDC002CB4
:1019200001DD002070BD00BF1120FBE7FF0F0000AC
:10193000F7B5FFB085B006460C462E4F00202E4965
:101940000870B0204870FF200002304000128870FC
:10195000CE70C81DFD30047083A8F9220C31409769
:101960003F906846FEF776FCFF220632224941A8E6
:10197000FEF770FCFF20A03041A90EC9FFF7ACFCB8
:1019800080A88089C1B2384600F056FA0546002D7D
:1019900001D0012000E00020002800D027E0FFF760
:1019A000A7FF0546002D01D0012000E000200028FF
:1019B00000D01CE0601DC1B2384600F04FF805466B
:1019C000002D01D0012000E00020002800D00EE012
:1019D000601DC1B23846FFF77FFE05462246791CDE
:1019E0008698FEF737FC28467FB008B0F0BD11207E
:1019F000FAE70000E0020020DC000020F8B506460F
:101A00000C461746F62C20DD00BF3A46F62130463C
:101A1000FFF78EFF05463046F63086B2F637204691
:101A2000F63884B2F62C03DD092000038542ECD0A1
:101A30000920000385420ED1002C0CD0E1B23A46B9
:101A40003046FFF775FF054605E0E1B23A463046FD
:101A5000FFF76EFF05462846F8BD0000F8B50546BD
:101A60000E46124F0024FEF77FFEAD2001F0FAFC77
:101A700005E03846791E8FB2002800D112E0FEF74B
:101A80001FFD0028F5D0002406E001F009FA2855D2
:101A900001F084FA601CC4B2B442F6DBFEF783FEA8
:101AA0000020F8BDFEF77FFE1120FAE7FF070000D7
:101AB000F0B5FFB08AB00025384E05208890072782
:101AC00037A103C98791869000208590012080026C
:101AD0008490002034490870A4204870FF21090236
:101AE000849808400012304988708498C87008466D
:101AF000077100BF06E086A8415D2B48401D415597
:101B0000681CC5B2BD42F6DB28488599017083A8E0
:101B1000F92225490C3140963F906846FEF79AFB22
:101B2000FF220632204941A8FEF794FB204841A934
:101B30000EC9FFF7D1FB80A88089C1B2304600F002
:101B40007BF90446002C01D0012000E00020002891
:101B500000D020E0FFF7CCFE0446002C01D001208D
:101B600000E00020002800D015E030468899FFF7FB
:101B700075FF0446002C01D0012000E00020002861
:101B800000D008E030468899FFF7A6FD04462046BD
:101B90007FB00AB0F0BD1120FAE70000E00200209B
:101BA000D276000085010100DC000020E001002069
:101BB000FF010000F0B5FFB088B0314E05208690DF
:101BC000022085900C252F4F00202F490870A4205B
:101BD0004870FF2000022840001288700846C57037
:101BE00085980871FF200002384001122648417193
:101BF000877184A8F92224490C3140963F906846A9
:101C0000FEF728FBFF2206321F4942A8FEF722FBFF
:101C1000FF20803042A90EC9FFF75EFB80A8008A32
:101C2000C1B2304600F008F90446002C01D0012072
:101C300000E00020002800D020E0FFF759FE044615
:101C4000002C01D0012000E00020002800D015E089
:101C500030468699FFF702FF0446002C01D0012090
:101C600000E00020002800D008E030468699FFF709
:101C700033FD044620467FB008B0F0BD1120FAE7DE
:101C8000E002002003E10000DC000020F0B5FFB01E
:101C900088B00546304F05208690022085900C269E
:101CA00000202E490870A4204870FF200002304018
:101CB000001288700846C67085980871FF200002DF
:101CC0002840011225484171857184A8F9222349D1
:101CD0000C3140973F906846FEF7BCFAFF2206326F
:101CE0001E4942A8FEF7B6FAFF20803042A90EC96D
:101CF000FFF7F2FA80A8008AC1B2384600F09CF8DB
:101D00000446002C01D0012000E00020002800D073
:101D100020E0FFF7EDFD0446002C01D0012000E09B
:101D20000020002800D015E038468699FFF796FE7F
:101D30000446002C01D0012000E00020002800D043
:101D400008E038468699FFF7C7FC044620467FB076
:101D500008B0F0BD1120FAE7E0020020DC0000200E
:101D6000F0B5FFB088B0314E0520869002208590F6
:101D70000C252F4F00202F490870A4204870FF2009
:101D800000022840001288700846C57085980871C6
:101D9000FF2000023840011226484171877184A853
:101DA000F92224490C3140963F906846FEF752FADA
:101DB000FF2206321F4942A8FEF74CFAFF2080306E
:101DC00042A90EC9FFF788FA80A8008AC1B230463E
:101DD00000F032F80446002C01D0012000E0002081
:101DE000002800D020E0FFF783FD0446002C01D03E
:101DF000012000E00020002800D015E03046869940
:101E0000FFF72CFE0446002C01D0012000E000204A
:101E1000002800D008E030468699FFF75DFC0446B4
:101E200020467FB008B0F0BD1120FAE7E0020020A4
:101E300001E10000DC000020F8B505460E46174F12
:101E40000024FEF791FCAC2001F00CFB05E03846C5
:101E5000791E8FB2002800D11CE0FEF731FB00286C
:101E6000F5D0002410E0285D01F0FCFA0B4F05E0EE
:101E70003846791E8FB2002800D10BE0FEF720FB18
:101E80000028F5D0601CC4B2B442ECDBFEF78BFC3A
:101E90000020F8BDFEF787FC1120FAE7FF0F0000D5
:101EA000F7B5FFB087B006460F463A488590002543
:101EB000002039490870D6204870FF2000023040C9
:101EC00000128870CE700846077100BF06E088983F
:101ED000415D3148401D4155681CC5B2BD42F6DB2D
:101EE00084A98598F9223F9140902B490C3168468E
:101EF000FEF7B0F9FF220632274942A8FEF7AAF9F9
:101F0000FF20803042A90EC9FFF7E6F980A8008AB9
:101F1000C1B28598FFF790FF0446002C01D0012044
:101F200000E00020002800D031E0FFF7E1FC04468B
:101F3000002C01D0012000E00020002800D026E085
:101F400005218598FFF78AFD0446002C01D0012069
:101F500000E00020002800D019E08598FEF742FC40
:101F600000280BD104218598FFF7B6FB12280AD070
:101F700085994878FFF7B8FA044604E0052185986A
:101F8000FFF7AAFB044620467FB00AB0F0BD11203F
:101F9000FAE70000E0020020DC000020024608789A
:101FA000424010015040C2B208880012130258404B
:101FB000D30058401311584008800888704700002B
:101FC000F7B5FFB087B005460C464348859000261C
:101FD0000027032D03DD14207FB00AB0F0BD002CD4
:101FE00003D0102C01D01420F6E700203B490870E4
:101FF00020204870FF200002284000128870CD7019
:1020000008460471102C21D1002706E08898C15D94
:102010003248401DC155781CC7B2A742F6DB84A9DF
:102020008598F9223F9140902C490C316846FEF783
:1020300011F9FF220632294942A8FEF70BF9FF20C9
:10204000803042A90EC9FFF747F915E084A98598A9
:10205000F9223F91409021490C316846FEF7FAF889
:10206000FF2206321D4942A8FEF7F4F8FF20403057
:1020700042A90EC9FFF730F980A8008AC1B285983D
:10208000FFF7DAFE0646002E01D0012000E0002016
:10209000002800D01EE0FFF72BFC0646002E01D0E2
:1020A000012000E00020002800D013E005218598E1
:1020B000FFF7D4FC0646002E01D0012000E00020EE
:1020C000002800D006E005218598FFF705FB0646AD
:1020D000304681E711207FE7E0020020DC0000208D
:1020E00070B5044600250026224602210020FFF795
:1020F00085FC05460920000385420AD120780602A6
:1021000060780643B01C81B222460020FFF776FCBF
:10211000054609200003854201D1012070BD002041
:10212000FCE7000010B501F037F9034801F084F92D
:10213000FFF7AAF910BD0000D4080020C206D20E95
:1021400001219140014A11607047000080E200E0E7
:10215000C206D20E01219140014A11607047000071
:1021600080E200E0C206D20E01219140014A1160D6
:102170007047000080E100E0C206D20E01219140CC
:10218000014A11607047000000E100E0C206D20E73
:1021900001219140014A11607047000000E100E018
:1021A000C206D20E01219140014A11607047000021
:1021B00000E200E0C206D20E01219140014A116006
:1021C0007047000000E200E010B5002819DA1A4A52
:1021D00003071B0F083B9B089B00D2588307DC0EAC
:1021E000FF23A3409A438B071B0E8407E40EA340F2
:1021F0001A43114B0407240F083CA408A4001A51E9
:1022000018E00E4A03231B02D21883089B00D25801
:102210008307DC0EFF23A3409A438B071B0E840722
:10222000E40EA3401A43054B032424021B1984081F
:10223000A4001A5110BD00001CED00E000E100E018
:1022400010B5002819DA1A4A03071B0F083B9B0830
:102250009B00D2588307DC0EFF23A3409A438B07D1
:102260001B0E8407E40EA3401A43114B0407240FEE
:10227000083CA408A4001A5118E00E4A03231B02CC
:10228000D21883089B00D2588307DC0EFF23A3409B
:102290009A438B071B0E8407E40EA3401A43054B99
:1022A000032424021B198408A4001A5110BD000045
:1022B0001CED00E000E100E010B5002819DA1A4A30
:1022C00003071B0F083B9B089B00D2588307DC0EBB
:1022D000FF23A3409A438B071B0E8407E40EA34001
:1022E0001A43114B0407240F083CA408A4001A51F8
:1022F00018E00E4A03231B02D21883089B00D25811
:102300008307DC0EFF23A3409A438B071B0E840731
:10231000E40EA3401A43054B032424021B1984082E
:10232000A4001A5110BD00001CED00E000E100E027
:1023300000213F48417581740175C1743D48C078E2
:102340003D4908703B48007948703A4840798870A8
:1023500038488079C87039488079394908703748D9
:10236000C179007A0A22504309183448407A64221D
:102370005043081833490880304880783249087043
:102380002E48C07848702D48007988702B484079D5
:10239000C8705A202D490870274800784870264890
:1023A00041782A488170244881782848C1702248A1
:1023B000C17826480171002024494871CA21244867
:1023C000C1706120234908701C48807848701B4800
:1023D000C078887019480079C87018484079087129
:1023E0001548007848711448407888711248807800
:1023F000C8711148C0780872002048728872C8728B
:10240000FF20087348730020887361211148E03071
:10241000C17600211B30417281720121C172FF21FE
:102420000173417300218173C173212101747047CD
:10243000B50F00205400002048000020D4080020E0
:1024400050000020520000204C000020CD0B002046
:10245000CD0C00209E060020154880791549087093
:102460001348C179007A0A22504309181048407A6B
:10247000642250430818104908800D4880780F499D
:1024800008700B48C078487009480079887008487F
:102490004079C87006488078094948700448C07877
:1024A000887003480079C870014840790871704706
:1024B000D408002050000020520000204C000020D2
:1024C0009E06002010B5FF20013003F01BF9002804
:1024D0000ED0FF20013003F020F9012003F036F97F
:1024E00001202949487200212748001D01F014FCF1
:1024F000FF20053003F006F900280ED0FF2005303C
:1025000003F00BF9022003F021F901201E49887223
:1025100001211D48103001F0FFFBFF20113003F0B6
:10252000F1F800280AD0FF20113003F0F6F810204F
:1025300003F00CF91448143003F032FAFF200D3088
:1025400003F0E0F800281ED0FF200D3003F0E5F87E
:10255000082003F0FBF803F009FA0B48203000785C
:10256000042801D1032000E002200446002106488F
:10257000203001702038C069002803D00248C169AA
:102580002046884700BF10BD70220020022012495B
:102590000968087000201049096848700E490968E8
:1025A00088700D490968C8700B490968C8800B48D4
:1025B0000949096888600A4807490968C8600948E4
:1025C00005490968086108480349096848610748DE
:1025D00001490968886170476C000020A16D000006
:1025E000156E00004D6E0000656E0000C97500009C
:1025F00010B51B480068002808D01A484068C0077A
:10260000C00F002802D00020154908601448C06897
:1026100000280FD01348406808210840002809D03E
:1026200000200F49C86010480068002802D00E48FA
:10263000006880470A48006900280FD009484068B0
:1026400010210840002809D00020054908610748EA
:102650000068002802D005480068804710BD0000CF
:102660000011004000130040A8000020A40000203A
:1026700070B504F069FC044600BF2546002D04D067
:1026800000BF284601F082F800BF00BF00201B49B0
:1026900009680870194909684870184909688870FC
:1026A0000320164909688880642014490968C88095
:1026B0001420124909680881FF202D300F4909684C
:1026C00048810F480D490968C8600E480B490968E0
:1026D00008610D480949096848610C4807490968BB
:1026E00088610B4805490968C8610A4803490968B7
:1026F0000862094801490968486270BD3400002039
:1027000005700000F16F0000896500003D55000074
:1027100011560000995600007956000010B50020AF
:10272000074908600021064841608160C1600020BF
:10273000034940390860486005F05CFA10BD0000AC
:102740004011014010B51B2003F078FE1A2003F061
:10275000B5FE00BF0520FDF7EDFC00BF03211A20E8
:1027600003F0FAFD00BF0520FDF7E4FC00BF1B20CD
:1027700003F0A4FE00BF0520FDF7DCFC00BF1A201B
:1027800003F06EFEC4B21B2003F058FE00BF05200C
:10279000FDF7D0FC00BF1A2003F010FE204610BD4C
:1027A00010B51A2003F08AFE1B2003F087FE00BF3D
:1027B0000520FDF7BFFC00BF1A2003F03FFE00BF5D
:1027C0000520FDF7B7FC00BF1B2003F037FE00BF5C
:1027D0000520FDF7AFFC00BF10BD10B51B2003F0B6
:1027E0002DFE1A2003F02AFE00BF0520FDF7A2FCF3
:1027F00000BF1B2003F062FE00BF0520FDF79AFC1E
:1028000000BF1A2003F05AFE00BF0520FDF792FC1E
:1028100000BF10BD7CB500241B2003F04FFE1A2022
:1028200003F04CFE1B2003F0C9FD1A2003F0C6FD87
:1028300000210D2000F013FA01207C49096808707E
:102840007B487A49096888617A487849096848610B
:102850007948764909688860784874490968C86089
:102860007748724909684860764870490968086184
:1028700004F0D6FB744880790007000F7349087094
:1028800071488079F02108400011714908706E4844
:1028900040790007000F6F4908706B484079F021BC
:1028A000084000116C490870674800790007000F64
:1028B0006A49087064480079F021084000116849AD
:1028C0000870614880780007000F664908705E480C
:1028D0008078F02108400011634908705A48407818
:1028E0000007000F6149087057484078F021084000
:1028F00000115F490870544800780007000F5D49D7
:10290000087051480078F021084000115A490870B9
:1029100057480078012800DD012453480078032837
:1029200000DD01244E480078052800DD01244A48D6
:102930000078052800DD012445480078052800DDE1
:102940000124002C70D0002410203F49087006207C
:102950004870152088700220C8701020087100206F
:102960004871887188790A21FDF730FC05013649E4
:1029700088790A21FDF72AFC0D4368460570324923
:1029800048790A21FDF722FC05012F4948790A21DF
:10299000FDF71CFC0D43684645702B4908790A2158
:1029A000FDF714FC0501284908790A21FDF70EFC02
:1029B0000D4368468570244988780A21FDF706FC96
:1029C0000501214988780A21FDF700FC0D4368467E
:1029D000C5701D48C178684601711B4948780A21B5
:1029E000FDF7F4FB0501184948780A21FDF7EEFBD5
:1029F00028460843C1B268464171134908780A2144
:102A0000FDF7E4FB05460A21FDF7E0FB0D010E4949
:102A100008780A21FDF7DAFB0D4368468571072225
:102A20006946022000F0F2F87CBD0000240000207E
:102A30009F2E00009D2E0000B52D0000492D0000A6
:102A40006D2E0000217000001C00002010000020EE
:102A500011000020120000201300002014000020AC
:102A6000150000201600002017000020180000208C
:102A7000190000201A0000201B000020F8B50646AF
:102A8000012700241A2003F019FD00BF0520FDF7DF
:102A900051FB00BF03211A2003F05EFC002525E056
:102AA0001B2003F0CBFC00BF0520FDF743FB00BF5C
:102AB00000BF0520FDF73EFB00BF1B2003F0FEFC1E
:102AC0001A2003F0CDFCC7B2002F02D0012004432E
:102AD00001E0FE20044000BF0520FDF72BFB00BFF6
:102AE000072D01DA6006040E681CC5B2082DD7DB7D
:102AF0001B2003F0A3FC1A2003F060FC304600F01A
:102B000059F82046F8BDF8B506460D461746002090
:102B100000900024FFF744FEA22000F0BEF8002839
:102B200009D0304600F0B9F8002802D0012000900A
:102B300001E0002000900098002837D0FFF730FE19
:102B4000A32000F0AAF800282ED0002421E00020C5
:102B5000FFF794FF2855A019042803D1285D4021D0
:102B600088432855A019052803D1285D40218843B2
:102B70002855A019062803D1285DF8218843285537
:102B8000A019072803D1285D602188432855601CBF
:102B9000C4B2781EA042DADC0120FFF76FFF791E75
:102BA00068540120009001E000200090FFF715FE1E
:102BB0000098F8BD10B504461B2003F03FFC00BF91
:102BC0000520FDF7B7FA00BF1A2003F0F7FB002C31
:102BD00003D01A2003F072FC02E01A2003F02EFC4E
:102BE00000BF0520FDF7A6FA00BF1B2003F066FC1E
:102BF00000BF0520FDF79EFA00BF1B2003F01EFC5E
:102C000000BF0520FDF796FA00BF10BDF8B50746D6
:102C10000D46164600200090FFF7C2FDA22000F0EE
:102C20003CF8002817D0384600F037F8002810D0BC
:102C3000002408E0285D00F030F8002801D1009061
:102C400003E0601CC4B2B442F4DB00BF012000907A
:102C500001E000200090FFF7C0FD0098F8BD70B5BE
:102C600005460C460026FFF79BFDA22000F015F854
:102C700000280ED0284600F010F8002808D0204682
:102C800000F00BF8002801D0012602E0002600E049
:102C90000026FFF7A2FD304670BD70B50446002542
:102CA00000BF23E01B2003F0C9FB00BF0520FDF798
:102CB00041FA00BF80202040802803D11A2003F071
:102CC000FDFB02E01A2003F0B9FB00BF0520FDF771
:102CD00031FA00BF1B2003F0F1FB00BF0520FDF718
:102CE00029FA00BF6006040E681CC5B2082DD9DBA6
:102CF000FFF728FD002801D0002070BD0120FCE76F
:102D000010B50249282002F0FBFD10BD112D000076
:102D100010B50446002C06D0012C05D0022C04D09E
:102D2000032C0CD106E00BE00AE00649282002F053
:102D3000E7FD05E00349282002F0E2FD00E000BFC6
:102D400000BF10BD112D0000134880780007000F50
:102D50001249087010488078F0210840001110498D
:102D600008700D4840780007000F0E4908700A48A7
:102D70004078F021084000110B490870064800789F
:102D80000007000F0949087003480078F021084047
:102D900000110749087070471C0000201600002031
:102DA0001700002018000020190000201A00002041
:102DB0001B00002010B5254880790007000F24492A
:102DC000087022488079F0210840001121490870DC
:102DD0001E4840790007000F1F4908701B484079C2
:102DE000F021084000111D490870184800790007BB
:102DF000000F1B49087015480079F02108400011A8
:102E00001849087018480078002805D0FDF7EEFE34
:102E100000201549087004E0FDF770FE01201249FA
:102E20000870104801780420FDF76FFF0C48017806
:102E30000320FDF76AFF094801780220FDF765FFCE
:102E4000054801780120FDF760FF10BD1C0000203F
:102E500010000020110000201200002013000020AC
:102E600014000020150000202800002010B509489B
:102E70000068007800280CD0074800680078002817
:102E800007D104F0CDF8FFF795FF0020014909684C
:102E9000087010BD240000206800002070477047B3
:102EA00070B5012600240E2003F0F8FA00BF0620BA
:102EB000FDF720F900BF03210E2003F040FA0025A2
:102EC00025E00D2003F0AAFA00BF0620FDF712F955
:102ED00000BF00BF0620FDF70DF900BF0D2003F075
:102EE000DDFA0E2003F0B2FAC6B2002E02D00120A5
:102EF000044301E0FE20044000BF0620FDF7FAF87D
:102F000000BF072D01DA6006040E681CC5B2082D4B
:102F1000D7DB0D2003F082FA0E2003F037FA2046AB
:102F200070BD00003EB519480068019002A802F08B
:102F30006FFF0446002C27D115480068002823D0D5
:102F40000298C007C00F002806D00020694608700C
:102F500068460F49096888470221029808400028FE
:102F600006D0012069460870684609490968884703
:102F7000042102980840002806D002206946087003
:102F800068460349096888473EBD00009C00002050
:102F90007C00002010B504F041FD10BD10B50D20DF
:102FA00003F03CFA00BF0620FDF7A4F800BF0E2096
:102FB00003F034FA00BF0620FDF79CF800BF0D2097
:102FC00003F06CFA00BF0620FDF794F800BF0D2057
:102FD00003F024FA10BD000010B501F09FF900289D
:102FE00005D0104810494860C8131049886101F0A5
:102FF00079F9002802D001200D49886001F0C4F958
:1030000000280ED00B480068012807D00A4809495B
:10301000086000BF074800680128FBD1C0200549AF
:10302000486110BDDFFF07C000050040006C004094
:103030000006004000EC06407593000070B500BF2C
:103040000023A14A0F21184600F0D2FB054600BF1D
:103050002E46002E04D000BF304600F097FB00BF84
:1030600000BF00BF994A0121994800F09FFB044628
:1030700000BF2546002D04D000BF284600F086FB87
:1030800000BF00BF934A0121934800F08FFB044624
:1030900000BF2546002D04D000BF284600F076FB77
:1030A00000BF00BF8D4A01218D4800F07FFB044620
:1030B00000BF2546002D04D000BF284600F066FB67
:1030C00000BF00BF874A0121874800F06FFB04461C
:1030D00000BF2546002D04D000BF284600F056FB57
:1030E00000BF00BF814A0121814800F05FFB044618
:1030F00000BF2546002D04D000BF284600F046FB47
:1031000000BF00BF7B4A01217B4800F04FFB044613
:1031100000BF2546002D04D000BF284600F036FB36
:1031200000BF00BF754A0121754800F03FFB04460F
:1031300000BF2546002D04D000BF284600F026FB26
:1031400000BF00BF6F4A01216F4800F02FFB04460B
:1031500000BF2546002D04D000BF284600F016FB16
:1031600000BF00BF694A0121694800F01FFB044607
:1031700000BF2546002D04D000BF284600F006FB06
:1031800000BF00BF634A0121634800F00FFB044603
:1031900000BF2546002D04D000BF284600F0F6FAF7
:1031A00000BF00BF5D4A01215D4800F0FFFA044600
:1031B00000BF2546002D04D000BF284600F0E6FAE7
:1031C00000BF00BF574A0121574800F0EFFA0446FC
:1031D00000BF2546002D04D000BF284600F0D6FAD7
:1031E00000BF00BF002051490968087050484F498E
:1031F000096848604F484D49096888604E484B4906
:103200000968C8604D484949096808614C48474900
:10321000096848614B484549096888614A484349FB
:103220000968C861494841490968086248483F49F6
:103230000968486247483D490968886246483B49F1
:103240000968C86245483949096808632748374909
:1032500009684863424835490968886341483349E9
:103260000968C86340483149096808643F482F49E4
:10327000096848643E482D49096888643D482B49DF
:103280000968C8643C482949096808653B482749DA
:10329000096848653A4825490968886539482349D5
:1032A0000968C865384821490968086637481F49D0
:1032B0000968486636481D490968886635481B49CB
:1032C0000968C86670BD0000BC11002029790000A3
:1032D00084800000B971000088800000A57400009F
:1032E0008C800000457D000090800000254D00008E
:1032F000948000004971000098800000957C0000D7
:103300009C800000796E0000A0800000F53A00006B
:10331000A480000069700000A8800000A17800006F
:10332000AC800000D17F0000B08000006000002071
:10333000955000002D79000059790000DD710000E2
:1033400065720000D1740000A175000025740000B2
:103350007D7D0000A97D0000814D0000B14D000081
:103360006171000091710000B97C0000E57C0000F3
:10337000916E0000BD6E0000053B0000353B000073
:10338000D970000005710000D578000001790000B7
:10339000F17F00003D8000007FB50025244C0F2107
:1033A0006846FEF72FF90546FEF7E6F80020FEF71F
:1033B000CBF90420FEF716FA0020FEF7F0F91D48BD
:1033C000FEF7E9F868460078010268464078014354
:1033D000218068468078A0706846C07801026846FF
:1033E00000790143A18068464079010268468079EE
:1033F0000143E1806846C07920726846007A6072B5
:103400006846407A01026846807A014361816846D5
:10341000C07A01026846007B0143A1816846407B77
:10342000A0736846807BE073284604B070BD00003E
:10343000E00300205400002070B505460026084C2B
:1034400060890021FEF7FCF9012806D12846FEF725
:1034500047FE06466089FDF7D9FF304670BD000083
:10346000E003002070B50446002500BF23E00D20D6
:1034700002F0D4FF00BF0620FCF73CFE00BF802016
:103480002040802803D10E2003F008F802E00E202F
:1034900002F0C4FF00BF0620FCF72CFE00BF0D2089
:1034A00002F0FCFF00BF0620FCF724FE00BF600610
:1034B000040E681CC5B2082DD9DB70BD10B50246DC
:1034C0000B461078012103E0545C60404C1CA1B213
:1034D0009942F9DB10BDF8B582B28BB2040C0D0C29
:1034E00010465843002126465E43370C36048019A7
:1034F000794116466E43370C3604801979412646C9
:103500006E438919F8BD30B47446641E2578641C76
:10351000AB4204D3635D5B00E31830BC18471D4623
:10352000F8E702E008C8121F08C1002AFAD1704764
:103530007047002001E001C1121F002AFBD1704733
:1035400010B5002405E00021144801550155601C08
:10355000C4B2632CF7DB0020114909680870002110
:103560001048C174FF382138C1710E488174FDF7CD
:10357000C5FA0D480068416B002088470A4800687A
:10358000016B0020884708490968486C8047064855
:103590000068816B05480088884710BDD60D002063
:1035A00068000020B50F00200C0000205200002011
:1035B00070B50646307800284DD1012026490968AB
:1035C00008700A21254800F0DDF9012506E06800B1
:1035D0002249085A001984B2681CC5B2092DF6DBCD
:1035E000E122120162431146D217520F5218D01035
:1035F000C217920D12189201140C1948844205DD6D
:1036000018480068416A0320884724E01448643859
:10361000844209DD2D208001844205DA11480068CA
:10362000416A0220884716E055204001844209DDA6
:103630000B488C38844205DA0A480068416A012048
:10364000884708E00648F038844204DA05480068F4
:10365000416A0020884770BD44000020B008002067
:10366000680B00000C00002010B5FF20013002F0B4
:1036700035F800BF00201E49086000BF00BF0846A3
:10368000806800B21B49C9681A4A527C52008852AD
:103690001848407C401C174948740846407C097C07
:1036A000884223DA0024134880684068002804D147
:1036B000104840680F49886005E00E4880684068FF
:1036C0000C49886001240B498968086801F0F4FFFF
:1036D00000BF01200649086000BF002C04D000BFD5
:1036E000054A106000BF00BF002010BD0120FCE7AC
:1036F000007500405C2200200070004010B50A21D7
:10370000024802F04DF802F0C5F810BDB0080020E4
:1037100010B5002409480068007800280CD008483B
:1037200000684078002807D0054909684868804744
:10373000002003490968487010BD000034000020D3
:103740004400002010B50446204600F007FA00BAF5
:1037500010BD000000BF00BF00BF00BF00BFBFF32F
:103760004F8F00BF00BF00BF06480749C86000BFB9
:1037700000BF00BFBFF34F8F00BF00BF00BF00BF3F
:1037800000BFFDE70400FA0500ED00E03EB5044689
:10379000002000900190029002946A4600210248A5
:1037A000FFF7D8FF3EBD00000140000010B5034602
:1037B0000C4600BF0D480068002801D1082010BD4C
:1037C00000BF002A01D10720F9E7002B01D1072013
:1037D000F5E71868007C002801D00820EFE7196899
:1037E000002008744C744A6100BFE8E7B400002070
:1037F000FFB581B00E4614461F4620468107890F4B
:10380000002901D1012100E00021002902D1072077
:1038100005B0F0BD002C04D100201C490860072031
:10382000F6E703F069FD1A4807600320194908709C
:1038300016480460183400250CE0E900134A1268A9
:10384000881800210170417086704460182171430E
:103850000C196D1C032DF0DB00200F4908600F4987
:1038600008700F4908701520FEF772FC032115201F
:10387000FEF7E6FC1520FEF789FC019803F012FD27
:1038800003F00AFD074908600020C1E7B4000020EA
:10389000CC000020B0000020B8000020C8000020AC
:1038A000C9000020BC000020FEB504460D461746A6
:1038B000264600BF12480068002801D10820FEBD3E
:1038C00000BF002C01D10820F9E7052D01D2072007
:1038D000F5E77069002801D10820F0E7707C012825
:1038E00001D1284600E00020029004F047FB009739
:1038F00001902A463146029B04F030F9DFE70000D0
:10390000B400002070B50446254600BF0B4800688F
:10391000002801D1082070BD00BF002C02D06869CA
:10392000002801D10820F6E70020287404F026FBC7
:103930000646294604F03EF9EDE70000B4000020F9
:1039400000B5024600F006F800BD00B5024600F0E2
:103950000BF800BD72B603480068401C01490860BE
:1039600070470000D400002005480068401E04494C
:10397000086008460068002800D162B67047000061
:10398000D4000020F8B505460E460120009000271F
:103990001AE000200090701E84B211E06000295AE5
:1039A000601E4000285A814208DA621E52005119F6
:1039B0006200501903F056FF01200090601E84B28F
:1039C000BC42EBDC781C87B2B74202DA00980028D0
:1039D000DFD1F8BD70B504460E460C2C12D1FDF7B0
:1039E000A4FE05460A48FFF727FD0546FDF74CFDF6
:1039F0000546FEF731FD07480068816B06480088E0
:103A0000884703E0012005490968487070BD00003F
:103A1000D40800200C000020520000202C000020C0
:103A200010B530490968486880472E48006800781A
:103A3000002854D000202B49096808702A480068E3
:103A40000078032804D1284909684869804710BDD7
:103A500026490968C86C804724490968886C8047F2
:103A600020480068C0780300FFF74DFD11370A0BAE
:103A70000C0D0E0F1D1E1F2627282B2E313437004C
:103A800000BF00BF00BF00BF00BF1948807C0028F6
:103A900002D100F0A9FE05E01548807C012801D183
:103AA00000F078FD1AE019E000BF1148807C002882
:103AB00001D100F0A3FD11E010E00FE000F09CFD4B
:103AC0000CE000F011FD09E001F004F806E000F060
:103AD000FDFD03E000F078FF00E000BF00BF00BF85
:103AE000B5E700002C0000206C00002060000020E2
:103AF000B50F00200121024A126851707047000082
:103B00002C00002070B50022084909480068FFF722
:103B1000CBFE044600BF2546002D04D000BF28463A
:103B2000FFF734FE00BF00BF70BD00006606000056
:103B3000A480000070B508480068FFF7E3FE044663
:103B400000BF2546002D04D000BF2846FFF71EFE0B
:103B500000BF00BF70BD0000A480000001460868DF
:103B60000D4A024012090C4BDB4303401B011A4370
:103B700010460A4A02409208084BDB4303409B0070
:103B80001A431046064A02405208054BDB430340E5
:103B90005B001A4310467047F0F0F0F0CCCCCCCC70
:103BA000AAAAAAAA0021C9438200054B9950042859
:103BB00004DB0B46011F024A4C325354704700008D
:103BC0000822002001468800014A10587047000072
:103BD00008220020F7B585B00B460020C0430490B2
:103BE000002A01D0002000E004200390002A01D028
:103BF000042000E00B20029003991EE08800124C84
:103C00002058401C002817D10846059C00930192BB
:103C100046B20D4D2C352E5585000B4E009B735131
:103C2000019A002A04D166B2051F074F4C377E5512
:103C300000BF48B2049003E0491C02988142DDD3E2
:103C400000BF049808B0F0BD0822002001460148DA
:103C5000405670473422002010B5FF201430104920
:103C600008601049C87C1049096888470F48104906
:103C7000486000200F49086101200F49086100BF1A
:103C80000C4800690028FBD000200A490861FF2089
:103C900018300349086001200749486010BD000042
:103CA0000012004094160020AC000020DC20002010
:103CB000001500400011004000100040044A125C52
:103CC00008231A40024B1A5400225A54704700002D
:103CD000F003002010B504460E48007804280ED1E9
:103CE00001F044FE00210B4801702038C069002813
:103CF0000ED008482038C1690320884708E0082012
:103D000001F02AFD032103480170102001F034FD69
:103D100010BD00009022002070B506460C460BE056
:103D2000304600F05BFB0546002D03D02046696855
:103D3000884700E001E000BFF2E700BF70BD00006F
:103D400010B52C484078002852D02A484079821E6D
:103D500029492A48FCF77EFA2848807917282BD071
:103D600008DC10380300FFF7CEFB0715181B241ED4
:103D7000362136001B280AD004DC182825D0192843
:103D800029D125E031281DD0F12824D117E003F0F6
:103D9000F7FD21E003F080FC1EE001F009FB1BE0D1
:103DA00001F074FB18E003F063FD15E003F07CFC08
:103DB00012E000F02FF90FE0FFF7C2FB0CE003F078
:103DC00051F909E000F094F906E003F04AFD03E040
:103DD00000F0BCF800E000BF00BF002005494870BB
:103DE000084641790448FCF74EFA00200149487121
:103DF00010BD0000D3090020D30A0020D10C002000
:103E0000FEB51F480068002836D01D4800680568C8
:103E100003F042FA01901B4804682146019803F020
:103E2000D9FDC61C18480078002801D103F046FAD5
:103E3000AE4201D2284600E0304604192402240A8A
:103E4000204603F023FA03F027FA00900199009826
:103E500003F0C0FDC71C2046019903F0BBFD87425B
:103E600009D903F019FA074603F010FA2F20FCF7DE
:103E700081F903F009FF01E003F03EFAFEBD000006
:103E8000B8000020BC000020D000002010B500BF0A
:103E9000EFF30580C105C90D00291FD00A46103A6D
:103EA00050B200280CDA0E4B0407240F083CA4087B
:103EB000A4001B598407E40EE3401B069B0F0BE094
:103EC000084B032424021B198408A4001B598407EF
:103ED000E40EE3401B069B0FD8B210BD0420FCE7A4
:103EE0001CED00E000E100E0014614480078144AAF
:103EF000127890421DD011480078401C0F4A107073
:103F000010460078022801D1002010700B4800787C
:103F100080000C4A105808600B4A08681268801824
:103F2000094A1060104600680002000A1060012073
:103F300070470020086000BFFAE70000C8000020BA
:103F4000C9000020C0000020BC0000207047000015
:103F5000F0B50346002420E0134E306806689E4208
:103F600003D90668F61A06601BE006689B1B066804
:103F70003419002606600C4E35680B4FC6693E604A
:103F8000C668002E08D00E193602360A4660C6688A
:103F900086601668C661156000BF03480068002887
:103FA000DAD100BFF0BD0000B800002010B5024615
:103FB000002014E04300D45C0A4B1C5443005B1CFB
:103FC000D35C9C11074B633B1C5443005B1CD35CCC
:103FD0009C06A40E034B63331C54431CD8B2884286
:103FE000E8DB10BD9C0E002001200749086000BFDF
:103FF000064800680028FBD00020044908600448F7
:104000008068C0B27047000000D0004000D100407E
:1040100000D5004010B501202E49096888702E494E
:10402000096808702D48007A012800DA10BD0024C4
:1040300008E000212A4801550155FF308D30015517
:10404000601CC4B2632CF4DB2448017A2548C17497
:10405000002406E0601CC1B22148C6300155601C36
:10406000C4B22048C07CA042F4DC01211D48817408
:10407000417400214175FF382138C1791948017513
:10408000FCF73CFD18480068416B00208847164843
:104090000068016B0020884713490968486C804715
:1040A00011480068816B1148008888470D4A537D8C
:1040B000533AD05C0C4A1268116C8847094A537D08
:1040C000FF3A1A3AD05C084A1268D16B884700BFA1
:1040D000ACE700006C00002068000020D10C00203C
:1040E000D60D0020B50F00200C000020520000204B
:1040F000F0B587B05A48407B002809D15848807BEA
:10410000002805D15648C07B002801D107B0F0BD7A
:104110005348007A5249497A0902084306906421BB
:104120000698FCF753F80F460A213846FCF74EF87C
:1041300007010A210698FCF749F80F43FDB24849E8
:10414000887A0A21FCF742F807014549887A0A2152
:10415000FCF73CF80F43FEB24149C87A0A21FCF74C
:1041600035F807013E49C87A0A21FCF72FF80F43BA
:10417000F8B205903A49087B0A21FCF727F80701B5
:104180003749087B0A21FCF721F80F43F8B2049065
:104190003349487B0A21FCF719F807013049487B6D
:1041A0000A21FCF713F80F43F8B203902C49887BDF
:1041B0000A21FCF70BF807012949887B0A21FCF743
:1041C00005F80F43F8B2029026490968086980474C
:1041D00025480078A84227D123484078B04221D111
:1041E00021488178059881421AD11F4801790498A5
:1041F000814213D11C484179039881420CD1F021AE
:104200000298084018494979F0221140884201D1AA
:1042100000240AE0012408E0012406E0012404E06F
:10422000012402E0012400E00124002C15D0002428
:104230006946029808706846039941700499817034
:104240000599C1700848C178684601714671857149
:10425000072269460220FEF7D9FC00BF56E700009E
:10426000D10C0020240000201C00002010B5FF20ED
:10427000013001F052FA012001F06EFA002001F045
:104280007BFA10BD10B5042001F076FA00BF0120C2
:1042900001F04AFA0028FAD110BD000010B502F072
:1042A00045FF002007E00102091A0A4A8918820026
:1042B000094B9950401C0128F5DB002007E0010262
:1042C000091A064A89188200054B9950401C082893
:1042D000F5DB10BDAC160020AC170020BC17002089
:1042E000B41F00200C48008CC0B2012812D10A482B
:1042F000808C0007000F00280CD10748806AF0214D
:104300000840402806D10448C06A0840002801D16E
:10431000012070470020FCE7C00F00F01948008C16
:10432000C0B201282CD11748808C0007000F00284C
:1043300026D11448806AF0210840002806D111488F
:10434000C06A0840002801D1012070470D48806AEA
:10435000F0210840102806D10A48C06A0840002809
:1043600001D10120F1E70748806AF0210840302898
:1043700006D10448C06A0840002801D10120E4E7C2
:104380000020E2E7C00F00F01348008CC0B2012803
:104390001FD11148808C0007000F002819D10E484A
:1043A000806AF0210840A02806D10B48C06A084066
:1043B000002801D1012070470748806AF021084099
:1043C000D02806D10448C06A0840002801D1012045
:1043D000F1E70020EFE70000C00F00F00146086899
:1043E000002801D002680A6070470268002A03D0E2
:1043F00002680A60016002E000220A600160704702
:10440000F8B501F059FC044600BF2646002E04D042
:1044100000BF3046FFF7BAF900BF00BF3048006860
:104420000090002515E02F4A6946284601F0CAFB96
:10443000044600BF2646002E04D000BF3046FFF7DA
:10444000A5F900BF00BF0021284601F057FB681CFA
:10445000C5B2042DE7DB234A69461E2001F0B2FBFA
:10446000044600BF2646002E04D000BF3046FFF7AA
:104470008DF900BF00BF00211E2001F03FFB00218D
:104480000C2001F076FF174A69460C2001F09AFBD8
:10449000044600BF2646002E04D000BF3046FFF77A
:1044A00075F900BF00BF00210C2001F027FB00219F
:1044B000192001F05EFF0B4A6946192001F082FBCA
:1044C000044600BF2646002E04D000BF3046FFF74A
:1044D0005DF900BF00BF0021192001F00FFBF8BDFE
:1044E00064800000D539000010B500212548427DC8
:1044F000FF38E03881542348427DFF38E03881544A
:104500002048427D53388154533001741E4800685E
:104510000078002803D01D490968486C80471B4873
:104520000068416B0020884718480068016B002034
:10453000884716480068816B1548008888471148ED
:10454000807C012804D111480068016C0020884754
:104550000C48C07C002800D110BD0A48807C01288E
:1045600004D10848407C022800D1F5E7054A537D74
:10457000FF3A1A3AD05C054A1268D16B884700BFEF
:10458000EAE70000B50F0020680000200C000020C2
:104590005200002010B51548407C02280BD1144869
:1045A0000068C178114801740246107C114A1268F3
:1045B000116C884718E00D48407C012814D10C4844
:1045C0000068C078062800D110BD09480068C1788D
:1045D0000648427D53388154044A537D0246D05CDC
:1045E000044A1268116C884700BFEDE7B50F002040
:1045F0002C0000200C0000207047000010B530484F
:10460000C07C002838D12E48417DFF387D38405C81
:10461000032815D003212A48427DFF387D38815474
:1046200000212748427DFF38E03881542448427DEC
:10463000FF38E038815423480068416B00208847E8
:1046400021480068C078082806D101211C48427D15
:10465000FF38E038815405E002211948427DFF38D7
:10466000E0388154164A537DFF3AE03AD05C154A4F
:104670001268116B884721E01148417DFF387D3871
:10468000405C03281AD110480068C078082806D179
:1046900001210B48427DFF38E038815405E00221BA
:1046A0000748427DFF38E0388154054A537DFF3A80
:1046B000E03AD05C034A1268116B884710BD0000D5
:1046C000B50F00200C0000202C00002010B544483D
:1046D000C07C002800D110BD4148807C00284FD10B
:1046E0003F48407D002806D13D48C07C401EC1B2F5
:1046F0003B48417505E03A48407D401EC1B238480C
:1047000041753748417DFF387D38405C012804D031
:10471000022803D0032831D118E000BF304A537D6E
:10472000FF3AE03AD05C2F4A1268516B88472D4817
:104730000068016B00208847294A537DFF3A1A3AE6
:10474000D05C284A1268D16B884718E02548006879
:10475000416B00208847224A537DFF3AE03AD05C03
:10476000204A1268116B88471D4A537DFF3A1A3A56
:10477000D05C1C4A1268D16B884700BF00BF2DE097
:104780001748807C012829D11548407C022825D073
:104790001348407C012821D11148407D002806D1D2
:1047A0000F48C07C401EC1B20D48417505E00C4861
:1047B000407D401EC1B20A484175094A537DFF3A07
:1047C0001A3AD05C074A1268D16B8847044A537D75
:1047D000533AD05C034A1268116C884700BF7AE7ED
:1047E000B50F00200C00002010B57448C07C0028D4
:1047F0007DD17248417DFF387D38405C03280FD160
:1048000000216E48427DFF38E03881546B48427D7C
:10481000FF38E03881546A480068016B00208847FF
:104820006648417DFF38E038405C66490968C978D0
:10483000491E01228A405040C1B26048427DFF3883
:10484000E03881545D48417DFF38E038405C012804
:1048500037D05A48417DFF38E038405C022830D0DC
:104860005648417DFF38E038405C042829D0534841
:10487000417DFF38E038405C082822D04F48417D18
:10488000FF38E038405C10281BD04C48417DFF3891
:10489000E038405C202814D04848417DFF38E0389B
:1048A000405C40280DD04548417DFF38E038405CF1
:1048B000802806D04148417DFF38E038405C002820
:1048C00006D101213D48427DFF387D38815464E0A6
:1048D0003A48417DFF38E038405C00285DD0022135
:1048E0003648427DFF387D38815456E0FFE7334833
:1048F000417DFF387D38405C012802D002284AD132
:1049000027E030480068C178491E012088402B49C3
:104910004A7DB639895C04460C40002C18D02748E3
:10492000417DFF38E038405C204000280BD0234810
:10493000417DFF38E038405C604020494A7DFF39C6
:10494000E039885404E01D48417DFF38E038445484
:1049500022E01A48417DFF38E038405C1949096877
:10496000C978491E01228A405040C1B21348427D95
:10497000FF38E03881541148417DFF38E038405C11
:104980000E494A7DB639895C08400C494A7DFF3999
:10499000E039885400E000BF00BF0848417DFF387F
:1049A0007D38405C032808D0044A537DFF3AE03A42
:1049B000D05C034A1268516B884710BDB50F0020C8
:1049C0000C0000202C00002010B54048C07C0028BE
:1049D00000D110BD3D48807C00284AD13B48407D35
:1049E000401CC1B2394841750246D17C507DFBF76D
:1049F000EDFB36484175417DFF387D38405C01282C
:104A000004D0022803D0032831D118E000BF2F4A78
:104A1000537DFF3AE03AD05C2D4A1268516B8847CB
:104A20002B480068016B00208847284A537DFF3AD5
:104A30001A3AD05C264A1268D16B884718E024489D
:104A40000068416B00208847204A537DFF3AE03AD6
:104A5000D05C1F4A1268116B88471C4A537DFF3A8D
:104A60001A3AD05C1A4A1268D16B884700BF00BF5F
:104A700029E01648807C012825D11448407C022872
:104A800021D01248407C01281DD11048407D401C97
:104A9000C1B20E4841750246D17C507DFBF796FBB2
:104AA0000A4841750246537DFF3A1A3AD05C084ADB
:104AB0001268D16B8847054A537D533AD05C044A4B
:104AC0001268116C884700BF83E70000B50F002013
:104AD0000C00002030B5B3B000257748006840785E
:104AE000002801D133B030BD0125002D7ED07248A1
:104AF000006800780028F9D07048807C002842D1F6
:104B00006E48C07C002803D110206D49887102E0F6
:104B100011206B4988716A48807910281FD10320C1
:104B20006749C871012008726648C07880016549EC
:104B30008978090108436349497889000843614934
:104B4000091F09790843C1B25D4841725B48C27CC4
:104B50005C4963395A480A30FBF77CFB4BE06946F5
:104B600001A802F0BBF868460078401C5449C8719F
:104B70005248C07C08726846027801A95048093042
:104B8000FBF768FB37E04D48807C012833D14B4868
:104B9000407C022808D11220494988710120C8713F
:104BA0004648007C087226E04448407C012822D117
:104BB0001320434988714148C07C4000401CC871A3
:104BC0003E48C07C087200240FE03E486330025D1E
:104BD0006000401C3A4908310A5438485338025D95
:104BE0006000801C0A54601CC4B200E062E03348DC
:104BF000C07CA042E9DC3248C079C11D3048401C6D
:104C0000FEF75CFC304988702D48C07902460832B6
:104C10002B492E48FBF71EFB2B4882782848C07989
:104C200008302A490A542848C2782548C0790930F2
:104C30000A542348C0790A30891F08710846007950
:104C40001130C1B222488176E038407A401C2049B8
:104C5000E03948720846807A401C88721B48801FE1
:104C6000007988731948801F0279811D1848D1384E
:104C7000FBF7F0FA1648807EC01E81B21448DF3878
:104C8000FEF71CFC01461148801F00790F30104AC6
:104C9000E03A115421210D48801F00791030115441
:104CA00000210C48417281720B49096848688047AD
:104CB00001F0AAFD00BF15E768000020B50F002035
:104CC000CD0B0020390E0020CD0C0020D90900208A
:104CD0007E0700209E0800207000002010B50321F0
:104CE000002001F01EFC002001F0F0FB012001F08B
:104CF000EDFB022001F0EAFB032001F0E7FB0024BA
:104D000009E0022005210907072212028918A200E2
:104D10008850601CC4B2072CF3DB10BD10B5FBF744
:104D20006BFD10BD0121114A1268117010490978FC
:104D3000491CC9B20E4A11700A2906D101210D4A37
:104D40001268117000210A4A11700B490988491C28
:104D500089B2094A1180042906D10121074A126843
:104D600051700021044A1180704700000C0000209F
:104D70006400002024000020660000204400002081
:104D800070B50022084909480068FEF78DFD044609
:104D900000BF2546002D04D000BF2846FEF7F6FCD4
:104DA00000BF00BF70BD00009A1900009480000091
:104DB00070B508480068FEF7A5FD044600BF25460B
:104DC000002D04D000BF2846FEF7E0FC00BF00BF66
:104DD00070BD00009480000010B5FF20053000F089
:104DE0009CFC022000F0B8FC082000F0C5FC10BDBF
:104DF00010B500F057FD0C2000F0BEFC00BF00F025
:104E0000B1FC0028FBD110BDF8B521480068009026
:104E1000204806782EE0F0001F49096844182578DC
:104E200024E01820684361680F18681CC5B2A07898
:104E3000A84200D100253878022802D0032812D1D8
:104E400003E0786802F052FE0EE007E010490868BF
:104E5000002101740E4AC169116000BF0C4800684E
:104E60000028F3D100E000BF00BF00BF6078A84277
:104E7000D7D100BF3046711ECEB20028CBD1044836
:104E800001680098814201D00120F8BD0020FCE7B4
:104E9000B8000020B0000020B4000020FEB5064697
:104EA0003C48006801903C480078009063E000981E
:104EB000C0003A490968451856E0002E02D0344631
:104EC000E66924E02978182359436A68501829783C
:104ED000491C29702978AA78914201D100212970B2
:104EE00044680178012902D1217C002900D03BE0EF
:104EF00081686160C168A1600169E1604169A16187
:104F000027490978002901D00021616000BF2549A7
:104F100060680968401A0002000A2349884208D2E2
:104F200020496068096802F055FDA16840182060BA
:104F30000FE01C486168006802F04CFD0746A0685D
:104F4000B84203D9A068C01B206001E000202060A7
:104F500000BF00206060A060012020740020E0619C
:104F6000204602F08DFD00BF002EA6D1287869787A
:104F70008842A2D100BF0098411EC9B2009100280A
:104F800095D1044801680198814201D00120FEBDFD
:104F90000020FCE7B8000020B0000020B400002092
:104FA000D1000020BC000020FFFF7F0010B51F488B
:104FB000C07A401CC1B21D48C172407A01280CD190
:104FC00000211A488172C17219490968C86B80476B
:104FD00018490968086A804726E01448C07A0928F9
:104FE0000CDD002111488172C17211490968C86B3A
:104FF000804710490968486A804715E00E48407AA2
:10500000401C0D4948720846E030807EC01E81B2C7
:105010000948401CFEF752FA0146084800790F3053
:10502000054A115401F0F0FB10BD00009E0800205D
:1050300060000020340000209E060020D3090020DC
:1050400010B511490968C86980470F490968486A5D
:105050008047002000F050FA01210C4841731122D2
:10506000C11FFE390A48FBF7F5F811200849491F0E
:105070000870002048700120C87000F0AFFE04489E
:10508000401F01F06BF810BD600000209E0800205A
:10509000A504002010B513480068007800281FD030
:1050A00010480068007804210840002808D00D4806
:1050B0000068007888430B4909680870FFF7C0FF53
:1050C00008480068007802210840002808D00548F8
:1050D000006800788843034909680870FFF766FF95
:1050E00010BD000060000020FBF712FBFBF7ACF9DD
:1050F000FDF7A4FFFBF7B0FFFDF714F8FBF77CFB0F
:10510000FDF788FBFBF754F9FDF7B2FAFDF73EFA1D
:10511000FDF70EF9FBF780F954490968C868804724
:105120005349096888698047524909684869804736
:1051300050480068416A0320884701204B490968AC
:1051400008704A4909680871484800688169012067
:10515000884747490968886D804745490968886CD0
:10516000804744480068816B4348008888477CE05A
:105170003E4800680078012802D0032871D149E038
:105180003A480068407800282BD000203749096849
:1051900048703A4909684868804739490968C868C9
:1051A0008047344909680869804703202F49096806
:1051B00008712E48006881690320884700202B4928
:1051C0000968887029490968C87029490968886D83
:1051D000804727490968886C804725490968486ED7
:1051E0008047234909684868804725490968486914
:1051F00080472449096848688047224909688868C7
:10520000804721490968886880471A490968086AFF
:10521000804727E0154800684078002817D0002014
:10522000124909684870154909688868804711491A
:105230000968C868804712490968086980470020E2
:105240000A490968C8800A490968086E8047084900
:105250000968486880470B4909688868804701E009
:10526000FFE700BF00BF20BF30BF81E76C00002018
:10527000600000200C000020520000207000002080
:1052800034000020680000204400002030B5054CA8
:10529000245C1443034D2C542C46645C1C436C5416
:1052A00030BD0000F003002070B505460E461446E0
:1052B0002300FEF728F90B07121D28333E49545FDF
:1052C0006A757A0031462846FEF7F8FC0F2305225E
:1052D00031462846FFF7DAFF68E031462846FEF7F8
:1052E000EDFC0023052231462846FFF7CFFF5DE0A5
:1052F00031462846FEF7E2FC0D23032231462846BC
:10530000FFF7C4FF52E031462846FEF7D7FC0923D9
:10531000072231462846FFF7B9FF47E031462846C5
:10532000FEF7CCFC0223072231462846FFF7AEFFEA
:105330003CE031462846FEF7C1FC0B2306223146ED
:105340002846FFF7A3FF31E031462846FEF7B6FCBA
:105350000F23062231462846FFF798FF26E0314604
:105360002846FEF7ABFC0123052231462846FFF70D
:105370008DFF1BE031462846FEF7A0FC0F230722D5
:1053800031462846FFF782FF10E031462846FEF7F7
:1053900095FC0B23072231462846FFF777FF05E0EF
:1053A00031462846FEF78AFC00E000BF00BF70BD12
:1053B00030B5B3B0C82101A8FAF765FF01202C4928
:1053C000096888702B49096808702B48007A63289F
:1053D00003DC2948007A012801DA33B030BD2648C1
:1053E000057AC079421E2449093101A8FAF732FF33
:1053F000294601A8FEF7DAFD002408E000211F4835
:1054000001550155FF308D300155601CC4B2632C2D
:10541000F4DB00211A4881741748017A1848C174D6
:10542000FF382138C1791648017500214175FBF715
:1054300065FB14480068416B0020884711480068EC
:10544000016B002088470F490968486C80470D4868
:105450000068816B0C4800888847094A537DFF3AF1
:105460001A3AD05C074A1268D16B884700BFB4E78C
:105470006C00002068000020D10C0020D60D002018
:10548000B50F00200C0000205200002010B50120B4
:105490001449096888701449096808700121134883
:1054A00081740221417400210174FBF727FB10482D
:1054B0000068416B002088470D480068016B0020A0
:1054C00088470B490968486C804709480068816B28
:1054D000084800888847054A107C054A1268116C04
:1054E000884710BD6C00002068000020B50F002028
:1054F0000C0000205200002010B50346012B0BD1F8
:105500000D484078012816D001200B49487004202E
:1055100000F098FD04460EE0002B0CD106484078C0
:10552000002808D000F0F0FD002003494870022058
:1055300000F088FD044610BD9416002010B52E48DA
:10554000817A2E4841702C48C17A2C4881702A48B3
:10555000017B2A48C1702848417B284801712848AE
:1055600001782648417126484178244881712448B1
:1055700081782248C1712248C178204801721E48B2
:10558000817B1E4841721C48C17B1C4881720E21E0
:10559000401CFDF793FF1949C873042218491648A7
:1055A000801D02F04DF9002821D016490968C8690C
:1055B000804714490968486A80470020FFF79CFF2C
:1055C00001211148417311220C491048FAF742FE9B
:1055D00011200E49491F0870002048700120C87032
:1055E00000F0FCFB0948401F00F0B8FD03E005494E
:1055F00009680869804710BD9F05002099070020B1
:1056000048000020600000209E080020A504002023
:1056100010B50120134948701348C07C48710846F2
:10562000427911491431FF300130FAF713FE042298
:105630000E490F4802F004F9002806D104220D4952
:105640000B4802F0FDF800280BD00948401E807975
:10565000002803D101200349C87002E0012001495C
:10566000487010BDD30900209F050020480000208D
:10567000D40A00205C00002010B505480068C16A0B
:105680000220884703490968086C804710BD000064
:105690000C0000206000002010B505480068C16AB9
:1056A0000120884703490968086C804710BD000045
:1056B0000C00002060000020014948607047000095
:1056C000007500400146044808180068002801D011
:1056D000012070470020FCE7007000400021024AD2
:1056E0008218116070470000007000400149886016
:1056F0007047000000730040014948607047000097
:105700000073004001460120800708180068002847
:1057100001D0012070470020FCE700210122920700
:10572000821811607047000001460648C068064AAA
:10573000104012040A43904201D10120704700201A
:10574000FCE70000000400400100010001498860FE
:1057500070470000000300400149486070470000A6
:105760000003004003488069012109040840000C3F
:10577000704700000004004001218A078218116070
:105780007047000001B505E00098401E00900348F6
:10579000FAF7E0FC00980028F6D108BDE703000006
:1057A00070B504460D461D48807C022801D11120A9
:1057B00070BD0220194988740846406888600D74DD
:1057C000002048740846C46089680868FFF774FFC1
:1057D000FF200130FFF782FF00BF01201049086061
:1057E00000BF0E480068002803D00120FFF784FFA7
:1057F00011E00EE000BFFF200130FFF763FF00283B
:10580000F9D0FDF731FF002803D001200349887447
:1058100000E0EFE700BF0020CAE700005C220020A4
:10582000007500400021416008494968002902D103
:105830000649486008E0054A516800E049684A683E
:10584000002AFBD1486000BF704700005C220020A6
:1058500070B504460D460D48807C002801D0082014
:1058600070BDFF200130FFF739FF002D06D0002C5E
:1058700000D1074C2178072000F024F90348056087
:105880000120024988740020EAE700005C22002021
:10589000B480000000BF01200149086000BF7047CC
:1058A0000070004010B50020FEF74AF81348007859
:1058B000012804D0022815D0032818D113E01020A5
:1058C000FFF744FF1820FFF757FF00210B48017036
:1058D0002038C069002804D008482038C169032056
:1058E000884705E000BF04210448017000E000BFC4
:1058F00000BF0020FEF729F8002010BD90220020F4
:1059000070B504460D4600261548807A002801D15E
:10591000082623E012482030007800281DD11048C6
:10592000C56110498161002C06D10221203001702F
:105930000C3800F035F811E00121094820300170E1
:1059400000BF6006400E0849886300BF1020FFF7C3
:1059500003FF1420FFF710FF00E01126304670BD52
:1059600070220020D53C00000005004010B500204A
:10597000FDF7E6FF09480068401E08490860084630
:105980000068002805D1FEF77DFC0020034948721D
:1059900048600020FDF7D9FF10BD000070220020F4
:1059A00010B504460020FDF7CBFF1048407A0028D0
:1059B00005D0002C10D00020616888470CE0002C36
:1059C00004D021460948001DFEF70FFD0748006876
:1059D000002801D1FEF74AFC04480068401C034936
:1059E00008600020FDF7B1FF10BD0000702200200C
:1059F00010B500241048007A002801D0852010BD81
:105A000000200D49486008600861C860FF200B490C
:105A1000086100BF002009494039886100BF0321A7
:105A200000F050F8002104482030017001200249A4
:105A300008722046E3E70000702200204005004085
:105A400010B50020FDF77CFF0948C068401E0849DA
:105A5000C8600846C068002805D1FFF7C9F90020D2
:105A60000349887208610020FDF76FFF10BD000038
:105A70007022002010B504460020FDF761FF104899
:105A8000807A002805D0002C10D00120616888475A
:105A90000CE0002C04D0214609481030FEF7A5FC8C
:105AA0000748C068002801D1FFF796F90448C0688C
:105AB000401C0349C8600020FDF747FF10BD0000EF
:105AC0007022002070B504460D4629462046FCF79A
:105AD000F3FB00BFE106C90E0120884005490860BC
