:020000040000FA
:10000000C02C002095010000AF010000B1010000EC
:1000100000000000000000000000000000000000E0
:10002000000000000000000000000000B30100001C
:100030000000000000000000B5010000B701000052
:10004000E924000015260000B9010000B9010000F4
:10005000B90100000000000021050000310300008C
:10006000B9010000B9010000B9010000B9010000A8
:10007000B9010000B9010000B9010000B901000098
:10008000B901000041270000B9010000B9010000DA
:10009000492F0000B92F0000B9010000B90100008C
:1000A000B9010000B90100000000000000000000DC
:1000B0000000000000000000000000000000000040
:1000C0000348854600F022F900480047BD51000072
:1000D000C02C0020401E00BF00BF00BF00BF00BFFB
:1000E00000BF00BF00BF00BF00BF00BF00BFF1D115
:1000F00070470000401E00BF00BF00BF00BF00BF30
:1001000000BF00BF00BF00BF00BF00BF00BFF1D1F4
:1001100070470000401E00BF00BF00BF00BF00BF0F
:1001200000BF00BF00BF00BF00BF00BF00BFF1D1D4
:1001300070470000401E00BF00BF00BF00BF00BFEF
:1001400000BF00BF00BF00BF00BF00BF00BFF1D1B4
:1001500070470000401E00BF00BF00BF00BF00BFCF
:1001600000BF00BF00BF00BF00BF00BF00BFF1D194
:1001700070470000401E00BF00BF00BF00BF00BFAF
:1001800000BF00BF00BF00BF00BF00BF00BFF1D174
:10019000704700000321094802680A4302600848CA
:1001A00002680A4302600748804707480047FEE7A5
:1001B000FEE7FEE7FEE7FEE7FEE70000240500405D
:1001C00054050040FD2F0000C100000070B5002460
:1001D0002546002801DA01244042002901DA0125E0
:1001E000494200F05BF8AC4200D04042002C00D005
:1001F000494270BDF0B51FB40646002082B00546E6
:100200004024019100901BE0019922460F463046A0
:1002100000F06AF8049A059B801A994110D31046A1
:100220001946224600F050F8361A8F4101972246AF
:1002300001200021009F00F047F838184D41009040
:100240002046641E0028DFDC019B009829463246C8
:1002500007B0F0BD03460B439B0703D009E008C974
:10026000121F08C0042AFAD203E00B780370401C66
:10027000491C521EF9D27047D2B201E00270401CF4
:10028000491EFBD270470022F6E710B513460A4616
:1002900004461946FFF7F0FF204610BD30B50B4667
:1002A000014600202022012409E00D46D5409D4250
:1002B00005D31D469540491B2546954040191546D6
:1002C000521E002DF1DC30BD10B5202A04DB0146A2
:1002D000203A9140002010BD914020239C1A0346F3
:1002E000E3401943904010BD10B5202A04DB0846B6
:1002F000203AD040002110BD0B46D340D0402024EE
:10030000A21A91400843194610BD0000064C012571
:10031000064E05E0E36807CC2B430C3C98471034AD
:10032000B442F7D3FFF7D0FEF88100001882000036
:100330000EB51D48C06800281CD1FF20013005F013
:1003400033FA012005F038FA00BF00201749086091
:1003500000BF01216846017000BF1448806801B2E7
:100360006846818001201049887408460168684603
:10037000884718E003F0E0F9002814D0012005F0C8
:100380001BFA0020694608700748C06801900648BB
:10039000017C684601810120034988740846016890
:1003A0006846884700BF0EBD8422002000750040CB
:1003B00038B51448006800901349684605F0AEFA55
:1003C000044600BF2546002D04D000BF284603F098
:1003D00043FA00BF00BF0D4805F08AFA00200C491F
:1003E000096888700A490968087001200849096885
:1003F0004870084806490968486007480449096880
:10040000886038BDBC810000153600003C0000202B
:1004100044000020CD370000E137000000200849EB
:1004200009680870012006490968487005480449B0
:1004300009684860044802490968886070470000FC
:10044000680000200D3E0000ED3A000070B517482E
:1004500017490968486017481549096888601648AF
:1004600013490968C86015481149096808611448AA
:100470000F490968486105F029FB044600BF25467D
:10048000002D04D000BF284603F0E6F900BF00BFEE
:10049000074909684868804705490968C86880476E
:1004A000034909684869804770BD000033070000B0
:1004B0007000002043070000DB120000EB12000078
:1004C000252D000010B50D2006F01CF80E2006F0BA
:1004D00059F800BF0620FFF70DFE00BF03210E20D4
:1004E00005F0A1FF00BF0620FFF704FE00BF0E20AD
:1004F00006F020F8C4B20D2006F044F800BF062034
:10050000FFF7F8FD00BF0D2005F0FCFF0E2005F001
:10051000B1FF012C01D1002010BD0120FCE700003B
:10052000F0B58BB0002700200A90FF200130099021
:100530000125002416E0099806F088F800280BD061
:1005400000BF704840682840002805D0099806F090
:1005500075F83846284307466D000998001D80B29B
:100560000990641C042CE6D3FF207D3006F06EF861
:1005700000280AD0FF207D3006F060F80120C00777
:10058000074300BF604800690A903807000F002841
:100590002AD00125002425E02846384000281FD015
:1005A00000BF5A48512109014018A10040581F219D
:1005B00009020840000A089000BF5448512109016F
:1005C0004018A1004058032109040840000C07907E
:1005D000204603F05DFB064607990898B04700BF28
:1005E0006D00641C042CD7D3F80FC00700287DD001
:1005F000002008900790401E069000BF0020089041
:10060000002464E04248005D0590C02105988843BD
:1006100006463F480057401C002857D00120B040F4
:1006200006990840002851D0C02105980840801143
:100630000490304603F070FB029003F029FB039016
:100640000398002802D1049803283ED10120B0402D
:1006500005460498032802D107982843079000BF55
:1006600005200007072109024018B1004058032166
:1006700009040840000C02900A982840002802D083
:100680000298022806D00A98284000281CD1029817
:10069000032819D1049803280FD10298022801D108
:1006A000032000E0022001903046019905F006FF8A
:1006B0000898401CC0B2089000BF0398002803D0DF
:1006C0003046039A0499904700BF00BF641C072C72
:1006D00098D3089800280ED000BF0B490969084636
:1006E0000A99884203D10021089103E008E00A90AA
:1006F0000799069100BF0898002800D07EE700BF48
:100700000BB0F0BD006300400005005000600040E9
:100710007C220020002000BF08E0022105221207F1
:1007200007231B02D2188300D150401C2028F4D389
:10073000704710B505F080F9002801D105F09EF949
:1007400010BD10B505F078F9002801D005F07CF94E
:1007500010BD10B50B2005F08DFE0D2005F08AFEB2
:100760000E2005F087FE0B2005F0CCFE0D2005F0D5
:1007700009FF0E2005F006FF10BD10B50E2005F094
:1007800001FF00BF0620FFF7B5FC00BF0D2005F0FC
:10079000F9FE00BF0620FFF7ADFC00BF0E2005F0FC
:1007A000B1FE00BF0620FFF7A5FC00BF00BF06207A
:1007B000FFF7A0FC00BF10BD10B50E2005F0A2FE93
:1007C00000BF0620FFF796FC00BF0D2005F0DAFE03
:1007D00000BF0620FFF78EFC00BF0E2005F0D2FE02
:1007E00000BF0620FFF786FC00BF00BF0620FFF712
:1007F00081FC00BF10BD01460878C0221040C0280F
:1008000001D1002070471020FCE7000010B507213F
:10081000042005F0FAFE00211E2005F01EFE002235
:100820000321104605F0E4FE03F050FE00200C49C1
:10083000096808700A490968487009490968887098
:1008400007490968C87007480549096848600648AB
:1008500003490968C860054801490968886010BDF6
:100860002C00002071080000DD4D00009D4D0000AF
:1008700070B500240025A04800684078012874D194
:1008800000209D49096848709B48006880780028CE
:1008900004D001282ED0022868D168E0002005F09D
:1008A0009FFE054600220721042005F0A1FE00203E
:1008B00005F096FE04460721042005F0A6FE280751
:1008C000000FF021214008438C4908701E2005F0DC
:1008D00045FE002805D11E2088490870002088495F
:1008E0000870012084490968887086490968086D84
:1008F0008047FEE0002005F073FE05460022072138
:10090000042005F075FE002005F06AFE044607216C
:10091000042005F07AFE2807000FF021214008434B
:10092000794908701E2005F019FE002807D11E2005
:100930007549087072480078401C71490870724807
:1009400000786E490978884204D102206A49096812
:10095000887009E06B490968486D80470020664946
:100960000968887065490870C3E0C3E0B7E00020FB
:1009700005F036FE054600220721042005F038FE6A
:10098000002005F02DFE04460721042005F03DFE61
:100990002807000FF021214008435B4908701E2002
:1009A00005F0DCFD00280FD11E205749087054487F
:1009B0000078401C5249087008460078282803D166
:1009C00052490968886880474F4800784B49097840
:1009D00088427DD049480078472845D010DC1E2841
:1009E00065D006DC17284ED01B2833D01D2863D1D4
:1009F00021E027283DD02B2827D02D285CD115E0D9
:100A000087282CD006DC4B281AD04D2809D04E2838
:100A100052D147E08B283BD08D282FD08E284BD148
:100A20003BE0012034490968C87046E002203249A1
:100A30000968C87041E003202F490968C8703CE08C
:100A400004202D490968C87037E005202A49096843
:100A5000C87032E0062028490968C8702DE00720D8
:100A600025490968C87028E0082023490968C8702A
:100A700023E0092020490968C8701EE00F201E49A4
:100A80000968C87019E010201B490968C87014E093
:100A90000C2019490968C8700FE00E201649096832
:100AA000C8700AE00D2014490968C87005E00B20E1
:100AB00011490968C87000BF00BF00BF01200E497E
:100AC000096808700F490968486D8047002000E0F8
:100AD00004E00949096888700849087009E00020A5
:100AE00005490968887004490968C8700349087095
:100AF00000BF00BF70BD00002C00002030000020AF
:100B00003200002060000020310000206C00002036
:100B10000348807BFE21084001498873704700002C
:100B2000F003002010B50A220121002004F022FC6D
:100B30000A220321022004F01DFC0A2205210420C0
:100B400004F018FC0A220721062004F013FC0A22F4
:100B50000921082004F00EFC0A220B21104604F0A3
:100B600009FC0A220D210C2004F004FC10BD000039
:100B70002249497CF7221140204A51741146097CD0
:100B8000F12211401D4A11741146097C02221143C1
:100B90001A4A1174002806D0012805D002280AD06C
:100BA00003281CD10EE027E01449097C04221143DC
:100BB000124A117420E01149097C0C2211430F4A9A
:100BC000117419E00D49097C0C2211430B4A117470
:100BD0001146497C08221143084A51740CE0074928
:100BE000097C0C221143054A11741146497C0822E4
:100BF0001143024A517400BF00BF7047F003002048
:100C00000348807B01210843014988737047000035
:100C1000F0030020C107C90F002906D03149897BA4
:100C2000082211432F4A917305E02E49897BF72250
:100C300011402C4A917302210140022906D1294911
:100C4000097B08221143274A117305E02549097BD6
:100C5000F7221140234A117304210140042906D1CF
:100C60002049897A082211431E4A917205E01D49E4
:100C7000897AF72211401B4A917208210140082904
:100C800006D11849097A08221143164A117205E063
:100C90001449097AF7221140124A117210210140B9
:100CA000102906D10F498979082211430D4A917103
:100CB00005E00C498979F72211400A4A91712021F7
:100CC0000140202906D10749097908221143054A24
:100CD000117105E003490979F7221140014A1171A8
:100CE00070470000F003002010B5022000F056FA13
:100CF000002000F053FA0A2005F0C8FB082005F098
:100D0000C5FB092005F0C2FB0A2005F043FC0820C2
:100D100005F040FC092005F03DFC10BD704770B5A2
:100D200004460D46230002F020FC082F050B111786
:100D30001D23292F2A460121002004F01BFB24E05B
:100D40002A460321022004F015FB1EE02A46052155
:100D5000042004F00FFB18E02A460721062004F0C7
:100D600009FB12E02A460921082004F003FB0CE0ED
:100D70002A460B210A2004F0FDFA06E02A460D213E
:100D80000C2004F0F7FA00E000BF00BF70BD0000C7
:100D900000B51F49C97BF02211401D4AD17311468D
:100DA000097C012211431A4A1174030002F0DDFB91
:100DB00005040B12192027001549097C0122114353
:100DC000134A117422E01249C97B08221143104AC8
:100DD000D1731BE00E49C97B0C2211430C4AD1731D
:100DE00014E00B49C97B0E221143094AD1730DE06F
:100DF0000749C97B0F221143054AD17306E0044914
:100E0000097C01221143024A117400BF00BF00BDDA
:100E1000F003002070B504460A212046FFF7D6F9FA
:100E2000CDB229460120FFF77AFF70BD002804D01B
:100E300001280FD0022827D119E01549897BFD220E
:100E40001140134A91731146897BFB221140104ACD
:100E500091731AE00E49897BFB2211400C4A917371
:100E60001146897B02221143094A91730DE008491A
:100E7000897BFD221140064A91731146897B042229
:100E80001143034A917300E000BF00BF70470000A8
:100E9000F003002070B504460A212046FFF796F9BA
:100EA000C5B229460420FFF73AFF0A212046FFF782
:100EB0008DF9CDB229460320FFF731FF70BD000048
:100EC00010B5012000F0BAF8084909688869804720
:100ED0000020064909680870022000F05FF9002030
:100EE00000F05CF9002000F0A9F810BD0C00002013
:100EF00070B5044664212046FFF768F9C5B229465B
:100F00000720FFF70CFF0A212046FFF75FF906468E
:100F10000A21FFF75BF9CDB229460620FFF7FFFE55
:100F20000A212046FFF752F9CDB229460520FFF7E6
:100F3000F6FE70BD002804D001280FD0022827D16A
:100F400019E015490978F7221140134A117011462A
:100F50008978F7221140104A91701AE00E490978F9
:100F6000F72211400C4A117011468978082211436A
:100F7000094A91700DE008498978F7221140064A24
:100F800091701146097808221143034A117000E05C
:100F900000BF00BF70470000F003002010B50D48EF
:100FA00000680078002813D00B48006800780028FB
:100FB0000ED0012000F042F8084A1221002000F073
:100FC00063F9002000F03AF800200349096808702E
:100FD00010BD0000340000200C000020F0030020B1
:100FE00010B50A2005F052FA082005F04FFA092042
:100FF00005F04CFA0A2005F0CDFA082005F0CAFAEF
:10100000092005F0C7FA0520FFF784F8292000F031
:10101000C5F8182000F0C2F8012000F0BFF8032046
:1010200000F0BCF801200449096808700249096809
:101030004869804710BD00000C00002010B5044630
:10104000002C09D00A2005F021FA082005F01EFA2C
:10105000092005F01BFA08E00A2005F0D8F908205D
:1010600005F0D5F9092005F0D2F910BD10B50A2018
:1010700005F00CFA082005F009FA092005F006FA37
:101080000A2005F087FA082005F084FA092005F007
:1010900081FA0A20FFF73EF8292000F07FF8182097
:1010A00000F07CF8012000F079F82B4A1221002092
:1010B00000F0EAF8032000F071F8012027490968E0
:1010C00008702748254909680862264823490968A5
:1010D0004860254821490968886024481F490968F3
:1010E000C86023481D490968086122480068C06A31
:1010F0001A49096848611F480068006B1749096868
:1011000088611C480068406B14490968C8611A4826
:10111000124909684862194810490968C8621848A4
:101120000E490968086317480C490968886216481F
:101130000A490968486315480849096888631448DA
:1011400006490968C86313480449096808641248D5
:1011500002490968486410BDF00300200C0000201B
:101160009D0F00001D0D0000E90C0000C10E0000E5
:10117000E10F000060000020710B00002D0E000048
:10118000350F0000910D0000150C0000F10E00005D
:10119000950E0000150E0000250B000010B504464A
:1011A0000A2005F0B7F900BF00BF00BF00BF002252
:1011B0000321802000F022F800220821204600F0C0
:1011C0001DF8092005F0A6F900BF00BF00BF00BF51
:1011D000082005F09FF900BF00BF00BF00BF092035
:1011E00005F0D8F900BF00BF00BF00BF0A2005F01E
:1011F000D1F900BF00BF00BF00BF10BDF8B5054664
:101200000E461746002F20D100241BE0092005F0D0
:1012100081F900BF00BF00BF00BF80202840014609
:10122000082005F0CFF900BF00BF00BF00BF0920B4
:1012300005F0B0F900BF00BF00BF00BF6806050E93
:10124000601CC4B2B442E1DB1DE0002419E00920B7
:1012500005F060F900BF00BF00BF00BFE907C90F7C
:10126000082005F0AFF900BF00BF00BF00BF092094
:1012700005F090F900BF00BF00BF00BF6D10601CFB
:10128000C4B2B442E3DBF8BDF8B505460E461746D6
:101290000A2005F03FF900BF00BF00BF00BF0022D9
:1012A0000321A020FFF7AAFFA906080E00220621AD
:1012B000FFF7A4FF002406E0385D01220421FFF7B8
:1012C0009DFF601CC4B2B442F6DB0A2005F062F94F
:1012D00000BF00BF00BF00BFF8BD10B504F01EFC8A
:1012E000002801D104F03AFC10BD10B504F016FC42
:1012F000002801D104F018FC10BD00000FB4FCB5AB
:1013000006464B9D4A9C0020019000902080F007EB
:10131000C00F002810D045480078002801D10120D6
:1013200000E0002041490870084600780221084387
:101330002288511C2180A8543C480078082108408C
:10134000002804D02288511C00982180A854022033
:101350003040002805D008A801782288501C208041
:10136000A95404203040002805D008A841782288DC
:10137000501C2080A95408203040002805D008A81F
:1013800081782288501C2080A954102030400028E9
:1013900005D008A8C1782288501C2080A95420209C
:1013A0003040002805D008A801792288501C2080F0
:1013B000A95440203040002813D0002001900BE0B9
:1013C00009A801300199415C2288501C2080A95451
:1013D0000198401CC0B2019008A80179019881428F
:1013E000EEDC80203040002805D049A80178228812
:1013F000501C2080A954FF2001303040002811D01B
:101400002178284600F03CF807462288501C2080AE
:10141000AF543846FF210902084001122288501CAF
:101420002080A954FCBC08BC04B018470000002070
:1014300070B50446002510480068A04211D100F0A4
:1014400035F8054609200003854201D0012000E05F
:101450000020002800D00CE008480749086001205F
:1014600070BD054800680549884201D10120F7E7B1
:1014700000BF0020F4E7000008000020EFBEADDE52
:1014800078B504460D460848009000BF2678641CD5
:101490006946304600F094FD681EC0B2051EF5D1C5
:1014A0006846008878BD00006363000038B516A068
:1014B000006800900321684600F0D0FC44B2002C84
:1014C00001D0012000E00020002800D01AE000F048
:1014D00021FA44B2002C01D0012000E000200028B5
:1014E00000D00FE00321684600F0CAFA44B2002C95
:1014F00001D0012000E00020002800D002E00920F7
:10150000000338BD1120FCE7C2E0B400FEB506467A
:101510000024F2222146641C684642542146641C81
:1015200046540221FFF7ACFF07462146641C68467B
:101530004754FF200002384002122146641C6846CE
:101540004254214600F08AFC0546002D01D00120BE
:1015500000E00020002800D01EE000F0DBF9054686
:10156000002D01D0012000E00020002800D013E071
:101570000521684600F084FA0546002D01D00120BF
:1015800000E00020002800D006E00521684600F0B9
:10159000B5F805462846FEBD1120FCE738B52620E3
:1015A00000900121684600F059FC0446002C02D14D
:1015B0000920000338BD2046FCE710B5044600F0C2
:1015C00089FA00F0DFFB22460721082000F0C2F96B
:1015D00010BD10B5FFF7BDF800F008F800F0B7F83F
:1015E000032000F0C3F8FFF761FF10BD00200021C9
:1015F0000A4A117051709170D1701171002208491E
:101600000A7000BF06E007490A5C0449491D0A54F4
:10161000411CC8B2FF28F6DB70470000DC00002048
:10162000E0010020E1010020F8B505460F46002446
:101630007D26F600FFF7CDFF00F089F8044607E0AD
:10164000012004F005F900F082F80446701E86B20D
:1016500009200003844201D0002EF1D109200003AB
:10166000844201D00020F8BD00F034FA044609207D
:101670000003844201D0012000E00020002800D0B7
:1016800038E000F0A9FA044609200003844201D0A2
:10169000012000E00020002800D02BE02A46394637
:1016A000002000F0BDF909210903884214D1687AAD
:1016B0000002A97A084310490880FFF7F7FE0446A4
:1016C00009200003844201D0012000E0002000280E
:1016D00000D00FE00120C6E7FFF7E8FE044609202E
:1016E0000003844201D0012000E00020002800D047
:1016F00000E000BF0020B6E70400002070B50446FB
:101700000D460026002D04D029462046FFF7B8FEDE
:101710000646002E09D1281F205C0002FF21090285
:101720000840E91E615C084370BD00260521204683
:10173000FFF7A6FE0646002E01D01220F4E76078DF
:101740000002FF2109020840A1780843ECE738B500
:10175000522000900121684600F080FB0446002CD6
:1017600002D10920000338BD2046FCE730B585B022
:10177000044600200090019002900390052C02DDA9
:10178000142005B030BD00F0A5F900F0FBFA04AA62
:101790000121042000F0DEF86946087CF0210840B1
:1017A0002043049000F0EEFA6A461021032000F076
:1017B00019FC04AA0121042000F084FB05462846F8
:1017C000DFE711B585B000200190029003900490EE
:1017D0006846007D002806D06846007D012802D0BA
:1017E000142006B010BD00F075F900F0CBFA01AA84
:1017F0001021032000F0F6FB05AA0121022000F0D1
:1018000061FB04462046ECE730B585B00446002075
:101810000090019002900390052C02DD142005B089
:1018200030BD00F057F900F0ADFA04AA0121042000
:1018300000F090F86846007C0007000F2101084383
:10184000C1B2049100F09EFA6A461021032000F014
:10185000C9FB04AA0121042000F034FB05462846F8
:10186000DDE70000F8B505460E4600247D27FF00A1
:1018700025480068254988423DD12548864203D144
:10188000FFF765FF044611E0FFF788FE044607E016
:10189000012003F0DDFFFFF781FE0446781E87B2CA
:1018A00009200003844201D0002FF1D10920000358
:1018B000844201D00020F8BD00F00CF90446092054
:1018C0000003844201D0012000E00020002800D065
:1018D00018E0284600F0ECF9044609200003844291
:1018E00001D0012000E00020002800D00AE00648D6
:1018F00005600120DFE704480068A84201D101200B
:10190000D9E700BF0020D6E708000020EFBEADDE1B
:10191000FFFF000070B50E4C00250520FEF7DAFB36
:1019200000BFFEF72AFFAC2001F0CEFDFEF7CAFD96
:101930000546FEF741FF002D03D1601E80B2041E54
:10194000EFDC002C01DD002070BD00BF1120FBE7A3
:10195000FF0F0000F7B5FFB085B006460C462E4FCE
:1019600000202E490870B0204870FF20000230404F
:1019700000128870CE70C81DFD30047083A8F92253
:101980000C3140973F906846FEF764FCFF22063218
:10199000224941A8FEF75EFCFF20A03041A90EC9F4
:1019A000FFF7ACFC80A88089C1B2384600F056FA37
:1019B0000546002D01D0012000E00020002800D0C5
:1019C00027E0FFF7A7FF0546002D01D0012000E02A
:1019D0000020002800D01CE0601DC1B2384600F095
:1019E0004FF80546002D01D0012000E0002000281E
:1019F00000D00EE0601DC1B23846FFF77FFE0546FD
:101A00002246791C8698FEF725FC28467FB008B050
:101A1000F0BD1120FAE70000E0020020DC00002009
:101A2000F8B506460C461746F62C20DD00BF3A46B0
:101A3000F6213046FFF78EFF05463046F63086B277
:101A4000F6372046F63884B2F62C03DD0920000371
:101A50008542ECD00920000385420ED1002C0CD029
:101A6000E1B23A463046FFF775FF054605E0E1B2C0
:101A70003A463046FFF76EFF05462846F8BD00009F
:101A8000F8B505460E46124F0024FEF776FEAD204F
:101A900001F01AFD05E03846791E8FB2002800D10A
:101AA00012E0FEF70FFD0028F5D0002406E001F05B
:101AB00009FA285501F084FA601CC4B2B442F6DB7E
:101AC000FEF77AFE0020F8BDFEF776FE1120FAE759
:101AD000FF070000F0B5FFB08AB00025384E0520A2
:101AE0008890072737A103C98791869000208590A9
:101AF000012080028490002034490870A42048709E
:101B0000FF210902849808400012304988708498A7
:101B1000C8700846077100BF06E086A8415D2B48E3
:101B2000401D4155681CC5B2BD42F6DB2848859969
:101B3000017083A8F92225490C3140963F906846F0
:101B4000FEF788FBFF220632204941A8FEF782FB00
:101B5000204841A90EC9FFF7D1FB80A88089C1B2F6
:101B6000304600F07BF90446002C01D0012000E053
:101B70000020002800D020E0FFF7CCFE0446002C17
:101B800001D0012000E00020002800D015E0304600
:101B90008899FFF775FF0446002C01D0012000E072
:101BA0000020002800D008E030468899FFF7A6FD05
:101BB000044620467FB00AB0F0BD1120FAE70000CD
:101BC000E0020020D276000085010100DC00002048
:101BD000E0010020FF010000F0B5FFB088B0314EF9
:101BE00005208690022085900C252F4F00202F493C
:101BF0000870A4204870FF2000022840001288705E
:101C00000846C57085980871FF200002384001120F
:101C100026484171877184A8F92224490C314096E5
:101C20003F906846FEF716FBFF2206321F4942A886
:101C3000FEF710FBFF20803042A90EC9FFF75EFBC4
:101C400080A8008AC1B2304600F008F90446002C92
:101C500001D0012000E00020002800D020E0FFF7A4
:101C600059FE0446002C01D0012000E0002000288D
:101C700000D015E030468699FFF702FF0446002C9D
:101C800001D0012000E00020002800D008E030460C
:101C90008699FFF733FD044620467FB008B0F0BDBB
:101CA0001120FAE7E002002003E10000DC00002040
:101CB000F0B5FFB088B00546304F05208690022071
:101CC00085900C2600202E490870A4204870FF2023
:101CD00000023040001288700846C670859808716E
:101CE000FF2000022840011225484171857184A817
:101CF000F92223490C3140973F906846FEF7AAFA33
:101D0000FF2206321E4942A8FEF7A4FAFF208030C7
:101D100042A90EC9FFF7F2FA80A8008AC1B238467C
:101D200000F09CF80446002C01D0012000E00020C7
:101D3000002800D020E0FFF7EDFD0446002C01D084
:101D4000012000E00020002800D015E038468699E8
:101D5000FFF796FE0446002C01D0012000E0002091
:101D6000002800D008E038468699FFF7C7FC0446F3
:101D700020467FB008B0F0BD1120FAE7E002002055
:101D8000DC000020F0B5FFB088B0314E0520869011
:101D9000022085900C252F4F00202F490870A42089
:101DA0004870FF2000022840001288700846C57065
:101DB00085980871FF2000023840011226484171C1
:101DC000877184A8F92224490C3140963F906846D7
:101DD000FEF740FAFF2206321F4942A8FEF73AFA00
:101DE000FF20803042A90EC9FFF788FA80A8008A38
:101DF000C1B2304600F032F80446002C01D0012078
:101E000000E00020002800D020E0FFF783FD04461A
:101E1000002C01D0012000E00020002800D015E0B7
:101E200030468699FFF72CFE0446002C01D0012095
:101E300000E00020002800D008E030468699FFF737
:101E40005DFC044620467FB008B0F0BD1120FAE7E3
:101E5000E002002001E10000DC000020F8B50546AA
:101E60000E46174F0024FEF788FCAC2001F02CFB37
:101E700005E03846791E8FB2002800D11CE0FEF73D
:101E800021FB0028F5D0002410E0285D01F01CFBA8
:101E90000B4F05E03846791E8FB2002800D10BE0C9
:101EA000FEF710FB0028F5D0601CC4B2B442ECDB96
:101EB000FEF782FC0020F8BDFEF77EFC1120FAE759
:101EC000FF0F0000F7B5FFB087B006460F463A484F
:101ED00085900025002039490870D6204870FF20E1
:101EE0000002304000128870CE700846077100BFB3
:101EF00006E08898415D3148401D4155681CC5B2D7
:101F0000BD42F6DB84A98598F9223F9140902B4988
:101F10000C316846FEF79EF9FF220632274942A897
:101F2000FEF798F9FF20803042A90EC9FFF7E6F9C5
:101F300080A8008AC1B28598FFF790FF0446002C64
:101F400001D0012000E00020002800D031E0FFF7A0
:101F5000E1FC0446002C01D0012000E00020002814
:101F600000D026E005218598FFF78AFD0446002C65
:101F700001D0012000E00020002800D019E0859861
:101F8000FEF739FC00280BD104218598FFF7B6FB3A
:101F900012280AD085994878FFF7B8FA044604E079
:101FA00005218598FFF7AAFB044620467FB00AB0BA
:101FB000F0BD1120FAE70000E0020020DC00002064
:101FC00002460878424010015040C2B20888001210
:101FD00013025840D3005840131158400880088815
:101FE00070470000F7B5FFB087B005460C46434880
:101FF000859000260027032D03DD14207FB00AB052
:10200000F0BD002C03D0102C01D01420F6E70020E6
:102010003B49087020204870FF2000022840001231
:102020008870CD7008460471102C21D1002706E07D
:102030008898C15D3248401DC155781CC7B2A7427F
:10204000F6DB84A98598F9223F9140902C490C3108
:102050006846FEF7FFF8FF220632294942A8FEF73C
:10206000F9F8FF20803042A90EC9FFF747F915E0C3
:1020700084A98598F9223F91409021490C31684606
:10208000FEF7E8F8FF2206321D4942A8FEF7E2F803
:10209000FF20403042A90EC9FFF730F980A8008A1E
:1020A000C1B28598FFF7DAFE0646002E01D0012066
:1020B00000E00020002800D01EE0FFF72BFC0646C1
:1020C000002E01D0012000E00020002800D013E005
:1020D00005218598FFF7D4FC0646002E01D001208B
:1020E00000E00020002800D006E005218598FFF7D9
:1020F00005FB0646304681E711207FE7E00200201D
:10210000DC00002070B5044600250026224602218E
:102110000020FFF785FC05460920000385420AD10F
:102120002078060260780643B01C81B22246002067
:10213000FFF776FC054609200003854201D1012006
:1021400070BD0020FCE7000010B501F057F903480E
:1021500001F0A4F9FFF7AAF910BD0000D40800208F
:10216000C206D20E01219140014A11607047000061
:1021700080E200E0C206D20E01219140014A1160C6
:102180007047000080E200E0C206D20E01219140BB
:10219000014A11607047000080E100E0C206D20EE3
:1021A00001219140014A11607047000000E100E008
:1021B000C206D20E01219140014A11607047000011
:1021C00000E100E0C206D20E01219140014A1160F7
:1021D0007047000000E200E0C206D20E01219140EB
:1021E000014A11607047000000E200E010B50028CD
:1021F00019DA1A4A03071B0F083B9B089B00D258A9
:102200008307DC0EFF23A3409A438B071B0E840732
:10221000E40EA3401A43114B0407240F083CA40802
:10222000A4001A5118E00E4A03231B02D218830897
:102230009B00D2588307DC0EFF23A3409A438B07F1
:102240001B0E8407E40EA3401A43054B032424020B
:102250001B198408A4001A5110BD00001CED00E0F9
:1022600000E100E010B5002819DA1A4A03071B0F35
:10227000083B9B089B00D2588307DC0EFF23A3403A
:102280009A438B071B0E8407E40EA3401A43114B9D
:102290000407240F083CA408A4001A5118E00E4AB1
:1022A00003231B02D21883089B00D2588307DC0E3D
:1022B000FF23A3409A438B071B0E8407E40EA34021
:1022C0001A43054B032424021B198408A4001A5145
:1022D00010BD00001CED00E000E100E010B500289A
:1022E00019DA1A4A03071B0F083B9B089B00D258B8
:1022F0008307DC0EFF23A3409A438B071B0E840742
:10230000E40EA3401A43114B0407240F083CA40811
:10231000A4001A5118E00E4A03231B02D2188308A6
:102320009B00D2588307DC0EFF23A3409A438B0700
:102330001B0E8407E40EA3401A43054B032424021A
:102340001B198408A4001A5110BD00001CED00E008
:1023500000E100E000213F48417581740175C174BE
:102360003D48C0783D4908703B48007948703A487C
:102370004079887038488079C870394880793949FF
:1023800008703748C179007A0A2250430918344846
:10239000407A6422504308183349088030488078D6
:1023A000324908702E48C07848702D4800798870EE
:1023B0002B484079C8705A202D490870274800786A
:1023C0004870264841782A488170244881782848F6
:1023D000C1702248C1782648017100202449487103
:1023E000CA212448C1706120234908701C488078A4
:1023F00048701B48C078887019480079C870184820
:1024000040790871154800784871144840788871FF
:1024100012488078C8711148C0780872002048724C
:102420008872C872FF200873487300208873612186
:102430001148E030C17600211B30417281720121C8
:10244000C172FF210173417300218173C173212186
:1024500001747047B50F0020540000204800002090
:10246000D408002050000020520000204C00002022
:10247000CD0B0020CD0C00209E0600201548807951
:10248000154908701348C179007A0A225043091887
:102490001048407A642250430818104908800D48BB
:1024A00080780F4908700B48C07848700948007957
:1024B000887008484079C870064880780949487093
:1024C0000448C078887003480079C8700148407992
:1024D00008717047D40800205000002052000020EE
:1024E0004C0000209E06002010B5FF20013003F0B4
:1024F0006FF900280ED0FF20013003F074F901209D
:1025000003F08AF901202949487200212748001D5B
:1025100001F068FCFF20053003F05AF900280ED0C6
:10252000FF20053003F05FF9022003F075F9012068
:102530001E49887201211D48103001F053FCFF2014
:10254000113003F045F900280AD0FF20113003F0C4
:102550004AF9102003F060F91448143003F08EFAA1
:10256000FF200D3003F034F900281ED0FF200D307D
:1025700003F039F9082003F04FF903F065FA0B482E
:1025800020300078042801D1032000E00220044616
:1025900000210648203001702038C069002803D08F
:1025A0000248C1692046884700BF10BD982200201C
:1025B0000220124909680870002010490968487013
:1025C0000E49096888700D490968C8700B49096887
:1025D000C8800B480949096888600A4807490968A2
:1025E000C86009480549096808610848034909683D
:1025F0004861074801490968886170476C000020FC
:10260000896E0000FD6E0000956F0000AD6F000048
:10261000F176000010B51B480068002808D01A4861
:102620004068C007C00F002802D00020154908608C
:102630001448C06800280FD013484068082108409B
:10264000002809D000200F49C86010480068002801
:1026500002D00E48006880470A48006900280FD061
:102660000948406810210840002809D00020054989
:10267000086107480068002802D0054800688047C4
:1026800010BD00000011004000130040A800002011
:10269000A400002070B504F0FBFC044600BF2546F2
:1026A000002D04D000BF284601F0D6F800BF00BFBF
:1026B00000201B49096808701949096848701849C1
:1026C00009688870032016490968888064201449C5
:1026D0000968C8801420124909680881FF202D303C
:1026E0000F49096848810F480D490968C8600E48BC
:1026F0000B49096808610D480949096848610C4897
:102700000749096888610B4805490968C8610A4892
:10271000034909680862094801490968486270BDAF
:10272000340000204D710000397100007166000016
:1027300009560000DD5600006557000045570000AF
:1027400010B50020074908600021064841608160FB
:10275000C1600020034940390860486005F0E8FA8C
:1027600010BD00004011014010B51B2003F0DAFE3F
:102770001A2003F017FF00BF0520FDF7DBFC00BFA8
:1027800003211A2003F05CFE00BF0520FDF7D2FCF8
:1027900000BF1B2003F006FF00BF0520FDF7CAFCA9
:1027A00000BF1A2003F0D0FEC4B21B2003F0BAFE13
:1027B00000BF0520FDF7BEFC00BF1A2003F072FE2B
:1027C000204610BD10B51A2003F0ECFE1B2003F0CC
:1027D000E9FE00BF0520FDF7ADFC00BF1A2003F0A5
:1027E000A1FE00BF0520FDF7A5FC00BF1B2003F0E4
:1027F00099FE00BF0520FDF79DFC00BF10BD10B580
:102800001B2003F08FFE1A2003F08CFE00BF052072
:10281000FDF790FC00BF1B2003F0C4FE00BF0520A5
:10282000FDF788FC00BF1A2003F0BCFE00BF0520A6
:10283000FDF780FC00BF10BD7CB500241B2003F019
:10284000B1FE1A2003F0AEFE1B2003F02BFE1A206F
:1028500003F028FE00210D2000F013FA01207C492E
:10286000096808707B487A49096888617A4878491C
:1028700009684861794876490968886078487449E8
:102880000968C860774872490968486076487049A5
:102890000968086104F068FC744880790007000F3B
:1028A0007349087071488079F0210840001171491E
:1028B00008706E4840790007000F6F4908706B4838
:1028C0004079F021084000116C4908706748007990
:1028D0000007000F6A49087064480079F021084039
:1028E000001168490870614880780007000F664948
:1028F00008705E488078F021084000116349087034
:102900005A4840780007000F6149087057484078DE
:10291000F021084000115F49087054480078000712
:10292000000F5D49087051480078F02108400011FF
:102930005A49087057480078012800DD012453489F
:102940000078032800DD01244E480078052800DDCA
:1029500001244A480078052800DD01244548007814
:10296000052800DD0124002C70D0002410203F49F0
:10297000087006204870152088700220C87010204A
:10298000087100204871887188790A21FDF71EFCC2
:102990000501364988790A21FDF718FC0D43684680
:1029A0000570324948790A21FDF710FC05012F49CD
:1029B00048790A21FDF70AFC0D43684645702B490A
:1029C00008790A21FDF702FC0501284908790A2146
:1029D000FDF7FCFB0D4368468570244988780A2181
:1029E000FDF7F4FB0501214988780A21FDF7EEFB8C
:1029F0000D436846C5701D48C178684601711B4982
:102A000048780A21FDF7E2FB0501184948780A21B8
:102A1000FDF7DCFB28460843C1B268464171134903
:102A200008780A21FDF7D2FB05460A21FDF7CEFB07
:102A30000D010E4908780A21FDF7C8FB0D436846D1
:102A4000857107226946022000F0F2F87CBD000083
:102A500024000020C32E0000C12E0000D92D00004C
:102A60006D2D0000912E0000697100001C000020F7
:102A70001000002011000020120000201300002090
:102A80001400002015000020160000201700002070
:102A900018000020190000201A0000201B00002050
:102AA000F8B50646012700241A2003F07BFD00BF7D
:102AB0000520FDF73FFB00BF03211A2003F0C0FCF7
:102AC000002525E01B2003F02DFD00BF0520FDF7AC
:102AD00031FB00BF00BF0520FDF72CFB00BF1B2012
:102AE00003F060FD1A2003F02FFDC7B2002F02D0C3
:102AF0000120044301E0FE20044000BF0520FDF753
:102B000019FB00BF072D01DA6006040E681CC5B270
:102B1000082DD7DB1B2003F005FD1A2003F0C2FCB3
:102B2000304600F059F82046F8BDF8B506460D4687
:102B30001746002000900024FFF744FEA22000F07A
:102B4000BEF8002809D0304600F0B9F8002802D0BD
:102B50000120009001E0002000900098002837D06C
:102B6000FFF730FEA32000F0AAF800282ED00024A2
:102B700021E00020FFF794FF2855A019042803D175
:102B8000285D402188432855A019052803D1285DD8
:102B9000402188432855A019062803D1285DF82133
:102BA00088432855A019072803D1285D6021884350
:102BB0002855601CC4B2781EA042DADC0120FFF761
:102BC0006FFF791E68540120009001E00020009002
:102BD000FFF715FE0098F8BD10B504461B2003F062
:102BE000A1FC00BF0520FDF7A5FA00BF1A2003F0E5
:102BF00059FC002C03D01A2003F0D4FC02E01A2068
:102C000003F090FC00BF0520FDF794FA00BF1B20E5
:102C100003F0C8FC00BF0520FDF78CFA00BF1B20A5
:102C200003F080FC00BF0520FDF784FA00BF10BD53
:102C3000F8B507460D46164600200090FFF7C2FD86
:102C4000A22000F03CF8002817D0384600F037F8F2
:102C5000002810D0002408E0285D00F030F800289B
:102C600001D1009003E0601CC4B2B442F4DB00BFA9
:102C70000120009001E000200090FFF7C0FD0098C7
:102C8000F8BD70B505460C460026FFF79BFDA22057
:102C900000F015F800280ED0284600F010F80028A3
:102CA00008D0204600F00BF8002801D0012602E0F1
:102CB000002600E00026FFF7A2FD304670BD70B58B
:102CC0000446002500BF23E01B2003F02BFC00BFBF
:102CD0000520FDF72FFA00BF80202040802803D177
:102CE0001A2003F05FFC02E01A2003F01BFC00BF77
:102CF0000520FDF71FFA00BF1B2003F053FC00BFA7
:102D00000520FDF717FA00BF6006040E681CC5B267
:102D1000082DD9DBFFF728FD002801D0002070BD69
:102D20000120FCE710B50249282002F04FFE10BD3B
:102D3000352D000010B50446002C06D0012C05D01E
:102D4000022C04D0032C0CD106E00BE00AE006496B
:102D5000282002F03BFE05E00349282002F036FE61
:102D600000E000BF00BF10BD352D00001348807883
:102D70000007000F1249087010488078F0210840C1
:102D80000011104908700D4840780007000F0E49E7
:102D900008700A484078F021084000110B4908707B
:102DA000064800780007000F0949087003480078BA
:102DB000F021084000110749087070471C000020EE
:102DC0001600002017000020180000201900002025
:102DD0001A0000201B00002010B52548807900074C
:102DE000000F2449087022488079F0210840001122
:102DF000214908701E4840790007000F1F490870DC
:102E00001B484079F021084000111D4908701848FE
:102E100000790007000F1B49087015480079F02160
:102E2000084000111849087018480078002805D09B
:102E3000FDF7E6FE00201549087004E0FDF768FE86
:102E4000012012490870104801780420FDF767FF3F
:102E50000C4801780320FDF762FF09480178022041
:102E6000FDF75DFF054801780120FDF758FF10BD13
:102E70001C00002010000020110000201200002083
:102E8000130000201400002015000020280000205E
:102E900010B509480068007800280CD00748006881
:102EA0000078002807D104F05FF9FFF795FF0020B4
:102EB00001490968087010BD240000206800002046
:102EC0007047704770B5012600240E2003F05AFBAE
:102ED00000BF0620FDF70EF900BF03210E2003F00E
:102EE000A2FA002525E00D2003F00CFB00BF062010
:102EF000FDF700F900BF00BF0620FDF7FBF800BF9B
:102F00000D2003F03FFB0E2003F014FBC6B2002E91
:102F100002D00120044301E0FE20044000BF06204F
:102F2000FDF7E8F800BF072D01DA6006040E681C03
:102F3000C5B2082DD7DB0D2003F0E4FA0E2003F014
:102F400099FA204670BD00003EB51948006801900E
:102F500002A802F0D1FF0446002C27D115480068D2
:102F6000002823D00298C007C00F002806D00020F8
:102F70006946087068460F49096888470221029827
:102F80000840002806D001206946087068460949B3
:102F900009688847042102980840002806D00220CA
:102FA0006946087068460349096888473EBD0000C5
:102FB0009C0000207C00002010B504F0CDFD10BD69
:102FC00010B50D2003F09EFA00BF0620FDF792F821
:102FD00000BF0E2003F096FA00BF0620FDF78AF826
:102FE00000BF0D2003F0CEFA00BF0620FDF782F8E7
:102FF00000BF0D2003F086FA10BD000010B501F0EF
:10300000F3F9002805D0104810494860C81310494A
:10301000886101F0CDF9002802D001200D498860B7
:1030200001F018FA00280ED00B480068012807D0DC
:103030000A480949086000BF074800680128FBD119
:10304000C0200549486110BDDFFF07C000050040F2
:10305000006C00400006004000EC06407593000044
:1030600070B500BF0023AD4A0F21184600F026FCC2
:10307000054600BF2E46002E04D000BF304600F0AB
:10308000EBFB00BF00BF00BFA54A0121A54800F02F
:10309000F3FB044600BF2546002D04D000BF2846A0
:1030A00000F0DAFB00BF00BF9F4A01219F4800F0FB
:1030B000E3FB044600BF2546002D04D000BF284690
:1030C00000F0CAFB00BF00BF994A0121994800F0F7
:1030D000D3FB044600BF2546002D04D000BF284680
:1030E00000F0BAFB00BF00BF934A0121934800F0F3
:1030F000C3FB044600BF2546002D04D000BF284670
:1031000000F0AAFB00BF00BF8D4A01218D4800F0EE
:10311000B3FB044600BF2546002D04D000BF28465F
:1031200000F09AFB00BF00BF874A0121874800F0EA
:10313000A3FB044600BF2546002D04D000BF28464F
:1031400000F08AFB00BF00BF814A0121814800F0E6
:1031500093FB044600BF2546002D04D000BF28463F
:1031600000F07AFB00BF00BF7B4A01217B4800F0E2
:1031700083FB044600BF2546002D04D000BF28462F
:1031800000F06AFB00BF00BF754A0121754800F0DE
:1031900073FB044600BF2546002D04D000BF28461F
:1031A00000F05AFB00BF00BF6F4A01216F4800F0DA
:1031B00063FB044600BF2546002D04D000BF28460F
:1031C00000F04AFB00BF00BF694A0121694800F0D6
:1031D00053FB044600BF2546002D04D000BF2846FF
:1031E00000F03AFB00BF00BF634A0121634800F0D2
:1031F00043FB044600BF2546002D04D000BF2846EF
:1032000000F02AFB00BF00BF5D4A00215D4800F0CE
:1032100033FB044600BF2546002D04D000BF2846DE
:1032200000F01AFB00BF00BF002057490968087072
:1032300056485549096848605548534909688860A7
:10324000544851490968C86053484F4909680861A2
:1032500052484D490968486151484B49096888619D
:10326000504849490968C8614F4847490968086298
:103270004E484549096848624D4843490968886293
:103280004C4841490968C8624B483F49096808638E
:103290002B483D490968486348483B4909688863A9
:1032A000474839490968C863464837490968086486
:1032B0004548354909684864444833490968886481
:1032C000434831490968C86442482F49096808657C
:1032D00041482D490968486540482B490968886577
:1032E0003F4829490968C8653E4827490968086672
:1032F0003D482549096848663C482349096888666D
:103300003B4821490968C8663A481F490968086767
:1033100039481D490968486770BD0000E411002064
:10332000557A0000C081000001730000C4810000D4
:10333000E1750000C8810000817E0000CC810000A2
:10334000E54D0000D081000091720000D4810000A2
:10335000D17D0000D8810000C16F0000DC81000039
:10336000C13B0000E0810000B1710000E481000079
:10337000CD790000E88100000D810000EC810000A3
:103380003D6F0000F08100006000002069510000E6
:10339000697A0000957A000025730000AD73000083
:1033A0000D760000C97600006D750000B97E000042
:1033B000E57E0000554E0000854E0000A972000019
:1033C000D9720000F57D0000217E0000D96F000059
:1033D00005700000D13B0000013C0000217200009C
:1033E0004D720000017A00002D7A00002D8100004E
:1033F00079810000416F00006D6F00007FB50025EE
:10340000244C0F216846FEF70FF90546FEF7C6F873
:103410000020FEF7ABF90420FEF7F6F90020FEF7D6
:10342000D0F91D48FEF7C9F86846007801026846E1
:1034300040780143218068468078A0706846C07853
:103440000102684600790143A18068464079010283
:10345000684680790143E1806846C07920726846F9
:10346000007A60726846407A01026846807A0143B9
:1034700061816846C07A01026846007B0143A181F0
:103480006846407BA0736846807BE073284604B0A2
:1034900070BD0000E00300205400002070B5054618
:1034A0000026084C60890021FEF7DCF9012806D1CE
:1034B0002846FEF727FE06466089FDF7B9FF30462D
:1034C00070BD0000E003002070B50446002500BF79
:1034D00023E00D2003F016F800BF0620FCF70AFEDB
:1034E00000BF80202040802803D10E2003F04AF83E
:1034F00002E00E2003F006F800BF0620FCF7FAFDFC
:1035000000BF0D2003F03EF800BF0620FCF7F2FDDF
:1035100000BF6006040E681CC5B2082DD9DB70BD63
:1035200010B502460B461078012103E0545C604060
:103530004C1CA1B29942F9DB10BDF8B582B28BB236
:10354000040C0D0C10465843002126465E43370CF0
:1035500036048019794116466E43370C36048019BB
:10356000794126466E438919F8BD30B47446641E0D
:103570002578641CAB4204D3635D5B00E31830BC68
:1035800018471D46F8E702E008C8121F08C1002AC4
:10359000FAD170477047002001E001C1121F002AD4
:1035A000FBD1704710B5002405E0002114480155F7
:1035B0000155601CC4B2632CF7DB00201149096877
:1035C000087000211048C174FF382138C1710E48BD
:1035D0008174FDF79DFA0D480068416B0020884713
:1035E0000A480068016B0020884708490968486C50
:1035F000804706480068816B05480088884710BDF1
:10360000D60D002068000020B50F00200C0000201F
:103610005200002070B506463078002879D101208C
:103620004149096808700A21404800F011FA012553
:1036300006E068003D49085A001984B2681CC5B20A
:10364000092DF6DBE122120162431146D217520F17
:103650005218D010C217920D12189201140C324851
:103660000068807800282ED03148844205DD31483A
:103670000068416A0320884751E02D48643884423D
:1036800009DD2D208001844205DA2A480068416A5C
:103690000220884743E055204001844209DD244848
:1036A0008C38844205DA23480068416A0120884743
:1036B00035E01F48F038844231DA1E480068416A1C
:1036C000002088472BE01A481438844205DB19484B
:1036D0000068416A0320884721E0AF20000184424E
:1036E00009DB13481438844205DA12480068416A3D
:1036F0000220884713E00E48DC3884420ADBAF2002
:103700000001844206DA0B480068416A01208847BC
:1037100005E008E007480068416A0020884701206A
:1037200001490968887070BD44000020B00800207D
:10373000680B00000C00002010B5FF20013002F0E3
:1037400033F800BF00201E49086000BF00BF0846D4
:10375000806800B21B49C9681A4A527C52008852DC
:103760001848407C401C174948740846407C097C36
:10377000884223DA0024134880684068002804D176
:10378000104840680F49886005E00E48806840682E
:103790000C49886001240B498968086801F0F2FF30
:1037A00000BF01200649086000BF002C04D000BF04
:1037B000054A106000BF00BF002010BD0120FCE7DB
:1037C00000750040842200200070004010B50A21DE
:1037D000024802F04BF802F0C3F810BDB008002018
:1037E00010B509480068007800280CD00748006828
:1037F0004078002807D005490968486880470020BC
:1038000002490968487010BD3400002044000020BF
:1038100010B50446204600F007FA00BA10BD0000BB
:1038200000BF00BF00BF00BF00BFBFF34F8F00BF8E
:1038300000BF00BF06480749C86000BF00BF00BF07
:10384000BFF34F8F00BF00BF00BF00BF00BFFDE749
:103850000400FA0500ED00E03EB5044600200090AB
:103860000190029002946A4600210248FFF7D8FFB7
:103870003EBD00000140000010B503460C4600BFED
:103880000D480068002801D1082010BD00BF002AA3
:1038900001D10720F9E7002B01D10720F5E71868CF
:1038A000007C002801D00820EFE719680020087488
:1038B0004C744A6100BFE8E7B4000020FFB581B056
:1038C0000E4614461F4620468107890F002901D164
:1038D000012100E00021002902D1072005B0F0BD40
:1038E000002C04D100201C4908600720F6E703F0F3
:1038F000A7FD1A480760032019490870164804609C
:10390000183400250CE0E900134A126888180021D9
:103910000170417086704460182171430C196D1C50
:10392000032DF0DB00200F4908600F4908700F4994
:1039300008701520FEF71EFC03211520FEF792FCEF
:103940001520FEF735FC019803F050FD03F048FD0B
:10395000074908600020C1E7B4000020CC00002027
:10396000B0000020B8000020C8000020C9000020DE
:10397000BC000020FEB504460D461746264600BF93
:1039800012480068002801D10820FEBD00BF002CAD
:1039900001D10820F9E7052D01D20720F5E770696C
:1039A000002801D10820F0E7707C012801D12846C9
:1039B00000E00020029004F07FFB009701902A466F
:1039C0003146029B04F068F9DFE70000B4000020F4
:1039D00070B50446254600BF0B480068002801D199
:1039E000082070BD00BF002C02D06869002801D1FA
:1039F0000820F6E70020287404F05EFB06462946FE
:103A000004F076F9EDE70000B400002000B50246AE
:103A100000F006F800BD00B5024600F00BF800BD4E
:103A200072B603480068401C0149086070470000F6
:103A3000D400002005480068401E0449086008467C
:103A40000068002800D162B670470000D400002052
:103A5000F8B505460E460120009000271AE0002028
:103A60000090701E84B211E06000295E601E40006C
:103A7000285E814208DA621E520051196200501914
:103A800003F084FF01200090601E84B2BC42EBDC96
:103A9000781C87B2B74202DA00980028DFD1F8BD5F
:103AA00070B504460E460C2C12D1FDF750FE0546AB
:103AB0000A48FFF7F3FC0546FDF7F8FC0546FEF75C
:103AC000DDFC07480068816B06480088884703E0F2
:103AD000012005490968487070BD0000D408002025
:103AE0000C000020520000202C00002010B53049AE
:103AF0000968486880472E4800680078002854D03C
:103B000000202B49096808702A48006800780328BB
:103B100004D1284909684869804710BD26490968C9
:103B2000C86C804724490968886C80472048006831
:103B3000C0780300FFF719FD11370A0B0C0D0E0FAB
:103B40001D1E1F2627282B2E3134370000BF00BF33
:103B500000BF00BF00BF1948807C002802D100F0E0
:103B6000A9FE05E01548807C012801D100F078FD10
:103B70001AE019E000BF1148807C002801D100F054
:103B8000A3FD11E010E00FE000F09CFD0CE000F060
:103B900011FD09E001F004F806E000F0FDFD03E08E
:103BA00000F078FF00E000BF00BF00BFB5E70000F5
:103BB0002C0000206C00002060000020B50F0020C9
:103BC0000121024A12685170704700002C00002049
:103BD00070B50022084909480068FFF7CBFE04468B
:103BE00000BF2546002D04D000BF2846FFF734FE55
:103BF00000BF00BF70BD000066060000E08100004D
:103C000070B508480068FFF7E3FE044600BF25468C
:103C1000002D04D000BF2846FFF71EFE00BF00BFE6
:103C200070BD0000E0810000014608680D4A0240B6
:103C300012090C4BDB4303401B011A4310460A4A8E
:103C400002409208084BDB4303409B001A43104696
:103C5000064A02405208054BDB4303405B001A430F
:103C600010467047F0F0F0F0CCCCCCCCAAAAAAAAAF
:103C70000021C9438200054B9950042804DB0B4600
:103C8000011F024A4C32535470470000302200207A
:103C900001468800014A1058704700003022002079
:103CA000F7B585B00B460020C0430490002A01D030
:103CB000002000E004200390002A01D0042000E04E
:103CC0000B20029003991EE08800124C2058401CE3
:103CD000002817D10846059C0093019246B20D4D6D
:103CE0002C352E5585000B4E009B7351019A002AEE
:103CF00004D166B2051F074F4C377E5500BF48B24E
:103D0000049003E0491C02988142DDD300BF04986F
:103D100008B0F0BD302200200146014840567047EF
:103D20005C22002010B5FF201430104908601049B3
:103D3000C87C1049096888470F481049486000202E
:103D40000F49086101200F49086100BF0C48006954
:103D50000028FBD000200A490861FF2018300349E1
:103D6000086001200749486010BD000000120040B3
:103D7000BC160020AC0000200421002000150040EB
:103D80000011004000100040044A125C08231A4051
:103D9000024B1A5400225A5470470000F0030020CE
:103DA00010B504460E48007804280ED101F04CFEF0
:103DB00000210B4801702038C06900280ED0084847
:103DC0002038C1690320884708E0082001F02AFD57
:103DD000032103480170102001F034FD10BD0000E4
:103DE000B822002070B506460C460BE0304600F0C5
:103DF0005BFB0546002D03D020466968884700E03C
:103E000001E000BFF2E700BF70BD000010B52C4814
:103E10004078002852D02A484079821E29492A48F1
:103E2000FCF718FA2848807917282BD008DC1038BE
:103E30000300FFF79AFB0715181B241E36213600D6
:103E40001B280AD004DC182825D0192829D125E000
:103E500031281DD0F12824D117E003F02FFE21E0F6
:103E600003F0AEFC1EE001F009FB1BE001F074FB67
:103E700018E003F093FD15E003F0AAFC12E000F057
:103E80002FF90FE0FFF78EFB0CE003F08FF909E04C
:103E900000F094F906E003F078FD03E000F0BCF8D0
:103EA00000E000BF00BF0020054948700846417986
:103EB0000448FCF7E8F900200149487110BD0000F2
:103EC000D3090020D30A0020D10C0020FEB51F48E2
:103ED0000068002836D01D480068056803F080FAA5
:103EE00001901B4804682146019803F011FEC61C8E
:103EF00018480078002801D103F084FAAE4201D2BC
:103F0000284600E0304604192402240A204603F023
:103F100061FA03F065FA00900199009803F0F8FD4A
:103F2000C71C2046019903F0F3FD874209D903F02D
:103F300057FA074603F04EFA2F20FCF71BF903F05F
:103F400041FF01E003F07CFAFEBD0000B800002054
:103F5000BC000020D000002010B500BFEFF30580AA
:103F6000C105C90D00291FD00A46103A50B20028D9
:103F70000CDA0E4B0407240F083CA408A4001B59BC
:103F80008407E40EE3401B069B0F0BE0084B032461
:103F900024021B198408A4001B598407E40EE34083
:103FA0001B069B0FD8B210BD0420FCE71CED00E0FF
:103FB00000E100E0014614480078144A127890426B
:103FC0001DD011480078401C0F4A10701046007830
:103FD000022801D1002010700B48007880000C4AA4
:103FE000105808600B4A086812688018094A106067
:103FF000104600680002000A10600120704700208F
:10400000086000BFFAE70000C8000020C9000020D7
:10401000C0000020BC00002070470000F0B503463F
:10402000002420E0134E306806689E4203D90668DB
:10403000F61A06601BE006689B1B0668341900260A
:1040400006600C4E35680B4FC6693E60C668002E90
:1040500008D00E193602360A4660C66886601668B1
:10406000C661156000BF034800680028DAD100BFB0
:10407000F0BD0000B800002010B50246002014E09A
:104080004300D45C0A4B1C5443005B1CD35C9C1162
:10409000074B633B1C5443005B1CD35C9C06A40E83
:1040A000034B63331C54431CD8B28842E8DB10BD79
:1040B0009C0E002001200749086000BF06480068E8
:1040C0000028FBD000200449086004488068C0B282
:1040D0007047000000D0004000D1004000D50040F3
:1040E00010B501202E49096888702E4909680870AA
:1040F0002D48007A012800DA10BD002408E00021D4
:104100002A4801550155FF308D300155601CC4B25D
:10411000632CF4DB2448017A2548C174002406E0AE
:10412000601CC1B22148C6300155601CC4B2204891
:10413000C07CA042F4DC01211D488174417400213F
:104140004175FF382138C17919480175FCF7E0FC49
:1041500018480068416B0020884716480068016BCA
:104160000020884713490968486C80471148006857
:10417000816B1148008888470D4A537D533AD05CC3
:104180000C4A1268116C8847094A537DFF3A1A3A63
:10419000D05C084A1268D16B884700BFACE70000CA
:1041A0006C00002068000020D10C0020D60D0020FB
:1041B000B50F00200C00002052000020F0B587B0A1
:1041C0005A48407B002809D15848807B002805D1F7
:1041D0005648C07B002801D107B0F0BD5348007A93
:1041E0005249497A09020843069064210698FBF770
:1041F000EDFF0F460A213846FBF7E8FF07010A21C9
:104200000698FBF7E3FF0F43FDB24849887A0A217D
:10421000FBF7DCFF07014549887A0A21FBF7D6FF47
:104220000F43FEB24149C87A0A21FBF7CFFF0701CD
:104230003E49C87A0A21FBF7C9FF0F43F8B205903F
:104240003A49087B0A21FBF7C1FF07013749087B80
:104250000A21FBF7BBFF0F43F8B204903349487BB8
:104260000A21FBF7B3FF07013049487B0A21FBF71E
:10427000ADFF0F43F8B203902C49887B0A21FBF76E
:10428000A5FF07012949887B0A21FBF79FFF0F4300
:10429000F8B20290264909680869804725480078E5
:1042A000A84227D123484078B04221D121488178C3
:1042B000059881421AD11F4801790498814213D18F
:1042C0001C484179039881420CD1F02102980840A2
:1042D00018494979F0221140884201D100240AE0AE
:1042E000012408E0012406E0012404E0012402E0A6
:1042F000012400E00124002C15D000246946029816
:104300000870684603994170049981700599C170DD
:104310000848C1786846017146718571072269466F
:104320000220FEF785FC00BF56E70000D10C0020FC
:10433000240000201C00002010B5FF20013001F0F7
:1043400052FA012001F06EFA002001F07BFA10BD54
:1043500010B5042001F076FA00BF012001F04AFAFE
:104360000028FAD110BD000010B502F083FF002034
:1043700007E00102091A0A4A89188200094B99507C
:10438000401C0128F5DB002007E00102091A064A5B
:1043900089188200054B9950401C0828F5DB10BD98
:1043A000D4160020D4170020E4170020DC1F0020C2
:1043B0000C48008CC0B2012812D10A48808C00073A
:1043C000000F00280CD10748806AF02108404028DF
:1043D00006D10448C06A0840002801D10120704776
:1043E0000020FCE7C00F00F01948008CC0B2012883
:1043F0002CD11748808C0007000F002826D11448C4
:10440000806AF0210840002806D11148C06A08409F
:10441000002801D1012070470D48806AF021084032
:10442000102806D10A48C06A0840002801D101209E
:10443000F1E70748806AF0210840302806D1044897
:10444000C06A0840002801D10120E4E70020E2E72B
:10445000C00F00F01348008CC0B201281FD11148D2
:10446000808C0007000F002819D10E48806AF021C7
:104470000840A02806D10B48C06A0840002801D196
:10448000012070470748806AF0210840D02806D1F3
:104490000448C06A0840002801D10120F1E700204B
:1044A000EFE70000C00F00F001460868002801D0C7
:1044B00002680A6070470268002A03D002680A6036
:1044C000016002E000220A6001607047F8B501F067
:1044D00067FC044600BF2646002E04D000BF3046CD
:1044E000FFF7BAF900BF00BF304800680090002510
:1044F00015E02F4A6946284601F0D8FB044600BF64
:104500002646002E04D000BF3046FFF7A5F900BFB5
:1045100000BF0021284601F065FB681CC5B2042DD0
:10452000E7DB234A69461E2001F0C0FB044600BFBA
:104530002646002E04D000BF3046FFF78DF900BF9D
:1045400000BF00211E2001F04DFB00210C2001F0D6
:1045500084FF174A69460C2001F0A8FB044600BFFF
:104560002646002E04D000BF3046FFF775F900BF85
:1045700000BF00210C2001F035FB0021192001F0C3
:104580006CFF0B4A6946192001F090FB044600BFFE
:104590002646002E04D000BF3046FFF75DF900BF6D
:1045A00000BF0021192001F01DFBF8BDA081000013
:1045B000A13A000010B500212548427DFF38E038BF
:1045C00081542348427DFF38E03881542048427DA1
:1045D00053388154533001741E4800680078002815
:1045E00003D01D490968486C80471B480068416B2F
:1045F0000020884718480068016B0020884716484B
:104600000068816B1548008888471148807C012824
:1046100004D111480068016C002088470C48C07C18
:10462000002800D110BD0A48807C012804D1084828
:10463000407C022800D1F5E7054A537DFF3A1A3A3B
:10464000D05C054A1268D16B884700BFEAE70000DA
:10465000B50F0020680000200C0000205200002050
:1046600010B51548407C02280BD114480068C17869
:10467000114801740246107C114A1268116C884777
:1046800018E00D48407C012814D10C480068C0781F
:10469000062800D110BD09480068C1780648427D4F
:1046A00053388154044A537D0246D05C044A126850
:1046B000116C884700BFEDE7B50F00202C000020EB
:1046C0000C0000207047000010B53048C07C002866
:1046D00038D12E48417DFF387D38405C032815D005
:1046E00003212A48427DFF387D3881540021274824
:1046F000427DFF38E03881542448427DFF38E0385D
:10470000815423480068416B002088472148006895
:10471000C078082806D101211C48427DFF38E038C6
:10472000815405E002211948427DFF38E038815468
:10473000164A537DFF3AE03AD05C154A1268116B75
:10474000884721E01148417DFF387D38405C0328CF
:104750001AD110480068C078082806D101210B48FA
:10476000427DFF38E038815405E002210748427D50
:10477000FF38E0388154054A537DFF3AE03AD05C77
:10478000034A1268116B884710BD0000B50F002066
:104790000C0000202C00002010B54448C07C0028EC
:1047A00000D110BD4148807C00284FD13F48407D5A
:1047B000002806D13D48C07C401EC1B23B4841752F
:1047C00005E03A48407D401EC1B23848417537483F
:1047D000417DFF387D38405C012804D0022803D099
:1047E000032831D118E000BF304A537DFF3AE03A48
:1047F000D05C2F4A1268516B88472D480068016BC6
:1048000000208847294A537DFF3A1A3AD05C284A4B
:104810001268D16B884718E025480068416B00207A
:104820008847224A537DFF3AE03AD05C204A12681A
:10483000116B88471D4A537DFF3A1A3AD05C1C4AD7
:104840001268D16B884700BF00BF2DE01748807CFD
:10485000012829D11548407C022825D01348407CE6
:10486000012821D11148407D002806D10F48C07C85
:10487000401EC1B20D48417505E00C48407D401E08
:10488000C1B20A484175094A537DFF3A1A3AD05CD1
:10489000074A1268D16B8847044A537D533AD05C6B
:1048A000034A1268116C884700BF7AE7B50F0020F1
:1048B0000C00002010B57448C07C00287DD17248DF
:1048C000417DFF387D38405C03280FD100216E48C0
:1048D000427DFF38E03881546B48427DFF38E03834
:1048E00081546A480068016B002088476648417D12
:1048F000FF38E038405C66490968C978491E0122E2
:104900008A405040C1B26048427DFF38E03881544F
:104910005D48417DFF38E038405C012837D05A4877
:10492000417DFF38E038405C022830D05648417D58
:10493000FF38E038405C042829D05348417DFF38D7
:10494000E038405C082822D04F48417DFF38E038ED
:10495000405C10281BD04C48417DFF38E038405C5B
:10496000202814D04848417DFF38E038405C40287A
:104970000DD04548417DFF38E038405C802806D0A6
:104980004148417DFF38E038405C002806D10121D4
:104990003D48427DFF387D38815464E03A48417D8E
:1049A000FF38E038405C00285DD002213648427D67
:1049B000FF387D38815456E0FFE73348417DFF38AA
:1049C0007D38405C012802D002284AD127E03048D7
:1049D0000068C178491E012088402B494A7DB639BC
:1049E000895C04460C40002C18D02748417DFF38D4
:1049F000E038405C204000280BD02348417DFF3840
:104A0000E038405C604020494A7DFF39E0398854F5
:104A100004E01D48417DFF38E038445422E01A4844
:104A2000417DFF38E038405C19490968C978491E62
:104A300001228A405040C1B21348427DFF38E0381D
:104A400081541148417DFF38E038405C0E494A7D71
:104A5000B639895C08400C494A7DFF39E0398854F1
:104A600000E000BF00BF0848417DFF387D38405C52
:104A7000032808D0044A537DFF3AE03AD05C034A49
:104A80001268516B884710BDB50F00200C00002044
:104A90002C00002010B54048C07C002800D110BD7B
:104AA0003D48807C00284AD13B48407D401CC1B233
:104AB000394841750246D17C507DFBF787FB36486B
:104AC0004175417DFF387D38405C012804D00228C3
:104AD00003D0032831D118E000BF2F4A537DFF3A9D
:104AE000E03AD05C2D4A1268516B88472B48006829
:104AF000016B00208847284A537DFF3A1A3AD05C60
:104B0000264A1268D16B884718E024480068416B38
:104B100000208847204A537DFF3AE03AD05C1F4A84
:104B20001268116B88471C4A537DFF3A1A3AD05CD1
:104B30001A4A1268D16B884700BF00BF29E01648A7
:104B4000807C012825D11448407C022821D01248BD
:104B5000407C01281DD11048407D401CC1B20E4848
:104B600041750246D17C507DFBF730FB0A48417508
:104B70000246537DFF3A1A3AD05C084A1268D16B5C
:104B80008847054A537D533AD05C044A1268116C39
:104B9000884700BF83E70000B50F00200C0000200D
:104BA00030B5B3B00025754800684078002801D1C1
:104BB00033B030BD0125002D7ED0704800680078EC
:104BC0000028F9D06E48807C002842D16C48C07C17
:104BD000002803D110206B49887102E01120694937
:104BE00088716848807910281FD103206549C871F1
:104BF000012008726448C0788001634989780901FE
:104C0000084361494978890008435F49091F0979C8
:104C10000843C1B25B4841725948C27C5A49633962
:104C200058480A30FBF716FB4BE0694601A802F032
:104C3000C9F868460078401C5249C8715048C07C89
:104C400008726846027801A94E480930FBF702FB5A
:104C500037E04B48807C012833D14948407C02280A
:104C600008D11220474988710120C8714448007C4E
:104C7000087226E04248407C012822D11320414995
:104C800088713F48C07C4000401CC8713C48C07CD3
:104C9000087200240FE03C486330025D6000401C55
:104CA000384908310A5436485338025D6000801C88
:104CB0000A54601CC4B200E05EE03148C07CA042EF
:104CC000E9DC3048C079C11D2E48401CFEF728FCA5
:104CD0002E4988702B48C0790246083229492C4851
:104CE000FBF7B8FA294882782648C0790830284965
:104CF0000A542648C2782348C07909300A5421480A
:104D0000C0790A30891F0871084600791130C1B294
:104D100020488176E038407A401C1E49E0394872CC
:104D20000846807A401C88721948801F0079887371
:104D30001748801F0279811D1648D138FBF78AFA7F
:104D40001448807EC01E81B21248DF38FEF7E8FBAF
:104D500001460F48801F00790F300E4AE03A115487
:104D600021210B48801F00791030115400210A487E
:104D70004172817201F0BCFD00BF19E7680000209C
:104D8000B50F0020CD0B0020390E0020CD0C0020E7
:104D9000D90900207E0700209E08002010B50321BD
:104DA000002001F032FC002001F004FC012001F0A1
:104DB00001FC022001F0FEFB032001F0FBFB0024BC
:104DC00009E0022005210907072212028918A20022
:104DD0008850601CC4B2072CF3DB10BD10B5FBF784
:104DE00015FD10BD0121164A126811701549097888
:104DF000491CC9B2134A11700A2906D10121124A6D
:104E00001268117000210F4A1170104909688978E1
:104E100000290FD00E490988491C89B20C4A11801B
:104E20000A290BDB0121094A126851700021084A46
:104E3000118003E00121054A12685170704700009B
:104E40000C0000206400002024000020440000200A
:104E50006600002070B50022084909480068FEF786
:104E600089FD044600BF2546002D04D000BF28461A
:104E7000FEF7F2FC00BF00BF70BD00009A190000F1
:104E8000D081000070B508480068FEF7A1FD044617
:104E900000BF2546002D04D000BF2846FEF7DCFCED
:104EA00000BF00BF70BD0000D081000010B5FF2022
:104EB000053000F098FC022000F0B4FC082000F05F
:104EC000C1FC10BD10B500F053FD0C2000F0BAFC81
:104ED00000BF00F0ADFC0028FBD110BDF8B52148A3
:104EE00000680090204806782EE0F0001F4909680D
:104EF0004418257824E01820684361680F18681C5E
:104F0000C5B2A078A84200D100253878022802D086
:104F1000032812D103E0786802F086FE0EE007E075
:104F200010490868002101740E4AC169116000BF70
:104F30000C4800680028F3D100E000BF00BF00BFAC
:104F40006078A842D7D100BF3046711ECEB200288B
:104F5000CBD1044801680098814201D00120F8BDFE
:104F60000020FCE7B8000020B0000020B4000020C2
:104F7000FEB506463C48006801903C480078009029
:104F800063E00098C0003A490968451856E0002ED1
:104F900002D03446E66924E02978182359436A6828
:104FA00050182978491C29702978AA78914201D192
:104FB0000021297044680178012902D1217C00294F
:104FC00000D03BE081686160C168A1600169E16077
:104FD0004169A16127490978002901D00021616058
:104FE00000BF254960680968401A0002000A234989
:104FF000884208D220496068096802F089FDA168EA
:10500000401820600FE01C486168006802F080FDD5
:105010000746A068B84203D9A068C01B206001E021
:105020000020206000BF00206060A060012020748C
:105030000020E061204602F0C1FD00BF002EA6D195
:10504000287869788842A2D100BF0098411EC9B271
:105050000091002895D1044801680198814201D04F
:105060000120FEBD0020FCE7B8000020B0000020B9
:10507000B4000020D1000020BC000020FFFF7F0012
:1050800010B51F48C07A401CC1B21D48C172407A99
:1050900001280CD100211A488172C172194909688E
:1050A000C86B804718490968086A804726E0144899
:1050B000C07A09280CDD002111488172C1721149A2
:1050C0000968C86B804710490968486A804715E03D
:1050D0000E48407A401C0D4948720846E030807EF8
:1050E000C01E81B20948401CFEF71AFA0146084862
:1050F00000790F30054A115401F0FAFB10BD000091
:105100009E08002060000020340000209E06002041
:10511000D309002010B511490968C86980470F49B3
:105120000968486A8047002000F04CFA01210C48C9
:1051300041731122C11FFE390A48FBF78BF8112079
:105140000849491F0870002048700120C87000F00D
:10515000B9FE0448401F01F075F810BD6000002042
:105160009E080020A504002010B5134800680078B0
:1051700000281FD01048006800780421084000284B
:1051800008D00D480068007888430B49096808700A
:10519000FFF7C0FF08480068007802210840002897
:1051A00008D00548006800788843034909680870FA
:1051B000FFF766FF10BD000060000020FBF7AAFAB1
:1051C000FBF744F9FDF74CFFFBF750FFFCF7BCFF82
:1051D000FBF71CFBFDF730FBFBF7EAF8FDF75AFA8B
:1051E000FDF7E6F9FDF7B6F8FBF718F9524909683B
:1051F000C8688047514909688869804750490968EB
:105200004869804701204C49096808704A49096883
:105210000871494800688169012088474749096841
:10522000886D804745490968886C80474448006814
:10523000816B4448008888477CE03F4800680078DC
:10524000012802D0032871D149E03B48006840782A
:1052500000282BD000203849096848703A4909686D
:105260004868804739490968C868804734490968EF
:105270000869804703203049096808712E48006892
:1052800081690320884700202B49096888702A49D2
:105290000968C87029490968886D804727490968E5
:1052A000886C804725490968486E8047234909680A
:1052B0004868804725490968486980472449096842
:1052C00048688047224909688868804721490968F9
:1052D000886880471A490968086A804727E01648A5
:1052E00000684078002817D00020134909684870EA
:1052F000154909688868804711490968C868804766
:10530000124909680869804700200B490968C8806C
:105310000A490968086E8047084909684868804753
:105320000B4909688868804701E0FFE700BF00BFBC
:1053300020BF30BF81E700006C000020600000202B
:105340000C000020520000207000002034000020DB
:10535000680000204400002030B5054C245C144354
:10536000034D2C542C46645C1C436C5430BD00002F
:10537000F003002070B505460E4614462300FEF7E4
:10538000F4F80B07121D28333E49545F6A757A0002
:1053900031462846FEF7F8FC0F2305223146284601
:1053A000FFF7DAFF68E031462846FEF7EDFC002300
:1053B000052231462846FFF7CFFF5DE031462846FB
:1053C000FEF7E2FC0D23032231462846FFF7C4FF17
:1053D00052E031462846FEF7D7FC09230722314622
:1053E0002846FFF7B9FF47E031462846FEF7CCFCD8
:1053F0000223072231462846FFF7AEFF3CE0314644
:105400002846FEF7C1FC0B23062231462846FFF74B
:10541000A3FF31E031462846FEF7B6FC0F230622F3
:1054200031462846FFF798FF26E031462846FEF72A
:10543000ABFC0123052231462846FFF78DFF1BE018
:1054400031462846FEF7A0FC0F23072231462846A6
:10545000FFF782FF10E031462846FEF795FC0B234C
:10546000072231462846FFF777FF05E031462846F8
:10547000FEF78AFC00E000BF00BF70BD30B5B3B0DE
:10548000C82101A8FAF7FFFE01202C49096888709D
:105490002B49096808702B48007A632803DC2948E7
:1054A000007A012801DA33B030BD2648057AC07988
:1054B000421E2449093101A8FAF7CCFE294601A869
:1054C000FEF7DAFD002408E000211F4801550155D0
:1054D000FF308D300155601CC4B2632CF4DB002119
:1054E0001A4881741748017A1848C174FF38213866
:1054F000C1791648017500214175FBF709FB144875
:105500000068416B0020884711480068016B00204B
:1055100088470F490968486C80470D480068816BCF
:105520000C4800888847094A537DFF3A1A3AD05CF4
:10553000074A1268D16B884700BFB4E76C000020AF
:1055400068000020D10C0020D60D0020B50F0020EF
:105550000C0000205200002010B5012014490968F9
:105560008870144909680870012113488174022168
:10557000417400210174FBF7CBFA10480068416BBD
:10558000002088470D480068016B002088470B49C0
:105590000968486C804709480068816B08480088A2
:1055A0008847054A107C054A1268116C884710BD6F
:1055B0006C00002068000020B50F00200C000020C7
:1055C0005200002010B50346012B0BD10D48407846
:1055D000012816D001200B494870042000F0A6FDD8
:1055E00004460EE0002B0CD106484078002808D075
:1055F00000F0FEFD002003494870022000F096FDF7
:10560000044610BDBC16002010B52E48817A2E48E5
:1056100041702C48C17A2C4881702A48017B2A4865
:10562000C1702848417B28480171284801782648E4
:105630004171264841782448817124488178224864
:10564000C1712248C178204801721E48817B1E48E2
:1056500041721C48C17B1C4881720E21401CFDF721
:105660005FFF1949C873042218491648801D02F0CB
:105670007BF9002821D016490968C8698047144978
:105680000968486A80470020FFF79CFF0121114804
:10569000417311220C491048FAF7DCFD11200E4924
:1056A000491F0870002048700120C87000F00AFCF3
:1056B0000948401F00F0C6FD03E005490968086974
:1056C000804710BD9F05002099070020480000205A
:1056D000600000209E080020A504002010B50120D5
:1056E000134948701348C07C4871084642791149F3
:1056F0001431FF300130FAF7ADFD04220E490F4896
:1057000002F032F9002806D104220D490B4802F0BC
:105710002BF900280BD00948401E8079002803D1BE
:1057200001200349C87002E001200149487010BD02
:10573000D30900209F05002048000020D40A002043
:105740005C00002010B505480068C16A0220884747
:1057500003490968086C804710BD00000C00002058
:105760006000002010B505480068C16A0120884724
:1057700003490968086C804710BD00000C00002038
:10578000600000200149486070470000007500403B
:105790000146044808180068002801D0012070471D
:1057A0000020FCE7007000400021024A82181160CE
:1057B0007047000000700040014988607047000099
:1057C00000730040014948607047000000730040CA
:1057D00001460120800708180068002801D0012038
:1057E00070470020FCE70021012292078218116017
:1057F0007047000001460648C068064A104012047F
:105800000A43904201D1012070470020FCE70000CC
:105810000004004001000100014988607047000059
:105820000003004001494860704700000003004049
:1058300003488069012109040840000C70470000FA
:105840000004004001218A0782181160704700009F
:1058500001B505E00098401E00900348FAF77AFC75
:1058600000980028F6D108BDE703000070B5044693
:105870000D461D48807C022801D1112070BD0220F8
:10588000194988740846406888600D74002048747F
:105890000846C46089680868FFF774FFFF2001307C
:1058A000FFF782FF00BF01201049086000BF0E48CB
:1058B0000068002803D00120FFF784FF11E00EE00C
:1058C00000BFFF200130FFF763FF0028F9D0FDF78C
:1058D00033FF002803D001200349887400E0EFE77C
:1058E00000BF0020CAE700008422002000750040AD
:1058F0000021416008494968002902D106494860F1
:1059000008E0054A516800E049684A68002AFBD16E
:10591000486000BF704700008422002070B5044634
:105920000D460D48807C002801D0082070BDFF2066
:105930000130FFF739FF002D06D0002C00D1074CB5
:105940002178072000F032F9034805600120024960
:1059500088740020EAE7000084220020F48100001F
:1059600000BF01200149086000BF7047007000407F
:1059700010B50020FEF74AF813480078012804D03B
:10598000022815D0032818D113E01020FFF744FF98
:105990001820FFF757FF00210B4801702038C0691D
:1059A000002804D008482038C1690320884705E052
:1059B00000BF04210448017000E000BF00BF0020C8
:1059C000FEF729F8002010BDB822002070B504466B
:1059D0000D4600261548807A002801D1082623E0CC
:1059E00012482030007800281DD11048C5611049A8
:1059F0008161002C06D10221203001700C3800F0AA
:105A00003DF811E0012109482030017000BF600617
:105A1000400E0849886300BF1020FFF703FF1420E1
:105A2000FFF710FF00E01126304670BD98220020DD
:105A3000A13D00000005004010B50120FFF7DAFE8F
:105A40000446204610BD000010B50020FDF7DEFF23
:105A500009480068401E0849086008460068002898
:105A600005D1FEF775FC002003494872486000200C
:105A7000FDF7D1FF10BD00009822002010B50446AC
:105A80000020FDF7C3FF1048407A002805D0002C05
:105A900010D00020616888470CE0002C04D021461B
:105AA0000948001DFEF707FD07480068002801D1DE
:105AB000FEF742FC04480068401C034908600020CF
:105AC000FDF7A9FF10BD00009822002010B50024AA
:105AD0001048007A002801D0852010BD00200D4913
