:020000040800F2
:10000000480E0020190100081D5800082558000856
:100010002D580008355800083D5800080000000021
:10002000000000000000000000000000415800082F
:1000300043580008000000004558000847580008D1
:1000400033010008330100083301000833010008C0
:1000500033010008330100083301000833010008B0
:1000600033010008330100083301000833010008A0
:100070003301000833010008330100083301000890
:100080003301000833010008330100083301000880
:10009000330100083301000833010008B75C000891
:1000A0003301000833010008330100083301000860
:1000B0003301000833010008330100083301000850
:1000C0003301000833010008330100083301000840
:1000D000330100083F5900083301000833010008CC
:1000E000330100083301000833010008DFF80CD0A9
:1000F00008F056FA00480047F1130008480E0020A7
:100100004FF0010080F31388014802490160FEE7C7
:100110000CED00E00400FA05064880470648004759
:10012000FEE7FEE7FEE7FEE7FEE7FEE7FEE7FEE7A7
:10013000FEE7FEE799020008ED0000081CB500206C
:10014000019000908B48006840F480308949086035
:1001500000BF8848006800F4003000900198401CFF
:100160000190009818B90198B0F5A06FF1D18148BD
:10017000006800F4003010B10120009001E0002080
:1001800000900098012844D17B48006840F010009E
:10019000794908600846006820F0030008600846B6
:1001A000006840F002000860724840687149486089
:1001B0000846406848600846406840F480604860EF
:1001C0000846406820F47C1048600846406840F4C7
:1001D000D81048600846006840F08070086000BF92
:1001E0006448006800F000700028F9D06148406859
:1001F00020F003005F4948600846406840F0020074
:10020000486000BF5B48406800F00C000828F9D146
:100210003DE001205949087000F08CFB012000F0FE
:100220000EFC00BF212000F0C8FB0028FAD0524885
:10023000006840F01000504908600846006820F04F
:10024000030008600846006840F0020008600020D3
:1002500000F015FC002000F024FC4FF4806000F05A
:1002600017FC4FF46011002000F0ECFB012000F0BF
:10027000F5FB00BF392000F0A0FB0028FAD00220D7
:1002800000F0EFFB00BF00F0F5FB0828FBD11CBD20
:1002900010B5FFF753FF10BD10B53648006840F0A9
:1002A0000100344908600846406835490840314932
:1002B000486008460068334908402E4908600846EF
:1002C000006820F4802008600846406820F4FE00A2
:1002D00048604FF41F008860FFF7DAFF4FF00060BE
:1002E0002949086010BD10B5002100200022214BD3
:1002F0005B6803F00C0121B1042906D0082928D13C
:1003000007E0224B224C236027E0224B204C236045
:1003100023E0184B5B6803F47010164B5B6803F422
:100320008032022303EB904022B91B4B4343184C0D
:1003300023600DE00F4B5B6803F4003323B1134BD4
:100340004343134C236003E0124B4343104C2360A0
:1003500003E00E4B0E4C236000BF00BF054B5B68F3
:10036000C3F303130D4CE15C094B1B68CB40084CF5
:10037000236010BD00100240002002403C0000201D
:100380000000FFF8FFFFF6FE08ED00E000127A0023
:10039000000000200024F40000093D0004000020BB
:1003A00031490143314A1160704770B50021002383
:1003B0000F22C47804B32D4C246804F4E064C4F51F
:1003C000E064210AC1F10403CA40447804FA03F14D
:1003D0008478144021430901254C0678A1550478FE
:1003E00004F01F050124AC4005786D11AD0005F146
:1003F000E025C5F8004109E0047804F01F05012458
:10040000AC401C4D0678761145F8264070BD1A4A5E
:100410000A400243154B1B1F1A60704739B1134A3B
:10042000121D12680243114B1B1D1A6006E00F4A91
:10043000121D126882430D4B1B1D1A607047042861
:1004400008D14FF0E021096941F004014FF0E022AA
:10045000116107E04FF0E021096921F004014FF03C
:10046000E0221161704700000000FA050CED00E089
:1004700000E400E080E100E080FFFF1F002044492D
:100480000860091D0860091D0860091D08604148D1
:100490003F4914310860704700213D498279002AA4
:1004A0003AD00A46126803689A430B461A600A1D3E
:1004B000126803689A430B1D1A60027911440A6896
:1004C00003681A430A60324A0832126803689A4382
:1004D0002F4B08331A601A1D126803689A432C4B7D
:1004E0000C331A604279102A0ED11A1F1268036861
:1004F0001A43274B08331A601A1D126803681A43FF
:10050000234B0C331A600DE02149427911440A68EB
:1005100003681A430A6005E0027911440A68036817
:100520009A430A6070470021016001710C214171FA
:100530000021817170471649103109680143144A3E
:1005400010321160704701460020114A14321268BF
:100550000A400AB1012000E0002070470C49143124
:1005600008607047014600200022094B1B6803EA1F
:100570000102074B14331B680B4013B10AB1012071
:1005800000E0002070470249143108607047000005
:1005900000040140FFFF0F0010B50446CC48844220
:1005A00008D10121042000F04DFB0021042000F0BF
:1005B00049FB46E0C748844208D10121082000F0E9
:1005C00041FB0021082000F03DFB3AE0C248844294
:1005D00008D10121102000F035FB0021102000F08F
:1005E00031FB2EE0BD48844208D10121202000F0DB
:1005F00029FB0021202000F025FB22E0B84884429E
:1006000008D10121402000F01DFB0021402000F016
:1006100019FB16E0B348844208D10121802000F084
:1006200011FB0021802000F00DFB0AE0AE4884425F
:1006300007D10121801500F005FB0021A01500F075
:1006400001FB10BD10B50121084600F0FBFA0021A6
:10065000012000F0F7FA10BD2DE9F0410246002517
:100660000026002000230024002791F803C00CF08E
:100670000F0591F803C00CF0100CBCF1000F03D073
:1006800091F802C04CEA050591F800C0BCF1000FDA
:1006900031D0146800202BE04FF0010C0CFA00F36D
:1006A000B1F800C00CEA03069E4220D183004FF04F
:1006B0000F0C0CFA03F7BC4305FA03FC4CEA0404E4
:1006C00091F803C0BCF1280F06D14FF0010C0CFAD1
:1006D00000FCC2F814C00AE091F803C0BCF1480F56
:1006E00005D14FF0010C0CFA00FCC2F810C0401C00
:1006F0000828D1D31460B1F800C0BCF1FF0F34DD7D
:10070000546800202EE000F1080C4FF0010808FAB0
:100710000CF3B1F800C00CEA03069E4221D183001D
:100720004FF00F0C0CFA03F7BC4305FA03FC4CEA3C
:10073000040491F803C0BCF1280F05D100F1080CA6
:1007400008FA0CF8C2F8148091F803C0BCF1480F05
:1007500007D100F1080C4FF0010808FA0CF8C2F8B4
:100760001080401C0828CED35460BDE8F0814FF6BD
:10077000FF710180022181700421C170704702461F
:10078000002093680B400BB1012000E0002070476F
:100790000146886880B2704702460020D3680B404B
:1007A0000BB1012000E0002070470146C86880B20C
:1007B000704701617047416170470AB1016100E013
:1007C00041617047C16070474FF480320A438261D3
:1007D0008161826182698269704702460020434BD1
:1007E00018684FF68073184040EA021008433F4BE8
:1007F000186070473E49C8617047F0B50A4600234B
:1008000000240021002500F00046B6F1004F02D17F
:10081000364EF16901E0354E7168C0F3034583B28D
:1008200000F44016B6F5401F08D121F070612F4E3C
:10083000766826F070662D4F7E6012E000F4801618
:10084000B6F5801F06D1032606FA05F4A14341F050
:10085000706106E0460D360103FA06F6B14341F039
:10086000706122B1460D360103FA06F6314300F0FD
:100870000046B6F1004F02D11C4EF16101E01B4E63
:100880007160F0BD30B500228B071C0F0F2303FAF7
:1008900004F2164B08338C1053F824309343134C56
:1008A00008348D1044F8253023468C1053F824303A
:1008B0008C07240F00FA04F423430C4C08348D10E9
:1008C00044F8253030BD0A49DC310860704700002B
:1008D00000080140000C01400010014000140140DC
:1008E00000180140001C01400020014000000140B0
:1008F000000020420E49086070470D49486070476B
:100900000B49886070474AF6AA2009490860704779
:100910004CF6CC4006490860704701460020044A66
:10092000D2680A400AB1012000E0002070470000B0
:1009300000300040DF48006840F00100DD490860F9
:1009400008464068DC490840DA49486008460068C3
:10095000DA490840D74908600846006820F480203A
:1009600008600846406820F4FE0048604FF41F000D
:1009700088607047CF49096821F48031CD4A116001
:100980001146096821F480211160B0F5803F03D041
:10099000B0F5802F0ED106E0C649096841F48031D8
:1009A000C44A116007E0C349096841F4A021C14A63
:1009B000116000E000BF00BF704710B50146002283
:1009C000002300204A11012A02D1BA4C236806E014
:1009D000022A02D1B74C236A01E0B64C636A01F0E7
:1009E0001F02012494401C400CB1012000E00020B3
:1009F00010BD38B5002000900024002500BF312034
:100A0000FFF7DBFF05460098401C00900098B0F50A
:100A1000A06F01D0002DF2D03120FFF7CEFF08B13A
:100A2000012400E00024204638BD01460020A14AF0
:100A3000106820F0F80040EAC10010607047A0493B
:100A400008607047024600209A4B586820F47C10DA
:100A500042EA01031843974B58607047984908666B
:100A6000704701460020934A506820F00300084375
:100A7000506070478F48406800F00C007047014696
:100A800000208C4A506820F0F00008435060704706
:100A900001460020874A506820F4E0600843506017
:100AA000704701460020834A506820F4605040EAB5
:100AB000C1005060704729B17E4A527A02437D4B93
:100AC0005A7204E07B4A527A82437A4B5A727047D8
:100AD0007B49D8310860704701460020754A50684C
:100AE00020F440400843506070470021714A203292
:100AF0001170704A82F82010012802D004280AD10F
:100B000004E001216B4A2032117005E00521694A99
:100B10002032117000E000BF00BF704769490860D3
:100B200070476449096A0143624A11627047654926
:100B300044390860704730B50021002200240023AA
:100B40005C4D6D6805F00C0121B1042905D0082920
:100B500023D105E05C4D056022E05C4D05601FE09F
:100B6000544D6D6805F47012524D6D6805F4803473
:100B7000022505EB92421CB9554D554305600BE02B
:100B80004C4D6D6805F400351DB14F4D5543056062
:100B900002E04E4D5543056002E04B4D056000BF3D
:100BA00000BF444D6D6805F0F0010909494D6B5CCB
:100BB0000568DD4045603F4D6D6805F4E061090A58
:100BC000444D6B5C4568DD4085603A4D6D6805F4C9
:100BD0006051C90A3F4D6B5C4568DD40C560354DCD
:100BE0006D6805F44041890B3B4D6B5CC568B5FBF6
:100BF000F3F5056130BD29B12E4A526902432D4BF0
:100C00005A6104E02B4A526982432A4B5A61704769
:100C100029B1284A92690243264B9A6104E0254A89
:100C200092698243234B9A61704729B1214AD26964
:100C30000243204BDA6104E01E4AD26982431D4B15
:100C4000DA61704729B11B4AD2680243194BDA6056
:100C500004E0184AD2688243164BDA60704729B123
:100C6000144A12690243134B1A6104E0114A1269D3
:100C70008243104B1A61704712494039086070472F
:100C80000F49C86470470B49C87170470948406AEA
:100C900040F0807007494862704701460020054ACD
:100CA00092680A400AB1012000E000207047014923
:100CB00088727047001002400000FFF8FFFFF6FE48
:100CC000000042428004424200127A000024F400F4
:100CD00000093D00140000202400002010B5044647
:100CE000BE48844208D101218014FFF7ABFF0021E8
:100CF000A014FFF7A7FF16E0B948844208D10121EC
:100D00000014FFF7ACFF00212014FFF7A8FF0AE052
:100D1000B448844207D10121C013FFF7A0FF00218E
:100D2000E013FFF79CFF10BD10B50022028802F40B
:100D300041520B884C8823438C882343CC8823431F
:100D40000C8923434C8923438C892343CC89234337
:100D50001A430280838B4FF2FF74234083830B8AF4
:100D6000038210BD2DE9F04F85B005460C464FF0CB
:100D7000000902274FF000084FF0010B0026B24691
:100D8000A88B4FF240010840A88302202884B5F8C0
:100D90001C90A068022801D100BF38E0A08810B9DB
:100DA0004FF0010B01E04FF0020B8D48854200D15E
:100DB00000E000BF6846FFF7BEFEDDF800A0E08857
:100DC000B0F5007F0AD14FEA1A2000EB8000400006
:100DD000A168B0FBF1F0401D86B20BE04FEA4B106A
:100DE000BAFBF0F000EB80004000A168B0FBF1F02E
:100DF000401D86B20A20B6FBF0F606F00108A6EB0D
:100E00000800C0F34F074FF6FF7000EA0828022FD2
:100E100001DBFF2F02DD02274FF00008E08840EAE7
:100E2000080038432884A088A189084361880843C2
:100E30002188084340F4006040EA0909A5F81C90A5
:100E400005B0BDE8F08F0021018041808180C18024
:100E5000018141818181C181072101827047002187
:100E6000018041808180C1800221816000218181D7
:100E7000704721B1028842F04002028004E00288FB
:100E80004FF6BF731A400280704721B1828B42F443
:100E90008062828304E0828B4FF6FF331A408283A4
:100EA000704730B5002400230C110125A540ABB2DA
:100EB0001AB185881D43858002E085889D43858021
:100EC00030BD1AB183880B43838002E083888B4353
:100ED00083807047818170470146888970474FF64B
:100EE000FF62914204D0028842F48072028004E0E2
:100EF00002884FF6FF631A400280704721B1828852
:100F000042F00402828004E082884FF6FB731A40AC
:100F10008280704702884FF2FF731A400280028875
:100F20000A4302807047018841F480510180704774
:100F300021B1028842F40052028004E002884DF69A
:100F4000FF731A400280704702460020012901D039
:100F5000108B00E0908A70470146088A7047B1F50F
:100F6000804F04D1028842F48042028004E002886B
:100F70004BF6FF731A400280704702460020138927
:100F80000B400BB1012000E000207047CA430281F2
:100F90007047F0B50246002000240023002501F030
:100FA0000F070126BE40B4B20B1101269E40B3B21A
:100FB000968806EA03051689264016B10DB1012070
:100FC00000E00020F0BD10B5002201F00F04012365
:100FD000A3409AB2D343038110BD0000003001400A
:100FE00000380040003C004010B50446FB488442F5
:100FF00009D101218803FFF725FE00214FF480402D
:10100000FFF720FE32E0F648844209D1012148046E
:10101000FFF725FE00214FF40030FFF720FE25E00A
:10102000F048844209D101218804FFF718FE00210D
:101030004FF48020FFF713FE18E0EB48844209D1FB
:101040000121C804FFF70BFE00214FF40020FFF739
:1010500006FE0BE0E548844208D101210805FFF7B0
:10106000FEFD00214FF48010FFF7F9FD10BD2DE9C2
:10107000F04786B005460E460024A24600BFA146B2
:101080000027B08900B100BF2F462C8A4CF6FF70B4
:101090000440F08804432C82AC894EF6F3100440DF
:1010A000B08831890843718908430443AC81AC8A14
:1010B0004FF6FF400440B0890443AC8201A8FFF71B
:1010C0003AFDC648874202D1DDF810A001E0DDF804
:1010D0000CA0A88900F4004040B10AEBCA0000EB64
:1010E0000A1031684900B0FBF1F807E00AEBCA00CA
:1010F00000EB0A1031688900B0FBF1F86420B8FBFE
:10110000F0F004012009642101FB1089A88900F492
:10111000004040B1322000EBC900B0FBF1F000F01C
:101120000700044308E0322000EB09106421B0FB03
:10113000F1F000F00F0004432C8106B0BDE8F08709
:101140004FF41651016000218180C18001810C2182
:10115000418100218181704710B502460020108A2C
:101160004FF2FF0318400B884C8823438C8823439D
:10117000CC8823431843108210BD00210180418098
:101180008180C180704721B1828942F400528281FE
:1011900004E082894DF6FF731A4082817047F0B5F2
:1011A0000346002400260025002040F66A17B942B5
:1011B00000D100BF1846C1F3421401F01F060127F9
:1011C00007FA06F5012C01D10C3004E0022C01D104
:1011D000103000E014301AB107682F43076002E0B6
:1011E0000768AF430760F0BD1AB1838A0B4383825F
:1011F00002E0838A8B4383827047028A4FF6F07342
:101200001A400282028A0A430282704782894FF2A0
:10121000FF731A40828182890A438281704721B11B
:10122000828942F00202828104E082894FF6FD73D6
:101230001A4082817047028A4FF6DF731A40028299
:10124000028A0A430282704721B1028A42F4804234
:10125000028204E0028A4BF6FF731A400282704752
:10126000C1F308028280704701468888C0F30800F5
:101270007047818941F0010181817047028BD2B2B0
:101280000283028B42EA012202837047028B02F43E
:101290007F420283028B0A430283704721B1828A14
:1012A00042F02002828204E0828A4FF6DF731A4005
:1012B0008282704721B1828A42F01002828204E069
:1012C000828A4FF6EF731A408282704721B1828A78
:1012D00042F00802828204E0828A4FF6F7731A40D5
:1012E0008282704721B1828942F40042828103E008
:1012F0008289C2F30E028281704721B1828A42F450
:101300000062828204E0828A4FF2FF731A40828276
:101310007047828A4FF6FB731A408282828A0A43A0
:101320008282704721B1828A42F00202828204E006
:10133000828A4FF6FD731A4082827047024600206F
:10134000B1F5007F00D100BF13880B400BB1012025
:1013500000E00020704701F40072B2F5007F00D178
:1013600000BFCA430280704770B5024600240023C4
:101370000025002040F66A16B14200D100BFC1F33B
:10138000421501F01F03012606FA03F3012D02D1D5
:101390009689334006E0022D02D1168A334001E0DF
:1013A000968A33400C12012606FA04F4168834405B
:1013B00013B10CB1012000E0002070BD10B5002277
:1013C000002340F66A14A14200D100BF0A12012492
:1013D0009440A3B2DC43048010BD000000380140FB
:1013E0000044004000480040004C004000500040D5
:1013F000012080F3108800BF00F015FA01F004F816
:10140000002080F3108800BF07E004F04BFE05F0D9
:1014100078F906F0DCFA06F087FEF6E710B5FEF77D
:101420003BFF01210846FFF7F3FB01210420FFF7F2
:10143000EFFB01210820FFF7EBFB01211020FFF754
:10144000E7FB01212020FFF7E3FB01218803FFF7E1
:10145000DFFB01214804FFF7E8FB01210803FFF748
:10146000D7FB01218803FFF7E0FB01210846FFF7C6
:10147000DCFB01210220FFF7D8FB01210420FFF74C
:10148000D4FB01210846FFF7B6FB0120FFF7F8FB6C
:1014900010BD10B545F25550FFF72CFA0620FFF7A6
:1014A0002CFA4FF49C70FFF72BFAFFF72CFAFFF79A
:1014B0002FFA10BD002108E0002202E000BF531CFB
:1014C0009AB20C2AFADB4B1C99B28142F4D37047D2
:1014D000002002E000BF411C88B21128FADB7047EF
:1014E000002108E0002202E000BF531C9AB2462A05
:1014F000FADB4B1C99B28142F4DB704708B542F22B
:101500001070009000BFBDF80000411E89B200912C
:101510000028F8D108BD08B51420009001E0FFF7BD
:10152000EDFF9DF80000411EC9B200910028F6D1E0
:1015300008BD08B5C820009001E0FFF7DFFF9DF867
:101540000000411EC9B200910028F6D108BD08B5BF
:101550004FF47A70009001E0FFF7D0FFBDF8000073
:10156000411E89B200910028F6D108BD08B10128BA
:1015700007D1FE4931F81010FD4A52F820201161C0
:101580000AE0022801D0032806D1F84931F81010EA
:10159000F74A52F820205161704708B1012807D15D
:1015A000F24931F81010F24A52F8202051610AE055
:1015B000022801D0032806D1EC4931F81010EC4A7A
:1015C00052F820201161704708B50121E948FFF762
:1015D00014F94FF47070ADF8000003208DF802008C
:1015E00010208DF803006946E348FFF735F8002224
:1015F0004021E148FFF7E1F800224FF48071DE4816
:10160000FFF7DBF801225102DB48FFF7D6F8002292
:101610008021D948FFF7D1F84FF48070ADF8000071
:1016200003208DF8020010208DF803006946D3488E
:10163000FFF712F801221102D048FFF7BEF84FF46D
:101640000040ADF8000003208DF8020010208DF856
:1016500003006946C948FEF7FFFF0122D103C748CE
:10166000FFF7ABF84FF47F40ADF8000003208DF892
:10167000020010208DF803006946C148FEF7ECFF18
:1016800000224FF47F41BE48FFF797F808BD08B528
:101690004FF4A060FEF784FE17208DF800000120B3
:1016A0008DF8010000208DF8020001208DF8030064
:1016B0006846FEF77AFE08BD10B50121B048FFF775
:1016C0007AF84FF40061AD48FFF773F84FF480519A
:1016D000A948FFF770F810BD08B54FF48050ADF879
:1016E000000003208DF8020010208DF803006946E9
:1016F000A148FEF7B1FF0120ADF8000003208DF8EE
:10170000020010208DF8030069469D48FEF7A4FFF3
:101710004FF40060ADF8000003208DF802001020A7
:101720008DF8030069469548FEF796FFFFF7C4FF62
:1017300008BD08B54FF4A060FEF732FE25208DF8F5
:10174000000001208DF801008DF802008DF80300E3
:101750006846FEF72AFE012240F225518948FFF72C
:101760001EFD08BD00B585B001218803FFF750FAC2
:101770004FF40070ADF8100003208DF8120018200F
:101780008DF8130004A97D48FEF766FF4FF48060D2
:10179000ADF8100004208DF8130004A97748FEF777
:1017A0005BFF4FF4E13000900020ADF80400ADF88D
:1017B0000600ADF80800ADF80C000C20ADF80A00EA
:1017C00069467048FFF753FC01216E48FFF7DBFCC8
:1017D00005B000BD08B50120ADF8000003208DF86C
:1017E000020010208DF8030069466348FEF734FFBD
:1017F00008BD38B50446644951F824000121FFF7BB
:1018000007FA5A4830F81400ADF8000010208DF89F
:10181000030003208DF80200554951F82400694661
:10182000FEF71AFF38BD70B50024FFF7F7FD4FF43F
:101830007A41B1F1807F00D31DE021F07F40401E4E
:101840004FF0E022506150170F22002807DA1307EB
:101850001E0E4E4B00F00F052D1F5E5503E01307C3
:101860001D0E4B4B1D5400BF00204FF0E022906135
:101870000720106100BF0220FFF7BBFF0320FFF726
:10188000B8FFFFF7A7FFFFF76DFFFFF752FFFFF766
:1018900023FFFFF7FCFEFFF797FE02F01DFA044658
:1018A00001213548FEF785FF0220FFF776FE032071
:1018B000FFF773FEFFF73DFEFFF73BFE01212E48C9
:1018C000FEF779FF0220FFF751FE0320FFF74EFEDF
:1018D000304806F097FE304800683049B0FBF1F51B
:1018E00029462FA006F08EFE1CB136A006F08AFE17
:1018F00004E002F0DFF93BA006F084FE40A006F011
:1019000081FE46A006F07EFE4D4806F07BFE70BDCF
:10191000174951F82010C968144A32F81020514074
:10192000134A52F82020D160704700B585B00121DC
:101930004804FFF76DF90420ADF8100003208DF87E
:10194000120018208DF8130004A90C48FEF784FE3D
:101950000820ADF8100004208DF8130004A90748F2
:10196000FEF77AFE4FF4E13000906BE0A88A0008A1
:101970002800002000023000001001400008014053
:10198000000C014000380140B08A000818ED00E06A
:1019900000E400E0C08A00080000002040420F0080
:1019A0005B4D61696E5D3A53797374656D20636C4C
:1019B0006F636B20667265712069732025644D48E2
:1019C0007A0D0A005B4D61696E5D3A4D46524320C7
:1019D000353030207265736574206572726F720DD8
:1019E0000A0000005B4D61696E5D3A4D465243202E
:1019F000353030207265736574206F6B0D0A0000FE
:101A00005B4D61696E5D3A7761746368646F6720EE
:101A1000656E61626C650D0A000000005B4D6169D6
:101A20006E5D3A416C6C20706572697068657261B8
:101A30006C7320696E6974206F6B0D0A00000000E2
:101A4000108B00080020ADF80400ADF80600ADF8DA
:101A50000800ADF80C000C20ADF80A006946FD48FE
:101A6000FFF705FB0121FB48FFF78DFB05B000BD2B
:101A700008B54FF4A060FEF793FC26208DF8000017
:101A800001208DF801008DF802008DF803006846F2
:101A9000FEF78BFC012240F22551EE48FFF77FFB59
:101AA00008BD70B504460D46E1B2EB48FFF7D8FB20
:101AB00000BF8021E848FFF741FC0128F9D120460A
:101AC00070BD10B5044600BF2021E348FFF736FC87
:101AD0000128F9D1E048FFF7C7FB10BD00B589B078
:101AE0004020ADF8200003208DF8220018208DF84A
:101AF000230008A9D948FEF7AFFD8020ADF82000EB
:101B000003208DF8220018208DF8230008A9D3485F
:101B1000FEF7A2FD2020ADF8200003208DF8220062
:101B200018208DF8230008A9CC48FEF795FD102059
:101B3000ADF8200003208DF8220010208DF823003E
:101B400008A9C648FEF788FD1020ADF82000032044
:101B50008DF8220010208DF8230008A9C048FEF758
:101B60007BFD2020ADF8200004208DF8230008A97B
:101B7000BB48FEF771FD05210220FEF783FE002021
:101B80008DF81C000C208DF81D00202006900120EF
:101B90008DF81E0006A8FEF77FFC0020ADF80400BB
:101BA0004FF48270ADF806000020ADF80800ADF8E3
:101BB0000A00ADF80C004FF40070ADF80E001820CC
:101BC000ADF810000020ADF812000720ADF81400A9
:101BD00001A9A448FFF7A8F80121A248FFF749F995
:101BE00010219E48FEF7E5FD09B000BD00B589B0A3
:101BF0004020ADF8200003208DF8220018208DF839
:101C0000230008A99548FEF727FD8020ADF82000A5
:101C100003208DF8220018208DF8230008A98F4892
:101C2000FEF71AFD2020ADF8200003208DF82200D9
:101C300018208DF8230008A98848FEF70DFD102014
:101C4000ADF8200003208DF8220010208DF823002D
:101C500008A98548FEF700FD2020ADF820000320EC
:101C60008DF8220010208DF8230008A97E48FEF789
:101C7000F3FC0820ADF8200004208DF8230008A90B
:101C80007948FEF7E9FC03210120FEF7FBFD002067
:101C90008DF81C000C208DF81D00082006900120F6
:101CA0008DF81E0006A8FEF7F7FB0020ADF8040033
:101CB0004FF48270ADF806000020ADF80800ADF8D2
:101CC0000A00ADF80C004FF40070ADF80E001020C3
:101CD000ADF810000020ADF812000720ADF8140098
:101CE00001A96048FFF720F801215E48FFF7C1F81D
:101CF00010215D48FEF75DFD09B000BD00B589B05B
:101D00004FF48040ADF8200003208DF82200182009
:101D10008DF8230008A95448FEF79EFC4FF40040BC
:101D2000ADF8200003208DF8220018208DF8230044
:101D300008A94D48FEF790FC4FF40050ADF8200084
:101D400003208DF8220018208DF8230008A94648AA
:101D5000FEF782FC1020ADF8200003208DF8220051
:101D600010208DF8230008A93F48FEF775FC2020BD
:101D7000ADF8200003208DF8220010208DF82300FC
:101D800008A93948FEF768FC0820ADF820000420B7
:101D90008DF8230008A93448FEF75EFC03210120DA
:101DA000FEF770FD00208DF81C000C208DF81D0042
:101DB0000820069001208DF81E0006A8FEF76CFB97
:101DC0000020ADF804004FF48270ADF8060000204A
:101DD000ADF80800ADF80A00ADF80C004FF4007043
:101DE000ADF80E001020ADF810000020ADF8120084
:101DF0000720ADF8140001A91C48FEF795FF01214A
:101E00001A48FFF736F810211748FEF7D2FC09B040
:101E100000BD10B501211448FEF7CBFC4FF4006162
:101E20000E48FEF7C6FC4FF480510D48FEF7C3FC88
:101E300010BD10B501210C48FEF7BBFC4FF400614A
:101E40000648FEF7B6FC4FF480510548FEF7B1FC9A
:101E500010BD00000044004000380140000801406F
:101E60000010014000300140000C014000380040EB
:101E700008B54FF40050ADF8000003208DF80200C3
:101E800010208DF8030069462E48FEF7E5FB4FF45D
:101E90008040ADF8000003208DF8020010208DF87E
:101EA000030069462748FEF7D7FB0220ADF8000083
:101EB00003208DF8020010208DF8030069462148A8
:101EC000FEF7CAFB0420ADF8000003208DF80200E5
:101ED00010208DF8030069461A48FEF7BDFB082064
:101EE000ADF8000003208DF8020010208DF80300EB
:101EF00069461448FEF7B0FB0120ADF8000003204E
:101F00008DF8020010208DF8030069460E48FEF798
:101F1000A3FB0220ADF8000003208DF80200102082
:101F20008DF8030069460848FEF796FB4FF4005110
:101F30000448FEF73EFC4FF480410248FEF739FCAE
:101F400008BD000000100140000801400021404A87
:101F500011709172002005E000223D492E310A5493
:101F6000411CC8B23A4991F82C108142F4DC00219E
:101F7000374A82F82C1070470021354AD17111720E
:101F8000517091705172002005E0002230494E31AD
:101F90000A54411CC8B22E4991F82D108142F4DC3C
:101FA00000212B4A82F82D10704770B506460D4669
:101FB000002D29DD002405E0315D25482E30015536
:101FC000601C84B2AC42F7DB0020214981F82C0070
:101FD000012008700846857290F82C202E30815C14
:101FE0001C48FFF73DF91A4890F82C00401C18498E
:101FF00081F82C000846807A401E8872012240F247
:1020000027711448FFF7CBF870BD70B505460E4632
:10201000002400BF04E0295D0FA006F0F3FA641C61
:10202000B442F8D30EA006F0EDFA70BD70B50546C7
:102030000E46002400BF04E0295D0AA006F0E2FA83
:10204000641CB442F8D306A006F0DCFA70BD0000B0
:102050008E03002000380140253032582000000057
:102060000D0A0000253032580000000010B502466D
:102070000B461078012103E0545C60404C1CA1B277
:102080009942F9DB10BD30B502460B464FF6FF70A2
:10209000002112E0555C684000240AE000F00105D0
:1020A00025B148F2084585EA600000E04010651C53
:1020B000ECB2082CF2DB4D1CE9B29942EADB30BDF0
:1020C00010B52020FE490860002001F039F801F029
:1020D000DFFB01F0E9FB0821002000F0F0FF3F21C9
:1020E000012000F0ECFF0321022000F0E8FF0321B3
:1020F000084600F0E4FF0321042000F0E0FF022185
:10210000052000F0DCFF0E21062000F0D8FF0E2194
:10211000072000F0D4FF0021082000F0D0FF0021AC
:10212000092000F0CCFF0021112000F0C8FF0021A1
:10213000122000F0C4FF0021132000F0C0FF002196
:10214000142000F0BCFF0021152000F0B8FF002192
:10215000162000F0B4FF00211C2000F0B0FF002189
:102160001D2000F0ACFF2020D549091F086010BDDC
:102170001CB5D4A103C9CDE900012020D0490860D5
:10218000FFF79EFF002000F0DBFF01F081FB01F074
:102190008BFB0721062000F092FF002001F02AFBB4
:1021A000002001F012FB012001F0FAFA012001F0F9
:1021B000ECFA002001F074FA032001F060FA082024
:1021C00001F053FA052001F0B5F96946002001F04D
:1021D00006F96946062001F002F90121002001F00C
:1021E00055F84FF4FA71032001F08BF901F028F84B
:1021F000022000F0BFFF002000F088FF012000F067
:102200009FFFFFF77BF92020AD49091F0860FFF70A
:1022100075F91CBD10B51020AC494861002000F0D4
:1022200073FB00F019FF00F023FF0821002000F0ED
:102230002AFB3F21012000F026FB0321022000F0B1
:1022400022FB0321084600F01EFB0321042000F0BE
:102250001AFB0221052000F016FB0E21062000F0DB
:1022600012FB0E21072000F00EFB0021082000F0D9
:102270000AFB0021092000F006FB0021112000F0DC
:1022800002FB0021122000F0FEFA0021132000F0D2
:10229000FAFA0021142000F0F6FA0021152000F0CF
:1022A000F2FA0021162000F0EEFA00211C2000F0C6
:1022B000EAFA00211D2000F0E6FA102083490861A7
:1022C00010BD0EB582A00068009010207F494861C3
:1022D000FFF7A0FF002000F017FB7E48C0798DF8C3
:1022E00004007C48408900128DF805007948807A06
:1022F0008DF806007748008900128DF807007548B0
:10230000007A8DF8080000F0A7FE00F0B1FE002072
:1023100000F054FE012000F03CFE012000F024FEFD
:10232000012000F016FE6B49487800F09DFD6949D8
:10233000087800F088FD6749087900F07AFD654962
:10234000C87800F0DBFC6349487901A900F02BFC58
:1023500001A9062000F027FC5E494879012100F020
:1023600079FB5C49887800F0E9FA5A4A91899079BA
:1023700000F0ABFC01226946502000F0FBFB00F0AE
:1023800043FB012000F0A6FA012000F0BDFAFFF7A0
:10239000B5F810204D490861FFF7B0F84EA006F0DF
:1023A00031F94C480078C01E00EB4000410051A0BC
:1023B00006F028F94748017956A006F023F9454868
:1023C0004078022803D159A006F01CF905E04148E5
:1023D0004078411C5DA006F015F93E48038942890A
:1023E000C17961A006F00EF93A48817867A006F03D
:1023F00009F9384881896CA006F004F935488179DB
:1024000072A006F0FFF80EBD70B5002400251E2650
:102410000320304908700020487002208870052091
:10242000C8701E2008710020487103208871AA20FE
:10243000C8714FF43B404881022008814FF4FA7084
:1024400088813012694908700846467001208870FA
:1024500001216648C1700221017141711E21817103
:102460000021C17104210172AA2141724FF43B4144
:102470008181022141814FF44871C18101205B4972
:10248000087401215948417402218174C1740821E2
:1024900001750021417504218175AA21C1754FF490
:1024A0003B414183022101834FF448718183AA207B
:1024B0004E49887720214D48FFF7D8FD4B4997E0DA
:1024C000140C0140AABB00000200000000100140F3
:1024D00073000000600300205B526164696F5D3A25
:1024E0006E726620706172616D657465723A0D0A74
:1024F000000000005B526164696F5D3A6F75747033
:10250000757420706F776572090925642064420D27
:102510000A0000005B526164696F5D3A6368616E36
:102520006E656C09090925640D0A00005B5261643F
:10253000696F5D3A6461746172617465090932356D
:1025400030204B6270730D0A000000005B52616422
:10255000696F5D3A6461746172617465090925642B
:10256000204D6270730D0A005B526164696F5D3AC1
:102570006164647265737309090925303258253026
:102580003458253034580D0A000000005B52616455
:10259000696F5D3A637263206C656E6774680909E0
:1025A00025640D0A000000005B526164696F5D3AAA
:1025B00072657472616E736D69742064656C6179A3
:1025C0000925642075730D0A000000005B526164E8
:1025D000696F5D3A6D61782074785F617474656DC0
:1025E000707473090925640D0A0000006E03002051
:1025F000C877FFF773FA3F21022000F044F9FEF795
:102600007DFF022000F054F93F2800D101240CB1D5
:10261000FFF757FEFFF7EAFA3F21022000F04FFDD7
:10262000FEF76CFF022000F05FFD3F2800D101257E
:102630000DB1FFF79DFD5F4805F0E4FF1CB115B932
:102640005DA005F0DFFF1CB915B164A005F0DAFF4D
:102650001CB115B16AA005F0D5FF1CB915B970A061
:1026600005F0D0FF784805F0CDFF70BD70B5044689
:102670000D4600F0F1FC00F0FBFC2A462146A820A4
:1026800000F078FA70BD70B504460D4600262A4663
:102690002146B02000F06EFA10206C490861FEF768
:1026A0002DFF10206949486101E0FEF727FF00F087
:1026B000BDF900F0200020B93046711CCEB20328CD
:1026C000F3DD7021072000F0DEF870BD1CB5AFF21D
:1026D0000C2103C9CDE9000120205D490860FFF706
:1026E000EFFC002000F02CFD01F0D2F801F0DCF846
:1026F000002001F07FF8002001F067F8012001F0D0
:102700004FF8012001F041F8002000F0C9FF082037
:1027100000F0ABFF6946002000F061FE694606202C
:1027200000F05DFE032000F0AAFF052000F002FF8C
:102730000121002000F0AAFD4FF4FA71032000F0FF
:10274000E0FE00F07DFD022000F014FD012000F00D
:10275000DDFC012000F0F4FCFEF7D0FE20203C4917
:10276000091F0860FEF7CAFE1CBD70B504460D4681
:1027700000262A462146B02000F018FE20203449C9
:10278000091F0860FEF7BAFE20203149086001E009
:10279000FEF7B4FE00F066FD00F0200020B93046E0
:1027A000711CCEB20328F3DD7021072000F087FCF6
:1027B00070BD0000C08A00085B526164696F5D3AB9
:1027C0006E726631206F6B20616E64206E726632AD
:1027D000206E6F74206F6B0D0A0000005B52616405
:1027E000696F5D3A6E726631206E6F74206F6B2078
:1027F000616E64206E726632206F6B0D0A000000FD
:102800005B526164696F5D3A6E726631206F6B2056
:10281000616E64206E726632206F6B0D0A000000DC
:102820005B526164696F5D3A6E726631206E6F74DF
:10283000206F6B20616E64206E726632206E6F7442
:10284000206F6B0D0A000000108B00080010014083
:10285000140C014010B5044600BF0221F748FEF7F2
:102860008CFB0028F9D02146F448FEF733FB00BF6B
:102870000121F248FEF781FB0028F9D0EF48FEF76E
:102880002BFBC0B210BD70B504460D461020EC49BC
:10289000086004F12001C8B2FFF7DCFF06462846B5
:1028A000FFF7D8FF1020E649091F0860304670BDC9
:1028B00070B504461020E24908602046FFF7CAFFC1
:1028C0000020FFF7C7FF05461020DD49091F0860FB
:1028D000284670BD38B504460020FFF7E9FF009098
:1028E000012C06D19DF8000020F00100401C009052
:1028F00004E09DF8000020F0010000909DF8001019
:102900000020FFF7C0FF38BD38B504460020FFF7B0
:10291000CFFF0090012C06D19DF8000020F00200AE
:10292000801C009004E09DF8000020F00200009060
:102930009DF800100020FFF7A6FF38BD38B504460B
:102940000020FFF7B5FF009024B1012C08D0022C25
:102950001FD111E09DF8000020F00800009019E060
:102960009DF8000020F00800083000909DF800005D
:1029700020F0040000900DE09DF8000020F0080019
:10298000083000909DF8000020F00400001D009029
:1029900000E000BF00BF9DF800100020FFF773FFAC
:1029A00038BD38B505460C460020FFF781FF009082
:1029B000042D04D0052D0CD0062D1ED113E00CB92A
:1029C000012000E000209DF8001060F30411009148
:1029D00013E00CB9012000E000209DF8001060F326
:1029E0004511009109E00CB9012000E000209DF89C
:1029F000001060F38611009100BF00BF9DF8001029
:102A00000020FFF740FF38BD10B570210720FFF709
:102A10003AFF044604F0700010BD10B504460120D2
:102A2000A040C1B20720FFF72EFF10BD10B5102047
:102A300083490860FF20FFF70DFF044610208049FE
:102A4000091F0860204610BD10B5FFF7EFFF00F02A
:102A5000700010BD7CB504460D460220FFF728FF2C
:102A600001900120FFF724FF0090032C10D005DC1B
:102A70005CB1012C0AD0022C2BD108E0042C08D028
:102A8000052C07D0FF2C24D11BE000BF00BF00BFE6
:102A900000BF00BF9DF804000121A140C9B2084356
:102AA00001903DB19DF800000121A140C9B2084349
:102AB000009005E09DF800000121A14088430090AE
:102AC00008E03F2001900DB1009001E0002000904F
:102AD00000E000BF00BF9DF804100220FFF7D3FE06
:102AE0009DF800100120FFF7CEFE7CBD1CB504460A
:102AF0000220FFF7DDFE01900120FFF7D9FE0090D4
:102B0000032C10D005DC5CB1012C0AD0022C1DD1A5
:102B100008E0042C08D0052C07D0FF2C16D111E0BA
:102B200000BF00BF00BF00BF00BF9DF8040001212F
:102B3000A140884301909DF800000121A1408843F5
:102B4000009004E000200190009000E000BF00BF72
:102B50009DF804100220FFF796FE9DF8001001205A
:102B6000FFF791FE1CBD10B50320FFF7A1FE801CEE
:102B7000C0B210BD70B506460C461546102030494F
:102B800008603046FFF766FE03E014F8010BFFF71C
:102B900061FE281EA5F10101CDB2F6D11020284911
:102BA000091F086070BD70B504460D46072C1CD285
:102BB000DFE804F0050611121314040000BF00BF83
:102BC000FFF7D1FF064604F12A01C8B23246294672
:102BD000FFF7D0FF0AE000BF00BF00BF297804F173
:102BE0000A02D0B2FFF74FFE00E000BF00BF70BD89
:102BF00010B56020FFF75CFE10BD10B5FFF716FFA3
:102C0000C0F3420010BD2DE9F04106460F4636B133
:102C1000012E05D0062E04D0082E26D112E000BFCA
:102C200000BFFFF7A0FF04460546102004490860D6
:102C300006F10A01C8B2FFF70DFE19E000300140AD
:102C400014080140FFF7D9FF064607280ADAFFF704
:102C5000CFFF044605461020FB4908606120FFF7BE
:102C6000F9FD01E00024254602E00024254600BFCE
:102C700000BF04E00020FFF7EDFD07F8010B201E68
:102C8000A4F10101CCB2F5D11020EF49091F086071
:102C900045EA0620BDE8F08170B504460D4624B132
:102CA000012C03D0062C08D101E000BF00BF29464B
:102CB0002046FFF7A8FFC0B270BD04F10A01C8B2F8
:102CC000FFF7F6FD28700120F6E738B504460D46FB
:102CD00000200090FA2095FBF0F0401E9DF80010B7
:102CE00060F3071100919DF8000064F30300009069
:102CF0009DF800100420FFF7C6FD38BD38B5044626
:102D0000A01EC0B200909DF800100320FFF7BBFD8D
:102D100038BD70B504460D4604F11101C8B229460C
:102D2000FFF7B1FD70BD7CB506460220FFF7C0FD80
:102D300001900120FFF7BCFD0090062E3AD2DFE89B
:102D400006F0030C151E27309DF8040000F0010466
:102D50009DF8000000F001052FE09DF80400C0F38D
:102D600040049DF80000C0F3400526E09DF80400F3
:102D7000C0F380049DF80000C0F380051DE09DF8BD
:102D80000400C0F3C0049DF80000C0F3C00514E0C7
:102D90009DF80400C0F300149DF80000C0F3001576
:102DA0000BE09DF80400C0F340149DF80000C0F350
:102DB000401502E00024002500BF00BF04EB4500E1
:102DC000C0B27CBD10B50820FFF772FD10BD10B574
:102DD0000820FFF76DFD000910BD70B50546062DF2
:102DE00022D2DFE805F003080D12171C1120FFF7AF
:102DF0005FFD04461AE01220FFF75AFD044615E075
:102E00001320FFF755FD044610E01420FFF750FD96
:102E100004460BE01520FFF74BFD044606E01620A4
:102E2000FFF746FD044601E0002400BF00BF204636
:102E300070BD38B50446E0B200909DF80010052042
:102E4000FFF721FD38BD38B504460620FFF730FDF9
:102E500000909DF8000064F3420000909DF800107F
:102E60000620FFF710FD38BD38B504460620FFF7F1
:102E70001FFD00907CB1012C19D0022C16D19DF8B9
:102E8000000020F02000203000909DF8000020F08D
:102E90000800009017E09DF8000020F0200000904E
:102EA0009DF8000020F0080000900CE000BF9DF8A5
:102EB000000020F0200000909DF8000020F00800A5
:102EC0000830009000BF00BF9DF800100620FFF7FB
:102ED000DAFC38BD10B5FFF790FE072801D10120BC
:102EE00010BD0020FCE710B51720FFF7E1FCC0F390
:102EF000400010BD10B51720FFF7DAFCC0F300103A
:102F000010BD10B51720FFF7D3FCC0F3401010BD63
:102F100010B51720FFF7CCFCC0F3011010BD10B5A1
:102F20001720FFF7C5FC00F0030010BD10B51720F7
:102F3000FFF7BEFC10BD10B50820FFF7B9FC00F08C
:102F40000F0010BD10B50920FFF7B2FC00F0010022
:102F500010BD38B5044624F0C00000909DF8001064
:102F60001C20FFF790FC38BD38B504461D20FFF744
:102F70009FFC00900CB1012000E000209DF80010A3
:102F800060F3820100919DF800101D20FFF77BFC8B
:102F900038BD38B504461D20FFF78AFC00900CB1FF
:102FA000012000E000209DF8001060F34101009135
:102FB0009DF800101D20FFF766FC38BD38B50446AB
:102FC0001D20FFF775FC00900CB1012000E00020EF
:102FD0009DF8001060F3000100919DF800101D2085
:102FE000FFF751FC38BD70B504460D462A46214610
:102FF000A020FFF7BFFD70BD70B504460D462A4600
:103000002146B020FFF7B6FD70BD70B504460D46F1
:10301000164644F0A80032462946FFF7ABFD70BDC6
:1030200010B5044621460820FFF7EDFD10BD10B590
:10303000102005490860E320FFF70CFC102002492E
:10304000091F086010BD00001408014010B5FFF70B
:103050006DFFC0F3801010BD10B510200A49086044
:10306000E220FFF7F7FB10200749091F086010BD99
:1030700010B5102004490860E120FFF7EBFB102099
:103080000149091F086010BD1408014010B504462D
:1030900000BF0221F748FDF770FF0028F9D0214654
:1030A000F448FDF717FF00BF0121F248FDF765FF67
:1030B0000028F9D0EF48FDF70FFFC0B210BD70B582
:1030C00004460D461020EC49086004F12001C8B206
:1030D000FFF7DCFF06462846FFF7D8FF1020E64939
:1030E000091F0860304670BD70B504461020E249E3
:1030F00008602046FFF7CAFF0020FFF7C7FF05461C
:103100001020DD49091F0860284670BD38B5044607
:103110000020FFF7E9FF0090012C06D19DF8000088
:1031200020F00100401C009004E09DF8000020F019
:10313000010000909DF800100020FFF7C0FF38BD8F
:1031400038B504460020FFF7CFFF0090012C06D1D0
:103150009DF8000020F00200801C009004E09DF823
:10316000000020F0020000909DF800100020FFF702
:10317000A6FF38BD38B504460020FFF7B5FF009024
:1031800024B1012C08D0022C1FD111E09DF80000C1
:1031900020F00800009019E09DF8000020F00800E1
:1031A000083000909DF8000020F0040000900DE031
:1031B0009DF8000020F00800083000909DF8000005
:1031C00020F00400001D009000E000BF00BF9DF84B
:1031D00000100020FFF773FF38BD38B505460C46D8
:1031E0000020FFF781FF0090042D04D0052D0CD0A6
:1031F000062D1ED113E00CB9012000E000209DF83F
:10320000001060F30411009113E00CB9012000E0FC
:1032100000209DF8001060F34511009109E00CB901
:10322000012000E000209DF8001060F3861100915D
:1032300000BF00BF9DF800100020FFF740FF38BD21
:1032400010B570210720FFF73AFF044604F0700024
:1032500010BD10B504460120A040C1B20720FFF701
:103260002EFF10BD10B5102083490860FF20FFF726
:103270000DFF044610208049091F0860204610BD3C
:1032800010B5FFF7EFFF00F0700010BD7CB50446ED
:103290000D460220FFF728FF01900120FFF724FFD1
:1032A0000090032C10D005DC5CB1012C0AD0022C5C
:1032B0002BD108E0042C08D0052C07D0FF2C24D1FA
:1032C0001BE000BF00BF00BF00BF00BF9DF80400AF
:1032D0000121A140C9B2084301903DB19DF8000011
:1032E0000121A140C9B20843009005E09DF800000B
:1032F0000121A1408843009008E03F2001900DB1DA
:10330000009001E00020009000E000BF00BF9DF8A9
:1033100004100220FFF7D3FE9DF800100120FFF7F4
:10332000CEFE7CBD1CB504460220FFF7DDFE0190F9
:103330000120FFF7D9FE0090032C10D005DC5CB112
:10334000012C0AD0022C1DD108E0042C08D0052C39
:1033500007D0FF2C16D111E000BF00BF00BF00BF97
:1033600000BF9DF804000121A140884301909DF811
:1033700000000121A1408843009004E0002001905A
:10338000009000E000BF00BF9DF804100220FFF78E
:1033900096FE9DF800100120FFF791FE1CBD10B5B0
:1033A0000320FFF7A1FE801CC0B210BD70B5064619
:1033B0000C4615461020304908603046FFF766FE7F
:1033C00003E014F8010BFFF761FE281EA5F10101CF
:1033D000CDB2F6D110202849091F086070BD70B524
:1033E00004460D46072C1CD2DFE804F00506111236
:1033F0001314040000BF00BFFFF7D1FF064604F11D
:103400002A01C8B232462946FFF7D0FF0AE000BFC2
:1034100000BF00BF297804F10A02D0B2FFF74FFEC7
:1034200000E000BF00BF70BD10B56020FFF75CFE7C
:1034300010BD10B5FFF716FFC0F3420010BD2DE917
:10344000F04106460F4636B1012E05D0062E04D0B7
:10345000082E26D112E000BF00BFFFF7A0FF0446F0
:10346000054610200449086006F10A01C8B2FFF7BA
:103470000DFE19E000300140140C0140FFF7D9FFA8
:10348000064607280ADAFFF7CFFF04460546102054
:10349000FB4908606120FFF7F9FD01E000242546A3
:1034A00002E00024254600BF00BF04E00020FFF733
:1034B000EDFD07F8010B201EA4F10101CCB2F5D1FE
:1034C0001020EF49091F086045EA0620BDE8F08199
:1034D00070B504460D4624B1012C03D0062C08D14A
:1034E00001E000BF00BF29462046FFF7A8FFC0B299
:1034F00070BD04F10A01C8B2FFF7F6FD2870012083
:10350000F6E738B504460D4600200090FA2095FBFA
:10351000F0F0401E9DF8001060F3071100919DF837
:10352000000064F3030000909DF800100420FFF7F2
:10353000C6FD38BD38B50446A01EC0B200909DF847
:1035400000100320FFF7BBFD38BD70B504460D46E3
:1035500004F11101C8B22946FFF7B1FD70BD7CB579
:1035600006460220FFF7C0FD01900120FFF7BCFDD9
:103570000090062E3AD2DFE806F0030C151E273025
:103580009DF8040000F001049DF8000000F0010522
:103590002FE09DF80400C0F340049DF80000C0F344
:1035A000400526E09DF80400C0F380049DF800006B
:1035B000C0F380051DE09DF80400C0F3C0049DF831
:1035C0000000C0F3C00514E09DF80400C0F300142F
:1035D0009DF80000C0F300150BE09DF80400C0F357
:1035E00040149DF80000C0F3401502E000240025BF
:1035F00000BF00BF04EB4500C0B27CBD10B5082081
:10360000FFF772FD10BD10B50820FFF76DFD000932
:1036100010BD70B50546062D22D2DFE805F003087F
:103620000D12171C1120FFF75FFD04461AE012204F
:10363000FFF75AFD044615E01320FFF755FD044639
:1036400010E01420FFF750FD04460BE01520FFF7B3
:103650004BFD044606E01620FFF746FD044601E058
:10366000002400BF00BF204670BD38B50446E0B25C
:1036700000909DF800100520FFF721FD38BD38B5FA
:1036800004460620FFF730FD00909DF8000064F32B
:10369000420000909DF800100620FFF710FD38BD95
:1036A00038B504460620FFF71FFD00907CB1012CC1
:1036B00019D0022C16D19DF8000020F020002030F7
:1036C00000909DF8000020F00800009017E09DF8A1
:1036D000000020F0200000909DF8000020F008007D
:1036E00000900CE000BF9DF8000020F0200000904A
:1036F0009DF8000020F008000830009000BF00BFD7
:103700009DF800100620FFF7DAFC38BD10B5FFF772
:1037100090FE072801D1012010BD0020FCE710B564
:103720001720FFF7E1FCC0F3400010BD10B51720D3
:10373000FFF7DAFCC0F3001010BD10B51720FFF73B
:10374000D3FCC0F3401010BD10B51720FFF7CCFC20
:10375000C0F3011010BD10B51720FFF7C5FC00F035
:10376000030010BD10B51720FFF7BEFC10BD10B54B
:103770000820FFF7B9FC00F00F0010BD10B50920BC
:10378000FFF7B2FC00F0010010BD38B5044624F08C
:10379000C00000909DF800101C20FFF790FC38BD81
:1037A00038B504461D20FFF79FFC00900CB10120A6
:1037B00000E000209DF8001060F3820100919DF868
:1037C00000101D20FFF77BFC38BD38B504461D20D6
:1037D000FFF78AFC00900CB1012000E000209DF86A
:1037E000001060F3410100919DF800101D20FFF7CB
:1037F00066FC38BD38B504461D20FFF775FC009007
:103800000CB1012000E000209DF8001060F30001E1
:1038100000919DF800101D20FFF751FC38BD70B5D8
:1038200004460D462A462146A020FFF7BFFD70BD85
:1038300070B504460D462A462146B020FFF7B6FD76
:1038400070BD70B504460D46164644F0A8003246D9
:103850002946FFF7ABFD70BD10B504462146082090
:10386000FFF7EDFD10BD10B5102005490860E320FD
:10387000FFF70CFC10200249091F086010BD000072
:10388000140C014010B5FFF76DFFC0F3801010BDA0
:1038900010B510200A490860E220FFF7F7FB10205E
:1038A0000749091F086010BD10B5102004490860C1
:1038B000E120FFF7EBFB10200149091F086010BD54
:1038C000140C014008B54FF47F40ADF80000032010
:1038D0008DF8020004208DF803006946F848FCF7D3
:1038E000BBFE08BD08B54FF47F40ADF800000320D3
:1038F0008DF8020010208DF803006946F048FCF7AF
:10390000ABFE08BD70B5044600224FF48071ED484F
:10391000FCF753FF01225102EA48FCF74EFF012257
:10392000D103E948FCF749FF01221102E648FCF700
:1039300044FFE348FCF739FFC6B246EA0421E048F9
:10394000FCF740FF01221102DE48FCF736FF03209E
:10395000FDF7C6FD00224FF48071DA48FCF72DFF19
:10396000FFF7B0FF00224FF40071D648FCF725FFA7
:1039700000224FF40041D448FCF71FFFFDF7A8FDDB
:10398000CF48FCF705FF0512FDF7A2FD0122D10388
:10399000CD48FCF712FF01225102CA48FCF70DFF87
:1039A000FFF7A0FF284670BD70B504460D46012202
:1039B0001102C448FCF701FFC148FCF7F6FEC6B28D
:1039C00046EA042081B2BE48FCF7FCFE0220FDF767
:1039D00087FD00224FF48071BA48FCF7EEFE02200A
:1039E000FDF77EFD00224FF40071B648FCF7E5FEBE
:1039F000B348FCF7DAFEC6B246EA052081B2B04809
:103A0000FCF7E0FE00224FF48071AF48FCF7D5FED2
:103A10000220FDF765FD01221102AB48FCF7CDFE47
:103A200001225102A748FCF7C8FE70BD70B50546DB
:103A30000C4600262846FFF765FF064646EA0401C5
:103A40002846FFF7B1FF70BD70B505460C4600264D
:103A50002846FFF757FF064626EA04012846FFF7E7
:103A6000A3FF70BD10B50446012C06D0022C0DD06A
:103A7000032C14D0042C24D11AE007212A20FFF7AC
:103A800093FF6A212C20FFF78FFF23E007212A20D4
:103A9000FFF78AFFA0212C20FFF786FF1AE00921FB
:103AA0002A20FFF781FFA0212C20FFF77DFF11E0E6
:103AB00009212A20FFF778FFFF212C20FFF774FF50
:103AC00008E007212A20FFF76FFF21462C20FFF78F
:103AD0006BFF00BF00BF06212B20FFF765FF10BD65
:103AE0002DE9FC5F80468A4645460020019000276C
:103AF0000090287812282FD00DDC072826D005DC6E
:103B0000B0B1012818D0032842D119E00B281ED0EB
:103B10000C283DD11CE019282CD004DC14281FD01F
:103B2000162835D120E01A2828D01E2830D129E0C7
:103B30000027002000902EE01127102000902AE09E
:103B40000727042000900120019024E000BF00BF5F
:103B50000527042000901EE01127102000901AE095
:103B600004270420009016E006270420009001207E
:103B7000019010E00527042000900CE005270420A8
:103B8000009008E03D27042000900120019002E011
:103B90001720287000BF00BF2878172874D0002194
:103BA0000846FFF701FF7F210620FFF7FDFE7F217A
:103BB0000720FFF7F9FE00210120FFF7F5FE0121A4
:103BC0000920FFF733FF47F080010620FFF7ECFEE6
:103BD000002605E0A81C815D0220FFF7E5FE761CAB
:103BE0006878B042F6D829780120FFF7DDFE4FF45F
:103BF000005600BF0720FFF785FE0446761E46B13B
:103C000004EA070000F0200018B9009820400028BE
:103C1000F0D04FF07D0BB6B304EA070000F02000AF
:103C200088BB0A20FFF76EFE00F0170050BB4FF074
:103C3000000B019830B30420FFF764FE0446052012
:103C4000FFF760FE00F00709B9F1000F04D0601E15
:103C500009EBC000687002E0E006000E687004B96D
:103C60000124002605E00220FFF74CFEA91C885520
:103C7000761CA642F7D3F8222946404604F03AFCC7
:103C80008AF800400BE000E011E004EA070000F0D1
:103C9000200010B14FF0010B01E04FF07D0B7F21B0
:103CA0000620FFF781FE7F210720FFF77DFE5846A3
:103CB000BDE8FC9F10B503211120FFF7C5FE10BD24
:103CC000000C0140001001400008014010B5032124
:103CD0001120FFF7ABFE10BD70B500244FF4005566
:103CE00000224021FE48FCF768FD40F6C410FDF7B5
:103CF000F7FB01224021FA48FCF75FFD4FF47A7090
:103D0000FDF7EEFB00224021F548FCF756FD4FF48D
:103D10009670FDF7E5FB00BF0120FFF7F3FD00F013
:103D20003F0020B1281EA5F101018DB2F4D105B9E3
:103D300001246CB980210020FFF736FE0120FFF737
:103D4000E1FD08B1012403E000210846FFF72CFE45
:103D500084BB00211F20FFF727FE40211F20FFF713
:103D600023FE0A20FDF7BCFB40211F20FFF76CFE5D
:103D7000AD211B20FFF718FEFF211C20FFF714FECA
:103D800041211E20FFF710FE1A212920FFF70CFE0B
:103D900002212B20FFF708FE02212D20FFF704FE51
:103DA0005B211120FFF700FE3F211220FFF7FCFDF1
:103DB000FFF780FF204670BD2DE9FC4105460C460B
:103DC000002001906F466A20FFF74CFE032122205D
:103DD000FFF7EAFD08210920FFF736FE07210F2033
:103DE000FFF7E2FD1E208DF8000001208DF8010094
:103DF0008DF802502220FFF785FD06460F20FFF7C1
:103E000081FD064601A93846FFF76AFE064656B907
:103E10009DF80100102806D19DF8020020709DF841
:103E20000300607000E00B263046BDE8FC812DE900
:103E3000FE4305460E460020029000278046E946D4
:103E40006A20FFF70FFE28211A20FFF7ADFD082199
:103E50000920FFF7F9FD03212220FFF7A5FD1E2011
:103E60008DF8000002208DF80100932D03D19320DE
:103E70008DF8020004E0952D02D195208DF8020006
:103E800020218DF8031002A94846FFF729FE80463D
:103E9000B8F1000F1BD1002405E00DF10200005D18
:103EA0004740601CC4B2042CF7DB0DF10200005D3A
:103EB000B84202D04FF0080809E0002405E00DF1F7
:103EC0000200005D3055601CC4B2042CF7DB2021D9
:103ED0001A20FFF7B9FD4046BDE8FE832DE9FF41FA
:103EE0000546002003900027E8466A20FFF7BAFD48
:103EF0000F212220FFF758FD08210920FFF7A4FD1C
:103F00001E208DF8000007208DF8010093208DF809
:103F1000020070218DF80310002408E0285D47405E
:103F20002A5D0DF10200A11C4254601CC4B2042C95
:103F3000F4DB8DF8087003A94046FFF7D1FD064673
:103F400026B99DF80100082800D00B26304604B0A1
:103F5000BDE8F0812DE9FE4F0546884616464FF034
:103F60000009EA466A20FFF77DFD0F212220FFF7B6
:103F70001BFD08210920FFF767FD1E208DF80000BA
:103F800007208DF8010093208DF8020070218DF834
:103F90000310002409E0285D80EA09092A5D0DF17B
:103FA0000200A11C4254601CC4B2042CF3DB8DF847
:103FB000089031465046FFF793FD074657B93278CF
:103FC0000AF10201404604F095FA9DF80100082824
:103FD00000D00B273846BDE8FE8F2DE9FE4F054681
:103FE000884616464FF00009EA466A20FFF73AFD78
:103FF0000F212220FFF7D8FC08210920FFF724FD1C
:104000001E208DF8000007208DF8010095208DF806
:10401000020070218DF80310002409E0285D80EA79
:1040200009092A5D0DF10200A11C4254601CC4B2B2
:10403000042CF3DB8DF8089031465046FFF750FD15
:10404000074657B932780AF10201404604F052FAA5
:104050009DF80100082800D00B273846BDE8FE8FE8
:104060007CB50024002001906D466A20FFF7FAFC21
:104070001E208DF8000002208DF8010050208DF8E0
:10408000020000218DF8031001A92846FFF728FD42
:10409000044624B1012C01D01B2C00D100240021A6
:1040A0000120FFF781FC20467CBD70B502460B461F
:1040B00000210025002400BF15E0505C00F00F0532
:1040C000505C0411E84345EA0010012606EB410666
:1040D0009855E04344EA001003F81100481C01E041
:1040E00000100140C1B20629E7DB002070BDF0B529
:1040F00085B00546002004906E466A20FFF7B2FCAA
:1041000019208DF800000C208DF80100002405E036
:10411000295D0DF102000155601CC4B20C2CF7DBC7
:1041200004A93046FFF7DCFC0746384605B0F0BD71
:104130002DE9FE4305460E4617464FF000080020C5
:104140000290E94607212220FFF72EFCB8F1000F6C
:104150003DD16A20FFF786FC0C208DF80000062078
:104160008DF801008DF802508DF80360002406E000
:104170003A5D0DF10200A11C4254601CC4B2042C33
:10418000F6DB02A94846FFF7ABFCB0F100081ED1F0
:104190000520FFF7B7FB00F0070010B14FF00B0848
:1041A00015E014208DF8000000208DF8010002A910
:1041B0004846FFF795FCB0F1000808D10920FFF749
:1041C000A1FB00F0080000B101E04FF004084046F8
:1041D000BDE8FE832DE9F04186B005460E4600207D
:1041E0000590E8460420FFF73DFC0F212220FFF751
:1041F000DBFB1E208DF8000002208DF8010030202E
:104200008DF802008DF8035005A94046FFF768FCC1
:1042100007467FB99DF80100802801D00B2709E0EF
:10422000002405E00DF10200005D3055601CC4B2B1
:10423000102CF7DB384606B0BDE8F0812DE9F041DF
:1042400086B006460F4600200590E8460420FFF79A
:1042500009FC07212220FFF7A7FB1E208DF8000094
:1042600002208DF80100A0208DF802008DF8036077
:1042700005A94046FFF734FC0546012D18D09DF8EE
:104280000100042801D00B2512E09DF8020000F087
:104290000F008DF802009DF8020010B10A2804D129
:1042A00001E00A2503E0002501E0062500BF00BF6C
:1042B00065BB0320FFF7D6FB1E208DF80000102001
:1042C0008DF80100002405E0395D0DF10200015573
:1042D000601CC4B2102CF7DB05A94046FFF700FCB8
:1042E0000546012D12D09DF8020000F00F008DF858
:1042F00002009DF8020010B10A2804D101E00F2548
:1043000003E0002501E0062500BF00BF284606B0F7
:10431000BDE8F0812DE9FE4307460E469046002099
:104320000290E9466A20FFF79DFB1E208DF80000F1
:1043300002208DF801008DF802708DF8036002A94B
:104340004846FFF7CDFB0446012C1CD09DF8010028
:10435000042801D00B2416E09DF8020000F00F00A5
:104360008DF802009DF8020020B1012806D00A282D
:1043700006D101E00A2405E0002403E07C2401E0EA
:10438000062400BF00BF0CBB0420FFF76BFB1E2000
:104390008DF8000004208DF80100E946002506E0B4
:1043A00018F805100DF102004155681CC5B2042D26
:1043B000F6DB02A94846FFF793FB04460CB1012C3B
:1043C00007D19DF80100042801D00B2402E000244D
:1043D00000E07D2474BB1E208DF8000002208DF8C3
:1043E0000100B0208DF802008DF8036002A9484654
:1043F000FFF776FB0446012C1CD09DF80100042831
:1044000001D00B2416E09DF8020000F00F008DF89B
:1044100002009DF8020020B1012806D00A2806D12A
:1044200001E00A2405E0002403E07C2401E00624E6
:1044300000BF00BF2046BDE8FE83FEB50546002054
:1044400002906E460420FFF70DFB1E208DF8000041
:1044500002208DF80100C2208DF802008DF8035073
:1044600002A93046FFF73CFB0446012C1CD09DF806
:104470000100042801D00B2416E09DF8020000F092
:104480000F008DF802009DF8020020B1012806D02F
:104490000A2806D101E00A2405E0002403E07C2478
:1044A00001E0062400BF00BFD4B90420FFF7DAFA08
:1044B0001E208DF8000004208DF8010000208DF8EA
:1044C000020000218DF803108DF804108DF80510FE
:1044D00002A93046FFF704FB0446012C00D100245A
:1044E0002046FEBD7CB50446002001906E460420A7
:1044F000FFF7B8FA1E208DF8000002208DF80100A9
:10450000B0208DF802008DF8034001A93046FFF776
:10451000E7FA0546012D1CD09DF80100042801D0C2
:104520000B2516E09DF8020000F00F008DF8020048
:104530009DF8020020B1012806D00A2806D101E02A
:104540000A2505E0002503E07C2501E0062500BFE3
:1045500000BF28467CBD2DE9FF41054600200390A1
:104560000026E84628211A20FFF71EFA0821092014
:10457000FFF76AFA03212220FFF716FA0420FFF75B
:1045800071FA1E208DF8000002208DF801009320A2
:104590008DF8020020218DF8031003A94046FFF793
:1045A0009FFA0746D7B9002409E00DF10200005D2B
:1045B00028550DF10200005D4640601CC4B2042C79
:1045C000F3DB0DF10200005DB04201D07D2705E074
:1045D000BDF8031029809DF80500A87020211A203D
:1045E000FFF732FA88260F212220FFF7DDF9082194
:1045F0000920FFF729FA0420FFF734FA1E208DF86E
:10460000000007208DF8010093208DF80200702132
:104610008DF8031088218DF80410002408E0285D2F
:1046200046402A5D0DF10200E11C4254601CC4B2F8
:10463000032CF4DB8DF8086003A94046FFF750FA1D
:10464000074627B99DF80100082800D07D27002FD4
:104650006ED1002628211A20FFF7A6F9082109208B
:10466000FFF7F2F903212220FFF79EF90420FFF75C
:10467000F9F91E208DF8000002208DF80100952028
:104680008DF8020020218DF8031003A94046FFF7A2
:1046900027FA0746A7B9002405E00DF10200005DE6
:1046A0004640601CC4B2042CF7DB0DF10200005D33
:1046B000B04201D07D2703E0DDF80200C5F8030019
:1046C00020211A20FFF7C0F900260F212220FFF732
:1046D0006BF908210920FFF7B7F90420FFF7C2F9A9
:1046E0001E208DF8000007208DF8010095208DF820
:1046F000020070218DF8031000240AE0E81C005D20
:104700004640E81C025D0DF10200A11C4254601CF1
:10471000C4B2042CF2DB8DF8086003A94046FFF711
:10472000DFF9074627B99DF80100082800D07D274A
:10473000384604B0BDE8F081FEB504460D460020C1
:1047400002906F460420FFF78DF907212220FFF722
:104750002BF91E208DF8000003208DF80100A22007
:104760008DF802008DF803402968019102A93846AE
:10477000FFF7B6F906464EB99DF80100042805D1A9
:104780009DF8020000F00F000A2800D07D260420CA
:10479000FFF768F93046FEBD2DE9FC4105460C46A1
:1047A000164600200190E8460F20FFF75BF91E2017
:1047B0008DF8000002208DF80100E0208DF8020045
:1047C0008DF803500020F849087001A94046FFF712
:1047D00087F907469DF80100C11700EB5171C91018
:1047E0002170012906DC22780DF10201304603F028
:1047F00081FE00E07D273846BDE8FC812DE9FF4FB2
:1048000089B081468B460020049002A801900020C8
:104810000790824600270690DDF82C80A2200890A1
:104820000B20FFF71FF909F0F00008B1012400E0A8
:104830000024C4F1020040450CDAC4F10200C0B209
:104840000790A8EB070000F0FF08D748007880F039
:10485000120604E04746D448007880F00206D248A9
:10486000007880F00100D04908701E208DF8080003
:104870003819401CC0B28DF8090046EAC400C0B225
:104880008DF80A001CB109F00F018DF80B100025FE
:1048900006E000220DF10A00691C4254681CC5B2F2
:1048A000A542F6DB0DF10A01621C88183A4659460A
:1048B00003F020FE06983844C0B2069004A901987F
:1048C000FFF70EF90590D3E09DF80900C11700EB42
:1048D0005171C910491E091B032902DD7D20059075
:1048E000CAE09DF80A0000F0F000D8B99DF8090070
:1048F000C11700EB5171C910491E091BC9B20791BC
:104900000DF10A02631CD1180C9A02EB0A00079AF7
:1049100003F0F0FD0798504400F0FF0A169880F865
:1049200000A0A9E09DF80A0000F0F000A02852D1F4
:10493000002506E000220DF10A00691C4254681CA3
:10494000C5B2A542F6DB86F00106C4F1020040457F
:1049500012DAC4F10200C7B2A8EB070000F0FF08AA
:104960009148007880F0100006438F48007880F06E
:1049700001008D4908700BE0474606F0EF068A48B3
:10498000007806438848007880F001008649087066
:104990001E208DF808003819401CC0B28DF809009F
:1049A000022040EAC9003043C0B28DF80A00069ADE
:1049B0000BEB02010DF10A02631CD0183A4603F01A
:1049C00099FD06983844C0B2069004A90198FFF7F3
:1049D00087F805904CE09DF80A0000F0F0001028E0
:1049E00043D19DF80900C11700EB5171C910491E50
:1049F000091BC9B207910DF10A02631CD1180BEB18
:104A00000A00079A03F076FD0798504400F0FF0A69
:104A10009DF80A0000F0010020B1089800F0FE00A7
:104A2000089003E0089840F0010008901E208DF8DF
:104A30000800601CC0B28DF80900FB2000EAC90024
:104A4000089908438DF80A00002506E000220DF1C0
:104A50000A00691C4254681CC5B2A542F6DB04A9D1
:104A60000198FFF73DF8059002E07D20059003E0F6
:104A7000059800283FF428AF00BF05980DB0BDE8A9
:104A8000F08F7CB50446002001906E460420FEF7AE
:104A9000E9FF1E208DF8000002208DF80100CA20D9
:104AA0008DF802008DF8034001A93046FFF718F891
:104AB000054628467CBD2DE9F04387B005460E46E5
:104AC0001746002006900DF1040903208DF804001C
:104AD0008DF80500E8B28DF80600290A8DF8071058
:104AE0008DF8086006A94846FEF7FAFF8046B8F13F
:104AF000000F09D1002405E00DF10600005D3855D6
:104B0000601CC4B2B442F7DB404607B0BDE8F08396
:104B10002DE9F04387B005460E4617460020069063
:104B2000E94601208DF80000B01CC0B28DF80100EC
:104B3000E8B28DF80200290A8DF80310002406E07F
:104B40003A5D0DF10200A11C4254601CC4B2B44293
:104B5000F6DB06A94846FEF7C3FF8046404607B08D
:104B6000BDE8F0837CB50446002001906E46072026
:104B70008DF8000002208DF80100E0B28DF80200EF
:104B8000210A8DF8031001A93046FEF7A9FF05465A
:104B900028467CBD70B58CB0202204A104A803F087
:104BA000A9FC6D46002416E08A00002000583F3F13
:104BB00019130000007308ADFF00410000060363F5
:104BC00063000000000807060A02000004A8005D58
:104BD0002855601CC4B2102CF8DB2A461021084668
:104BE000FFF796FF064656B9002406E004A904F133
:104BF0001000085C2855601CC4B2102CF6DB2A4655
:104C000010212020FFF784FF064630460CB070BD0F
:104C10007CB50446002001906E460B208DF8000004
:104C200002208DF80100E0B28DF80200210A8DF813
:104C3000031001A93046FEF753FF054628467CBD08
:104C4000F0B585B007460C466E466A20FEF70AFFAF
:104C500003212220FEF7A8FE08210920FEF7F4FE1A
:104C60001E208DF8000004208DF80100E0208DF852
:104C7000020040218DF803100221B01C00F081FBDE
:104C8000C1B28DF804100221B01C00F07AFB010AB9
:104C90008DF8051021463046FEF722FF05463DB946
:104CA0002278B11C384603F025FC002005B0F0BD89
:104CB0002846FBE7F0B585B007460C466E466A20ED
:104CC000FEF7D0FE03212220FEF76EFE0821092008
:104CD000FEF7BAFE1E208DF8000005208DF80100B9
:104CE000D0208DF8020011218DF8031000218DF8DD
:104CF00004100321B01C00F044FBC1B28DF8051074
:104D00000321B01C00F03DFB010A8DF8061021467E
:104D10003046FEF7E5FE05463DB92278B11C38461F
:104D200003F0E8FB002005B0F0BD2846FBE7F0B536
:104D300089B007460C46002008906E466A20FEF7B0
:104D400091FE07212220FEF72FFE08210920FEF701
:104D50007BFE00F0EDFA08A800F0B0FB1E208DF8F5
:104D600000009DF820008DF801009DF82020FE49EC
:104D7000B01C03F0BFFB21463046FEF7B1FE0546EE
:104D80003DB92278B11C384603F0B4FB002009B0CD
:104D9000F0BD2846FBE7F0B589B007460C46002079
:104DA00008906E466A20FEF75DFE07212220FEF77E
:104DB000FBFD08210920FEF747FE00F0B9FA08A81C
:104DC00000F0BEFB1E208DF800009DF820008DF83D
:104DD00001009DF82020E449B01C03F08BFB214624
:104DE0003046FEF77DFE05463DB92278B11C3846B7
:104DF00003F080FB002009B0F0BD2846FBE7F0B5CA
:104E000089B007460C46002008906E466A20FEF7DF
:104E100029FE07212220FEF7C7FD08210920FEF701
:104E200013FE00F085FA08AA0221002000F01AFC07
:104E30001E208DF800009DF820008DF801009DF8DF
:104E40002020C949B01C03F055FB21463046FEF72F
:104E500047FE05463DB92278B11C384603F04AFBAF
:104E6000002009B0F0BD2846FBE72DE9F04389B0EA
:104E70008046894615461C46002008906F466A20E9
:104E8000FEF7F0FD07212220FEF78EFD0821092004
:104E9000FEF7DAFD00F04CFA08AA4946404600F059
:104EA000E1FB1E208DF800009DF820008DF8010028
:104EB0009DF82020AC49B81C03F01CFB2146384665
:104EC000FEF70EFE064646B92278B91C284603F0C6
:104ED00011FB002009B0BDE8F0833046FAE7F0B5D9
:104EE00089B007460C46002008906E466A20FEF7FF
:104EF000B9FD07212220FEF757FD08210920FEF702
:104F0000A3FD00F015FA08A9012000F07BFB1E208C
:104F10008DF800009DF820008DF801009DF82020FC
:104F20009149B01C03F0E6FA21463046FEF7D8FD61
:104F300005463DB92278B11C384603F0DBFA002063
:104F400009B0F0BD2846FBE7F0B589B007460C462E
:104F5000002008906E466A20FEF784FD072122207B
:104F6000FEF722FD08210920FEF76EFD00F0E0F9B2
:104F700008AA0221002000F075FB1E208DF8000019
:104F80009DF820008DF801009DF820207649B01C86
:104F900003F0B0FA21463046FEF7A2FD05463DB9C2
:104FA0002278B11C384603F0A5FA002009B0F0BD04
:104FB0002846FBE72DE9F043BFB0804689461546F9
:104FC0001C4600203E906F466A20FEF74BFD0721ED
:104FD0002220FEF7E9FC08210920FEF735FD00F04C
:104FE000A7F93EAA4946404600F03CFB1E208DF83A
:104FF00000009DF8F8008DF801009DF8F8205A494E
:10500000B81C03F077FA21463846FEF769FD0646DC
:1050100046B92278B91C284603F06CFA00203FB04C
:10502000BDE8F0833046FAE72DE9F047C0B080468E
:10503000894692461E46489C00203F9001AD0420C0
:10504000FEF710FD07212220FEF7AEFC0821092003
:10505000FEF7FAFC00F06CF93FAB52464946404679
:1050600000F028FB1E208DF804009DF8FC008DF850
:1050700005009DF8FC203C49A81C03F03BFA2146A2
:105080002846FEF72DFD074647B92278A91C304671
:1050900003F030FA002040B0BDE8F0872278A91C68
:1050A000304603F027FA3846F5E7F0B589B00746F1
:1050B0000C46002008906E466A20FEF7D3FC0721BC
:1050C0002220FEF771FC08210920FEF7BDFC00F04C
:1050D0002FF908A800F065FA1E208DF800009DF851
:1050E00020008DF801009DF820201F49B01C03F01E
:1050F00001FA21463046FEF7F3FC05463DB9227819
:10510000B11C384603F0F6F9002009B0F0BD28467E
:10511000FBE7F0B589B007460C46002008906E46C4
:105120006A20FEF79FFC07212220FEF73DFC0821A4
:105130000920FEF789FC00F0FBF808AA02210020F4
:1051400000F090FA1E208DF800009DF820008DF8E8
:1051500001009DF820200449B01C03F0CBF9214642
:105160003046FEF7BDFC01E04F09002005463DB981
:105170002278B11C384603F0BDF9002009B0F0BD1B
:105180002846FBE72DE9F04389B08046894615465D
:105190001C46002008906F466A20FEF763FC07213A
:1051A0002220FEF701FC08210920FEF74DFC00F04B
:1051B000BFF808AA4946404600F054FA1E208DF870
:1051C00000009DF820008DF801009DF8202057492F
:1051D000B81C03F08FF921463846FEF781FC0646DD
:1051E00046B92278B91C284603F084F9002009B09A
:1051F000BDE8F0833046FAE7F0B589B007460C46C3
:10520000002008906E466A20FEF72CFC0721222021
:10521000FEF7CAFB08210920FEF716FC00F088F80B
:1052200008A800F08BFA1E208DF800009DF82000E1
:105230008DF801009DF820203C49B01C03F05AF97C
:1052400021463046FEF74CFC05463DB92278B11C9C
:10525000384603F04FF9002009B0F0BD2846FBE7BF
:10526000F0B585B007460C466E466A20FEF7FAFB9D
:1052700003212220FEF798FB08210920FEF7E4FB1A
:105280001E208DF8000003208DF80100C2208DF84B
:105290000200E0218DF80310B4218DF8041021469E
:1052A0003046FEF71DFC05463DB92278B11C384654
:1052B00003F020F9002005B0F0BD2846FBE72DE9FA
:1052C000F0418AB080460D4614460020099001AF97
:1052D0000420FEF7C7FB03212220FEF765FB08210F
:1052E0000920FEF7B1FB09A9404600F04EFA1E2046
:1052F0008DF804009DF824008DF805009DF8242009
:105300000A49B81C03F0F6F821463846FEF7E8FBD8
:10531000064646B92278B91C284603F0EBF800206F
:105320000AB0BDE8F0813046FAE700004F090020DE
:1053300000200021FB4A117051709170D1701171E1
:105340000022F84981F8FB2000BF06E0F6490A5C1C
:10535000F449491D0A54411CC8B2F628F6DB7047CF
:1053600002460878424082EA0210C2B2088800125F
:1053700080EA022080EAC20080EA221008800888C1
:10538000704738B503460C4646F26330009000BFC4
:1053900013F8015B69462846FFF7E2FF601EC0B2C2
:1053A000041EF5D1BDF8000038BD0FB42DE9F0435F
:1053B0000646489D479C4FF00008C14600202070DB
:1053C00006F0010078B1D948007808B9012000E062
:1053D0000020D64908700846007840F00201227883
:1053E000501C2070A954D148007800F0080020B16A
:1053F0002178481C207005F8019006F0020028B1C1
:105400009DF820102278501C2070A95406F004004A
:1054100028B19DF821102278501C2070A95406F064
:10542000080028B19DF822102278501C2070A95441
:1054300006F0100028B19DF823102278501C20702F
:10544000A95406F0200028B19DF824102278501CA1
:105450002070A95406F0400090B14FF000080BE016
:105460000DF1250010F808102278501C2070A95466
:1054700008F1010000F0FF089DF824004045EFDC32
:1054800006F0800028B19DF81B112278501C207076
:10549000A95406F4807068B121782846FFF771FF9F
:1054A00007462278501C2070AF54390A2278501CCD
:1054B0002070A954BDE8F0035DF814FB2DE9F0431A
:1054C000ADF5017D05460024DFF86482072699A129
:1054D00003C97F917E90A1464FF4806700209149D7
:1054E0000870A4204870380A8870CF70084606718A
:1054F00000BF06E07EA8015D8A48401D0155601C82
:10550000C4B2B442F6DB874880F8FB9080A8F02252
:1055100084490C31CDE93C08684602F0EBFFFC22DF
:1055200080493FA802F0E6FFFF203FA90EC9FFF720
:105530003CFF9DF8000228700DF5017DBDE8F08369
:105540002DE9F041FEB00546794F4FF002080C24DA
:105550004EF20316002073490870A4204870200AF8
:1055600088700846C47080F80480310A41718671E1
:105570007DA8F0226B490C31CDE93C07684602F06A
:10558000B9FFFC2267493EA802F0B4FF7F203EA984
:105590000EC9FFF70AFF9DF8F40128707EB0BDE840
:1055A000F0812DE9F041FEB00546614F4FF0020851
:1055B0000C244EF2011600205A490870A4204870AD
:1055C000200A88700846C47080F80480310A41714E
:1055D00086717DA8F02253490C31CDE93C0768461D
:1055E00002F088FFFC224F493EA802F083FF7F2093
:1055F0003EA90EC9FFF7D9FE9DF8F40128707EB0D0
:10560000BDE8F0812DE9F041FEB004460E46484F5A
:105610004FF002080C25002042490870A420487071
:10562000280A88700846C57080F80480210A4171F4
:1056300084717DA8F0223B490C31CDE93C076846D6
:1056400002F058FFFC2237493EA802F053FF7F20AA
:105650003EA90EC9FFF7A9FE9DF8F40130707EB097
:10566000BDE8F081F0B5FFB004460D461646304F58
:1056700000202C490870B0204870200A8870CC7037
:10568000084680F8FB507EA8F0220C31CDE93C079B
:10569000684602F02FFFFC2222493FA802F02AFFB1
:1056A0009F203FA90EC9FFF780FE9DF8F8013070DA
:1056B0007FB0F0BD2DE9F043FFB005460E4617461A
:1056C0009846DFF86C900024002016490870D62018
:1056D0004870280A8870CD700846067100BF05E042
:1056E000395D1048401D0155601CC4B2B442F7DB5F
:1056F0007EA8F0220B490C31CDE93C09684602F046
:10570000F9FEFC2207493FA802F0F4FE7F203FA9E2
:105710000EC9FFF74AFE9DF8F80188F800007FB037
:10572000BDE8F0835D070020590800208B000020B1
:105730004F090020D27600008501010070B5FEB04F
:105740000546344E1E24A22033490870D6204870E6
:10575000200A88700846C470002008717DA8F022D5
:105760000C31CDE93C06684602F0C4FEFC222A4911
:105770003EA802F0BFFE3F203EA90EC9FFF715FE6E
:105780009DF8F40128707EB070BD2DE9F041064609
:105790000F46204D0024F2222146641C6A54214603
:1057A000641C6E5402212846FFF7EBFD804621461B
:1057B000641C05F801804FEA18222146641C6A54D3
:1057C0003C70BDE8F08170B504460D46002625B159
:1057D00029462046FFF7D5FD06464EB9281F205C16
:1057E0004FF47F4101EA0020E91E615C084370BD6F
:1057F000002605212046FFF7C4FD06460EB1122003
:10580000F5E760784FF47F4101EA0020A178084372
:10581000EDE700004F0900205D07002001E0FAF7E6
:105820006FFCFCE701E0FAF76BFCFCE701E0FAF73C
:1058300067FCFCE701E0FAF763FCFCE700BFFEE76A
:1058400070477047704710B5F748407868B1F64820
:10585000407A401CF44948720846407A052804DD25
:10586000FCF78AFB0120F0494871F04801680068A4
:10587000401CEE4A1060B1F57A7F23D9FBF743F85C
:105880000020EA490860EA488078401CE8498870AE
:10589000084680783C2815DB002088700846407850
:1058A000401C4870084640783C280BDB00204870BC
:1058B00008460078401C087008460078182801DB6C
:1058C00000200870DB48007840B1DB4800880028E1
:1058D00004DDD9480088401ED7490880D7480078A1
:1058E00040B1D7480078002804DDD5480078401E34
:1058F000D3490870D3480088012804DDD1480088C6
:10590000401ED0490880D0480078012804DDCE48E8
:105910000078401ECC490870CC480088002804DD7F
:10592000CA480088401EC9490880C9480078002834
:1059300004DDC7480078401EC549087010BD10B589
:105940002821C448FBF710FD40B1012240F2255147
:10595000C048FBF724FCBF48FBF786FC40F225510A
:10596000BC48FBF701FD002871D0BA48FBF77CFC6E
:10597000AD49887108464079092869D2DFE800F00E
:10598000050D47698097C4E6FF00A748807810B9E5
:10599000A548007800B160E100BFA34880795A288B
:1059A00018D10120A049487008468079C87208467D
:1059B000817990F82D2090F82D00401C9A4B83F8A7
:1059C0002D0003F14E008154002019464872022038
:1059D00048711BE0944880795C2817D101209249D6
:1059E000487008468079C8720846817990F82D2061
:1059F00090F82D00401C8C4B83F82D0003F14E00D5
:105A000081540020194648720420487125E18648D7
:105A1000817990F82D2090F82D00401C824B83F85E
:105A20002D0003F14E0081544E388179C279C0793E
:105A3000401CD87103F10C008154002019464872B3
:105A40000846C079042801D10320487105E105E129
:105A500002E175488079744908740846817990F8A4
:105A60002D2090F82D00401C6F4B83F82D0003F182
:105A70004E00815400201946487204204871ECE021
:105A800069488079684948740846817990F82D20E2
:105A900090F82D00401C644B83F82D0003F14E005C
:105AA000815400201946487205204871D5E05E48AF
:105AB00080795D4988740846817990F82D2090F8A6
:105AC0002D00401C584B83F82D0003F14E008154EB
:105AD0004E38807C202808DD012019460871FCF72B
