:020000040800F2
:100000003018002001010008E54E0008ED4E000800
:10001000F54E0008FD4E0008054F000800000000E6
:10002000000000000000000000000000094F000870
:100030000B4F0008000000000D4F00080F4F000894
:100040001B0100081B0100081B0100081B01000820
:100050001B0100081B0100081B0100081B01000810
:100060001B0100081B0100081B0100081B01000800
:100070001B0100081B0100081B0100081B010008F0
:100080001B0100081B0100081B0100081B010008E0
:100090001B0100081B0100081B0100089353000806
:1000A0001B0100081B0100081B0100081B010008C0
:1000B0001B0100081B0100081B0100081B010008B0
:1000C0001B0100081B0100081B0100081B010008A0
:1000D0001B010008C94F00081B0100081B01000894
:1000E0001B0100081B0100081B010008DFF80CD0F1
:1000F00007F0CCFF00480047D91300083018002053
:100100000648804706480047FEE7FEE7FEE7FEE7B1
:10011000FEE7FEE7FEE7FEE7FEE7FEE781020008F6
:10012000ED0000081CB50020019000908B4800688D
:1001300040F480308949086000BF8848006800F4B6
:10014000003000900198401C0190009818B9019867
:10015000B0F5A06FF1D18148006800F4003010B113
:100160000120009001E0002000900098012844D177
:100170007B48006840F01000794908600846006834
:1001800020F0030008600846006840F002000860A4
:1001900072484068714948600846406848600846AF
:1001A000406840F4806048600846406820F47C1055
:1001B00048600846406840F4D81048600846006827
:1001C00040F08070086000BF6448006800F0007074
:1001D0000028F9D06148406820F003005F4948607A
:1001E0000846406840F00200486000BF5B48406835
:1001F00000F00C000828F9D13DE0012059490870B1
:1002000000F08CFB012000F00EFC00BF212000F06C
:10021000C8FB0028FAD05248006840F0100050494E
:1002200008600846006820F003000860084600687F
:1002300040F002000860002000F015FC002000F0F3
:1002400024FC4FF4806000F017FC4FF46011002094
:1002500000F0ECFB012000F0F5FB00BF392000F0BE
:10026000A0FB0028FAD0022000F0EFFB00BF00F056
:10027000F5FB0828FBD11CBD10B5FFF753FF10BDDF
:1002800010B53648006840F001003449086008465F
:10029000406835490840314948600846006833499C
:1002A00008402E4908600846006820F48020086055
:1002B0000846406820F4FE0048604FF41F00886044
:1002C000FFF7DAFF4FF000602949086010BD10B554
:1002D000002100200022214B5B6803F00C0121B1BA
:1002E000042906D0082928D107E0224B224C23609C
:1002F00027E0224B204C236023E0184B5B6803F47B
:100300007010164B5B6803F48032022303EB9040BD
:1003100022B91B4B4343184C23600DE00F4B5B6825
:1003200003F4003323B1134B4343134C236003E026
:10033000124B4343104C236003E00E4B0E4C2360E2
:1003400000BF00BF054B5B68C3F303130D4CE15CBA
:10035000094B1B68CB40084C236010BD00100240C5
:10036000002002405C0000200000FFF8FFFFF6FEC6
:1003700008ED00E000127A00000000200024F400E4
:1003800000093D000400002031490143314A116059
:10039000704770B5002100230F22C47804B32D4CA0
:1003A000246804F4E064C4F5E064210AC1F10403A4
:1003B000CA40447804FA03F18478144021430901C7
:1003C000254C0678A155047804F01F050124AC40A3
:1003D00005786D11AD0005F1E025C5F8004109E093
:1003E000047804F01F050124AC401C4D06787611FA
:1003F00045F8264070BD1A4A0A400243154B1B1FA0
:100400001A60704739B1134A121D12680243114B2A
:100410001B1D1A6006E00F4A121D126882430D4B25
:100420001B1D1A607047042808D14FF0E0210969AC
:1004300041F004014FF0E022116107E04FF0E021AC
:10044000096921F004014FF0E022116170470000BA
:100450000000FA050CED00E000E400E080E100E0BF
:1004600080FFFF1F002044490860091D0860091D26
:100470000860091D086041483F4914310860704711
:1004800000213D498279002A3AD00A461268036861
:100490009A430B461A600A1D126803689A430B1DA3
:1004A0001A60027911440A6803681A430A60324AE2
:1004B0000832126803689A432F4B08331A601A1DDA
:1004C000126803689A432C4B0C331A604279102A45
:1004D0000ED11A1F126803681A43274B08331A609B
:1004E0001A1D126803681A43234B0C331A600DE07F
:1004F0002149427911440A6803681A430A6005E0F9
:10050000027911440A6803689A430A60704700211F
:10051000016001710C214171002181717047164900
:10052000103109680143144A1032116070470146C6
:100530000020114A143212680A400AB1012000E07A
:10054000002070470C4914310860704701460020B4
:100550000022094B1B6803EA0102074B14331B6896
:100560000B4013B10AB1012000E00020704702499E
:10057000143108607047000000040140FFFF0F00C5
:1005800010B50446CC48844208D10121042000F073
:100590004DFB0021042000F049FB46E0C74884429F
:1005A00008D10121082000F041FB0021082000F0C3
:1005B0003DFB3AE0C248844208D10121102000F0FE
:1005C00035FB0021102000F031FB2EE0BD488442B5
:1005D00008D10121202000F029FB0021202000F07B
:1005E00025FB22E0B848844208D10121402000F0D8
:1005F0001DFB0021402000F019FB16E0B3488442A7
:1006000008D10121802000F011FB0021802000F0A2
:100610000DFB0AE0AE48844207D10121801500F0AD
:1006200005FB0021A01500F001FB10BD10B5012154
:10063000084600F0FBFA0021012000F0F7FA10BD97
:100640002DE9F04102460025002600200023002469
:10065000002791F803C00CF00F0591F803C00CF0CF
:10066000100CBCF1000F03D091F802C04CEA050554
:1006700091F800C0BCF1000F31D0146800202BE0CD
:100680004FF0010C0CFA00F3B1F800C00CEA0306BD
:100690009E4220D183004FF00F0C0CFA03F7BC43AD
:1006A00005FA03FC4CEA040491F803C0BCF1280FDE
:1006B00006D14FF0010C0CFA00FCC2F814C00AE09D
:1006C00091F803C0BCF1480F05D14FF0010C0CFAB2
:1006D00000FCC2F810C0401C0828D1D31460B1F847
:1006E00000C0BCF1FF0F34DD546800202EE000F1A3
:1006F000080C4FF0010808FA0CF3B1F800C00CEA3E
:1007000003069E4221D183004FF00F0C0CFA03F731
:10071000BC4305FA03FC4CEA040491F803C0BCF1A5
:10072000280F05D100F1080C08FA0CF8C2F8148063
:1007300091F803C0BCF1480F07D100F1080C4FF04D
:10074000010808FA0CF8C2F81080401C0828CED323
:100750005460BDE8F0814FF6FF7101800221817085
:100760000421C17070470246002093680B400BB112
:10077000012000E0002070470146886880B2704781
:1007800002460020D3680B400BB1012000E000209E
:1007900070470146C86880B2704701617047416187
:1007A00070470AB1016100E041617047C160704764
:1007B0004FF480320A438261816182618269826979
:1007C000704702460020434B18684FF6807318406C
:1007D00040EA021008433F4B186070473E49C86129
:1007E0007047F0B50A46002300240021002500F0E0
:1007F0000046B6F1004F02D1364EF16901E0354EA8
:100800007168C0F3034583B200F44016B6F5401F8B
:1008100008D121F070612F4E766826F070662D4F5A
:100820007E6012E000F48016B6F5801F06D1032624
:1008300006FA05F4A14341F0706106E0460D360169
:1008400003FA06F6B14341F0706122B1460D36015C
:1008500003FA06F6314300F00046B6F1004F02D12C
:100860001C4EF16101E01B4E7160F0BD30B50022FD
:100870008B071C0F0F2303FA04F2164B08338C105E
:1008800053F824309343134C08348D1044F825302A
:1008900023468C1053F824308C07240F00FA04F4FC
:1008A00023430C4C08348D1044F8253030BD0A49E0
:1008B000DC3108607047000000080140000C014076
:1008C000001001400014014000180140001C0140CC
:1008D0000020014000000140000020420E49086055
:1008E00070470D49486070470B49886070474AF669
:1008F000AA200949086070474CF6CC4006490860B8
:10090000704701460020044AD2680A400AB101201B
:1009100000E000207047000000300040DF48006821
:1009200040F00100DD49086008464068DC490840A5
:10093000DA49486008460068DA490840D749086043
:100940000846006820F4802008600846406820F4CB
:10095000FE0048604FF41F0088607047CF49096867
:1009600021F48031CD4A11601146096821F48021BB
:100970001160B0F5803F03D0B0F5802F0ED106E0B6
:10098000C649096841F48031C44A116007E0C3498F
:10099000096841F4A021C14A116000E000BF00BF16
:1009A000704710B501460022002300204A11012A99
:1009B00002D1BA4C236806E0022A02D1B74C236A5E
:1009C00001E0B64C636A01F01F02012494401C4010
:1009D0000CB1012000E0002010BD38B500200090CF
:1009E0000024002500BF3120FFF7DBFF05460098FB
:1009F000401C00900098B0F5A06F01D0002DF2D0FF
:100A00003120FFF7CEFF08B1012400E0002420468A
:100A100038BD01460020A14A106820F0F80040EAE5
:100A2000C10010607047A04908607047024600206E
:100A30009A4B586820F47C1042EA01031843974B04
:100A40005860704798490866704701460020934AED
:100A5000506820F003000843506070478F4840689A
:100A600000F00C007047014600208C4A506820F0CE
:100A7000F00008435060704701460020874A5068E4
:100A800020F4E06008435060704701460020834A2C
:100A9000506820F4605040EAC1005060704729B1AE
:100AA0007E4A527A02437D4B5A7204E07B4A527A64
:100AB00082437A4B5A7270477B49D831086070473D
:100AC00001460020754A506820F4404008435060B9
:100AD00070470021714A20321170704A82F820104C
:100AE000012802D004280AD104E001216B4A2032F7
:100AF000117005E00521694A2032117000E000BF45
:100B000000BF70476949086070476449096A01433A
:100B1000624A11627047654944390860704730B5D0
:100B200000210022002400235C4D6D6805F00C01BB
:100B300021B1042905D0082923D105E05C4D0560C9
:100B400022E05C4D05601FE0544D6D6805F47012A5
:100B5000524D6D6805F48034022505EB92421CB9B4
:100B6000554D554305600BE04C4D6D6805F400355F
:100B70001DB14F4D5543056002E04E4D5543056094
:100B800002E04B4D056000BF00BF444D6D6805F0AD
:100B9000F0010909494D6B5C0568DD4045603F4D3A
:100BA0006D6805F4E061090A444D6B5C4568DD4001
:100BB00085603A4D6D6805F46051C90A3F4D6B5C24
:100BC0004568DD40C560354D6D6805F44041890BD1
:100BD0003B4D6B5CC568B5FBF3F5056130BD29B1D4
:100BE0002E4A526902432D4B5A6104E02B4A526946
:100BF00082432A4B5A61704729B1284A92690243BD
:100C0000264B9A6104E0254A92698243234B9A61FC
:100C1000704729B1214AD2690243204BDA6104E0CE
:100C20001E4AD26982431D4BDA61704729B11B4AC3
:100C3000D2680243194BDA6004E0184AD268824352
:100C4000164BDA60704729B1144A12690243134BFC
:100C50001A6104E0114A12698243104B1A6170470D
:100C600012494039086070470F49C86470470B4902
:100C7000C87170470948406A40F08070074948626F
:100C8000704701460020054A92680A400AB10120D7
:100C900000E0002070470149887270470010024050
:100CA0000000FFF8FFFFF6FE0000424280044242CF
:100CB00000127A000024F40000093D001400002016
:100CC0002400002010B50446BE48844208D101210A
:100CD0008014FFF7ABFF0021A014FFF7A7FF16E079
:100CE000B948844208D101210014FFF7ACFF00216C
:100CF0002014FFF7A8FF0AE0B448844207D101217D
:100D0000C013FFF7A0FF0021E013FFF79CFF10BD09
:100D100010B50022028802F441520B884C8823430C
:100D20008C882343CC8823430C8923434C89234359
:100D30008C892343CC8923431A430280838B4FF24F
:100D4000FF74234083830B8A038210BD2DE9F04F8B
:100D500085B005460C464FF0000902274FF0000809
:100D60004FF0010B0026B246A88B4FF2400108401D
:100D7000A88302202884B5F81C90A068022801D11D
:100D800000BF38E0A08810B94FF0010B01E04FF030
:100D9000020B8D48854200D100E000BF6846FFF796
:100DA000BEFEDDF800A0E088B0F5007F0AD14FEA72
:100DB0001A2000EB80004000A168B0FBF1F0401D5C
:100DC00086B20BE04FEA4B10BAFBF0F000EB80006C
:100DD0004000A168B0FBF1F0401D86B20A20B6FBCE
:100DE000F0F606F00108A6EB0800C0F34F074FF637
:100DF000FF7000EA0828022F01DBFF2F02DD022727
:100E00004FF00008E08840EA080038432884A088B2
:100E1000A1890843618808432188084340F40060A1
:100E200040EA0909A5F81C9005B0BDE8F08F002143
:100E3000018041808180C180018141818181C181A6
:100E40000721018270470021018041808180C1809B
:100E50000221816000218181704721B1028842F026
:100E60004002028004E002884FF6BF731A400280FD
:100E7000704721B1828B42F48062828304E0828BCE
:100E80004FF6FF331A408283704730B500240023A9
:100E90000C110125A540ABB21AB185881D43858090
:100EA00002E085889D43858030BD1AB183880B435D
:100EB000838002E083888B43838070478181704701
:100EC0000146888970474FF6FF62914204D002883C
:100ED00042F48072028004E002884FF6FF631A40F9
:100EE0000280704721B1828842F00402828004E0CF
:100EF00082884FF6FB731A408280704702884FF257
:100F0000FF731A40028002880A43028070470188FA
:100F100041F480510180704721B1028842F40052AF
:100F2000028004E002884DF6FF731A400280704789
:100F300002460020012901D0108B00E0908A704702
:100F40000146088A7047B1F5804F04D1028842F407
:100F50008042028004E002884BF6FF731A40028050
:100F600070470246002013890B400BB1012000E0BE
:100F700000207047CA4302817047F0B50246002046
:100F800000240023002501F00F070126BE40B4B263
:100F90000B1101269E40B3B2968806EA0305168916
:100FA000264016B10DB1012000E00020F0BD10B5C3
:100FB000002201F00F040123A3409AB2D34303811E
:100FC00010BD00000030014000380040003C0040EF
:100FD00010B50446FB48844209D101218803FFF77C
:100FE00025FE00214FF48040FFF720FE32E0F64856
:100FF000844209D101214804FFF725FE00214FF466
:101000000030FFF720FE25E0F048844209D101219D
:101010008804FFF718FE00214FF48020FFF713FE2D
:1010200018E0EB48844209D10121C804FFF70BFE08
:1010300000214FF40020FFF706FE0BE0E548844254
:1010400008D101210805FFF7FEFD00214FF48010B3
:10105000FFF7F9FD10BD2DE9F04786B005460E46B5
:101060000024A24600BFA1460027B08900B100BFFE
:101070002F462C8A4CF6FF700440F08804432C82E3
:10108000AC894EF6F3100440B08831890843718969
:1010900008430443AC81AC8A4FF6FF400440B0895A
:1010A0000443AC8201A8FFF73AFDC648874202D14B
:1010B000DDF810A001E0DDF80CA0A88900F40040E4
:1010C00040B10AEBCA0000EB0A1031684900B0FBDE
:1010D000F1F807E00AEBCA0000EB0A10316889005A
:1010E000B0FBF1F86420B8FBF0F0040120096421A2
:1010F00001FB1089A88900F4004040B1322000EBC8
:10110000C900B0FBF1F000F00700044308E0322012
:1011100000EB09106421B0FBF1F000F00F00044374
:101120002C8106B0BDE8F0874FF416510160002114
:101130008180C18001810C21418100218181704722
:1011400010B502460020108A4FF2FF0318400B88AA
:101150004C8823438C882343CC8823431843108234
:1011600010BD0021018041808180C180704721B184
:10117000828942F40052828104E082894DF6FF7335
:101180001A4082817047F0B50346002400260025EE
:10119000002040F66A17B94200D100BF1846C1F3DB
:1011A000421401F01F06012707FA06F5012C01D1B0
:1011B0000C3004E0022C01D1103000E014301AB1E0
:1011C00007682F43076002E00768AF430760F0BD80
:1011D0001AB1838A0B43838202E0838A8B43838222
:1011E0007047028A4FF6F0731A400282028A0A435D
:1011F0000282704782894FF2FF731A40828182898E
:101200000A438281704721B1828942F002028281C1
:1012100004E082894FF6FD731A4082817047028A8A
:101220004FF6DF731A400282028A0A430282704735
:1012300021B1028A42F48042028204E0028A4BF623
:10124000FF731A4002827047C1F308028280704720
:1012500001468888C0F308007047818941F0010188
:1012600081817047028BD2B20283028B42EA012253
:1012700002837047028B02F47F420283028B0A438F
:101280000283704721B1828A42F02002828204E008
:10129000828A4FF6DF731A408282704721B1828AB8
:1012A00042F01002828204E0828A4FF6EF731A4005
:1012B0008282704721B1828A42F00802828204E071
:1012C000828A4FF6F7731A408282704721B1828971
:1012D00042F40042828103E08289C2F30E028281DD
:1012E000704721B1828A42F40062828204E0828ADD
:1012F0004FF2FF731A4082827047828A4FF6FB7367
:101300001A408282828A0A438282704721B1828A8D
:1013100042F00202828204E0828A4FF6FD731A4094
:101320008282704702460020B1F5007F00D100BFE5
:1013300013880B400BB1012000E00020704701F43E
:101340000072B2F5007F00D100BFCA43028070472F
:1013500070B50246002400230025002040F66A16DE
:10136000B14200D100BFC1F3421501F01F030126B5
:1013700006FA03F3012D02D19689334006E0022DCF
:1013800002D1168A334001E0968A33400C120126BE
:1013900006FA04F41688344013B10CB1012000E0C1
:1013A000002070BD10B50022002340F66A14A1424F
:1013B00000D100BF0A1201249440A3B2DC43048090
:1013C00010BD0000003801400044004000480040CB
:1013D000004C004000500040012080F3108800BF06
:1013E00000F05AFA01F062F8002080F3108800BF84
:1013F00003E004F015FA04F001FEFAE710B5FEF779
:101400003FFF01210846FFF7F7FB01210420FFF70A
:10141000F3FB01210820FFF7EFFB01211020FFF76C
:10142000EBFB01212020FFF7E7FB01218803FFF7F9
:10143000E3FB01214804FFF7ECFB01210803FFF760
:10144000DBFB01218803FFF7E4FB01210846FFF7DE
:10145000E0FB01210220FFF7DCFB01210420FFF764
:10146000D8FB01210846FFF7BAFB0120FFF7FCFB80
:1014700010BD10B545F25550FFF730FA0620FFF7C2
:1014800030FA4FF49C70FFF72FFAFFF730FAFFF7AE
:1014900033FA10BD002108E0002202E000BF531C17
:1014A0009AB20C2AFADB4B1C99B28142F4D37047F2
:1014B000002002E000BF411C88B21128FADB70470F
:1014C000002108E0002202E000BF531C9AB2462A25
:1014D000FADB4B1C99B28142F4DB704708B542F24B
:1014E0001070009000BFBDF80000411E89B200914D
:1014F0000028F8D108BD08B51420009001E0FFF7DE
:10150000EDFF9DF80000411EC9B200910028F6D100
:1015100008BD08B5C820009001E0FFF7DFFF9DF887
:101520000000411EC9B200910028F6D108BD08B5DF
:101530004FF47A70009001E0FFF7D0FFBDF8000093
:10154000411E89B200910028F6D108BDFE4800680E
:10155000FE490860FC48001D00684860FA480830F1
:10156000006888600846006849680844F749896847
:101570000844F649C8600846007B00F00F00F449B3
:10158000C871F248007BC0F303108871EF4880896E
:10159000C0F303204871ED488089C0F3033008711F
:1015A000EA48C068C0F30340C870E848C068C0F3A8
:1015B00003508870E548C068C0F303604870E34892
:1015C000C0680F2101EA1070E1490870704708B146
:1015D000012807D1DF4931F81010DF4A52F82020E6
:1015E00011610AE0022801D0032806D1D94931F857
:1015F0001010D94A52F820205161704708B10128D3
:1016000007D1D44931F81010D34A52F82020516143
:101610000AE0022801D0032806D1CE4931F8101083
:10162000CD4A52F820201161704708B50121CB48FE
:10163000FFF7D7F84FF47070ADF8000003208DF875
:10164000020010208DF803006946C548FEF7F8FF38
:1016500000224021C248FFF7A4F800224FF4807115
:10166000BF48FFF79EF801225102BD48FFF799F8E5
:1016700000228021BA48FFF794F84FF48070ADF84B
:10168000000003208DF8020010208DF80300694649
:10169000B448FEF7D5FF01221102B248FFF781F8E6
:1016A0004FF40040ADF8000003208DF80200102038
:1016B0008DF803006946AB48FEF7C2FF0122D10353
:1016C000A848FFF76EF84FF47F40ADF80000032004
:1016D0008DF8020010208DF803006946A248FEF73D
:1016E000AFFF00224FF47F419F48FFF75AF808BD33
:1016F00008B54FF4A060FEF747FE17208DF80000F4
:1017000001208DF8010000208DF8020001208DF8E5
:1017100003006846FEF73DFE08BD10B50121924862
:10172000FFF73DF84FF400618E48FFF736F84FF4AD
:1017300080518B48FFF733F810BD08B54FF4805047
:10174000ADF8000003208DF8020010208DF8030092
:1017500069468348FEF774FF0120ADF800000320BE
:101760008DF8020010208DF8030069467E48FEF7D0
:1017700067FF4FF40060ADF8000003208DF8020011
:1017800010208DF8030069467648FEF759FFFFF7F1
:10179000C4FF08BD08B54FF4A060FEF7F5FD252095
:1017A0008DF8000001208DF801008DF802008DF801
:1017B00003006846FEF7EDFD012240F225516B481B
:1017C000FFF7E1FC08BD00B585B001218803FFF7F4
:1017D00013FA4FF40070ADF8100003208DF81200DA
:1017E00018208DF8130004A95E48FEF729FF4FF476
:1017F0008060ADF8100004208DF8130004A959484A
:10180000FEF71EFF4FF4E13000900020ADF8040019
:10181000ADF80600ADF80800ADF80C000C20ADF8EE
:101820000A0069465148FFF716FC01214F48FFF7AF
:101830009EFC01204E4981F8F10101214C4880F8BD
:10184000F21105B000BD08B50120ADF8000003207D
:101850008DF8020010208DF8030069464048FEF71D
:10186000EFFE08BD38B50446424951F82400012175
:10187000FFF7C2F9374830F81400ADF80000102027
:101880008DF8030003208DF80200334951F824003D
:101890006946FEF7D5FE38BD70B586B00024FFF767
:1018A000ADFD4FF47A41B1F1807F00D31DE021F00E
:1018B0007F40401E4FF0E022506150170F22002859
:1018C00007DA13071E0E2C4B00F00F052D1F5E5577
:1018D00003E013071D0E294B1D5400BF00204FF0DD
:1018E000E02290610720106100BF0220FFF7BAFFDD
:1018F0000320FFF7B7FFFFF7A6FFFFF764FFFFF72F
:1019000049FFFFF71AFFFFF7F3FEFFF78EFE01F026
:1019100047FD044601211248FEF73FFF0220FFF772
:101920006DFE0320FFF76AFEFFF7F3FDFFF7F1FD01
:1019300001210B48FEF733FF0220FFF748FE03208A
:10194000FFF745FE1CE00000E8F7FF1F3411002000
:10195000800000209485000828000020000230004C
:101960000010014000080140000C01400038014017
:10197000A20500209C85000818ED00E000E400E0CE
:10198000FFF7E4FDDE4806F0B3FBDE480068DE4901
:10199000B0FBF1F52946DDA006F0AAFBE448C279C8
:1019A00081794079E24B1B79CDE90130CDE9031211
:1019B000DF48C0780090DE48837842780178DDA067
:1019C00006F096FB1CB1E3A006F092FB04E001F0E8
:1019D000D5FCE8A006F08CFBEDA006F089FBF3A097
:1019E00006F086FBFA4806F083FB06B070BDF949A5
:1019F00051F82010C968F84A32F810205140F54AD1
:101A000052F82020D160704700B585B0012148040C
:101A1000FFF7F2F80420ADF8100003208DF8120053
:101A200018208DF8130004A9EC48FEF709FE0820E1
:101A3000ADF8100004208DF8130004A9E748FEF764
:101A4000FFFD4FF4E13000900020ADF80400ADF848
:101A50000600ADF80800ADF80C000C20ADF80A0047
:101A60006946DF48FFF7F7FA0121DD48FFF77FFB02
:101A700005B000BD08B54FF4A060FEF785FC262038
:101A80008DF8000001208DF801008DF802008DF81E
:101A900003006846FEF77DFC012240F22551D04844
:101AA000FFF771FB08BD70B504460D46E1B2CD48A5
:101AB000FFF7CAFB00BF8021CA48FFF733FC0128AB
:101AC000F9D1204670BD10B5044600BF2021C5489D
:101AD000FFF728FC0128F9D1C248FFF7B9FB10BD78
:101AE00000B589B04020ADF8200003208DF8220019
:101AF00018208DF8230008A9B848FEF7A1FD802022
:101B0000ADF8200003208DF8220018208DF8230066
:101B100008A9B248FEF794FD2020ADF8200003206C
:101B20008DF8220018208DF8230008A9AB48FEF795
:101B300087FD1020ADF8200003208DF82200102032
:101B40008DF8230008A9A548FEF77AFD1020ADF80E
:101B5000200003208DF8220010208DF8230008A912
:101B6000A148FEF76DFD2020ADF8200004208DF87F
:101B7000230008A99C48FEF763FD05210220FEF71B
:101B800075FE00208DF81C000C208DF81D00202013
:101B9000069001208DF81E0006A8FEF771FC0020BB
:101BA000ADF804004FF48270ADF806000020ADF8E7
:101BB0000800ADF80A00ADF80C004FF40070ADF865
:101BC0000E000820ADF810000020ADF8120007202C
:101BD000ADF8140001A98548FFF79AF80121834860
:101BE000FFF73BF910217D48FEF7D7FD09B000BD96
:101BF00000B589B04020ADF8200003208DF8220008
:101C000018208DF8230008A97448FEF719FD8020DC
:101C1000ADF8200003208DF8220018208DF8230055
:101C200008A96E48FEF70CFD2020ADF82000032027
:101C30008DF8220018208DF8230008A96748FEF7C8
:101C4000FFFC1020ADF8200003208DF822001020AA
:101C50008DF8230008A96648FEF7F2FC2020ADF8B5
:101C6000200003208DF8220010208DF8230008A901
:101C70005F48FEF7E5FC0820ADF8200004208DF851
:101C8000230008A95A48FEF7DBFC03210120FEF7D8
:101C9000EDFD00208DF81C000C208DF81D000820A3
:101CA000069001208DF81E0006A8FEF7E9FB002033
:101CB000ADF804004FF48270ADF806000020ADF8D6
:101CC0000800ADF80A00ADF80C004FF40070ADF854
:101CD0000E001020ADF810000020ADF81200072013
:101CE000ADF8140001A94148FFF712F801213F485F
:101CF000FFF7B3F810213E48FEF74FFD09B000BDD5
:101D0000AC8500080000002040420F005B4D616977
:101D10006E5D3A53797374656D20636C6F636B20ED
:101D2000667265712069732025644D487A0D0A003A
:101D3000800000205B4D61696E5D3A554944206921
:101D40007320255825582558255825582558255895
:101D500025580A005B4D61696E5D3A4D465243203D
:101D6000353030207265736574206572726F720D44
:101D70000A0000005B4D61696E5D3A4D465243209A
:101D8000353030207265736574206F6B0D0A00006A
:101D90005B4D61696E5D3A7761746368646F67205B
:101DA000656E61626C650D0A000000005B4D616943
:101DB0006E5D3A416C6C2070657269706865726125
:101DC0006C7320696E6974206F6B0D0A000000004F
:101DD000FC850008280000209485000800080140C8
:101DE0000044004000380140001001400030014034
:101DF000000C014000B589B04FF48040ADF82000E0
:101E000003208DF8220018208DF8230008A98348AC
:101E1000FEF716FC4FF40040ADF8200003208DF8CB
:101E2000220018208DF8230008A97C48FEF708FC42
:101E30004FF40050ADF8200003208DF82200182048
:101E40008DF8230008A97548FEF7FAFB1020ADF8BD
:101E5000200003208DF8220010208DF8230008A90F
:101E60006E48FEF7EDFB2020ADF8200003208DF832
:101E7000220010208DF8230008A96848FEF7E0FB37
:101E80000820ADF8200004208DF8230008A963483D
:101E9000FEF7D6FB03210120FEF7E8FC00208DF8B9
:101EA0001C000C208DF81D000820069001208DF8E4
:101EB0001E0006A8FEF7E4FA0020ADF804004FF477
:101EC0008270ADF806000020ADF80800ADF80A00F9
:101ED000ADF80C004FF40070ADF80E001020ADF816
:101EE00010000020ADF812000720ADF8140001A981
:101EF0004B48FEF70DFF01214948FEF7AEFF1021C8
:101F00004648FEF74AFC09B000BD10B50121434820
:101F1000FEF743FC4FF400614248FEF73EFC4FF4ED
:101F200080514148FEF73BFC10BD10B501213B48F4
:101F3000FEF733FC4FF400613A48FEF72EFC4FF4F5
:101F400080513948FEF729FC10BD08B54FF4005008
:101F5000ADF8000003208DF8020010208DF803007A
:101F600069463148FEF76CFB4FF48040ADF8000045
:101F700003208DF8020010208DF8030069462A48DE
:101F8000FEF75EFB0220ADF8000003208DF8020092
:101F900010208DF8030069462348FEF751FB04200A
:101FA000ADF8000003208DF8020010208DF803002A
:101FB00069461D48FEF744FB0820ADF800000320E9
:101FC0008DF8020010208DF8030069461648FEF7D0
:101FD00037FB0120ADF8000003208DF8020010202F
:101FE0008DF8030069460F48FEF72AFB0220ADF882
:101FF000000003208DF8020010208DF803006946D0
:102000000848FEF71DFB4FF400510748FEF7C5FBDB
:102010004FF480410448FEF7C0FB08BD000C0140AE
:1020200000380040000801400010014010B504468F
:10203000002182480155A0F2F31292F8F711C4EB87
:102040000412C2EB0423421D981805F0E2FF0020A1
:102050007B4981F8F70110BD0021794A9171D17156
:1020600011729172D172002005E000227449113181
:102070000A54411CC8B27249097C8142F5DC002136
:102080006F4A117482F8FE1082F8FD1011705170C1
:102090005172002005E0002269490C310A54411CAC
:1020A000C8B20428F7DB002005E000226349F339B9
:1020B0000A54411CC8B2624991F8FF108142F4DC15
:1020C00000215F4A82F8FF10704770B506460C4643
:1020D0000025002C7EDD5A4890F8F10120B15848C7
:1020E00090F8F20100B101255448801E5549097845
:1020F000405CE0B153490978C1EB0112C2EB012207
:102100004E49491D50182246314605F069FF4B489B
:10211000801C4C49097844540121801E494A127898
:1021200081540021801E474A127881542AE0002100
:1021300044480078C0F1010240488154414909787F
:10214000C1F10101C1EB0112C2EB0122411D501886
:102150002246314605F044FF3A480078C0F10101BB
:102160003648801C4454012136480078C0F10102F1
:1021700032488154002133480078C0F101022F48D1
:10218000801E815435B300202D4981F8F70108469F
:1021900090F8F72190F8F701401C0B4683F8F701FF
:1021A00028480078C0EB0013C3EB002301F5FC7056
:1021B0001844815C2448FFF747F82048801C2149D7
:1021C0000978405C401EC1B21C48801C1D4A127830
:1021D000815400E005E0012240F227711A48FEF721
:1021E000D2FF002504E0002018494855681CC5B2FC
:1021F000042DF8DB70BD70B505460E46002400BF07
:1022000004E0295D12A005F073FF641CB442F8D30A
:1022100011A005F06DFF70BD70B505460E46002497
:1022200000BF04E0295D0DA005F062FF641CB4420C
:10223000F8D309A005F05CFF70BD000095070020F1
:10224000A20500206400002000380140600000204A
:1022500025303258200000000D0A00002530325889
:102260000000000010B502460B461078012103E083
:10227000545C60404C1CA1B29942F9DB10BD30B5F2
:1022800002460B464FF6FF70002112E0555C684095
:1022900000240AE000F0010525B148F2084585EA6E
:1022A000600000E04010651CECB2082CF2DB4D1C15
:1022B000E9B29942EADB30BD10B51020B749486158
:1022C000002000F0A1FA00F047FE00F051FE0821C6
:1022D000002000F058FA3F21012000F054FA0321B9
:1022E000022000F050FA0321084600F04CFA0321C6
:1022F000042000F048FA0221052000F044FA0E21E3
:10230000062000F040FA0E21072000F03CFA0021E0
:10231000082000F038FA0021092000F034FA0021EA
:10232000112000F030FA0021122000F02CFA0021D8
:10233000132000F028FA0021142000F024FA0021D4
:10234000152000F020FA0021162000F01CFA0021D0
:102350001C2000F018FA00211D2000F014FA1020B3
:102360008E49086110BD0EB58DA000680090102048
:102370008A494861FFF7A0FF002000F045FA89482C
:10238000C0798DF804008748408900128DF8050057
:102390008448807A8DF806008248008900128DF802
:1023A00007008048007A8DF8080000F0D5FD00F0A5
:1023B000DFFD002000F082FD012000F06AFD012019
:1023C00000F052FD012000F044FD7649487800F00D
:1023D000CBFC7449087800F0B6FC7249087900F02B
:1023E000A8FC7049C87800F009FC6E49487901A939
:1023F00000F059FB01A9062000F055FB6949487916
:10240000012100F0A7FA6749887800F017FA654AB9
:102410009189907900F0D9FB01226946502000F0A3
:1024200029FB00F071FA012000F0D4F9012000F03E
:10243000EBF9FFF753F8102058490861FFF74EF801
:1024400059A005F055FE57480078C01E00EB40002B
:1024500041005CA005F04CFE5248017961A005F0F6
:1024600047FE50484078022803D164A005F040FEA2
:1024700005E04C484078411C68A005F039FE494809
:1024800003894289C1796CA005F032FE4548817804
:1024900072A005F02DFE4348818977A005F028FE43
:1024A000404881797DA005F023FE0EBD70B5002463
:1024B000002503203B4908700020487002208870E6
:1024C0000520C8701E200871002048710320887103
:1024D000AA20C8714FF43B404881012008814FF485
:1024E000FA708881FFF7FCFA3F21022000F04BF9D7
:1024F000FEF7F4FF022000F05BF93F2800D1012431
:102500000CB1FFF730FF6D4805F0F2FD1CB115B9B5
:102510006BA005F0EDFD1CB915B172A005F0E8FD4A
:102520001CB115B178A005F0E3FD1CB915B97EA06A
:1025300005F0DEFD864805F0DBFD70BD70B5044694
:102540000D4600F009FD00F013FD2A462146A820A3
:1025500000F090FA70BD70B504460D4600262A467C
:102560002146B02000F086FA10200C490861FEF7E1
:10257000B5FF10200949486101E0FEF7AFFF00F008
:10258000D5F900F0200020B93046711CCEB20328E6
:10259000F3DD7021072000F0F6F870BD0010014057
:1025A00073000000940500205B526164696F5D3A1E
:1025B0006E726620706172616D657465723A0D0AA3
:1025C000000000005B526164696F5D3A6F75747062
:1025D000757420706F776572090925642064420D57
:1025E0000A0000005B526164696F5D3A6368616E66
:1025F0006E656C09090925640D0A00005B5261646F
:10260000696F5D3A6461746172617465090932359C
:1026100030204B6270730D0A000000005B52616451
:10262000696F5D3A6461746172617465090925645A
:10263000204D6270730D0A005B526164696F5D3AF0
:102640006164647265737309090925303258253055
:102650003458253034580D0A000000005B52616484
:10266000696F5D3A637263206C656E67746809090F
:1026700025640D0A000000005B526164696F5D3AD9
:1026800072657472616E736D69742064656C6179D2
:102690000925642075730D0A000000005B52616417
:1026A000696F5D3A6D61782074785F617474656DEF
:1026B000707473090925640D0A000000AC850008D8
:1026C0005B526164696F5D3A6E726631206F6B2098
:1026D000616E64206E726632206E6F74206F6B0DB7
:1026E0000A0000005B526164696F5D3A6E72663188
:1026F000206E6F74206F6B20616E64206E72663284
:10270000206F6B0D0A0000005B526164696F5D3AD7
:102710006E726631206F6B20616E64206E7266325D
:10272000206F6B0D0A0000005B526164696F5D3AB7
:102730006E726631206E6F74206F6B20616E642044
:102740006E726632206E6F74206F6B0D0A0000008F
:10275000FC85000810B5044600BF0221F748FEF7CB
:1027600000FC0028F9D02146F448FEF7A7FB00BF83
:102770000121F248FEF7F5FB0028F9D0EF48FEF7FB
:102780009FFBC0B210BD70B504460D461020EC4949
:10279000086004F12001C8B2FFF7DCFF06462846B6
:1027A000FFF7D8FF1020E649091F0860304670BDCA
:1027B00070B504461020E24908602046FFF7CAFFC2
:1027C0000020FFF7C7FF05461020DD49091F0860FC
:1027D000284670BD38B504460020FFF7E9FF009099
:1027E000012C06D19DF8000020F00100401C009053
:1027F00004E09DF8000020F0010000909DF800101A
:102800000020FFF7C0FF38BD38B504460020FFF7B1
:10281000CFFF0090012C06D19DF8000020F00200AF
:10282000801C009004E09DF8000020F00200009061
:102830009DF800100020FFF7A6FF38BD38B504460C
:102840000020FFF7B5FF009024B1012C08D0022C26
:102850001FD111E09DF8000020F00800009019E061
:102860009DF8000020F00800083000909DF800005E
:1028700020F0040000900DE09DF8000020F008001A
:10288000083000909DF8000020F00400001D00902A
:1028900000E000BF00BF9DF800100020FFF773FFAD
:1028A00038BD38B505460C460020FFF781FF009083
:1028B000042D04D0052D0CD0062D1ED113E00CB92B
:1028C000012000E000209DF8001060F30411009149
:1028D00013E00CB9012000E000209DF8001060F327
:1028E0004511009109E00CB9012000E000209DF89D
:1028F000001060F38611009100BF00BF9DF800102A
:102900000020FFF740FF38BD10B570210720FFF70A
:102910003AFF044604F0700010BD10B504460120D3
:10292000A040C1B20720FFF72EFF10BD10B5102048
:1029300083490860FF20FFF70DFF044610208049FF
:10294000091F0860204610BD10B5FFF7EFFF00F02B
:10295000700010BD7CB504460D460220FFF728FF2D
:1029600001900120FFF724FF0090032C10D005DC1C
:102970005CB1012C0AD0022C2BD108E0042C08D029
:10298000052C07D0FF2C24D11BE000BF00BF00BFE7
:1029900000BF00BF9DF804000121A140C9B2084357
:1029A00001903DB19DF800000121A140C9B208434A
:1029B000009005E09DF800000121A14088430090AF
:1029C00008E03F2001900DB1009001E00020009050
:1029D00000E000BF00BF9DF804100220FFF7D3FE07
:1029E0009DF800100120FFF7CEFE7CBD1CB504460B
:1029F0000220FFF7DDFE01900120FFF7D9FE0090D5
:102A0000032C10D005DC5CB1012C0AD0022C1DD1A6
:102A100008E0042C08D0052C07D0FF2C16D111E0BB
:102A200000BF00BF00BF00BF00BF9DF80400012130
:102A3000A140884301909DF800000121A1408843F6
:102A4000009004E000200190009000E000BF00BF73
:102A50009DF804100220FFF796FE9DF8001001205B
:102A6000FFF791FE1CBD10B50320FFF7A1FE801CEF
:102A7000C0B210BD70B506460C4615461020304950
:102A800008603046FFF766FE03E014F8010BFFF71D
:102A900061FE281EA5F10101CDB2F6D11020284912
:102AA000091F086070BD70B504460D46072C1CD286
:102AB000DFE804F0050611121314040000BF00BF84
:102AC000FFF7D1FF064604F12A01C8B23246294673
:102AD000FFF7D0FF0AE000BF00BF00BF297804F174
:102AE0000A02D0B2FFF74FFE00E000BF00BF70BD8A
:102AF00010B56020FFF75CFE10BD10B5FFF716FFA4
:102B0000C0F3420010BD2DE9F04106460F4636B134
:102B1000012E05D0062E04D0082E26D112E000BFCB
:102B200000BFFFF7A0FF04460546102004490860D7
:102B300006F10A01C8B2FFF70DFE19E000300140AE
:102B400014080140FFF7D9FF064607280ADAFFF705
:102B5000CFFF044605461020FB4908606120FFF7BF
:102B6000F9FD01E00024254602E00024254600BFCF
:102B700000BF04E00020FFF7EDFD07F8010B201E69
:102B8000A4F10101CCB2F5D11020EF49091F086072
:102B900045EA0620BDE8F08170B504460D4624B133
:102BA000012C03D0062C08D101E000BF00BF29464C
:102BB0002046FFF7A8FFC0B270BD04F10A01C8B2F9
:102BC000FFF7F6FD28700120F6E738B504460D46FC
:102BD00000200090FA2095FBF0F0401E9DF80010B8
:102BE00060F3071100919DF8000064F3030000906A
:102BF0009DF800100420FFF7C6FD38BD38B5044627
:102C0000A01EC0B200909DF800100320FFF7BBFD8E
:102C100038BD70B504460D4604F11101C8B229460D
:102C2000FFF7B1FD70BD7CB506460220FFF7C0FD81
:102C300001900120FFF7BCFD0090062E3AD2DFE89C
:102C400006F0030C151E27309DF8040000F0010467
:102C50009DF8000000F001052FE09DF80400C0F38E
:102C600040049DF80000C0F3400526E09DF80400F4
:102C7000C0F380049DF80000C0F380051DE09DF8BE
:102C80000400C0F3C0049DF80000C0F3C00514E0C8
:102C90009DF80400C0F300149DF80000C0F3001577
:102CA0000BE09DF80400C0F340149DF80000C0F351
:102CB000401502E00024002500BF00BF04EB4500E2
:102CC000C0B27CBD10B50820FFF772FD10BD10B575
:102CD0000820FFF76DFD000910BD70B50546062DF3
:102CE00022D2DFE805F003080D12171C1120FFF7B0
:102CF0005FFD04461AE01220FFF75AFD044615E076
:102D00001320FFF755FD044610E01420FFF750FD97
:102D100004460BE01520FFF74BFD044606E01620A5
:102D2000FFF746FD044601E0002400BF00BF204637
:102D300070BD38B50446E0B200909DF80010052043
:102D4000FFF721FD38BD38B504460620FFF730FDFA
:102D500000909DF8000064F3420000909DF8001080
:102D60000620FFF710FD38BD38B504460620FFF7F2
:102D70001FFD00907CB1012C19D0022C16D19DF8BA
:102D8000000020F02000203000909DF8000020F08E
:102D90000800009017E09DF8000020F0200000904F
:102DA0009DF8000020F0080000900CE000BF9DF8A6
:102DB000000020F0200000909DF8000020F00800A6
:102DC0000830009000BF00BF9DF800100620FFF7FC
:102DD000DAFC38BD10B5FFF790FE072801D10120BD
:102DE00010BD0020FCE710B51720FFF7E1FCC0F391
:102DF000400010BD10B51720FFF7DAFCC0F300103B
:102E000010BD10B51720FFF7D3FCC0F3401010BD64
:102E100010B51720FFF7CCFCC0F3011010BD10B5A2
:102E20001720FFF7C5FC00F0030010BD10B51720F8
:102E3000FFF7BEFC10BD10B50820FFF7B9FC00F08D
:102E40000F0010BD10B50920FFF7B2FC00F0010023
:102E500010BD38B5044624F0C00000909DF8001065
:102E60001C20FFF790FC38BD38B504461D20FFF745
:102E70009FFC00900CB1012000E000209DF80010A4
:102E800060F3820100919DF800101D20FFF77BFC8C
:102E900038BD38B504461D20FFF78AFC00900CB100
:102EA000012000E000209DF8001060F34101009136
:102EB0009DF800101D20FFF766FC38BD38B50446AC
:102EC0001D20FFF775FC00900CB1012000E00020F0
:102ED0009DF8001060F3000100919DF800101D2086
:102EE000FFF751FC38BD70B504460D462A46214611
:102EF000A020FFF7BFFD70BD70B504460D462A4601
:102F00002146B020FFF7B6FD70BD70B504460D46F2
:102F1000164644F0A80032462946FFF7ABFD70BDC7
:102F200010B5044621460820FFF7EDFD10BD10B591
:102F3000102005490860E320FFF70CFC102002492F
:102F4000091F086010BD00001408014010B5FFF70C
:102F50006DFFC0F3801010BD10B510200A49086045
:102F6000E220FFF7F7FB10200749091F086010BD9A
:102F700010B5102004490860E120FFF7EBFB10209A
:102F80000149091F086010BD1408014008B54FF43D
:102F90007F40ADF8000003208DF8020004208DF87A
:102FA00003006946F848FDF74BFB08BD08B54FF430
:102FB0007F40ADF8000003208DF8020010208DF84E
:102FC00003006946F048FDF73BFB08BD70B50446B9
:102FD00000224FF48071ED48FDF7E3FB012251021E
:102FE000EA48FDF7DEFB0122D103E948FDF7D9FBF2
:102FF00001221102E648FDF7D4FBE348FDF7C9FBC7
:10300000C6B246EA0421E048FDF7D0FB01221102D6
:10301000DE48FDF7C6FB0320FEF752FA00224FF40C
:103020008071DA48FDF7BDFBFFF7B0FF00224FF4D7
:103030000071D648FDF7B5FB00224FF40041D4489B
:10304000FDF7AFFBFEF734FACF48FDF795FB05120D
:10305000FEF72EFA0122D103CD48FDF7A2FB012293
:103060005102CA48FDF79DFBFFF7A0FF284670BD3F
:1030700070B504460D4601221102C448FDF791FBCC
:10308000C148FDF786FBC6B246EA042081B2BE48BD
:10309000FDF78CFB0220FEF713FA00224FF480713B
:1030A000BA48FDF77EFB0220FEF70AFA00224FF431
:1030B0000071B648FDF775FBB348FDF76AFBC6B271
:1030C00046EA052081B2B048FDF770FB00224FF4BC
:1030D0008071AF48FDF765FB0220FEF7F1F9012290
:1030E0001102AB48FDF75DFB01225102A748FDF735
:1030F00058FB70BD70B505460C4600262846FFF704
:1031000065FF064646EA04012846FFF7B1FF70BD99
:1031100070B505460C4600262846FFF757FF0646C1
:1031200026EA04012846FFF7A3FF70BD10B5044648
:10313000012C06D0022C0DD0032C14D0042C24D149
:103140001AE007212A20FFF793FF6A212C20FFF7BE
:103150008FFF23E007212A20FFF78AFFA0212C20E0
:10316000FFF786FF1AE009212A20FFF781FFA0213F
:103170002C20FFF77DFF11E009212A20FFF778FFBF
:10318000FF212C20FFF774FF08E007212A20FFF71A
:103190006FFF21462C20FFF76BFF00BF00BF062109
:1031A0002B20FFF765FF10BD2DE9FC5F80468A46A6
:1031B00045460020019000270090287812282FD043
:1031C0000DDC072826D005DCB0B1012818D0032873
:1031D00042D119E00B281ED00C283DD11CE0192843
:1031E0002CD004DC14281FD0162835D120E01A2852
:1031F00028D01E2830D129E00027002000902EE0A2
:103200001127102000902AE00727042000900120B9
:10321000019024E000BF00BF0527042000901EE0BD
:103220001127102000901AE004270420009016E0D7
:103230000627042000900120019010E005270420BB
:1032400000900CE005270420009008E03D270420B2
:1032500000900120019002E01720287000BF00BFFD
:103260002878172874D000210846FFF701FF7F2136
:103270000620FFF7FDFE7F210720FFF7F9FE002162
:103280000120FFF7F5FE01210920FFF733FF47F08A
:1032900080010620FFF7ECFE002605E0A81C815DFA
:1032A0000220FFF7E5FE761C6878B042F6D8297850
:1032B0000120FFF7DDFE4FF4005600BF0720FFF7A7
:1032C00085FE0446761E46B104EA070000F02000A1
:1032D00018B9009820400028F0D04FF07D0BB6B30D
:1032E00004EA070000F0200088BB0A20FFF76EFE0A
:1032F00000F0170050BB4FF0000B019830B30420D2
:10330000FFF764FE04460520FFF760FE00F00709A2
:10331000B9F1000F04D0601E09EBC000687002E034
:10332000E006000E687004B90124002605E00220C2
:10333000FFF74CFEA91C8855761CA642F7D3F8224D
:103340002946404604F04CFE8AF800400BE000E0BD
:1033500011E004EA070000F0200010B14FF0010B6B
:1033600001E04FF07D0B7F210620FFF781FE7F21DA
:103370000720FFF77DFE5846BDE8FC9F10B50321EE
:103380001120FFF7C5FE10BD000C014000100140E8
:103390000008014010B503211120FFF7ABFE10BD5E
:1033A00070B500244FF4005500224021FE48FDF77F
:1033B000F8F940F6C410FEF783F801224021FA48DC
:1033C000FDF7EFF94FF47A70FEF77AF8002240210A
:1033D000F548FDF7E6F94FF49670FEF771F800BF77
:1033E0000120FFF7F3FD00F03F0020B1281EA5F1FA
:1033F00001018DB2F4D105B901246CB980210020FE
:10340000FFF736FE0120FFF7E1FD08B1012403E0DC
:1034100000210846FFF72CFE84BB00211F20FFF788
:1034200027FE40211F20FFF723FE0A20FEF748F861
:1034300040211F20FFF76CFEAD211B20FFF718FE77
:10344000FF211C20FFF714FE41211E20FFF710FE74
:103450001A212920FFF70CFE02212B20FFF708FE7E
:1034600002212D20FFF704FE5B211120FFF700FE53
:103470003F211220FFF7FCFDFFF780FF204670BDC3
:103480002DE9FC4105460C46002001906F466A205C
:10349000FFF74CFE03212220FFF7EAFD0821092057
:1034A000FFF736FE07210F20FFF7E2FD1E208DF803
:1034B000000001208DF801008DF802502220FFF756
:1034C00085FD06460F20FFF781FD064601A9384617
:1034D000FFF76AFE064656B99DF80100102806D18E
:1034E0009DF8020020709DF80300607000E00B263C
:1034F0003046BDE8FC812DE9FE4305460E4600201E
:10350000029000278046E9466A20FFF70FFE282137
:103510001A20FFF7ADFD08210920FFF7F9FD03216F
:103520002220FFF7A5FD1E208DF8000002208DF857
:103530000100932D03D193208DF8020004E0952D16
:1035400002D195208DF8020020218DF8031002A9E8
:103550004846FFF729FE8046B8F1000F1BD1002432
:1035600005E00DF10200005D4740601CC4B2042C70
:10357000F7DB0DF10200005DB84202D04FF0080801
:1035800009E0002405E00DF10200005D3055601CEB
:10359000C4B2042CF7DB20211A20FFF7B9FD404606
:1035A000BDE8FE832DE9FF4105460020039000277A
:1035B000E8466A20FFF7BAFD0F212220FFF758FDE9
:1035C00008210920FFF7A4FD1E208DF80000072028
:1035D0008DF8010093208DF8020070218DF8031002
:1035E000002408E0285D47402A5D0DF10200A11C7F
:1035F0004254601CC4B2042CF4DB8DF8087003A99B
:103600004046FFF7D1FD064626B99DF8010008287F
:1036100000D00B26304604B0BDE8F0812DE9FE4F06
:103620000546884616464FF00009EA466A20FFF72D
:103630007DFD0F212220FFF71BFD08210920FFF748
:1036400067FD1E208DF8000007208DF801009320F3
:103650008DF8020070218DF80310002409E0285D28
:1036600080EA09092A5D0DF10200A11C4254601C88
:10367000C4B2042CF3DB8DF8089031465046FFF7B6
:1036800093FD074657B932780AF10201404604F02B
:10369000A7FC9DF80100082800D00B273846BDE89C
:1036A000FE8F2DE9FE4F0546884616464FF000096D
:1036B000EA466A20FFF73AFD0F212220FFF7D8FCE7
:1036C00008210920FFF724FD1E208DF800000720A7
:1036D0008DF8010095208DF8020070218DF80310FF
:1036E000002409E0285D80EA09092A5D0DF1020045
:1036F000A11C4254601CC4B2042CF3DB8DF808906A
:1037000031465046FFF750FD074657B932780AF167
:103710000201404604F064FC9DF80100082800D036
:103720000B273846BDE8FE8F7CB5002400200190B1
:103730006D466A20FFF7FAFC1E208DF8000002207B
:103740008DF8010050208DF8020000218DF8031043
:1037500001A92846FFF728FD044624B1012C01D019
:103760001B2C00D1002400210120FFF781FC204602
:103770007CBD70B502460B4600210025002400BF29
:1037800015E0505C00F00F05505C0411E84345EA79
:103790000010012606EB41069855E04344EA00106C
:1037A00003F81100481C01E000100140C1B20629D5
:1037B000E7DB002070BDF0B585B005460020049021
:1037C0006E466A20FFF7B2FC19208DF800000C202D
:1037D0008DF80100002405E0295D0DF1020001557E
:1037E000601CC4B20C2CF7DB04A93046FFF7DCFCEC
:1037F0000746384605B0F0BD2DE9FE4305460E46A6
:1038000017464FF0000800200290E94607212220C9
:10381000FFF72EFCB8F1000F3DD16A20FFF786FCC0
:103820000C208DF8000006208DF801008DF8025064
:103830008DF80360002406E03A5D0DF10200A11C42
:103840004254601CC4B2042CF6DB02A94846FFF7C0
:10385000ABFCB0F100081ED10520FFF7B7FB00F06C
:10386000070010B14FF00B0815E014208DF8000090
:1038700000208DF8010002A94846FFF795FCB0F141
:10388000000808D10920FFF7A1FB00F0080000B1F3
:1038900001E04FF004084046BDE8FE832DE9F04109
:1038A00086B005460E4600200590E8460420FFF746
:1038B0003DFC0F212220FFF7DBFB1E208DF80000CE
:1038C00002208DF8010030208DF802008DF80350A1
:1038D00005A94046FFF768FC07467FB99DF801003F
:1038E000802801D00B2709E0002405E00DF102003B
:1038F000005D3055601CC4B2102CF7DB384606B0B2
:10390000BDE8F0812DE9F04186B006460F46002063
:103910000590E8460420FFF709FC07212220FFF765
:10392000A7FB1E208DF8000002208DF80100A020CA
:103930008DF802008DF8036005A94046FFF734FCBE
:103940000546012D18D09DF80100042801D00B2553
:1039500012E09DF8020000F00F008DF802009DF8C3
:10396000020010B10A2804D101E00A2503E0002575
:1039700001E0062500BF00BF65BB0320FFF7D6FBB3
:103980001E208DF8000010208DF80100002405E0B5
:10399000395D0DF102000155601CC4B2102CF7DB3B
:1039A00005A94046FFF700FC0546012D12D09DF801
:1039B000020000F00F008DF802009DF8020010B127
:1039C0000A2804D101E00F2503E0002501E00625C7
:1039D00000BF00BF284606B0BDE8F0812DE9FE43D8
:1039E00007460E46904600200290E9466A20FFF7FF
:1039F0009DFB1E208DF8000002208DF801008DF83F
:103A000002708DF8036002A94846FFF7CDFB04461B
:103A1000012C1CD09DF80100042801D00B2416E0D5
:103A20009DF8020000F00F008DF802009DF80200E2
:103A300020B1012806D00A2806D101E00A2405E0B9
:103A4000002403E07C2401E0062400BF00BF0CBB7F
:103A50000420FFF76BFB1E208DF8000004208DF87A
:103A60000100E946002506E018F805100DF10200F6
:103A70004155681CC5B2042DF6DB02A94846FFF784
:103A800093FB04460CB1012C07D19DF801000428DA
:103A900001D00B2402E0002400E07D2474BB1E2032
:103AA0008DF8000002208DF80100B0208DF8020092
:103AB0008DF8036002A94846FFF776FB0446012C07
:103AC0001CD09DF80100042801D00B2416E09DF8BD
:103AD000020000F00F008DF802009DF8020020B1F6
:103AE000012806D00A2806D101E00A2405E00024B6
:103AF00003E07C2401E0062400BF00BF2046BDE8AF
:103B0000FE83FEB50546002002906E460420FFF7B6
:103B10000DFB1E208DF8000002208DF80100C22050
:103B20008DF802008DF8035002A93046FFF73CFBE8
:103B30000446012C1CD09DF80100042801D00B2460
:103B400016E09DF8020000F00F008DF802009DF8CD
:103B5000020020B1012806D00A2806D101E00A247B
:103B600005E0002403E07C2401E0062400BF00BF40
:103B7000D4B90420FFF7DAFA1E208DF800000420E3
:103B80008DF8010000208DF8020000218DF803104F
:103B90008DF804108DF8051002A93046FFF704FBDC
:103BA0000446012C00D100242046FEBD7CB504460D
:103BB000002001906E460420FFF7B8FA1E208DF811
:103BC000000002208DF80100B0208DF802008DF871
:103BD000034001A93046FFF7E7FA0546012D1CD046
:103BE0009DF80100042801D00B2516E09DF8020085
:103BF00000F00F008DF802009DF8020020B10128AE
:103C000006D00A2806D101E00A2505E0002503E0D8
:103C10007C2501E0062500BF00BF28467CBD2DE9BC
:103C2000FF410546002003900026E84628211A207F
:103C3000FFF71EFA08210920FFF76AFA0321222064
:103C4000FFF716FA0420FFF771FA1E208DF8000026
:103C500002208DF8010093208DF8020020218DF8BC
:103C6000031003A94046FFF79FFA0746D7B900247F
:103C700009E00DF10200005D28550DF10200005D24
:103C80004640601CC4B2042CF3DB0DF10200005D61
:103C9000B04201D07D2705E0BDF8031029809DF8D2
:103CA0000500A87020211A20FFF732FA88260F217C
:103CB0002220FFF7DDF908210920FFF729FA042067
:103CC000FFF734FA1E208DF8000007208DF8010060
:103CD00093208DF8020070218DF8031088218DF853
:103CE0000410002408E0285D46402A5D0DF1020022
:103CF000E11C4254601CC4B2032CF4DB8DF8086054
:103D000003A94046FFF750FA074627B99DF801007E
:103D1000082800D07D27002F6ED1002628211A20E8
:103D2000FFF7A6F908210920FFF7F2F90321222065
:103D3000FFF79EF90420FFF7F9F91E208DF8000027
:103D400002208DF8010095208DF8020020218DF8C9
:103D5000031003A94046FFF727FA0746A7B9002436
:103D600005E00DF10200005D4640601CC4B2042C69
:103D7000F7DB0DF10200005DB04201D07D2703E0CA
:103D8000DDF80200C5F8030020211A20FFF7C0F972
:103D900000260F212220FFF76BF908210920FFF7E9
:103DA000B7F90420FFF7C2F91E208DF800000720A4
:103DB0008DF8010095208DF8020070218DF8031018
:103DC00000240AE0E81C005D4640E81C025D0DF19D
:103DD0000200A11C4254601CC4B2042CF2DB8DF81A
:103DE000086003A94046FFF7DFF9074627B99DF8A9
:103DF0000100082800D07D27384604B0BDE8F081D6
:103E0000FEB504460D46002002906F460420FFF7E1
:103E10008DF907212220FFF72BF91E208DF80000D5
:103E200003208DF80100A2208DF802008DF80340D8
:103E30002968019102A93846FFF7B6F906464EB93E
:103E40009DF80100042805D19DF8020000F00F0044
:103E50000A2800D07D260420FFF768F93046FEBD11
:103E60002DE9FC4105460C46164600200190E84627
:103E70000F20FFF75BF91E208DF8000002208DF85F
:103E80000100E0208DF802008DF803500020F84971
:103E9000087001A94046FFF787F907469DF8010021
:103EA000C11700EB5171C9102170012906DC22787D
:103EB0000DF10201304604F093F800E07D2738460A
:103EC000BDE8FC812DE9FF4F89B081468B4600207B
:103ED000049002A8019000200790824600270690D7
:103EE000DDF82C80A22008900B20FFF71FF909F0C5
:103EF000F00008B1012400E00024C4F102004045B4
:103F00000CDAC4F10200C0B20790A8EB070000F081
:103F1000FF08D748007880F0120604E04746D448EE
:103F2000007880F00206D248007880F00100D04985
:103F300008701E208DF808003819401CC0B28DF89A
:103F4000090046EAC400C0B28DF80A001CB109F0AD
:103F50000F018DF80B10002506E000220DF10A007C
:103F6000691C4254681CC5B2A542F6DB0DF10A017A
:103F7000621C88183A46594604F032F806983844CC
:103F8000C0B2069004A90198FFF70EF90590D3E09E
:103F90009DF80900C11700EB5171C910491E091B9A
:103FA000032902DD7D200590CAE09DF80A0000F09B
:103FB000F000D8B99DF80900C11700EB5171C91084
:103FC000491E091BC9B207910DF10A02631CD118E1
:103FD0000C9A02EB0A00079A04F002F80798504482
:103FE00000F0FF0A169880F800A0A9E09DF80A00EA
:103FF00000F0F000A02852D1002506E000220DF1CB
:104000000A00691C4254681CC5B2A542F6DB86F062
:104010000106C4F10200404512DAC4F10200C7B241
:10402000A8EB070000F0FF089148007880F010002E
:1040300006438F48007880F001008D4908700BE03E
:10404000474606F0EF068A4800780643884800781D
:1040500080F00100864908701E208DF8080038198C
:10406000401CC0B28DF80900022040EAC90030436C
:10407000C0B28DF80A00069A0BEB02010DF10A029C
:10408000631CD0183A4603F0ABFF06983844C0B220
:10409000069004A90198FFF787F805904CE09DF879
:1040A0000A0000F0F000102843D19DF80900C11764
:1040B00000EB5171C910491E091BC9B207910DF1DE
:1040C0000A02631CD1180BEB0A00079A03F088FF61
:1040D0000798504400F0FF0A9DF80A0000F0010024
:1040E00020B1089800F0FE00089003E0089840F026
:1040F000010008901E208DF80800601CC0B28DF8E9
:104100000900FB2000EAC900089908438DF80A005D
:10411000002506E000220DF10A00691C4254681CCB
:10412000C5B2A542F6DB04A90198FFF73DF805905A
:1041300002E07D20059003E0059800283FF428AFB9
:1041400000BF05980DB0BDE8F08F7CB50446002097
:1041500001906E460420FEF7E9FF1E208DF8000056
:1041600002208DF80100CA208DF802008DF803406E
:1041700001A93046FFF718F8054628467CBD2DE911
:10418000F04387B005460E461746002006900DF115
:10419000040903208DF804008DF80500E8B28DF8BD
:1041A0000600290A8DF807108DF8086006A9484610
:1041B000FEF7FAFF8046B8F1000F09D1002405E0B0
:1041C0000DF10600005D3855601CC4B2B442F7DB47
:1041D000404607B0BDE8F0832DE9F04387B00546BF
:1041E0000E46174600200690E94601208DF8000093
:1041F000B01CC0B28DF80100E8B28DF80200290AA7
:104200008DF80310002406E03A5D0DF10200A11CB8
:104210004254601CC4B2B442F6DB06A94846FEF71D
:10422000C3FF8046404607B0BDE8F0837CB5044636
:10423000002001906E4607208DF8000002208DF8C6
:104240000100E0B28DF80200210A8DF8031001A9E7
:104250003046FEF7A9FF054628467CBD70B58CB0F8
:10426000202204A104A803F0BBFE6D46002416E042
:10427000B900002000583F3F19130000007308AD3B
:10428000FF0041000006036363000000000807060A
:104290000A02000004A8005D2855601CC4B2102C5E
:1042A000F8DB2A4610210846FFF796FF064656B966
:1042B000002406E004A904F11000085C2855601CE5
:1042C000C4B2102CF6DB2A4610212020FFF784FF11
:1042D000064630460CB070BD7CB504460020019007
:1042E0006E460B208DF8000002208DF80100E0B230
:1042F0008DF80200210A8DF8031001A93046FEF75F
:1043000053FF054628467CBDF0B585B007460C46F0
:104310006E466A20FEF70AFF03212220FEF7A8FE60
:1043200008210920FEF7F4FE1E208DF8000004206D
:104330008DF80100E0208DF8020040218DF8031077
:104340000221B01C00F081FBC1B28DF804100221E3
:10435000B01C00F07AFB010A8DF8051021463046AA
:10436000FEF722FF05463DB92278B11C384603F01E
:1043700037FE002005B0F0BD2846FBE7F0B585B05C
:1043800007460C466E466A20FEF7D0FE0321222027
:10439000FEF76EFE08210920FEF7BAFE1E208DF8FA
:1043A000000005208DF80100D0208DF802001121B9
:1043B0008DF8031000218DF804100321B01C00F0CB
:1043C00044FBC1B28DF805100321B01C00F03DFB89
:1043D000010A8DF8061021463046FEF7E5FE054637
:1043E0003DB92278B11C384603F0FAFD002005B033
:1043F000F0BD2846FBE7F0B589B007460C46002023
:1044000008906E466A20FEF791FE07212220FEF7F3
:104410002FFE08210920FEF77BFE00F0EDFA08A828
:1044200000F0B0FB1E208DF800009DF820008DF8F4
:1044300001009DF82020FE49B01C03F0D1FD21466B
:104440003046FEF7B1FE05463DB92278B11C38462C
:1044500003F0C6FD002009B0F0BD2846FBE7F0B52B
:1044600089B007460C46002008906E466A20FEF789
:104470005DFE07212220FEF7FBFD08210920FEF743
:1044800047FE00F0B9FA08A800F0BEFB1E208DF828
:1044900000009DF820008DF801009DF82020E449DF
:1044A000B01C03F09DFD21463046FEF77DFE05461B
:1044B0003DB92278B11C384603F092FD002009B0C6
:1044C000F0BD2846FBE7F0B589B007460C46002052
:1044D00008906E466A20FEF729FE07212220FEF78B
:1044E000C7FD08210920FEF713FE00F085FA08AA8F
:1044F0000221002000F01AFC1E208DF800009DF81B
:1045000020008DF801009DF82020C949B01C03F05F
:1045100067FD21463046FEF747FE05463DB9227845
:10452000B11C384603F05CFD002009B0F0BD284600
:10453000FBE72DE9F04389B08046894615461C46C5
:10454000002008906F466A20FEF7F0FD0721222028
:10455000FEF78EFD08210920FEF7DAFD00F04CFA87
:1045600008AA4946404600F0E1FB1E208DF80000F5
:104570009DF820008DF801009DF82020AC49B81C62
:1045800003F02EFD21463846FEF70EFE064646B9DC
:104590002278B91C284603F023FD002009B0BDE8AD
:1045A000F0833046FAE7F0B589B007460C460020A4
:1045B00008906E466A20FEF7B9FD07212220FEF71B
:1045C00057FD08210920FEF7A3FD00F015FA08A900
:1045D000012000F07BFB1E208DF800009DF82000DC
:1045E0008DF801009DF820209149B01C03F0F8FCE3
:1045F00021463046FEF7D8FD05463DB92278B11C6C
:10460000384603F0EDFC002009B0F0BD2846FBE77A
:10461000F0B589B007460C46002008906E466A2027
:10462000FEF784FD07212220FEF722FD0821092044
:10463000FEF76EFD00F0E0F908AA0221002000F06C
:1046400075FB1E208DF800009DF820008DF80100FC
:104650009DF820207649B01C03F0C2FC214630466C
:10466000FEF7A2FD05463DB92278B11C384603F09D
:10467000B7FC002009B0F0BD2846FBE72DE9F04368
:10468000BFB08046894615461C4600203E906F46C6
:104690006A20FEF74BFD07212220FEF7E9FC0821E6
:1046A0000920FEF735FD00F0A7F93EAA494640462D
:1046B00000F03CFB1E208DF800009DF8F8008DF8FE
:1046C00001009DF8F8205A49B81C03F089FC2146E6
:1046D0003846FEF769FD064646B92278B91C2846D9
:1046E00003F07EFC00203FB0BDE8F0833046FAE7DF
:1046F0002DE9F047C0B08046894692461E46489C48
:1047000000203F9001AD0420FEF710FD072122207C
:10471000FEF7AEFC08210920FEF7FAFC00F06CF968
:104720003FAB52464946404600F028FB1E208DF81C
:1047300004009DF8FC008DF805009DF8FC203C4924
:10474000A81C03F04DFC21462846FEF72DFD074628
:1047500047B92278A91C304603F042FC002040B043
:10476000BDE8F0872278A91C304603F039FC3846B2
:10477000F5E7F0B589B007460C46002008906E4674
:104780006A20FEF7D3FC07212220FEF771FC0821E6
:104790000920FEF7BDFC00F02FF908A800F065FA2B
:1047A0001E208DF800009DF820008DF801009DF876
:1047B00020201F49B01C03F013FC21463046FEF7B1
:1047C000F3FC05463DB92278B11C384603F008FCDD
:1047D000002009B0F0BD2846FBE7F0B589B00746D8
:1047E0000C46002008906E466A20FEF79FFC0721C9
:1047F0002220FEF73DFC08210920FEF789FC00F08D
:10480000FBF808AA0221002000F090FA1E208DF883
:1048100000009DF820008DF801009DF8202004493B
:10482000B01C03F0DDFB21463046FEF7BDFC01E085
:104830003613002005463DB92278B11C384603F0F6
:10484000CFFB002009B0F0BD2846FBE72DE9F0437F
:1048500089B08046894615461C46002008906F4660
:104860006A20FEF763FC07212220FEF701FC0821E5
:104870000920FEF74DFC00F0BFF808AA4946404663
:1048800000F054FA1E208DF800009DF820008DF8ED
:1048900001009DF820205749B81C03F0A1FB2146D8
:1048A0003846FEF781FC064646B92278B91C2846F0
:1048B00003F096FB002009B0BDE8F0833046FAE72C
:1048C000F0B589B007460C46002008906E466A2075
:1048D000FEF72CFC07212220FEF7CAFB0821092045
:1048E000FEF716FC00F088F808A800F08BFA1E20EE
:1048F0008DF800009DF820008DF801009DF8202023
:104900003C49B01C03F06CFB21463046FEF74CFCE2
:1049100005463DB92278B11C384603F061FB002002
:1049200009B0F0BD2846FBE7F0B585B007460C4658
:104930006E466A20FEF7FAFB03212220FEF798FB61
:1049400008210920FEF7E4FB1E208DF8000003205B
:104950008DF80100C2208DF80200E0218DF80310CF
:10496000B4218DF8041021463046FEF71DFC0546A3
:104970003DB92278B11C384603F032FB002005B067
:10498000F0BD2846FBE72DE9F0418AB080460D4690
:1049900014460020099001AF0420FEF7C7FB032155
:1049A0002220FEF765FB08210920FEF7B1FB09A9CB
:1049B000404600F04EFA1E208DF804009DF82400B9
:1049C0008DF805009DF824200A49B81C03F008FB67
:1049D00021463846FEF7E8FB064646B92278B91C60
:1049E000284603F0FDFA00200AB0BDE8F081304609
:1049F000FAE700003613002000200021FB4A117066
:104A000051709170D17011710022F84981F8FB202A
:104A100000BF06E0F6490A5CF449491D0A54411CEE
:104A2000C8B2F628F6DB704702460878424082EAB0
:104A30000210C2B20888001280EA022080EAC20096
:104A400080EA221008800888704738B503460C4673
:104A500046F26330009000BF13F8015B69462846B8
:104A6000FFF7E2FF601EC0B2041EF5D1BDF80000E2
:104A700038BD0FB42DE9F0430646489D479C4FF0E2
:104A80000008C1460020207006F0010078B1D94826
:104A9000007808B9012000E00020D64908700846D7
:104AA000007840F002012278501C2070A954D148AF
:104AB000007800F0080020B12178481C207005F82B
:104AC000019006F0020028B19DF820102278501CB9
:104AD0002070A95406F0040028B19DF82110227816
:104AE000501C2070A95406F0080028B19DF822102F
:104AF0002278501C2070A95406F0100028B19DF8AF
:104B000023102278501C2070A95406F0200028B1F0
:104B10009DF824102278501C2070A95406F0400003
:104B200090B14FF000080BE00DF1250010F80810CF
:104B30002278501C2070A95408F1010000F0FF08F1
:104B40009DF824004045EFDC06F0800028B19DF878
:104B50001B112278501C2070A95406F4807068B193
:104B600021782846FFF771FF07462278501C2070F5
:104B7000AF54390A2278501C2070A954BDE8F003C4
:104B80005DF814FB2DE9F043ADF5017D05460024E9
:104B9000DFF86482072699A103C97F917E90A14620
:104BA0004FF48067002091490870A4204870380AAB
:104BB0008870CF700846067100BF06E07EA8015DD0
:104BC0008A48401D0155601CC4B2B442F6DB8748D8
:104BD00080F8FB9080A8F02284490C31CDE93C0894
:104BE000684603F0FDF9FC2280493FA803F0F8F97C
:104BF000FF203FA90EC9FFF73CFF9DF80002287077
:104C00000DF5017DBDE8F0832DE9F041FEB00546CC
:104C1000794F4FF002080C244EF20316002073491E
:104C20000870A4204870200A88700846C47080F874
:104C30000480310A417186717DA8F0226B490C31E4
:104C4000CDE93C07684603F0CBF9FC2267493EA852
:104C500003F0C6F97F203EA90EC9FFF70AFF9DF8B1
:104C6000F40128707EB0BDE8F0812DE9F041FEB07E
:104C70000546614F4FF002080C244EF20116002049
:104C80005A490870A4204870200A88700846C470E9
:104C900080F80480310A417186717DA8F022534961
:104CA0000C31CDE93C07684603F09AF9FC224F49E4
:104CB0003EA803F095F97F203EA90EC9FFF7D9FE63
:104CC0009DF8F40128707EB0BDE8F0812DE9F04137
:104CD000FEB004460E46484F4FF002080C25002057
:104CE00042490870A4204870280A88700846C57098
:104CF00080F80480210A417184717DA8F0223B492B
:104D00000C31CDE93C07684603F06AF9FC223749CB
:104D10003EA803F065F97F203EA90EC9FFF7A9FE62
:104D20009DF8F40130707EB0BDE8F081F0B5FFB0C1
:104D300004460D461646304F00202C490870B0201E
:104D40004870200A8870CC70084680F8FB507EA816
:104D5000F0220C31CDE93C07684603F041F9FC2212
:104D600022493FA803F03CF99F203FA90EC9FFF755
:104D700080FE9DF8F80130707FB0F0BD2DE9F04362
:104D8000FFB005460E4617469846DFF86C900024A3
:104D9000002016490870D6204870280A8870CD7007
:104DA0000846067100BF05E0395D1048401D0155F9
:104DB000601CC4B2B442F7DB7EA8F0220B490C3170
:104DC000CDE93C09684603F00BF9FC2207493FA8EE
:104DD00003F006F97F203FA90EC9FFF74AFE9DF8B0
:104DE000F80188F800007FB0BDE8F083441100208E
:104DF00040120020BA00002036130020D2760000B6
:104E00008501010070B5FEB00546344E1E24A22077
:104E100033490870D6204870200A88700846C4704C
:104E2000002008717DA8F0220C31CDE93C066846CF
:104E300003F0D6F8FC222A493EA803F0D1F83F201F
:104E40003EA90EC9FFF715FE9DF8F40128707EB04B
:104E500070BD2DE9F04106460F46204D0024F22298
:104E60002146641C6A542146641C6E540221284663
:104E7000FFF7EBFD80462146641C05F801804FEAF0
:104E800018222146641C6A543C70BDE8F08170B55C
:104E900004460D46002625B129462046FFF7D5FDDC
:104EA00006464EB9281F205C4FF47F4101EA0020DE
:104EB000E91E615C084370BD002605212046FFF70E
:104EC000C4FD06460EB11220F5E760784FF47F412D
:104ED00001EA0020A1780843EDE700003613002026
:104EE0004411002001E0FBF70BF9FCE701E0FBF7C0
:104EF00007F9FCE701E0FBF703F9FCE701E0FBF74A
:104F0000FFF8FCE700BFFEE770477047704710B539
:104F1000FD48007868B1FC48407A401CFA49487264
:104F20000846407A052804DDFDF796F80120F64989
:104F30000871F64801680068401CF44A1060B1F539
:104F40007A7F23D9FBF7D3FC0020F0490860F048B2
:104F50008078401CEE498870084680783C2815DB34
:104F60000020887008464078401C48700846407809
:104F70003C280BDB0020487008460078401C087075
:104F800008460078182801DB00200870E148007806
:104F9000012804DDDF480078401EDE490870DD4846
:104FA000007840B9DC480088002804DDDA48008831
:104FB000401ED9490880D948008820B1D7480088C8
:104FC000401ED649088010BD10B52821D448FCF7F2
:104FD000BFF940B1012240F22551D148FCF7D3F886
:104FE000CF48FCF735F940F22551CD48FCF7B0F930
:104FF000002870D0CA48FCF72BF9C349487108460D
:105000000079082868D2DFE800F0040E2B6842918E
:10501000B3CBBD48407820B9C248C3490978405C49
:1050200000B10CE100BFB84840795C2817D10120DD
:10503000B54908700846407988720846417990F869
:10504000FF2090F8FF00401CAF4B83F8FF0003F5F2
:105050008070815400201946487202200871EEE0E9
:10506000A9484079A849C8720846417990F8FF20BC
:1050700090F8FF00401CA44B83F8FF0003F58070FC
:10508000815400201946487204200871D7E09E48D8
:105090004179027A007A401C9B4B187203F10C0094
:1050A00081540C38417990F8FF2090F8FF00401CA3
:1050B00083F8FF0003F58070815400201946487280
:1050C0000846007A042801D10320087197488E49C8
:1050D000C9680160B3E0B3E0B0E08B4840798A4929
:1050E00008740846417990F8FF2090F8FF00401CB2
:1050F000854B83F8FF0003F5807081541846007CCF
:10510000EC2804DD01201946C87008710AE07E48C9
:10511000007C002803DD05207B49087102E00620A1
:105120007949087100207849487288E076484179C9
:10513000C279C079401C744BD87103F111008154BD
:105140001138417990F8FF2090F8FF00401C83F857
:10515000FF0003F58070815400201946487208460C
:10516000C079097C884202D106201946087166E0A0
:1051700065484079644981F8FD000846417990F816
:10518000FF2090F8FF00401C5F4B83F8FF0003F501
:1051900080708154002019464872072008714EE043
:1051A00059484079CA283FD157484079564981F833
:1051B000FE000846417990F8FF2090F8FF00401C5F
:1051C000514B83F8FF0003F580708154184690F826
:1051D000FF10007C0930814206D0184690F8FF107D
:1051E000007C0E30814219D1474890F8FF00C01E64
:1051F00081B24C48F238FDF735F8434991F8FD107B
:10520000884205D00120404988700020087110E0D4
:1052100001203D494870002008710AE001203A4908
:10522000C8700020087104E0012037490871FCF7BC
:1052300013FF002034490870487200E000BF00BF2F
:1052400040F227713648FCF783F8002827D035480C
:10525000801C35490978405C10B32B4890F8F72141
:1052600090F8F701401C284B83F8F7012E4800788E
:10527000C0EB0013C3EB00232A48401D1844815C97
:105280002748FBF7E1FF2748801C27490978405C45
:10529000401EC1B22348801C234A1278815477E013
:1052A00001212048801E204A127881541E4800782F
:1052B000FCF7BCFE144890F8F301C8B300201A496B
:1052C0000870114890F8F72190F8F701401C0E4B38
:1052D00083F8F70108460078C0EB0013C3EB002306
:1052E0001048401D1844815C0D48FBF7ADFF0D4888
:1052F000801C0D490978405C401EC1B20948801CE1
:10530000094A1278815443E0A20500206800002079
:105310006C0000205D0000205E0000206600002080
:105320000038014095070020640000206000002044
:10533000FFE7674890F8F40120B301206549087041
:10534000634890F8F72190F8F701401C604B83F810
:10535000F70108460078C0EB0013C3EB00235E485A
:105360001844815C5D48FBF76FFF5B48C01E5949DC
:105370000978405C401EC1B25748C01E554A127899
:10538000815405E0002240F227715448FBF7FBFEF0
:1053900010BD08B52020FBF7EAF8FDF7D5FA00F0BC
:1053A000400030B14E490820FDF7ADFB4C49F139C2
:1053B0000871FDF7A9FAFDF7CFFDFDF7D9FD4948C2
:1053C0000078012851D169464548401C00F0A6FAF2
:1053D00000283FD04248F13890F8F700B8B10120DA
:1053E0003F49F139487040493D4802680A60828867
:1053F0008A808079887108213B48401CFCF732FF85
:10540000394948720B213848FDF798F85BE0344879
:10541000F1380078B8B135489DF8001000EBC100B4
:10542000407880B92E48F138C178401DFDF786F8E4
:1054300001202E499DF8002001EBC2014870284947
:10544000F13988703FE02648F1380179F130FDF7F5
:1054500075F838E02248F1380179F13002F0D9FDD1
:1054600000201F49F13908712DE01D48F13890F8EE
:10547000F700B8B101201A49F13948701A491848A3
:1054800002680A6082888A808079887108211648BB
:10549000401CFCF7E7FE144948720B211248FDF747
:1054A0004DF810E012490E4802680A608088888032
:1054B00007210F48401CFCF7D5FE0D4908720A2150
:1054C0000B48FDF73BF80220FCF791FA08BD0000FD
:1054D000A2050020640000209A0700200038014047
:1054E0006D0A002039000020C5000020D4000020F3
:1054F000BB00002010B5CD48807878B10020CB49A2
:1055000088700846807ACA490870C848C07A4870CE
:105510000D20C8490870FCF79FFD10BDC348C07836
:1055200078B10020C149C8700846807AC049087027
:10553000BE48C07A4870FE20BE490870FCF78CFD5A
:10554000EBE7BA484078002877D0BA4800780028BE
:1055500073D1B648C07A242870D00EDC212870D0D0
:1055600006DC102812D0122832D0202868D142E060
:1055700022287AD02328F9D19AE0253808285FD24A
:10558000DFE800F0BC5ECFE25EF8F2F1A74890F8E9
:10559000061190F80E010A3081420AD0A348807AA1
:1055A000A3490870A148C07A4870FE20A14908703C
:1055B00024E19E48007CA04908809C48027C00F1C0
:1055C00011019B4802F00CFD01209A49087015E179
:1055D000964890F8060150B19448807A9449087032
:1055E0009248C07A4870FE209249087006E1042073
:1055F0009049087002E18D48017C90F80701800015
:10560000401C81420AD08948807A894908708748BD
:10561000C07A4870FE2087490870EFE0834890F810
:10562000060185490880084602888449804802F0BE
:10563000D7FC11207F490870E0E0E2E04BE000E099
:10564000D1E07A4890F8061190F807018000401CDC
:1056500081420BD07548807A754908707348C07ACA
:105660004870FE2073490870C8E00EE06F4890F85B
:105670000601714908800846028870496C4802F0AA
:10568000AFFC12206B490870B8E0684890F806013A
:1056900050B16648807A664908706448C07A48709C
:1056A000FE2064490870A9E0132062490870A5E053
:1056B0005E4890F8060150B15C48807A5C490870F9
:1056C0005A48C07A4870FE205A49087096E0142063
:1056D0005849087092E0554890F8060150B1534877
:1056E000807A534908705148C07A4870FE20514969
:1056F000087083E015204F4908707FE04B4890F810
:10570000060150B14948807A494908704748C07A33
:105710004870FE204749087070E01620454908701F
:105720006CE0424890F8060150B14048807A404908
:1057300008703E48C07A4870FE203E4908705DE01F
:1057400017203C49087059E0384890F8060168B1C4
:105750003648807A364908703448C07A4870FE204E
:10576000344908704AE02BE017E003E01820314983
:10577000087043E02D4890F8060150B12B48807A1C
:105780002B4908702948C07A4870FE2029490870C2
:1057900034E019202749087030E0244890F80601C9
:1057A00050B12248807A224908702048C07A487057
:1057B000FE202049087021E01A201E4908701DE0D3
:1057C0001A4890F8060150B11848807A18490870B4
:1057D0001648C07A4870FE20164908700EE01B205B
:1057E000144908700AE0FF20124908700F48807AB7
:1057F0000F4908700D48C07A487000BF00BFFCF721
:105800002BFC00BF89E610B50D48007838B10D4873
:1058100001880D48FCF7EFFC00200949087010BD15
:1058200010B5FFF7F0FFFFF765FE10BDA2050020E1
:105830003B0D00207F00002078000020A9060020FA
:105840007C0000207A000020270E002010B5FE48C2
:105850000078012806D10121FC48FAF79EFF0020BC
:10586000F9490870FA48008818B90121F748FAF791
:1058700096FF10BD70B505460C460020F54908801E
:105880005C21F44802880088401CF24B1880F248E2
:105890008154184601880088401C1A461080EE4842
:1058A00045540121104602880088401C1880EA48AF
:1058B0008154184601880088401C1A461080E6482A
:1058C00044540321401CFCF7CDFCE2490A880988B6
:1058D000491CE04B1980E0498854CA2118460288C7
:1058E0000088401C1880DC4881540120DB49087086
:1058F00070BD024610780B7898420DD150784B78E5
:10590000984209D190788B78984205D1D078CB789D
:10591000984201D1012070470020FCE770B5054690
:105920000E46CF48007808B9002070BD00241AE068
:10593000CC4810F83400012813D1CA4901EBC40146
:10594000081D2946FFF7D5FF58B1C64800EBC40033
:105950008078401CC34901EBC40188703470012079
:10596000E3E7601CC4B2782CE2DB0020DDE770B511
:1059700005460E46BA480078782801D1002070BD4F
:10598000002410E0B74810F83400012809D1B549C7
:1059900001EBC401081D2946FFF7ABFF08B1002049
:1059A000EDE7601CC4B2782CECDBAD4800787828B9
:1059B00004DB7820AA4908700020E0E7A948A8493C
:1059C000097810F8310080B9A648A549097800EB9C
:1059D000C100296841600121A248A14A127800F85B
:1059E00032109F480078307013E000240FE09D488B
:1059F00010F8340048B99B4800EBC40029684160A6
:105A00000120984901F834003470601CC4B2782C2D
:105A1000EDDB93480078401C914908700120AEE707
:105A200010B5044600208B4908805C218948028813
:105A30000088401C874B188087488154012C08D16E
:105A40002821184602880088401C1880824881540A
:105A500008E02A217F4802880088401C7D4B18807E
:105A60007D488154804801787A4802880088401C2B
:105A7000784B1880784881547B48417818460288D2
:105A80000088401C188074488154774881781846F3
:105A900002880088401C18806F4881547248C27880
:105AA000184601880088401C18806B484254012128
:105AB000184602880088401C1880674881540021DD
:105AC000184602880088401C1880634881540721CA
:105AD000401CFCF7C7FB5F490A880988491C5D4BDD
