:020000040800F2
:10000000584E002065030008718E0008798E0008A4
:10001000818E0008898E0008918E00080000000083
:10002000000000000000000000000000958E0008A5
:10003000978E000800000000998E00089B8E000833
:100040007F0300087F0300087F0300087F03000888
:100050007F0300087F0300087F0300087F03000878
:100060007F0300087F0300087F0300087F03000868
:100070007F0300087F0300087F0300087F03000858
:100080007F0300087F0300087F0300087F03000848
:100090007F0300087F0300087F0300085D8F0008CE
:1000A0007F0300087F0300087F0300087F03000828
:1000B0007F0300087F0300087F0300087F03000818
:1000C0007F0300087F0300087F0300087F03000808
:1000D0007F0300080B8F00087F0300087F030008E0
:1000E0007F0300087F0300087F030008DFF80CD0BF
:1000F00009F03AFE0048004715510008584E00200C
:100100001CB50020019000908B48006840F48030BE
:100110008949086000BF8848006800F400300090FA
:100120000198401C0190009818B90198B0F5A06F93
:10013000F1D18148006800F4003010B10120009036
:1001400001E0002000900098012844D17B4800681D
:1001500040F01000794908600846006820F003006C
:1001600008600846006840F0020008607248406875
:10017000714948600846406848600846406840F455
:10018000806048600846406820F47C10486008465B
:10019000406840F4D81048600846006840F080701D
:1001A000086000BF6448006800F000700028F9D0C3
:1001B0006148406820F003005F4948600846406895
:1001C00040F00200486000BF5B48406800F00C004F
:1001D0000828F9D13DE001205949087000F07CFE63
:1001E000012000F0FEFE00BF212000F0B8FE002834
:1001F000FAD05248006840F01000504908600846A4
:10020000006820F0030008600846006840F0020023
:100210000860002000F005FF002000F014FF4FF4FC
:10022000806000F007FF4FF46011002000F0DCFE5A
:10023000012000F0E5FE00BF392000F090FE00280C
:10024000FAD0022000F0DFFE00BF00F0E5FE082833
:10025000FBD11CBD10B5FFF753FF10BD10B53648DC
:10026000006840F00100344908600846406835499C
:1002700008403149486008460068334908402E4923
:1002800008600846006820F480200860084640683E
:1002900020F4FE0048604FF41F008860FFF7DAFF8B
:1002A0004FF000602949086010BD10B50021002002
:1002B0000022214B5B6803F00C0121B1042906D018
:1002C000082928D107E0224B224C236027E0224B4B
:1002D000204C236023E0184B5B6803F47010164B2E
:1002E0005B6803F48032022303EB904022B91B4B7E
:1002F0004343184C23600DE00F4B5B6803F400335D
:1003000023B1134B4343134C236003E0124B43438D
:10031000104C236003E00E4B0E4C236000BF00BF67
:10032000054B5B68C3F303130D4CE15C094B1B6881
:10033000CB40084C236010BD00100240002002405A
:10034000AC0000200000FFF8FFFFF6FE08ED00E023
:1003500000127A00000000200024F40000093D0093
:10036000040000200648804706480047FEE7FEE7F5
:10037000FEE7FEE7FEE7FEE7FEE7FEE7FEE7FEE755
:100380005D020008ED00000831490143314A116067
:10039000704770B5002100230F22C47804B32D4CA0
:1003A000246804F4E064C4F5E064210AC1F10403A4
:1003B000CA40447804FA03F18478144021430901C7
:1003C000254C0678A155047804F01F050124AC40A3
:1003D00005786D11AD0005F1E025C5F8004109E093
:1003E000047804F01F050124AC401C4D06787611FA
:1003F00045F8264070BD1A4A0A400243154B1B1FA0
:100400001A60704739B1134A121D12680243114B2A
:100410001B1D1A6006E00F4A121D126882430D4B25
:100420001B1D1A607047042808D14FF0E0210969AC
:1004300041F004014FF0E022116107E04FF0E021AC
:10044000096921F004014FF0E022116170470000BA
:100450000000FA050CED00E000E400E080E100E0BF
:1004600080FFFF1F002044490860091D0860091D26
:100470000860091D086041483F4914310860704711
:1004800000213D498279002A3AD00A461268036861
:100490009A430B461A600A1D126803689A430B1DA3
:1004A0001A60027911440A6803681A430A60324AE2
:1004B0000832126803689A432F4B08331A601A1DDA
:1004C000126803689A432C4B0C331A604279102A45
:1004D0000ED11A1F126803681A43274B08331A609B
:1004E0001A1D126803681A43234B0C331A600DE07F
:1004F0002149427911440A6803681A430A6005E0F9
:10050000027911440A6803689A430A60704700211F
:10051000016001710C214171002181717047164900
:10052000103109680143144A1032116070470146C6
:100530000020114A143212680A400AB1012000E07A
:10054000002070470C4914310860704701460020B4
:100550000022094B1B6803EA0102074B14331B6896
:100560000B4013B10AB1012000E00020704702499E
:10057000143108607047000000040140FFFF0F00C5
:1005800001460020FE4A106800F038000843106061
:100590007047FB49096821F00801F94A11601146CA
:1005A0000968014311607047F549096821F010019D
:1005B000F34A116011460968014311607047F14820
:1005C000EF494860F04848607047EE48EC494860A1
:1005D000ED4848607047EA48006940F08000E8490B
:1005E00008617047E648006940F08000E44908610E
:1005F00070470420E249C96801F0010109B10120F6
:100600000EE0DF49C96801F0040109B1022007E0EA
:10061000DB49C96801F0100109B1032000E00420A2
:10062000704700B502460423FFF7E3FF034603E0EB
:10063000FFF7DFFF0346521E012B01D1002AF7D13D
:1006400002B90523184600BD30B5044604254FF411
:100650003020FFF7E6FF0546042D17D1C848006992
:1006600040F00200C649086108464461006940F054
:10067000400008614FF43020FFF7D3FF0546C04823
:10068000006941F6FD710840BD490861284630BD4A
:1006900010B504244FF43020FFF7C3FF0446042CA8
:1006A00016D1B748006940F00400B5490861084612
:1006B000006940F0400008614FF43020FFF7B1FFBF
:1006C0000446AF48006941F6FB710840AC49086137
:1006D000204610BD00B502460423FFF78AFF0346FB
:1006E00003E0FFF786FF0346521E012B01D1002ACB
:1006F000F7D102B90523184600BD10B504244FF404
:100700003020FFF7E7FF0446042C16D19C4800690F
:1007100040F004009A4908610846006940F0400032
:1007200008614FF43020FFF7D5FF04469448006974
:1007300041F6FB71084092490861204610BD002037
:100740008F49C96901F0020109B1012000E00020D0
:10075000704730B5A5250424FFF7F1FF00B100254F
:100760004FF43020FFF75DFF0446042C3AD1854852
:1007700083498860844888600846006940F020000A
:1007800008610846006940F0400008614FF43020DD
:10079000FFF747FF0446042C1BD17948006941F656
:1007A000DF710840764908610846006940F0100092
:1007B000086176480580E002FFF733FF0446052C08
:1007C00010D06F48006941F6EF7108406C4908612C
:1007D00008E0052C06D06A48006941F6EF71084030
:1007E00067490861204630BD78B506460C460425A9
:1007F00000200090E802FFF714FF0546042D24D1E5
:100800005F48006940F001005D4908613480E802FA
:10081000FFF707FF0546042D10D1B01C0090200CF7
:1008200000990880E802FFF7FCFE0546544800697D
:1008300041F6FE7108405249086106E050480069DF
:1008400041F6FE7108404E490861284678BD70B5F2
:1008500004460D460426F002FFF7E3FE0646042E8A
:1008600011D14748006940F00100454908612580E1
:10087000F002FFF7D6FE06464148006941F6FE71D8
:1008800008403F490861304670BD70B505460E46C8
:100890000424E002FFF7C5FE0446042C17D13948B2
:1008A00037498860384888600846006940F0100081
:1008B00008612E80E002FFF7B4FE0446052C06D046
:1008C0002F48006941F6EF7108402D490861204624
:1008D00070BD2DE9F04304464FF6FF763746B0462B
:1008E000B1460425E443E6B2C4F30727C4F307483E
:1008F0004FEA1469E802FFF794FE0546042D49D13A
:1009000020481F498860204888600846006940F0F8
:1009100010000861FF2E06D01C4808300680E8024F
:10092000FFF77FFE0546042D08D1FF2F06D017489C
:100930000A300780E802FFF774FE0546042D0AD14D
:10094000B8F1FF0F07D011480C30A0F80080E80282
:10095000FFF767FE0546042D0AD1B9F1FF0F07D056
:100960000A480E30A0F80090E802FFF75AFE05464C
:10097000052D0FD00248006941F6EF71084007E0ED
:100980000020024023016745AB89EFCD00F8FF1F2F
:10099000664908612846BDE8F08330B50546042461
:1009A0004FF43020FFF73DFE0446042C41D160484F
:1009B0005E4988605F4888600846006940F0200012
:1009C00008610846006940F0400008614FF430209B
:1009D000FFF727FE0446042C22D15448006941F653
:1009E000DF710840514908610846006940F0100075
:1009F00008611DB100205049088002E0A5204E4941
:100A000008804FF43020FFF70CFE0446052C10D070
:100A10004648006941F6EF7108404449086108E022
:100A2000052C06D04148006941F6DF7108403F4976
:100A30000861204630BDF0B505460E461746042431
:100A40003B483A4988603B488860E002FFF7E9FD8F
:100A50000446042C19D13548006940F01000334990
:100A6000086147F0F800304328433349891C088067
:100A7000E002FFF7D6FD0446052C06D02B4800699E
:100A800041F6EF710840294908612046F0BD27482A
:100A9000C069800870472548006A704700202349D4
:100AA000096801F0200109B1012000E00020704731
:100AB00029B11E4A126902431C4B1A6104E01B4A09
:100AC00012698243194B1A617047014600200129BF
:100AD00008D1164AD26902F001020AB1012008E0E9
:100AE000002006E0114AD2680A400AB1012000E065
:100AF000002070470D49C860704704200B49C96841
:100B000001F0010109B101200EE00849C96801F0B6
:100B1000040109B1022007E00449C96801F010018D
:100B200009B1032000E004207047000000200240CB
:100B300023016745AB89EFCD00F8FF1F10B50446D0
:100B4000CC48844208D10121042000F04DFB002153
:100B5000042000F049FB46E0C748844208D1012147
:100B6000082000F041FB0021082000F03DFB3AE0A6
:100B7000C248844208D10121102000F035FB002139
:100B8000102000F031FB2EE0BD48844208D1012145
:100B9000202000F029FB0021202000F025FB22E08E
:100BA000B848844208D10121402000F01DFB0021FB
:100BB000402000F019FB16E0B348844208D101211F
:100BC000802000F011FB0021802000F00DFB0AE0E6
:100BD000AE48844207D10121801500F005FB0021B9
:100BE000A01500F001FB10BD10B50121084600F072
:100BF000FBFA0021012000F0F7FA10BD2DE9F041C9
:100C0000024600250026002000230024002791F83A
:100C100003C00CF00F0591F803C00CF0100CBCF1F0
:100C2000000F03D091F802C04CEA050591F800C00E
:100C3000BCF1000F31D0146800202BE04FF0010C04
:100C40000CFA00F3B1F800C00CEA03069E4220D172
:100C500083004FF00F0C0CFA03F7BC4305FA03FCBA
:100C60004CEA040491F803C0BCF1280F06D14FF000
:100C7000010C0CFA00FCC2F814C00AE091F803C0A1
:100C8000BCF1480F05D14FF0010C0CFA00FCC2F882
:100C900010C0401C0828D1D31460B1F800C0BCF1CA
:100CA000FF0F34DD546800202EE000F1080C4FF0F7
:100CB000010808FA0CF3B1F800C00CEA03069E42E2
:100CC00021D183004FF00F0C0CFA03F7BC4305FA57
:100CD00003FC4CEA040491F803C0BCF1280F05D1D1
:100CE00000F1080C08FA0CF8C2F8148091F803C05F
:100CF000BCF1480F07D100F1080C4FF0010808FAC9
:100D00000CF8C2F81080401C0828CED35460BDE80F
:100D1000F0814FF6FF710180022181700421C170C2
:100D200070470246002093680B400BB1012000E0A1
:100D3000002070470146886880B270470246002054
:100D4000D3680B400BB1012000E000207047014642
:100D5000C86880B2704701617047416170470AB14D
:100D6000016100E041617047C16070474FF480321B
:100D70000A438261816182618269826970470246A9
:100D80000020434B18684FF68073184040EA021069
:100D900008433F4B186070473E49C8617047F0B543
:100DA0000A46002300240021002500F00046B6F189
:100DB000004F02D1364EF16901E0354E7168C0F343
:100DC000034583B200F44016B6F5401F08D121F068
:100DD00070612F4E766826F070662D4F7E6012E0AF
:100DE00000F48016B6F5801F06D1032606FA05F436
:100DF000A14341F0706106E0460D360103FA06F6A4
:100E0000B14341F0706122B1460D360103FA06F696
:100E1000314300F00046B6F1004F02D11C4EF161A3
:100E200001E01B4E7160F0BD30B500228B071C0F36
:100E30000F2303FA04F2164B08338C1053F82430B6
:100E40009343134C08348D1044F8253023468C10FE
:100E500053F824308C07240F00FA04F423430C4C7D
:100E600008348D1044F8253030BD0A49DC31086063
:100E70007047000000080140000C014000100140D4
:100E80000014014000180140001C014000200140F6
:100E900000000140000020420E49086070470D49E3
:100EA000486070470B49886070474AF6AA20094994
:100EB000086070474CF6CC40064908607047014610
:100EC0000020044AD2680A400AB1012000E0002054
:100ED0007047000000300040DF48006840F001002B
:100EE000DD49086008464068DC490840DA49486046
:100EF00008460068DA490840D74908600846006893
:100F000020F4802008600846406820F4FE00486015
:100F10004FF41F0088607047CF49096821F4803181
:100F2000CD4A11601146096821F480211160B0F5A5
:100F3000803F03D0B0F5802F0ED106E0C649096886
:100F400041F48031C44A116007E0C349096841F4A3
:100F5000A021C14A116000E000BF00BF704710B57A
:100F600001460022002300204A11012A02D1BA4C76
:100F7000236806E0022A02D1B74C236A01E0B64C8E
:100F8000636A01F01F02012494401C400CB101204F
:100F900000E0002010BD38B500200090002400259E
:100FA00000BF3120FFF7DBFF05460098401C009092
:100FB0000098B0F5A06F01D0002DF2D03120FFF7DE
:100FC000CEFF08B1012400E00024204638BD0146D0
:100FD0000020A14A106820F0F80040EAC10010602B
:100FE0007047A04908607047024600209A4B586835
:100FF00020F47C1042EA01031843974B5860704775
:1010000098490866704701460020934A506820F0CE
:1010100003000843506070478F48406800F00C00A0
:101020007047014600208C4A506820F0F0000843C9
:101030005060704701460020874A506820F4E06005
:1010400008435060704701460020834A506820F4EE
:10105000605040EAC1005060704729B17E4A527A20
:1010600002437D4B5A7204E07B4A527A82437A4BA8
:101070005A7270477B49D83108607047014600209A
:10108000754A506820F44040084350607047002182
:10109000714A20321170704A82F82010012802D063
:1010A00004280AD104E001216B4A2032117005E0C6
:1010B0000521694A2032117000E000BF00BF70476F
:1010C0006949086070476449096A0143624A1162CC
:1010D0007047654944390860704730B500210022E7
:1010E000002400235C4D6D6805F00C0121B104293A
:1010F00005D0082923D105E05C4D056022E05C4D58
:1011000005601FE0544D6D6805F47012524D6D6816
:1011100005F48034022505EB92421CB9554D554328
:1011200005600BE04C4D6D6805F400351DB14F4D69
:101130005543056002E04E4D5543056002E04B4DBE
:10114000056000BF00BF444D6D6805F0F00109095E
:10115000494D6B5C0568DD4045603F4D6D6805F4A9
:10116000E061090A444D6B5C4568DD4085603A4D9D
:101170006D6805F46051C90A3F4D6B5C4568DD4000
:10118000C560354D6D6805F44041890B3B4D6B5C86
:10119000C568B5FBF3F5056130BD29B12E4A52692A
:1011A00002432D4B5A6104E02B4A526982432A4B79
:1011B0005A61704729B1284A92690243264B9A61C5
:1011C00004E0254A92698243234B9A61704729B112
:1011D000214AD2690243204BDA6104E01E4AD269F7
:1011E00082431D4BDA61704729B11B4AD268024322
:1011F000194BDA6004E0184AD2688243164BDA6071
:10120000704729B1144A12690243134B1A6104E072
:10121000114A12698243104B1A61704712494039D2
:10122000086070470F49C86470470B49C871704720
:101230000948406A40F0807007494862704701469B
:101240000020054A92680A400AB1012000E000200F
:101250007047014988727047001002400000FFF893
:10126000FFFFF6FE000042428004424200127A0074
:101270000024F40000093D00140000202400002098
:1012800010B50446BE48844208D101218014FFF7FE
:10129000ABFF0021A014FFF7A7FF16E0B948844276
:1012A00008D101210014FFF7ACFF00212014FFF743
:1012B000A8FF0AE0B448844207D10121C013FFF718
:1012C000A0FF0021E013FFF79CFF10BD10B5002226
:1012D000028802F441520B884C8823438C882343B4
:1012E000CC8823430C8923434C8923438C89234393
:1012F000CC8923431A430280838B4FF2FF7423402F
:1013000083830B8A038210BD2DE9F04F85B005461B
:101310000C464FF0000902274FF000084FF0010B78
:101320000026B246A88B4FF240010840A883022055
:101330002884B5F81C90A068022801D100BF38E0CD
:10134000A08810B94FF0010B01E04FF0020B8D485F
:10135000854200D100E000BF6846FFF7BEFEDDF821
:1013600000A0E088B0F5007F0AD14FEA1A2000EB18
:1013700080004000A168B0FBF1F0401D86B20BE098
:101380004FEA4B10BAFBF0F000EB80004000A16880
:10139000B0FBF1F0401D86B20A20B6FBF0F606F075
:1013A0000108A6EB0800C0F34F074FF6FF7000EAF4
:1013B0000828022F01DBFF2F02DD02274FF0000873
:1013C000E08840EA080038432884A088A1890843BF
:1013D000618808432188084340F4006040EA090915
:1013E000A5F81C9005B0BDE8F08F00210180418078
:1013F0008180C180018141818181C1810721018278
:1014000070470021018041808180C180022181607C
:1014100000218181704721B1028842F040020280A0
:1014200004E002884FF6BF731A400280704721B172
:10143000828B42F48062828304E0828B4FF6FF331A
:101440001A408283704730B5002400230C11012517
:10145000A540ABB21AB185881D43858002E085881E
:101460009D43858030BD1AB183880B43838002E0A1
:1014700083888B43838070478181704701468889C8
:1014800070474FF6FF62914204D0028842F48072A6
:10149000028004E002884FF6FF631A400280704722
:1014A00021B1828842F00402828004E082884FF6F3
:1014B000FB731A408280704702884FF2FF731A4014
:1014C000028002880A4302807047018841F48051FB
:1014D0000180704721B1028842F40052028004E08A
:1014E00002884DF6FF731A400280704702460020C2
:1014F000012901D0108B00E0908A70470146088ACC
:101500007047B1F5804F04D1028842F480420280D6
:1015100004E002884BF6FF731A40028070470246CF
:10152000002013890B400BB1012000E00020704720
:10153000CA4302817047F0B5024600200024002310
:10154000002501F00F070126BE40B4B20B110126A1
:101550009E40B3B2968806EA03051689264016B166
:101560000DB1012000E00020F0BD10B5002201F017
:101570000F040123A3409AB2D343038110BD00009E
:101580000030014000380040003C004010B50446E7
:10159000FE48844208D10121C014FFF725FE002136
:1015A000E014FFF721FEC4E0B4F1804F08D101211F
:1015B0000846FFF726FE00210120FFF722FEB8E0D3
:1015C000F348844208D101210220FFF71AFE0021CE
:1015D0000220FFF716FEACE0EE48844208D101215C
:1015E0000420FFF70EFE00210420FFF70AFEA0E012
:1015F000E948844208D101210820FFF702FE0021BA
:101600000820FFF7FEFD94E0E448844208D1012160
:101610001020FFF7F6FD00211020FFF7F2FD88E013
:10162000DF48844208D101212020FFF7EAFD002194
:101630002020FFF7E6FD7CE0DA48844208D1012152
:101640004014FFF7D1FD00216014FFF7CDFD70E0DD
:10165000D548844209D10121C804FFF7C5FD002106
:101660004FF40020FFF7C0FD63E0D048844209D169
:1016700001210805FFF7B8FD00214FF48010FFF7A6
:10168000B3FD56E0CA48844209D101214805FFF75D
:10169000ABFD00214FF40010FFF7A6FD49E0C5485F
:1016A000844208D101214020FFF7ABFD00214020FA
:1016B000FFF7A7FD3DE0C048844208D1012180200A
:1016C000FFF79FFD00218020FFF79BFD31E0BB4825
:1016D000844208D101218015FFF793FD0021A01558
:1016E000FFF78FFD25E0B648844209D101210804A7
:1016F000FFF77AFD00214FF48030FFF775FD18E009
:10170000B048844209D101214804FFF76DFD002152
:101710004FF40030FFF768FD0BE0AB48844208D17E
:1017200001218804FFF760FD00214FF48020FFF7BE
:101730005BFD10BD00220288944B98420ED0994B5D
:1017400098420BD0B0F1804F08D0914B984205D011
:10175000904B984202D0904B984204D14FF68F7331
:101760001A404B881A438D4B984207D08C4B9842B5
:1017700004D04FF6FF431A40CB881A4302808B886F
:1017800083850B880385814B98420BD0854B98420B
:1017900008D08B4B984205D08A4B984202D08A4B96
:1017A000984201D10B7A038601238382704770B57A
:1017B000002400220023058C4FF6FE763540058478
:1017C000028C8388048B4FF68F752C40B51E2C40FD
:1017D0000D882C43751E2A400D892A434D882A43C3
:1017E0006A4DA8420BD06F4DA84208D0744DA84254
:1017F00005D0744DA84202D0734DA84213D14FF6C4
:10180000F7752A404D892A434FF6FB752A408D888B
:101810002A434FF6FF652B404FF6FF552B408D892D
:101820002B43CD892B4383800483CD888586028416
:1018300070BD70B5002400220023058C4FF6EF76B2
:1018400035400584028C8388048B48F6FF752C4054
:101850004FF6FF452C400D884FF6FF7606EA05252A
:101860002C434FF6DF752A400D8906EA05152A43F9
:101870004D8806EA05152A43444DA84202D0494D39
:10188000A8421DD14FF67F752A404D894FF6FF764D
:1018900006EA05152A434FF6BF752A408D8806EAE9
:1018A00005152A434FF6FF352B404FF2FF752B40AD
:1018B0008D8906EA85052B43CD8906EA85052B43EC
:1018C00083800483CD880587028470BD70B50024B1
:1018D00000220023058C4FF6FF6635400584028CFC
:1018E0008388848B4FF68F752C404FF6FC752C4007
:1018F0000D882C434FF6FF552A400D894FF6FF7691
:1019000006EA05252A434D8806EA05252A431F4D88
:10191000A84202D0234DA8421DD14FF2FF752A40A4
:101920004D894FF6FF7606EA05252A434FF6FF3527
:101930002A408D8806EA05252A434EF6FF752B407E
:101940004DF6FF752B408D8906EA05152B43CD8991
:1019500006EA05152B4383808483CD88858702841E
:1019600070BD70B5002200230024058C4EF6FF7672
:1019700035400584038C8488828B48F6FF752A40A5
:101980004FF6FF452A400D8820E00000002C014062
:101990000004004000080040000C0040001000401F
:1019A0000014004000340140004C01400050014050
:1019B0000054014000180040001C0040002000407E
:1019C0000040014000440140004801404FF6FF76CE
:1019D00006EA05252A434DF6FF752B400D8906EAD8
:1019E00005352B434D8806EA05352B43FA4DA842B1
:1019F00002D0FA4DA84208D14BF6FF752C408D89D4
:101A00004FF6FF7606EA85152C4384808283CD88C5
:101A1000A0F84050038470BD828B4FF2FF331A4010
:101A20008283828B4FF6FF7303EA01231A4382837A
:101A30007047F0B50C461546002200210026078CA1
:101A40004EF6FF7C07EA0C070784828B018C4FF669
:101A5000FF7707EA043640F6FF473A404FF6FF7734
:101A600007EA05273A434FF6FF7707EA03373A4379
:101A7000D94FB8420ED0D94FB8420BD0B0F1804FF9
:101A800008D0D74FB84205D0D64FB84202D0D64F73
:101A9000B84206D14DF6FF77394046F480573943B6
:101AA00005E047F6FF57394044F4805739438283B5
:101AB0000184F0BD828B4FF6F3731A408283828BD0
:101AC0000A4382837047F0B50C4615460022002178
:101AD0000026078C4FF6FF6C07EA0C070784828B01
:101AE000018C4FF6FF7707EA04264FF60C773A4051
:101AF0004FF6FF7707EA03172F433A43B64FB84232
:101B00000ED0B64FB8420BD0B0F1804F08D0B44FD2
:101B1000B84205D0B34FB84202D0B34FB84206D155
:101B20004FF6FF57394046F48077394305E04FF2CE
:101B3000FF57394044F48077394382830184F0BDF4
:101B4000028B4FF2FF331A400283028B4FF6FF7372
:101B500003EA01231A4302837047F0B50C46154689
:101B6000002200210026078C4FF6EF7C07EA0C07C5
:101B70000784028B018C4FF6FF7707EA041640F6C4
:101B8000FF473A404FF6FF7707EA03373A434FF6ED
:101B9000FF7707EA05273A438F4FB8420ED08F4FA1
:101BA000B8420BD0B0F1804F08D08D4FB84205D06D
:101BB0008C4FB84202D08C4FB84206D14FF6DF7737
:101BC000394046F01007394305E04FF65F7739405A
:101BD00044F01007394302830184F0BD028B4FF6B5
:101BE000F3731A400283028B0A4302837047F0B5F5
:101BF0000C46154600220021068C4FF6FE773E402B
:101C00000684028B018C4FF60C7632407E1C06EA6D
:101C100003162E433243704EB0420ED06F4EB04288
:101C20000BD0B0F1804F08D06D4EB04205D06D4E54
:101C3000B04202D06C4EB04206D14FF6FD76314034
:101C400044F00106314305E04FF6F576314044F0AB
:101C50000106314302830184F0BD70B505460C4690
:101C60005D4885420ED05D4885420BD0B5F1804F6E
:101C700008D05B48854205D05A48854202D05A4870
:101C8000854200D100E000BF208850B92389A28896
:101C900061882846FFF7ABFFE1882846FFF79EFFE3
:101CA00025E0208804280AD12389A2886188284653
:101CB000FFF753FFE1882846FFF742FF17E020882F
:101CC00008280AD12389A28861882846FFF7FBFEED
:101CD000E1882846FFF7EEFE09E02389A2886188A3
:101CE0002846FFF7A6FEE1882846FFF795FE70BD5F
:101CF0002DE9F04105460C4600260127608808B909
:101D0000022600E00026A088012801D1022700E079
:101D100001272088A0B92389A28861882846FFF777
:101D200066FFE1882846FFF759FF23893A46314686
:101D30002846FFF712FFE1882846FFF701FF13E06E
:101D40002389A28861882846FFF707FFE188284693
:101D5000FFF7F6FE23893A4631462846FFF747FF4C
:101D6000E1882846FFF73AFFBDE8F0810A884B88F2
:101D70001A438B881A43CB881A430B891A434B8921
:101D80001A438B891A43A0F8442070474FF6FF711D
:101D9000818000210180C180418001727047002153
:101DA000018041808180C180018141818181C18127
:101DB0007047002101804180012181800021C18084
:101DC000018170470021018041808180C1800181B3
:101DD0004181818170470000002C014000340140A6
:101DE0000004004000080040000C004021B10288BF
:101DF00042F00102028004E002884FF6FE731A40AE
:101E00000280704731B1B0F8442042F40042A0F89B
:101E1000442005E0B0F84420C2F30E02A0F84420AC
:101E200070471AB183890B43838102E083898B4316
:101E3000838170478182704741EA0203A0F84830ED
:101E400070471AB183890B43838102E083898B43F6
:101E50008381704701894FF6F87211400181704704
:101E60000A46002101894FF68F7319401143018101
:101E7000704730B504460D4629462046FFF7F0FF6F
:101E8000208940F00700208130BD2DE9F041044653
:101E90000D4616461F46602D06D13B4601223146AF
:101EA0002046FFF75AFE05E03B4601223146204618
:101EB000FFF79DFE29462046FFF7D2FF208940F01C
:101EC00007002081BDE8F08130B50C460021018972
:101ED000C9B24FF6FF7505EA03251543254329438B
:101EE000018130BD2DE9F04105460E461746984662
:101EF000002443463A4631462846FFF7E5FF2C8941
:101F00004FF6F870044044F007044FF68F70044019
:101F100044F070042C81BDE8F081F0B504460D4614
:101F200016461F463B46324629462046FFF7CCFF61
:101F3000208940F480402081F0BD01858282704775
:101F40000A46002101884FF68F7319401143018022
:101F50007047F0B50C4615461E46002100220023AE
:101F60000189028B038C4FF6F877394021434FF6F5
:101F7000FC473A4040F201173A434FF6DD773B40C9
:101F80004FF6FF7707EA06172F433B430181028391
:101F90000384F0BD0A460021018B4FF68F73194070
:101FA0001143018370470A460021018B48F6FF73F5
:101FB00019404FF6FF7303EA022319430183704768
:101FC0000A460021818B4FF68F731940114381839C
:101FD00070470A460021818B48F6FF7319404FF67F
:101FE000FF7303EA022319438183704721B10288FA
:101FF00042F08002028004E002884FF67F731A40AC
:102000000280704721B1828842F00402828004E09D
:1020100082884FF6FB731A408280704721B1828814
:1020200042F00802828004E082884FF6F7731A407B
:102030008280704721B1828842F00102828004E0F0
:1020400082884FF6FE731A40828070470A4600214C
:10205000018B4FF6F77319401143018370470A460D
:102060000021018B4FF2FF7319404FF6FF7303EA13
:1020700002231943018370470A460021818B4FF6E2
:10208000F77319401143818370470A460021818B01
:102090004FF2FF7319404FF6FF7303EA022319430F
:1020A000818370470A460021018B4FF6FB7319406C
:1020B0001143018370470A460021018B4FF6FF331D
:1020C00019404FF6FF7303EA022319430183704757
:1020D0000A460021818B4FF6FB731940114381831F
:1020E00070470A460021818B4FF6FF3319404FF6A7
:1020F000FF7303EA02231943818370470A460021D4
:10210000018B4FF67F7319401143018370470A46D4
:102110000021018BC1F30E014FF6FF7303EA022386
:102120001943018370470A460021818B4FF67F7364
:1021300019401143818370470A460021818BC1F306
:102140000E014FF6FF7303EA0223194381837047A0
:102150000A460021018C4FF6FD731940114301849A
:1021600070470A460021018C4FF6F773194011435E
:10217000018470470A460021018C4FF6DF73194035
:102180004FF6FF7303EA02131943018470470A46AE
:102190000021018C4FF67F7319404FF6FF7303EA5D
:1021A00002131943018470470A460021018C4FF63F
:1021B000FF5319404FF6FF7303EA022319430184CA
:1021C00070470A460021018C4FF2FF7319404FF609
:1021D000FF7303EA02231943018470470A46002172
:1021E000018C4DF6FF7319404FF6FF7303EA02337B
:1021F00019430184704730B5002301248C40A3B2F9
:10220000048C9C430484048C02FA01F5ADB22C4387
:10221000048430BD30B5002304248C40A3B2048C68
:102220009C430484048C02FA01F5ADB22C4304846F
:1022300030BD70B503460020002418461830012533
:102240008D40ACB21D8CA5431D8409B1082909D16C
:1022500000EB6100056825F0700505600568154311
:1022600005600EE00D1FC5F34E052844056825F4F2
:10227000E045056005684FF6FF7606EA022635431D
:10228000056070BD21B1028842F00202028004E0C4
:1022900002884FF6FD731A400280704721B1028810
:1022A00042F00402028004E002884FF6FB731A40F9
:1022B0000280704721B1828842F08002828004E06F
:1022C00082884FF67F731A408280704702884FF6EB
:1022D000F7731A40028002880A430280704782889E
:1022E0004FF68F731A40828082880A43828070473B
:1022F00002894FF6F8731A40028102890A4302816B
:10230000704702894FF67F731A40028102890A439F
:10231000028170478184704781857047818670474C
:102320000187704781877047A0F840107047028886
:102330004FF6FF431A40028002880A43028070472A
:102340000146888E70470146088F70470146888F86
:1023500070470146B1F8400070470146888C7047CD
:102360000146088D704702460020138A0B400BB1CE
:10237000012000E000207047CA430282704730B558
:102380000246002000230024158A05EA01039589EE
:1023900005EA010413B10CB1012000E0002030BDBA
:1023A000CA4302827047000010B50446FB488442CD
:1023B00009D101218803FEF717FF00214FF4804067
:1023C000FEF712FF32E0F648844209D101214804A9
:1023D000FEF717FF00214FF40030FEF712FF25E053
:1023E000F048844209D101218804FEF70AFF002148
:1023F0004FF48020FEF705FF18E0EB48844209D136
:102400000121C804FEF7FDFE00214FF40020FEF775
:10241000F8FE0BE0E548844208D101210805FEF7EB
:10242000F0FE00214FF48010FEF7EBFE10BD2DE909
:10243000F04786B005460E460024A24600BFA146DE
:102440000027B08900B100BF2F462C8A4CF6FF70E0
:102450000440F08804432C82AC894EF6F31004400B
:10246000B08831890843718908430443AC81AC8A40
:102470004FF6FF400440B0890443AC8201A8FEF748
:102480002CFEC648874202D1DDF810A001E0DDF83D
:102490000CA0A88900F4004040B10AEBCA0000EB90
:1024A0000A1031684900B0FBF1F807E00AEBCA00F6
:1024B00000EB0A1031688900B0FBF1F86420B8FB2A
:1024C000F0F004012009642101FB1089A88900F4BF
:1024D000004040B1322000EBC900B0FBF1F000F049
:1024E0000700044308E0322000EB09106421B0FB30
:1024F000F1F000F00F0004432C8106B0BDE8F08736
:102500004FF41651016000218180C18001810C21AE
:10251000418100218181704710B502460020108A58
:102520004FF2FF0318400B884C8823438C882343C9
:10253000CC8823431843108210BD002101804180C4
:102540008180C180704721B1828942F4005282812A
:1025500004E082894DF6FF731A4082817047F0B51E
:102560000346002400260025002040F66A17B942E1
:1025700000D100BF1846C1F3421401F01F06012725
:1025800007FA06F5012C01D10C3004E0022C01D130
:10259000103000E014301AB107682F43076002E0E2
:1025A0000768AF430760F0BD1AB1838A0B4383828B
:1025B00002E0838A8B4383827047028A4FF6F0736E
:1025C0001A400282028A0A430282704782894FF2CD
:1025D000FF731A40828182890A438281704721B148
:1025E000828942F00202828104E082894FF6FD7303
:1025F0001A4082817047028A4FF6DF731A400282C6
:10260000028A0A430282704721B1028A42F4804260
:10261000028204E0028A4BF6FF731A40028270477E
:10262000C1F308028280704701468888C0F3080021
:102630007047818941F0010181817047028BD2B2DC
:102640000283028B42EA012202837047028B02F46A
:102650007F420283028B0A430283704721B1828A40
:1026600042F02002828204E0828A4FF6DF731A4031
:102670008282704721B1828A42F01002828204E095
:10268000828A4FF6EF731A408282704721B1828AA4
:1026900042F00802828204E0828A4FF6F7731A4001
:1026A0008282704721B1828942F40042828103E034
:1026B0008289C2F30E028281704721B1828A42F47C
:1026C0000062828204E0828A4FF2FF731A408282A3
:1026D0007047828A4FF6FB731A408282828A0A43CD
:1026E0008282704721B1828A42F00202828204E033
:1026F000828A4FF6FD731A4082827047024600209C
:10270000B1F5007F00D100BF13880B400BB1012051
:1027100000E00020704701F40072B2F5007F00D1A4
:1027200000BFCA430280704770B5024600240023F0
:102730000025002040F66A16B14200D100BFC1F367
:10274000421501F01F03012606FA03F3012D02D101
:102750009689334006E0022D02D1168A334001E00B
:10276000968A33400C12012606FA04F41688344087
:1027700013B10CB1012000E0002070BD10B50022A3
:10278000002340F66A14A14200D100BF0A120124BE
:102790009440A3B2DC43048010BD00000038014027
:1027A0000044004000480040004C00400050004001
:1027B00000200021FB4A117051709170D17011718D
:1027C0000022F84981F8FB2000BF06E0F6490A5CC8
:1027D000F449491D0A54411CC8B2F628F6DB70477B
:1027E00002460878424082EA0210C2B2088800120B
:1027F00080EA022080EAC20080EA2210088008886D
:10280000704738B503460C4646F26330009000BF6F
:1028100013F8015B69462846FFF7E2FF601EC0B26D
:10282000041EF5D1BDF8000038BD0FB42DE9F0430A
:102830000646489D479C4FF00008C1460020207086
:1028400006F0010078B1D948007808B9012000E00D
:102850000020D64908700846007840F0020122782E
:10286000501C2070A954D148007800F0080020B115
:102870002178481C207005F8019006F0020028B16C
:102880009DF820102278501C2070A95406F00400F6
:1028900028B19DF821102278501C2070A95406F010
:1028A000080028B19DF822102278501C2070A954ED
:1028B00006F0100028B19DF823102278501C2070DB
:1028C000A95406F0200028B19DF824102278501C4D
:1028D0002070A95406F0400090B14FF000080BE0C2
:1028E0000DF1250010F808102278501C2070A95412
:1028F00008F1010000F0FF089DF824004045EFDCDE
:1029000006F0800028B19DF81B112278501C207021
:10291000A95406F4807068B121782846FFF771FF4A
:1029200007462278501C2070AF54390A2278501C78
:102930002070A954BDE8F0035DF814FB2DE9F043C5
:10294000ADF5017D05460024DFF86482072699A1D4
:1029500003C97F917E90A1464FF480670020914982
:102960000870A4204870380A8870CF700846067135
:1029700000BF06E07EA8015D8A48401D0155601C2D
:10298000C4B2B442F6DB874880F8FB9080A8F022FE
:1029900084490C31CDE93C08684606F0C1FFFC22B1
:1029A00080493FA806F0BCFFFF203FA90EC9FFF7F2
:1029B0003CFF9DF8000228700DF5017DBDE8F08315
:1029C0002DE9F041FEB00546794F4FF002080C2486
:1029D0004EF20316002073490870A4204870200AA4
:1029E00088700846C47080F80480310A417186718D
:1029F0007DA8F0226B490C31CDE93C07684606F012
:102A00008FFFFC2267493EA806F08AFF7F203EA97F
:102A10000EC9FFF70AFF9DF8F40128707EB0BDE8EB
:102A2000F0812DE9F041FEB00546614F4FF00208FC
:102A30000C244EF2011600205A490870A420487058
:102A4000200A88700846C47080F80480310A4171F9
:102A500086717DA8F02253490C31CDE93C076846C8
:102A600006F05EFFFC224F493EA806F059FF7F208A
:102A70003EA90EC9FFF7D9FE9DF8F40128707EB07B
:102A8000BDE8F0812DE9F041FEB004460E46484F06
:102A90004FF002080C25002042490870A42048701D
:102AA000280A88700846C57080F80480210A4171A0
:102AB00084717DA8F0223B490C31CDE93C07684682
:102AC00006F02EFFFC2237493EA806F029FF7F20A2
:102AD0003EA90EC9FFF7A9FE9DF8F40130707EB043
:102AE000BDE8F081F0B5FFB004460D461646304F04
:102AF00000202C490870B0204870200A8870CC70E3
:102B0000084680F8FB507EA8F0220C31CDE93C0746
:102B1000684606F005FFFC2222493FA806F000FFA8
:102B20009F203FA90EC9FFF780FE9DF8F801307085
:102B30007FB0F0BD2DE9F043FFB005460E461746C5
:102B40009846DFF86C900024002016490870D620C3
:102B50004870280A8870CD700846067100BF05E0ED
:102B6000395D1048401D0155601CC4B2B442F7DB0A
:102B70007EA8F0220B490C31CDE93C09684606F0ED
:102B8000CFFEFC2207493FA806F0CAFE7F203FA9DE
:102B90000EC9FFF74AFE9DF8F80188F800007FB0E3
:102BA000BDE8F083E0000020DC01002028000020C8
:102BB000D2020020D27600008501010070B5FEB07F
:102BC0000546344E1E24A22033490870D620487092
:102BD000200A88700846C470002008717DA8F02281
:102BE0000C31CDE93C06684606F09AFEFC222A49E3
:102BF0003EA806F095FE3F203EA90EC9FFF715FE40
:102C00009DF8F40128707EB070BD2DE9F0410646B4
:102C10000F46204D0024F2222146641C6A542146AE
:102C2000641C6E5402212846FFF7EBFD80462146C6
:102C3000641C05F801804FEA18222146641C6A547E
:102C40003C70BDE8F08170B504460D46002625B104
:102C500029462046FFF7D5FD06464EB9281F205CC1
:102C60004FF47F4101EA0020E91E615C084370BD1A
:102C7000002605212046FFF7C4FD06460EB11220AE
:102C8000F5E760784FF47F4101EA0020A17808431E
:102C9000EDE70000D2020020E000002008B54FF46C
:102CA0007F40ADF8000003208DF8020004208DF86D
:102CB00003006946F848FDF7A1FF08BD08B54FF4C9
:102CC0007F40ADF8000003208DF8020010208DF841
:102CD00003006946F048FDF791FF08BD70B5044652
:102CE00000224FF48071ED48FEF739F801225102BD
:102CF000EA48FEF734F80122D103E948FEF72FF83D
:102D000001221102E648FEF72AF8E348FEF71FF811
:102D1000C6B246EA0421E048FEF726F80122110275
:102D2000DE48FEF71CF8032005F09BFB00224FF461
:102D30008071DA48FEF713F8FFF7B0FF00224FF476
:102D40000071D648FEF70BF800224FF40041D4483A
:102D5000FEF705F805F07DFBCF48FDF7EBFF051208
:102D600005F077FB0122D103CD48FDF7F8FF0122E2
:102D70005102CA48FDF7F3FFFFF7A0FF284670BDD8
:102D800070B504460D4601221102C448FDF7E7FF65
:102D9000C148FDF7DCFFC6B246EA042081B2BE4856
:102DA000FDF7E2FF022005F05CFB00224FF480718A
:102DB000BA48FDF7D4FF022005F053FB00224FF480
:102DC0000071B648FDF7CBFFB348FDF7C0FFC6B2B0
:102DD00046EA052081B2B048FDF7C6FF00224FF455
:102DE0008071AF48FDF7BBFF022005F03AFB0122DE
:102DF0001102AB48FDF7B3FF01225102A748FDF7CE
:102E0000AEFF70BD70B505460C4600262846FFF79C
:102E100065FF064646EA04012846FFF7B1FF70BD8C
:102E200070B505460C4600262846FFF757FF0646B4
:102E300026EA04012846FFF7A3FF70BD10B504463B
:102E4000012C06D0022C0DD0032C14D0042C24D13C
:102E50001AE007212A20FFF793FF6A212C20FFF7B1
:102E60008FFF23E007212A20FFF78AFFA0212C20D3
:102E7000FFF786FF1AE009212A20FFF781FFA02132
:102E80002C20FFF77DFF11E009212A20FFF778FFB2
:102E9000FF212C20FFF774FF08E007212A20FFF70D
:102EA0006FFF21462C20FFF76BFF00BF00BF0621FC
:102EB0002B20FFF765FF10BD2DE9FC5F80468A4699
:102EC00045460020019000270090287812282FD036
:102ED0000DDC072826D005DCB0B1012818D0032866
:102EE00042D119E00B281ED00C283DD11CE0192836
:102EF0002CD004DC14281FD0162835D120E01A2845
:102F000028D01E2830D129E00027002000902EE094
:102F10001127102000902AE00727042000900120AC
:102F2000019024E000BF00BF0527042000901EE0B0
:102F30001127102000901AE004270420009016E0CA
:102F40000627042000900120019010E005270420AE
:102F500000900CE005270420009008E03D270420A5
:102F600000900120019002E01720287000BF00BFF0
:102F70002878172874D000210846FFF701FF7F2129
:102F80000620FFF7FDFE7F210720FFF7F9FE002155
:102F90000120FFF7F5FE01210920FFF733FF47F07D
:102FA00080010620FFF7ECFE002605E0A81C815DED
:102FB0000220FFF7E5FE761C6878B042F6D8297843
:102FC0000120FFF7DDFE4FF4005600BF0720FFF79A
:102FD00085FE0446761E46B104EA070000F0200094
:102FE00018B9009820400028F0D04FF07D0BB6B300
:102FF00004EA070000F0200088BB0A20FFF76EFEFD
:1030000000F0170050BB4FF0000B019830B30420C4
:10301000FFF764FE04460520FFF760FE00F0070995
:10302000B9F1000F04D0601E09EBC000687002E027
:10303000E006000E687004B90124002605E00220B5
:10304000FFF74CFEA91C8855761CA642F7D3F82240
:103050002946404606F064FC8AF800400BE000E098
:1030600011E004EA070000F0200010B14FF0010B5E
:1030700001E04FF07D0B7F210620FFF781FE7F21CD
:103080000720FFF77DFE5846BDE8FC9F10B50321E1
:103090001120FFF7C5FE10BD000C014000100140DB
:1030A0000008014010B503211120FFF7ABFE10BD51
:1030B00070B500244FF4005500224021FE48FDF772
:1030C0004EFE40F6C41005F0CCF901224021FA482A
:1030D000FDF745FE4FF47A7005F0C3F90022402158
:1030E000F548FDF73CFE4FF4967005F0BAF900BFC5
:1030F0000120FFF7F3FD00F03F0020B1281EA5F1ED
:1031000001018DB2F4D105B901246CB980210020F0
:10311000FFF736FE0120FFF7E1FD08B1012403E0CF
:1031200000210846FFF72CFE84BB00211F20FFF77B
:1031300027FE40211F20FFF723FE0A2005F091F90A
:1031400040211F20FFF76CFEAD211B20FFF718FE6A
:10315000FF211C20FFF714FE41211E20FFF710FE67
:103160001A212920FFF70CFE02212B20FFF708FE71
:1031700002212D20FFF704FE5B211120FFF700FE46
:103180003F211220FFF7FCFDFFF780FF204670BDB6
:103190002DE9FC4105460C46002001906F466A204F
:1031A000FFF74CFE03212220FFF7EAFD082109204A
:1031B000FFF736FE07210F20FFF7E2FD1E208DF8F6
:1031C000000001208DF801008DF802502220FFF749
:1031D00085FD06460F20FFF781FD064601A938460A
:1031E000FFF76AFE064656B99DF80100102806D181
:1031F0009DF8020020709DF80300607000E00B262F
:103200003046BDE8FC812DE9FE4305460E46002010
:10321000029000278046E9466A20FFF70FFE28212A
:103220001A20FFF7ADFD08210920FFF7F9FD032162
:103230002220FFF7A5FD1E208DF8000002208DF84A
:103240000100932D03D193208DF8020004E0952D09
:1032500002D195208DF8020020218DF8031002A9DB
:103260004846FFF729FE8046B8F1000F1BD1002425
:1032700005E00DF10200005D4740601CC4B2042C63
:10328000F7DB0DF10200005DB84202D04FF00808F4
:1032900009E0002405E00DF10200005D3055601CDE
:1032A000C4B2042CF7DB20211A20FFF7B9FD4046F9
:1032B000BDE8FE832DE9FF4105460020039000276D
:1032C000E8466A20FFF7BAFD0F212220FFF758FDDC
:1032D00008210920FFF7A4FD1E208DF8000007201B
:1032E0008DF8010093208DF8020070218DF80310F5
:1032F000002408E0285D47402A5D0DF10200A11C72
:103300004254601CC4B2042CF4DB8DF8087003A98D
:103310004046FFF7D1FD064626B99DF80100082872
:1033200000D00B26304604B0BDE8F0812DE9FE4FF9
:103330000546884616464FF00009EA466A20FFF720
:103340007DFD0F212220FFF71BFD08210920FFF73B
:1033500067FD1E208DF8000007208DF801009320E6
:103360008DF8020070218DF80310002409E0285D1B
:1033700080EA09092A5D0DF10200A11C4254601C7B
:10338000C4B2042CF3DB8DF8089031465046FFF7A9
:1033900093FD074657B932780AF10201404606F01C
:1033A000BFFA9DF80100082800D00B273846BDE879
:1033B000FE8F2DE9FE4F0546884616464FF0000960
:1033C000EA466A20FFF73AFD0F212220FFF7D8FCDA
:1033D00008210920FFF724FD1E208DF8000007209A
:1033E0008DF8010095208DF8020070218DF80310F2
:1033F000002409E0285D80EA09092A5D0DF1020038
:10340000A11C4254601CC4B2042CF3DB8DF808905C
:1034100031465046FFF750FD074657B932780AF15A
:103420000201404606F07CFA9DF80100082800D011
:103430000B273846BDE8FE8F7CB5002400200190A4
:103440006D466A20FFF7FAFC1E208DF8000002206E
:103450008DF8010050208DF8020000218DF8031036
:1034600001A92846FFF728FD044624B1012C01D00C
:103470001B2C00D1002400210120FFF781FC2046F5
:103480007CBD70B502460B4600210025002400BF1C
:1034900015E0505C00F00F05505C0411E84345EA6C
:1034A0000010012606EB41069855E04344EA00105F
:1034B00003F81100481C01E000100140C1B20629C8
:1034C000E7DB002070BDF0B585B005460020049014
:1034D0006E466A20FFF7B2FC19208DF800000C2020
:1034E0008DF80100002405E0295D0DF10200015571
:1034F000601CC4B20C2CF7DB04A93046FFF7DCFCDF
:103500000746384605B0F0BD2DE9FE4305460E4698
:1035100017464FF0000800200290E94607212220BC
:10352000FFF72EFCB8F1000F3DD16A20FFF786FCB3
:103530000C208DF8000006208DF801008DF8025057
:103540008DF80360002406E03A5D0DF10200A11C35
:103550004254601CC4B2042CF6DB02A94846FFF7B3
:10356000ABFCB0F100081ED10520FFF7B7FB00F05F
:10357000070010B14FF00B0815E014208DF8000083
:1035800000208DF8010002A94846FFF795FCB0F134
:10359000000808D10920FFF7A1FB00F0080000B1E6
:1035A00001E04FF004084046BDE8FE832DE9F041FC
:1035B00086B005460E4600200590E8460420FFF739
:1035C0003DFC0F212220FFF7DBFB1E208DF80000C1
:1035D00002208DF8010030208DF802008DF8035094
:1035E00005A94046FFF768FC07467FB99DF8010032
:1035F000802801D00B2709E0002405E00DF102002E
:10360000005D3055601CC4B2102CF7DB384606B0A4
:10361000BDE8F0812DE9F04186B006460F46002056
:103620000590E8460420FFF709FC07212220FFF758
:10363000A7FB1E208DF8000002208DF80100A020BD
:103640008DF802008DF8036005A94046FFF734FCB1
:103650000546012D18D09DF80100042801D00B2546
:1036600012E09DF8020000F00F008DF802009DF8B6
:10367000020010B10A2804D101E00A2503E0002568
:1036800001E0062500BF00BF65BB0320FFF7D6FBA6
:103690001E208DF8000010208DF80100002405E0A8
:1036A000395D0DF102000155601CC4B2102CF7DB2E
:1036B00005A94046FFF700FC0546012D12D09DF8F4
:1036C000020000F00F008DF802009DF8020010B11A
:1036D0000A2804D101E00F2503E0002501E00625BA
:1036E00000BF00BF284606B0BDE8F0812DE9FE43CB
:1036F00007460E46904600200290E9466A20FFF7F2
:103700009DFB1E208DF8000002208DF801008DF831
:1037100002708DF8036002A94846FFF7CDFB04460E
:10372000012C1CD09DF80100042801D00B2416E0C8
:103730009DF8020000F00F008DF802009DF80200D5
:1037400020B1012806D00A2806D101E00A2405E0AC
:10375000002403E07C2401E0062400BF00BF0CBB72
:103760000420FFF76BFB1E208DF8000004208DF86D
:103770000100E946002506E018F805100DF10200E9
:103780004155681CC5B2042DF6DB02A94846FFF777
:1037900093FB04460CB1012C07D19DF801000428CD
:1037A00001D00B2402E0002400E07D2474BB1E2025
:1037B0008DF8000002208DF80100B0208DF8020085
:1037C0008DF8036002A94846FFF776FB0446012CFA
:1037D0001CD09DF80100042801D00B2416E09DF8B0
:1037E000020000F00F008DF802009DF8020020B1E9
:1037F000012806D00A2806D101E00A2405E00024A9
:1038000003E07C2401E0062400BF00BF2046BDE8A1
:10381000FE83FEB50546002002906E460420FFF7A9
:103820000DFB1E208DF8000002208DF80100C22043
:103830008DF802008DF8035002A93046FFF73CFBDB
:103840000446012C1CD09DF80100042801D00B2453
:1038500016E09DF8020000F00F008DF802009DF8C0
:10386000020020B1012806D00A2806D101E00A246E
:1038700005E0002403E07C2401E0062400BF00BF33
:10388000D4B90420FFF7DAFA1E208DF800000420D6
:103890008DF8010000208DF8020000218DF8031042
:1038A0008DF804108DF8051002A93046FFF704FBCF
:1038B0000446012C00D100242046FEBD7CB5044600
:1038C000002001906E460420FFF7B8FA1E208DF804
:1038D000000002208DF80100B0208DF802008DF864
:1038E000034001A93046FFF7E7FA0546012D1CD039
:1038F0009DF80100042801D00B2516E09DF8020078
:1039000000F00F008DF802009DF8020020B10128A0
:1039100006D00A2806D101E00A2505E0002503E0CB
:103920007C2501E0062500BF00BF28467CBD2DE9AF
:10393000FF410546002003900026E84628211A2072
:10394000FFF71EFA08210920FFF76AFA0321222057
:10395000FFF716FA0420FFF771FA1E208DF8000019
:1039600002208DF8010093208DF8020020218DF8AF
:10397000031003A94046FFF79FFA0746D7B9002472
:1039800009E00DF10200005D28550DF10200005D17
:103990004640601CC4B2042CF3DB0DF10200005D54
:1039A000B04201D07D2705E0BDF8031029809DF8C5
:1039B0000500A87020211A20FFF732FA88260F216F
:1039C0002220FFF7DDF908210920FFF729FA04205A
:1039D000FFF734FA1E208DF8000007208DF8010053
:1039E00093208DF8020070218DF8031088218DF846
:1039F0000410002408E0285D46402A5D0DF1020015
:103A0000E11C4254601CC4B2032CF4DB8DF8086046
:103A100003A94046FFF750FA074627B99DF8010071
:103A2000082800D07D27002F6ED1002628211A20DB
:103A3000FFF7A6F908210920FFF7F2F90321222058
:103A4000FFF79EF90420FFF7F9F91E208DF800001A
:103A500002208DF8010095208DF8020020218DF8BC
:103A6000031003A94046FFF727FA0746A7B9002429
:103A700005E00DF10200005D4640601CC4B2042C5C
:103A8000F7DB0DF10200005DB04201D07D2703E0BD
:103A9000DDF80200C5F8030020211A20FFF7C0F965
:103AA00000260F212220FFF76BF908210920FFF7DC
:103AB000B7F90420FFF7C2F91E208DF80000072097
:103AC0008DF8010095208DF8020070218DF803100B
:103AD00000240AE0E81C005D4640E81C025D0DF190
:103AE0000200A11C4254601CC4B2042CF2DB8DF80D
:103AF000086003A94046FFF7DFF9074627B99DF89C
:103B00000100082800D07D27384604B0BDE8F081C8
:103B1000FEB504460D46002002906F460420FFF7D4
:103B20008DF907212220FFF72BF91E208DF80000C8
:103B300003208DF80100A2208DF802008DF80340CB
:103B40002968019102A93846FFF7B6F906464EB931
:103B50009DF80100042805D19DF8020000F00F0037
:103B60000A2800D07D260420FFF768F93046FEBD04
:103B70002DE9FC4105460C46164600200190E8461A
:103B80000F20FFF75BF91E208DF8000002208DF852
:103B90000100E0208DF802008DF803500020F84964
:103BA000087001A94046FFF787F907469DF8010014
:103BB000C11700EB5171C9102170012906DC227870
:103BC0000DF10201304605F0ABFE00E07D273846DE
:103BD000BDE8FC812DE9FF4F89B081468B4600206E
:103BE000049002A8019000200790824600270690CA
:103BF000DDF82C80A22008900B20FFF71FF909F0B8
:103C0000F00008B1012400E00024C4F102004045A6
:103C10000CDAC4F10200C0B20790A8EB070000F074
:103C2000FF08D748007880F0120604E04746D448E1
:103C3000007880F00206D248007880F00100D04978
:103C400008701E208DF808003819401CC0B28DF88D
:103C5000090046EAC400C0B28DF80A001CB109F0A0
:103C60000F018DF80B10002506E000220DF10A006F
:103C7000691C4254681CC5B2A542F6DB0DF10A016D
:103C8000621C88183A46594605F04AFE06983844A0
:103C9000C0B2069004A90198FFF70EF90590D3E091
:103CA0009DF80900C11700EB5171C910491E091B8D
:103CB000032902DD7D200590CAE09DF80A0000F08E
:103CC000F000D8B99DF80900C11700EB5171C91077
:103CD000491E091BC9B207910DF10A02631CD118D4
:103CE0000C9A02EB0A00079A05F01AFE0798504456
:103CF00000F0FF0A169880F800A0A9E09DF80A00DD
:103D000000F0F000A02852D1002506E000220DF1BD
:103D10000A00691C4254681CC5B2A542F6DB86F055
:103D20000106C4F10200404512DAC4F10200C7B234
:103D3000A8EB070000F0FF089148007880F0100021
:103D400006438F48007880F001008D4908700BE031
:103D5000474606F0EF068A48007806438848007810
:103D600080F00100864908701E208DF8080038197F
:103D7000401CC0B28DF80900022040EAC90030435F
:103D8000C0B28DF80A00069A0BEB02010DF10A028F
:103D9000631CD0183A4605F0C3FD06983844C0B2FB
:103DA000069004A90198FFF787F805904CE09DF86C
:103DB0000A0000F0F000102843D19DF80900C11757
:103DC00000EB5171C910491E091BC9B207910DF1D1
:103DD0000A02631CD1180BEB0A00079A05F0A0FD3C
:103DE0000798504400F0FF0A9DF80A0000F0010017
:103DF00020B1089800F0FE00089003E0089840F019
:103E0000010008901E208DF80800601CC0B28DF8DB
:103E10000900FB2000EAC900089908438DF80A0050
:103E2000002506E000220DF10A00691C4254681CBE
:103E3000C5B2A542F6DB04A90198FFF73DF805904D
:103E400002E07D20059003E0059800283FF428AFAC
:103E500000BF05980DB0BDE8F08F7CB5044600208A
:103E600001906E460420FEF7E9FF1E208DF8000049
:103E700002208DF80100CA208DF802008DF8034061
:103E800001A93046FFF718F8054628467CBD2DE904
:103E9000F04387B005460E461746002006900DF108
:103EA000040903208DF804008DF80500E8B28DF8B0
:103EB0000600290A8DF807108DF8086006A9484603
:103EC000FEF7FAFF8046B8F1000F09D1002405E0A3
:103ED0000DF10600005D3855601CC4B2B442F7DB3A
:103EE000404607B0BDE8F0832DE9F04387B00546B2
:103EF0000E46174600200690E94601208DF8000086
:103F0000B01CC0B28DF80100E8B28DF80200290A99
:103F10008DF80310002406E03A5D0DF10200A11CAB
:103F20004254601CC4B2B442F6DB06A94846FEF710
:103F3000C3FF8046404607B0BDE8F0837CB5044629
:103F4000002001906E4607208DF8000002208DF8B9
:103F50000100E0B28DF80200210A8DF8031001A9DA
:103F60003046FEF7A9FF054628467CBD70B58CB0EB
:103F7000202204A104A805F0D3FC6D46002416E01D
:103F80002900002000583F3F19130000007308ADBE
:103F9000FF004100000603636300000000080706FD
:103FA0000A02000004A8005D2855601CC4B2102C51
:103FB000F8DB2A4610210846FFF796FF064656B959
:103FC000002406E004A904F11000085C2855601CD8
:103FD000C4B2102CF6DB2A4610212020FFF784FF04
:103FE000064630460CB070BD7CB5044600200190FA
:103FF0006E460B208DF8000002208DF80100E0B223
:104000008DF80200210A8DF8031001A93046FEF751
:1040100053FF054628467CBDF0B585B007460C46E3
:104020006E466A20FEF70AFF03212220FEF7A8FE53
:1040300008210920FEF7F4FE1E208DF80000042060
:104040008DF80100E0208DF8020040218DF803106A
:104050000221B01CFEF7D5FBC1B28DF8041002217D
:10406000B01CFEF7CEFB010A8DF805102146304644
:10407000FEF722FF05463DB92278B11C384605F00F
:104080004FFC002005B0F0BD2846FBE7F0B585B039
:1040900007460C466E466A20FEF7D0FE032122201A
:1040A000FEF76EFE08210920FEF7BAFE1E208DF8ED
:1040B000000005208DF80100D0208DF802001121AC
:1040C0008DF8031000218DF804100321B01CFEF7B9
:1040D00098FBC1B28DF805100321B01CFEF791FBCF
:1040E000010A8DF8061021463046FEF7E5FE05462A
:1040F0003DB92278B11C384605F012FC002005B00D
:10410000F0BD2846FBE7F0B589B007460C46002015
:1041100008906E466A20FEF791FE07212220FEF7E6
:104120002FFE08210920FEF77BFEFEF741FB08A8C1
:10413000FEF704FC1E208DF800009DF820008DF88D
:1041400001009DF82020FE49B01C05F0E9FB214646
:104150003046FEF7B1FE05463DB92278B11C38461F
:1041600005F0DEFB002009B0F0BD2846FBE7F0B506
:1041700089B007460C46002008906E466A20FEF77C
:104180005DFE07212220FEF7FBFD08210920FEF736
:1041900047FEFEF70DFB08A8FEF712FC1E208DF867
:1041A00000009DF820008DF801009DF82020E449D2
:1041B000B01C05F0B5FB21463046FEF77DFE0546F6
:1041C0003DB92278B11C384605F0AAFB002009B0A1
:1041D000F0BD2846FBE7F0B589B007460C46002045
:1041E00008906E466A20FEF729FE07212220FEF77E
:1041F000C7FD08210920FEF713FEFEF7D9FA08AA29
:1042000002210020FEF76EFC1E208DF800009DF8B4
:1042100020008DF801009DF82020C949B01C05F050
:104220007FFB21463046FEF747FE05463DB9227822
:10423000B11C384605F074FB002009B0F0BD2846DB
:10424000FBE72DE9F04389B08046894615461C46B8
:10425000002008906F466A20FEF7F0FD072122201B
:10426000FEF78EFD08210920FEF7DAFDFEF7A0FA21
:1042700008AA49464046FEF735FC1E208DF800008E
:104280009DF820008DF801009DF82020AC49B81C55
:1042900005F046FB21463846FEF70EFE064646B9B7
:1042A0002278B91C284605F03BFB002009B0BDE888
:1042B000F0833046FAE7F0B589B007460C46002097
:1042C00008906E466A20FEF7B9FD07212220FEF70E
:1042D00057FD08210920FEF7A3FDFEF769FA08A99A
:1042E0000120FEF7CFFB1E208DF800009DF8200076
:1042F0008DF801009DF820209149B01C05F010FBBD
:1043000021463046FEF7D8FD05463DB92278B11C5E
:10431000384605F005FB002009B0F0BD2846FBE754
:10432000F0B589B007460C46002008906E466A201A
:10433000FEF784FD07212220FEF722FD0821092037
:10434000FEF76EFDFEF734FA08AA02210020FEF700
:10435000C9FB1E208DF800009DF820008DF801009B
:104360009DF820207649B01C05F0DAFA2146304647
:10437000FEF7A2FD05463DB92278B11C384605F08E
:10438000CFFA002009B0F0BD2846FBE72DE9F04345
:10439000BFB08046894615461C4600203E906F46B9
:1043A0006A20FEF74BFD07212220FEF7E9FC0821D9
:1043B0000920FEF735FDFEF7FBF93EAA49464046C7
:1043C000FEF790FB1E208DF800009DF8F8008DF898
:1043D00001009DF8F8205A49B81C05F0A1FA2146C1
:1043E0003846FEF769FD064646B92278B91C2846CC
:1043F00005F096FA00203FB0BDE8F0833046FAE7BA
:104400002DE9F047C0B08046894692461E46489C3A
:1044100000203F9001AD0420FEF710FD072122206F
:10442000FEF7AEFC08210920FEF7FAFCFEF7C0F902
:104430003FAB524649464046FEF77CFB1E208DF8B6
:1044400004009DF8FC008DF805009DF8FC203C4917
:10445000A81C05F065FA21462846FEF72DFD074603
:1044600047B92278A91C304605F05AFA002040B01E
:10447000BDE8F0872278A91C304605F051FA38468D
:10448000F5E7F0B589B007460C46002008906E4667
:104490006A20FEF7D3FC07212220FEF771FC0821D9
:1044A0000920FEF7BDFCFEF783F908A8FEF7B9FA6C
:1044B0001E208DF800009DF820008DF801009DF869
:1044C00020201F49B01C05F02BFA21463046FEF78C
:1044D000F3FC05463DB92278B11C384605F020FAB8
:1044E000002009B0F0BD2846FBE7F0B589B00746CB
:1044F0000C46002008906E466A20FEF79FFC0721BC
:104500002220FEF73DFC08210920FEF789FCFEF77A
:104510004FF908AA02210020FEF7E4FA1E208DF8C8
:1045200000009DF820008DF801009DF8202004492E
:10453000B01C05F0F5F921463046FEF7BDFC01E060
:10454000D202002005463DB92278B11C384605F05C
:10455000E7F9002009B0F0BD2846FBE72DE9F0435C
:1045600089B08046894615461C46002008906F4653
:104570006A20FEF763FC07212220FEF701FC0821D8
:104580000920FEF74DFCFEF713F908AA49464046FC
:10459000FEF7A8FA1E208DF800009DF820008DF887
:1045A00001009DF820205749B81C05F0B9F92146B3
:1045B0003846FEF781FC064646B92278B91C2846E3
:1045C00005F0AEF9002009B0BDE8F0833046FAE707
:1045D000F0B589B007460C46002008906E466A2068
:1045E000FEF72CFC07212220FEF7CAFB0821092038
:1045F000FEF716FCFEF7DCF808A8FEF7DFFA1E202F
:104600008DF800009DF820008DF801009DF8202015
:104610003C49B01C05F084F921463046FEF74CFCBD
:1046200005463DB92278B11C384605F079F90020DD
:1046300009B0F0BD2846FBE7F0B585B007460C464B
:104640006E466A20FEF7FAFB03212220FEF798FB54
:1046500008210920FEF7E4FB1E208DF8000003204E
:104660008DF80100C2208DF80200E0218DF80310C2
:10467000B4218DF8041021463046FEF71DFC054696
:104680003DB92278B11C384605F04AF9002005B042
:10469000F0BD2846FBE72DE9F0418AB080460D4683
:1046A00014460020099001AF0420FEF7C7FB032148
:1046B0002220FEF765FB08210920FEF7B1FB09A9BE
:1046C0004046FEF7A2FA1E208DF804009DF8240053
:1046D0008DF805009DF824200A49B81C05F020F942
:1046E00021463846FEF7E8FB064646B92278B91C53
:1046F000284605F015F900200AB0BDE8F0813046E3
:10470000FAE70000D202002000B589B04020ADF8E1
:10471000200003208DF8220018208DF8230008A91E
:10472000E648FCF76BFA8020ADF8200003208DF8F6
:10473000220018208DF8230008A9E048FCF75EFA53
:104740002020ADF8200003208DF8220018208DF8DD
:10475000230008A9D948FCF751FA1020ADF8200031
:1047600003208DF8220010208DF8230008A9D348DB
:10477000FCF744FA0820ADF8200003208DF8220051
:1047800010208DF8230008A9CD48FCF737FA102037
:10479000ADF8200003208DF8220010208DF82300B2
:1047A00008A9C848FCF72AFA2020ADF82000042008
:1047B0008DF8230008A9C348FCF720FA0020ADF8C3
:1047C0000C004FF48270ADF80E000020ADF8100020
:1047D000ADF81200ADF814004FF40070ADF81600FB
:1047E0002020ADF818000020ADF81A000720ADF821
:1047F0001C0003A9B448FCF769FD4FF4A060FBF767
:10480000C3FD17208DF8080000208DF809008DF8F1
:104810000A0001208DF80B0002A8FBF7BAFD052164
:104820000220FCF701FB00208DF804000C208DF81D
:1048300005002020009001208DF806006846FBF757
:104840001FFE0121A048FCF7E6FD10219B48FCF764
:1048500082FA08219A48FCF77EFA09B000BD7FB5BC
:1048600005460C4601210220FCF7B1FCADF80850CA
:10487000ADF804400020ADF80A00ADF8060001A92B
:104880009248FCF757FF012211469048FDF7C9FAFC
:104890001D208DF8000000208DF8010001208DF80A
:1048A00002008DF803006846FBF773FD7FBD2DE91C
:1048B000FC4706460C4615461F46DDE90A98002DC2
:1048C00057D16120824981F8040108460968C0F87F
:1048D000051101464968C0F809117E4841797C48B4
:1048E00080F80D117B484079401C7A494871084690
:1048F0000179774880F80E1176480079401C754997
:1049000008710021724880F80F11FF2180F8101102
:1049100080F8111180F812412246314600F213103E
:1049200004F0FEFF6C4A02EB08116C4A10191022C9
:1049300004F0F6FF04F11E0168480E3804F09CF8FC
:10494000014604F11F00654A0F3A11542122401C10
:1049500062490F390A54401C5D4948720120009099
:104960000846417A4B463A4600F5827002F0D2FC86
:10497000A1E0012D51D101A9554804F044FF612067
:10498000534981F804019DF8040000EB800054496C
:1049900001EB80014E480968C0F8051101464968DD
:1049A000C0F809119DF8040000EB80004C4901EBB0
:1049B00080008179464880F80D119DF8040000EBD5
:1049C0008000474901EB8000C179414880F80E1111
:1049D000012180F80F11FF2180F8101180F81111CA
:1049E000002180F812110E2100F2051004F044F8A5
:1049F000374981F813012121354880F8141111201D
:104A000033494872012000900846417A4B463A46A5
:104A100000F5827002F07EFC4DE0022D4BD161204A
:104A20002B4981F8040108460968C0F805110146C0
:104A30004968C0F8091127488179254880F80D1187
:104A400024488079401C2349887108460179204810
:104A500080F80E11022180F80F11FF2180F810114B
:104A600080F81111002180F812111B4A02EB081185
:104A70001A4A1019102204F053FF04F11E011748BE
:104A80000E3803F0F9FF014604F11F00134A0F3AF4
:104A900011542122401C11490F390A5421200C497C
:104AA00048720A2000900846417A4B463A4600F583
:104AB000827002F02FFCBDE8FC8700000008014076
:104AC000000C014000100140003001400004004093
:104AD000721000204C460020223C0020851100204E
:104AE000E43C002070B5054604242846FBF7ACFDE5
:104AF0000446042C01D0204670BD00212846FBF757
:104B0000A6FE0446042C01D02046F5E705F580609A
:104B1000FBF79AFD04462046EEE770B504460D46C5
:104B200006220623502095FBF0F04FF6FF7606EAAA
:104B30004001FD4E06EB81200288481C06EB8020D8
:104B40000388BCB1012C1ED143B94EF6EE608242FF
:104B500001D1084670BD481C80B2FBE742B94EF651
:104B6000EE60834202D1481C80B2F3E70846F1E7C9
:104B7000AB20EFE70AB90846ECE713B9481C80B24E
:104B8000E8E7AB20E6E70846E4E72DE9F04706460C
:104B90008846042700250024A14631460120FFF75E
:104BA000BCFF0546AB2D01D1BDE8F087DE4800EB28
:104BB0008524681CDC49891E01EB802913E02068EC
:104BC000401C78B941462046FBF741FE0746042FBA
:104BD00001D03846E8E73146A01CFBF738FE07460F
:104BE0003846E1E7241D4C45E9D38020DCE72DE978
:104BF000F04706460F460024A0464FF00109002565
:104C0000A24631460020FFF788FF0446AB2C01D1B5
:104C1000BDE8F087C44800EB842A601CC249891EA5
:104C200001EB80250AE0B5F80080B04505D135F8E4
:104C3000020C38804FF0000904E02D1F0AF1020039
:104C40008542F0D800BF4846E2E72DE9F84F064616
:104C5000884606200090062700254FF000094FF0F7
:104C6000000A4FF0FF3B30880090B8F800700098C1
:104C700000286DD0A0F56E40EE3860B3A0F58850E6
:104C80001138002879D147B93046FBF7DDFC0446DE
:104C9000042C1FD02046BDE8F88F4EF6EE60874208
:104CA00010D13046FBF7D0FC0446042C01D020463E
:104CB000F1E700214046FBF7CAFD0446042C09D069
:104CC0002046E8E73046FFF70DFF0446042C01D0EC
:104CD0002046E0E7CCE0D7BB00252DE0F0889249E4
:104CE000711A890A01EB810105EB0111884201D19A
:104CF0000FFA85FB5D451DD04FF4C031711A890A4A
:104D000001EB810105EB011188B28849FFF76FFFC4
:104D10008246BAF1010F0DD04FF4C031711A890AE1
:104D200001EB810105EB011188B280490988FFF789
:104D30002CFF8146681C85B2502DCFDB0021304608
:104D4000FBF785FD0446042C03D02046A3E708E0CA
:104D500026E04046FBF778FC0446042C1FD0204692
:104D600099E74FF6FF70874211D14046FBF76CFC84
:104D70000446042C02D020468DE770E00021304626
:104D8000FBF765FD0446042C09D0204683E7304636
:104D9000FFF7A8FE0446042C01D020467BE767E01D
:104DA0003FB93046FFF79EFE0446042C56D02046FD
:104DB00071E74FF6FF70874207D14046FBF744FC8E
:104DC0000446042C4AD0204665E7002533E0B8F8B5
:104DD00006005549711A890A01EB810105EB0111A1
:104DE000884201D10FFA85FB5D4522D04FF4C031D6
:104DF000711A890A01EB810105EB011188B24B4957
:104E0000FFF7F5FE8246BAF1010F12D04FF4C03120
:104E1000711A890A01EB810105EB011188B243493E
:104E20000988FFF7B2FE8146B9F1040F01D0484668
:104E300031E7681C85B2502DC9DB00214046FBF7E5
:104E400006FD0446042C01D0204624E73046FBF73B
:104E5000FBFB0446042C01D020461CE708E030464A
:104E6000FFF740FE0446042C01D0204613E700BFA4
:104E700000BF04200FE770B50646FBF7A0FB9EB904
:104E800000240EE0621C284B03EB822103EB8420FC
:104E9000FFF7DBFE0546042D01D0284670BDA01C9F
:104EA00044B20E2CEEDB19E0002415E01E4901EBA4
:104EB0008420FBF7C9FB0546042D01D02846EDE709
:104EC000194901EB8420FFF70DFE0546042D01D0A2
:104ED0002846E3E7A01C44B20E2CE7DB2846DDE7BA
:104EE0002DE9FC5F05468A460426002001900090CB
:104EF000002400278046834681462946FFF70DFEA1
:104F00000446204604EBD0714910A4EB410101296D
:104F10000ED1601E044901EB80200190084600EB91
:104F20008420009018E00000008001082A00002082
:104F3000204604EBD0714910A4EB410149B9601C33
:104F4000374901EB80200190084600EB8420009057
:104F500002E0AB20BDE8FC9F4EF6EE610198FBF746
:104F600076FC0646042E01D03046F3E7514628462B
:104F7000FFF70BFE8046B8F1040F01D04046E9E789
:104F8000502095FBF0F01FFA80F909EB89004FF6ED
:104F9000FF7101EA001716E0AF4212D021493846EE
:104FA000FFF725FE8346BBF1010F0AD01D4801889B
:104FB0003846FFF7EAFD8046B8F1040F01D04046BD
:104FC000C8E7781C87B209F1010000EB8000B7EB5D
:104FD000001FE1DB0098FBF737FB0646042E01D0EB
:104FE0003046B7E700210198FBF731FC0646042E56
:104FF00001D03046AEE73046ACE770B505460E4608
:10500000002431462846FFF7C0FD0446802C04D119
:1050100031462846FFF764FF0446204670BD000075
:10502000008001082A00002038B50446354951F8AF
:1050300024000121FCF7BEF8334830F81400ADF825
:10504000000010208DF8030003208DF802002F4986
:1050500051F824006946FBF7D1FD38BD08B101289D
:1050600007D1294931F81010284A52F820205161FF
:105070000AE0022801D0032806D1234931F8101094
:10508000224A52F820201161704708B1012807D147
:105090001D4931F810101D4A52F8202011610AE014
:1050A000022801D0032806D1174931F81010174AF9
:1050B00052F8202051617047144951F82010C968F6
:1050C000114A32F810205140104A52F82020D16085
:1050D000704708B50120ADF8000003208DF80200EC
:1050E00010208DF8030069460948FBF787FD08BDCD
:1050F00010B50220FFF798FF0320FFF795FFFFF799
:10510000E8FF10BD88A8000880A800082C00002037
:105110000010014003F0B2FB01E000F001F8FCE7F1
:1051200010B501F0A0FE00F045FF02F07BF901F0A0
:10513000A1FF01F049FF01F01EFE02F081F810BD51
:105140002DE9F04104460E461746002504F10708F4
:105150005C2020706770FF220421A01C04F0F2FB89
:105160000220A071012229466D1C08F80120294661
:105170006D1C08F80160A91D601C03F07DFC84F81B
:10518000F700CA2084F8F800BDE8F081FEB50546B6
:105190000C46002700265C20207068786070D5F8E7
:1051A0000200C4F802000120A071E8798DF8000027
:1051B0002889ADF80200A87A8DF804000B20405B26
:1051C000ADF806000D20405BADF80800E87B8DF8D7
:1051D0000A009DF8000008B946F00106BDF802007B
:1051E0000A2801DA46F002069DF80400022801DAD6
:1051F00046F00406BDF80600142801DA46F0080659
:10520000BDF80800782801DA46F010069DF80A007B
:105210000A2801DB46F02006CEB99DF80000F749C8
:105220000870BDF8020048809DF804000871BDF8C0
:105230000600C880BDF8080008819DF80A00887241
:1052400000223846791CCFB2E11D0A5404E03846EA
:10525000791CCFB2E11D0E54B91D601C03F00CFC8B
:1052600084F8F700CA2084F8F800FEBD70B5054642
:105270000C4600265C20207068786070E048D5F805
:10528000021001600120A071E879022812DAE879A1
:10529000DC4981F8620900223046711CCEB2E11D62
:1052A0000A54D84890F8620970B9F921D64804F038
:1052B00050FB09E00020D34981F862090122304601
:1052C000711CCEB2E11D0A54B11D601C03F0D4FB69
:1052D00084F8F700CA2084F8F80070BD70B5054660
:1052E0000C4600265C20207068786070D5F80200BB
:1052F000C4F802000420A071C448407800F00F01F7
:10530000C2480078F02202EA001001433246761CBF
:10531000E01D8154BD48C07800F00F01BB48807883
:10532000F02202EA001001433246761CE01D81544F
:10533000B648407900F00F01B4480079F02202EA43
:10534000001001433246761CE01D8154AF48C079FD
:1053500000F00F01AD488079F02202EA001001430D
:105360003246761CE01D8154B11D601C03F084FBA5
:1053700084F8F700CA2084F8F800B5F80700A449BB
:105380000881687A8871A87A4871E87A0871287B60
:10539000C870687B887070BD2DE9F04105460C46E9
:1053A000002600275C20207068786070D5F8020025
:1053B000C4F802000120A071E879012810DCE87926
:1053C00001F052FE9348D5F80210016068789149C7
:1053D000087100223046711CCEB2E11D0A540BE068
:1053E00001278C480021016000208A49087130465D
:1053F000711CCEB2E11D0F54B11D601C03F03CFBCB
:1054000084F8F700CA2084F8F800BDE8F0812DE99F
:10541000F04780460D4600260024002705F10709C5
:105420005C20287098F80100282804D101207549D3
:1054300081F8640903E00020724981F8640998F852
:1054400001006870D8F80200C5F8020000260024A8
:105450000FE06E49601C085C095D40EA0110C2B2B1
:105460003846791CCFB209F80020701CC6B2A01CC7
:10547000C4B2042E01DA082CEBDB002608E06648F3
:10548000825D3846791CCFB209F80020701CC6B284
:10549000032EF4DB002600240FE06049601C085C4A
:1054A000095D40EA0110C2B23846791CCFB209F852
:1054B0000020701CC6B2A01CC4B20F2E01DA1E2C34
:1054C000EBDB002600240FE05549601C085C095DF9
:1054D00040EA0110C2B23846791CCFB209F8002068
:1054E000701CC6B2A01CC4B2082E01DA102CEBDB73
:1054F000AF71B91D681C03F0BFFA85F8F700CA2028
:1055000085F8F800BDE8F0872DE9F84307460C461A
:10551000914604F108054E464FF000080020009027
:105520005C20207078786070D7F80200C4F8020020
:105530001CE06946304604F0D9F8A8B905F8016BBB
:105540009DF8000005F8010B9DF8010005F8010B1E
:105550009DF8020005F8010B9DF8030005F8010B0A
:1055600008F1010000F0FF08701CC6B208EB8800CB
:10557000EA2801DA782EDCDB224890F86009E07135
:1055800008EB8800401CA071A079811D601C03F00D
:1055900073FA84F8F700CA2084F8F8003046BDE8B2
:1055A000F88370B505460C4600265C2020706878AC
:1055B0001349087168786070D5F80200C4F80200D9
:1055C0000846D5F8021001600120A071E879022890
:1055D0002DDA14210A48401D04F0BBF900200849C7
:1055E000487600223046711CCEB2E11D0A54E8799B
:1055F000012817D1034981F864092AE0E806002050
:10560000140E0020E43C0020C8030020D10000203C
:10561000640F0020E6080020ACA80008AFA800082E
:10562000CDA800080020FE4981F8640911E014218A
:10563000FC4804F08EF90020FA49491F48760122FF
:105640003046711CCEB2E11D0A540020F44981F8A5
:105650006409B11D601C03F00FFA84F8F700CA203A
:1056600084F8F80070BD70B505460C4600265C2035
:1056700020706878EB49491F087168786070D5F828
:105680000200C4F802000846D5F8021001600120AB
:10569000A0711422E91DE34804F042F90120E14918
:1056A000491F4876DE4981F8640900223146761C9C
:1056B000E01D4254B11D601C03F0DEF984F8F700D0
:1056C000CA2084F8F80070BD70B505460C46002667
:1056D0005C2020706878252802D027280AD104E0B1
:1056E0000120CF4981F8630905E00020CC4981F809
:1056F000630900E000BF00BF6878CA49491F08710C
:1057000068786070D5F80200C4F802000846D5F841
:10571000021001600120A07100223046711CCEB23F
:10572000E11D0A54B11D601C03F0A6F984F8F700CE
:10573000CA2084F8F80070BD2DE9F04105460C46FA
:10574000E71D0026B0465C2020706878232804D12D
:105750000120B34981F8610903E00020B04981F8D4
:10576000610968786070D5F80200C4F80200012071
:10577000A071AB4991F8610904F00BF88046B8F1CB
:10578000000F05D100223046711CCEB23A5404E01D
:1057900001223046711CCEB23A54B11D601C03F098
:1057A0006BF984F8F700CA2084F8F800BDE8F081AE
:1057B0002DE9F04106460C46E71D0025A84603F0FA
:1057C000F7FF80465C20207022206070D6F802002F
:1057D000C4F802000120A071B8F1000F05D1002229
:1057E0002846691CCDB23A5404E001222846691CBF
:1057F000CDB23A54A91D601C03F03EF984F8F700BD
:10580000CA2084F8F800BDE8F0812DE9F04F85B09A
:1058100005460E4695F807B006F107090027002453
:10582000A0460020029082467FA103C9CDE9000175
:105830005C20307068787070D5F80200C6F80200FD
:105840000A20B07100BF6CE0012000EB8401E81D6C
:10585000405C8DF81000022000EB8401E81D405CE4
:105860008DF81100032000EB8401E81D405C8DF8E9
:105870001200042000EB8401E81D405C8DF8130049
:105880006878202804D103A904A803F0F1FF02904E
:105890006878212803D104A803F0D9FF0290029868
:1058A00001281CD1E21704EB5272D2101DF802201D
:1058B0004046431C03F0FF08C31700EB5373DB1093
:1058C000A0EBC30C012303FA0CF31A43D2B2214616
:1058D000E31704EB5373DB100DF803201FE0E2170E
:1058E00004EB5272D2101DF802204046431C03F014
:1058F000FF08C31700EB5373DB10A0EBC30C6FF072
:10590000010303FA0CF31A402146E31704EB537327
:10591000DB100DF803200AF1010000F0FF0A601C03
:10592000C4B25C4590DB3846791CCFB209F800A0C0
:10593000002408E01DF804203846791CCFB209F88D
:105940000020601CC4B2082CF4DB354890F86029B4
:105950003846791CCFB209F80020B91D701C03F03D
:105960008BF886F8F700CA2086F8F80005B0BDE885
:10597000F08F2DE9F04106460C460025E71D2C4826
:105980000178401C03F0E5FF0020294908705C20E5
:10599000207070786070D6F80200C4F8020003200E
:1059A000A07101F05DF923480021016020480178D1
:1059B000401C03F0CEFF002000F075FB00222946BA
:1059C0006D1C7A54164890F8612929466D1C7A544A
:1059D00090F8602929466D1C7A54A91D601C03F0BB
:1059E0004BF884F8F700CA2084F8F800BDE8F0818D
:1059F0002DE9FE4F04460D460026EF1D00200290C3
:105A0000804600F057FB814601F081F9824649EA61
:105A10000A08A07906490870A279E11D04480BE044
:105A2000E43C0020190E0020FFFFFFFFFFFFFFFFF7
:105A3000CD15002072100020401C03F071FFB8F15A
:105A4000000F28D1607B102806D0112805D012281D
:105A500004D013281DD102E000BF00BF00BF5C20AE
:105A6000F849087060784870D4F80200C5F8020060
:105A7000A0798871A279E11DF248C01D03F050FFA2
:105A800094F8F700EF4981F8F700CA2081F8F80090
:105A900000E000BF00BF207A28B9607A18B9A07A68
:105AA00008B9E07A30B10120E7490870E749A068F9
:105AB000086005E00020E4490870E549A068086036
:105AC0005C20287060786870D4F80200C5F8020085
:105AD0000320A871B8F1000F05D100223046711CD7
